{
	"contracts/Hangman.sol": {
		"Hangman": {
			"abi": [
				{
					"anonymous": false,
					"inputs": [
						{
							"indexed": true,
							"internalType": "address",
							"name": "player",
							"type": "address"
						},
						{
							"indexed": false,
							"internalType": "uint8",
							"name": "length",
							"type": "uint8"
						},
						{
							"indexed": false,
							"internalType": "bytes",
							"name": "mask",
							"type": "bytes"
						}
					],
					"name": "GameStarted",
					"type": "event"
				},
				{
					"anonymous": false,
					"inputs": [
						{
							"indexed": true,
							"internalType": "address",
							"name": "player",
							"type": "address"
						},
						{
							"indexed": false,
							"internalType": "bytes1",
							"name": "letter",
							"type": "bytes1"
						},
						{
							"indexed": false,
							"internalType": "bool",
							"name": "correct",
							"type": "bool"
						},
						{
							"indexed": false,
							"internalType": "bytes",
							"name": "mask",
							"type": "bytes"
						},
						{
							"indexed": false,
							"internalType": "uint8",
							"name": "wrongGuesses",
							"type": "uint8"
						},
						{
							"indexed": false,
							"internalType": "enum Hangman.Status",
							"name": "status",
							"type": "uint8"
						}
					],
					"name": "LetterGuessed",
					"type": "event"
				},
				{
					"inputs": [],
					"name": "MAX_LEN",
					"outputs": [
						{
							"internalType": "uint8",
							"name": "",
							"type": "uint8"
						}
					],
					"stateMutability": "view",
					"type": "function"
				},
				{
					"inputs": [],
					"name": "MAX_WRONG_GUESSES",
					"outputs": [
						{
							"internalType": "uint8",
							"name": "",
							"type": "uint8"
						}
					],
					"stateMutability": "view",
					"type": "function"
				},
				{
					"inputs": [],
					"name": "MIN_LEN",
					"outputs": [
						{
							"internalType": "uint8",
							"name": "",
							"type": "uint8"
						}
					],
					"stateMutability": "view",
					"type": "function"
				},
				{
					"inputs": [],
					"name": "getMyGame",
					"outputs": [
						{
							"internalType": "enum Hangman.Status",
							"name": "status",
							"type": "uint8"
						},
						{
							"internalType": "uint8",
							"name": "length",
							"type": "uint8"
						},
						{
							"internalType": "uint8",
							"name": "wrongGuesses",
							"type": "uint8"
						},
						{
							"internalType": "bytes",
							"name": "mask",
							"type": "bytes"
						},
						{
							"internalType": "uint32",
							"name": "guessedMask",
							"type": "uint32"
						},
						{
							"internalType": "uint32",
							"name": "correctMask",
							"type": "uint32"
						},
						{
							"internalType": "uint32",
							"name": "wrongMask",
							"type": "uint32"
						}
					],
					"stateMutability": "view",
					"type": "function"
				},
				{
					"inputs": [
						{
							"internalType": "string",
							"name": "_letter",
							"type": "string"
						}
					],
					"name": "guessLetter",
					"outputs": [],
					"stateMutability": "nonpayable",
					"type": "function"
				},
				{
					"inputs": [],
					"name": "startGame",
					"outputs": [],
					"stateMutability": "nonpayable",
					"type": "function"
				}
			],
			"devdoc": {
				"kind": "dev",
				"methods": {},
				"version": 1
			},
			"evm": {
				"assembly": "    /* \"contracts/Hangman.sol\":61:8002  contract Hangman {... */\n  mstore(0x40, 0x80)\n    /* \"contracts/Hangman.sol\":686:1795  string[] private DICT = [... */\n  mload(0x40)\n  dup1\n  0x0540\n  add\n  0x40\n  mstore\n  dup1\n  mload(0x40)\n  dup1\n  0x40\n  add\n  0x40\n  mstore\n  dup1\n  0x04\n  dup2\n  mstore\n  0x20\n  add\n  0x67616d6500000000000000000000000000000000000000000000000000000000\n  dup2\n  mstore\n  pop\n  dup2\n  mstore\n  0x20\n  add\n  mload(0x40)\n  dup1\n  0x40\n  add\n  0x40\n  mstore\n  dup1\n  0x04\n  dup2\n  mstore\n  0x20\n  add\n  0x6e6f646500000000000000000000000000000000000000000000000000000000\n  dup2\n  mstore\n  pop\n  dup2\n  mstore\n  0x20\n  add\n  mload(0x40)\n  dup1\n  0x40\n  add\n  0x40\n  mstore\n  dup1\n  0x04\n  dup2\n  mstore\n  0x20\n  add\n  0x6861736800000000000000000000000000000000000000000000000000000000\n  dup2\n  mstore\n  pop\n  dup2\n  mstore\n  0x20\n  add\n  mload(0x40)\n  dup1\n  0x40\n  add\n  0x40\n  mstore\n  dup1\n  0x04\n  dup2\n  mstore\n  0x20\n  add\n  0x6279746500000000000000000000000000000000000000000000000000000000\n  dup2\n  mstore\n  pop\n  dup2\n  mstore\n  0x20\n  add\n  mload(0x40)\n  dup1\n  0x40\n  add\n  0x40\n  mstore\n  dup1\n  0x04\n  dup2\n  mstore\n  0x20\n  add\n  0x6d61736b00000000000000000000000000000000000000000000000000000000\n  dup2\n  mstore\n  pop\n  dup2\n  mstore\n  0x20\n  add\n  mload(0x40)\n  dup1\n  0x40\n  add\n  0x40\n  mstore\n  dup1\n  0x04\n  dup2\n  mstore\n  0x20\n  add\n  0x636f646500000000000000000000000000000000000000000000000000000000\n  dup2\n  mstore\n  pop\n  dup2\n  mstore\n  0x20\n  add\n  mload(0x40)\n  dup1\n  0x40\n  add\n  0x40\n  mstore\n  dup1\n  0x05\n  dup2\n  mstore\n  0x20\n  add\n  0x626c6f636b000000000000000000000000000000000000000000000000000000\n  dup2\n  mstore\n  pop\n  dup2\n  mstore\n  0x20\n  add\n  mload(0x40)\n  dup1\n  0x40\n  add\n  0x40\n  mstore\n  dup1\n  0x05\n  dup2\n  mstore\n  0x20\n  add\n  0x636861696e000000000000000000000000000000000000000000000000000000\n  dup2\n  mstore\n  pop\n  dup2\n  mstore\n  0x20\n  add\n  mload(0x40)\n  dup1\n  0x40\n  add\n  0x40\n  mstore\n  dup1\n  0x05\n  dup2\n  mstore\n  0x20\n  add\n  0x746f6b656e000000000000000000000000000000000000000000000000000000\n  dup2\n  mstore\n  pop\n  dup2\n  mstore\n  0x20\n  add\n  mload(0x40)\n  dup1\n  0x40\n  add\n  0x40\n  mstore\n  dup1\n  0x05\n  dup2\n  mstore\n  0x20\n  add\n  0x6d696e6572000000000000000000000000000000000000000000000000000000\n  dup2\n  mstore\n  pop\n  dup2\n  mstore\n  0x20\n  add\n  mload(0x40)\n  dup1\n  0x40\n  add\n  0x40\n  mstore\n  dup1\n  0x05\n  dup2\n  mstore\n  0x20\n  add\n  0x6775657373000000000000000000000000000000000000000000000000000000\n  dup2\n  mstore\n  pop\n  dup2\n  mstore\n  0x20\n  add\n  mload(0x40)\n  dup1\n  0x40\n  add\n  0x40\n  mstore\n  dup1\n  0x05\n  dup2\n  mstore\n  0x20\n  add\n  0x736f6c7665000000000000000000000000000000000000000000000000000000\n  dup2\n  mstore\n  pop\n  dup2\n  mstore\n  0x20\n  add\n  mload(0x40)\n  dup1\n  0x40\n  add\n  0x40\n  mstore\n  dup1\n  0x06\n  dup2\n  mstore\n  0x20\n  add\n  0x77616c6c65740000000000000000000000000000000000000000000000000000\n  dup2\n  mstore\n  pop\n  dup2\n  mstore\n  0x20\n  add\n  mload(0x40)\n  dup1\n  0x40\n  add\n  0x40\n  mstore\n  dup1\n  0x06\n  dup2\n  mstore\n  0x20\n  add\n  0x6c65646765720000000000000000000000000000000000000000000000000000\n  dup2\n  mstore\n  pop\n  dup2\n  mstore\n  0x20\n  add\n  mload(0x40)\n  dup1\n  0x40\n  add\n  0x40\n  mstore\n  dup1\n  0x06\n  dup2\n  mstore\n  0x20\n  add\n  0x63727970746f0000000000000000000000000000000000000000000000000000\n  dup2\n  mstore\n  pop\n  dup2\n  mstore\n  0x20\n  add\n  mload(0x40)\n  dup1\n  0x40\n  add\n  0x40\n  mstore\n  dup1\n  0x05\n  dup2\n  mstore\n  0x20\n  add\n  0x6e6f6e6365000000000000000000000000000000000000000000000000000000\n  dup2\n  mstore\n  pop\n  dup2\n  mstore\n  0x20\n  add\n  mload(0x40)\n  dup1\n  0x40\n  add\n  0x40\n  mstore\n  dup1\n  0x06\n  dup2\n  mstore\n  0x20\n  add\n  0x73656e6465720000000000000000000000000000000000000000000000000000\n  dup2\n  mstore\n  pop\n  dup2\n  mstore\n  0x20\n  add\n  mload(0x40)\n  dup1\n  0x40\n  add\n  0x40\n  mstore\n  dup1\n  0x06\n  dup2\n  mstore\n  0x20\n  add\n  0x7665726966790000000000000000000000000000000000000000000000000000\n  dup2\n  mstore\n  pop\n  dup2\n  mstore\n  0x20\n  add\n  mload(0x40)\n  dup1\n  0x40\n  add\n  0x40\n  mstore\n  dup1\n  0x07\n  dup2\n  mstore\n  0x20\n  add\n  0x6163636f756e7400000000000000000000000000000000000000000000000000\n  dup2\n  mstore\n  pop\n  dup2\n  mstore\n  0x20\n  add\n  mload(0x40)\n  dup1\n  0x40\n  add\n  0x40\n  mstore\n  dup1\n  0x07\n  dup2\n  mstore\n  0x20\n  add\n  0x62616c616e636500000000000000000000000000000000000000000000000000\n  dup2\n  mstore\n  pop\n  dup2\n  mstore\n  0x20\n  add\n  mload(0x40)\n  dup1\n  0x40\n  add\n  0x40\n  mstore\n  dup1\n  0x07\n  dup2\n  mstore\n  0x20\n  add\n  0x73746f7261676500000000000000000000000000000000000000000000000000\n  dup2\n  mstore\n  pop\n  dup2\n  mstore\n  0x20\n  add\n  mload(0x40)\n  dup1\n  0x40\n  add\n  0x40\n  mstore\n  dup1\n  0x07\n  dup2\n  mstore\n  0x20\n  add\n  0x636f6d70696c6500000000000000000000000000000000000000000000000000\n  dup2\n  mstore\n  pop\n  dup2\n  mstore\n  0x20\n  add\n  mload(0x40)\n  dup1\n  0x40\n  add\n  0x40\n  mstore\n  dup1\n  0x07\n  dup2\n  mstore\n  0x20\n  add\n  0x6578656375746500000000000000000000000000000000000000000000000000\n  dup2\n  mstore\n  pop\n  dup2\n  mstore\n  0x20\n  add\n  mload(0x40)\n  dup1\n  0x40\n  add\n  0x40\n  mstore\n  dup1\n  0x07\n  dup2\n  mstore\n  0x20\n  add\n  0x6e6574776f726b00000000000000000000000000000000000000000000000000\n  dup2\n  mstore\n  pop\n  dup2\n  mstore\n  0x20\n  add\n  mload(0x40)\n  dup1\n  0x40\n  add\n  0x40\n  mstore\n  dup1\n  0x08\n  dup2\n  mstore\n  0x20\n  add\n  0x636f6e7472616374000000000000000000000000000000000000000000000000\n  dup2\n  mstore\n  pop\n  dup2\n  mstore\n  0x20\n  add\n  mload(0x40)\n  dup1\n  0x40\n  add\n  0x40\n  mstore\n  dup1\n  0x08\n  dup2\n  mstore\n  0x20\n  add\n  0x66756e6374696f6e000000000000000000000000000000000000000000000000\n  dup2\n  mstore\n  pop\n  dup2\n  mstore\n  0x20\n  add\n  mload(0x40)\n  dup1\n  0x40\n  add\n  0x40\n  mstore\n  dup1\n  0x08\n  dup2\n  mstore\n  0x20\n  add\n  0x7661726961626c65000000000000000000000000000000000000000000000000\n  dup2\n  mstore\n  pop\n  dup2\n  mstore\n  0x20\n  add\n  mload(0x40)\n  dup1\n  0x40\n  add\n  0x40\n  mstore\n  dup1\n  0x08\n  dup2\n  mstore\n  0x20\n  add\n  0x6d6f646966696572000000000000000000000000000000000000000000000000\n  dup2\n  mstore\n  pop\n  dup2\n  mstore\n  0x20\n  add\n  mload(0x40)\n  dup1\n  0x40\n  add\n  0x40\n  mstore\n  dup1\n  0x08\n  dup2\n  mstore\n  0x20\n  add\n  0x6f766572666c6f77000000000000000000000000000000000000000000000000\n  dup2\n  mstore\n  pop\n  dup2\n  mstore\n  0x20\n  add\n  mload(0x40)\n  dup1\n  0x40\n  add\n  0x40\n  mstore\n  dup1\n  0x08\n  dup2\n  mstore\n  0x20\n  add\n  0x6761736c696d6974000000000000000000000000000000000000000000000000\n  dup2\n  mstore\n  pop\n  dup2\n  mstore\n  0x20\n  add\n  mload(0x40)\n  dup1\n  0x40\n  add\n  0x40\n  mstore\n  dup1\n  0x09\n  dup2\n  mstore\n  0x20\n  add\n  0x696d6d757461626c650000000000000000000000000000000000000000000000\n  dup2\n  mstore\n  pop\n  dup2\n  mstore\n  0x20\n  add\n  mload(0x40)\n  dup1\n  0x40\n  add\n  0x40\n  mstore\n  dup1\n  0x09\n  dup2\n  mstore\n  0x20\n  add\n  0x636f6e73656e7375730000000000000000000000000000000000000000000000\n  dup2\n  mstore\n  pop\n  dup2\n  mstore\n  0x20\n  add\n  mload(0x40)\n  dup1\n  0x40\n  add\n  0x40\n  mstore\n  dup1\n  0x09\n  dup2\n  mstore\n  0x20\n  add\n  0x626c6f636b74696d650000000000000000000000000000000000000000000000\n  dup2\n  mstore\n  pop\n  dup2\n  mstore\n  0x20\n  add\n  mload(0x40)\n  dup1\n  0x40\n  add\n  0x40\n  mstore\n  dup1\n  0x09\n  dup2\n  mstore\n  0x20\n  add\n  0x7369676e61747572650000000000000000000000000000000000000000000000\n  dup2\n  mstore\n  pop\n  dup2\n  mstore\n  0x20\n  add\n  mload(0x40)\n  dup1\n  0x40\n  add\n  0x40\n  mstore\n  dup1\n  0x0a\n  dup2\n  mstore\n  0x20\n  add\n  0x6465706c6f796d656e7400000000000000000000000000000000000000000000\n  dup2\n  mstore\n  pop\n  dup2\n  mstore\n  0x20\n  add\n  mload(0x40)\n  dup1\n  0x40\n  add\n  0x40\n  mstore\n  dup1\n  0x09\n  dup2\n  mstore\n  0x20\n  add\n  0x696e746572666163650000000000000000000000000000000000000000000000\n  dup2\n  mstore\n  pop\n  dup2\n  mstore\n  0x20\n  add\n  mload(0x40)\n  dup1\n  0x40\n  add\n  0x40\n  mstore\n  dup1\n  0x0b\n  dup2\n  mstore\n  0x20\n  add\n  0x7472616e73616374696f6e000000000000000000000000000000000000000000\n  dup2\n  mstore\n  pop\n  dup2\n  mstore\n  0x20\n  add\n  mload(0x40)\n  dup1\n  0x40\n  add\n  0x40\n  mstore\n  dup1\n  0x0b\n  dup2\n  mstore\n  0x20\n  add\n  0x636f6e73747261696e7473000000000000000000000000000000000000000000\n  dup2\n  mstore\n  pop\n  dup2\n  mstore\n  0x20\n  add\n  mload(0x40)\n  dup1\n  0x40\n  add\n  0x40\n  mstore\n  dup1\n  0x0a\n  dup2\n  mstore\n  0x20\n  add\n  0x70726f6772616d6d657200000000000000000000000000000000000000000000\n  dup2\n  mstore\n  pop\n  dup2\n  mstore\n  0x20\n  add\n  mload(0x40)\n  dup1\n  0x40\n  add\n  0x40\n  mstore\n  dup1\n  0x0a\n  dup2\n  mstore\n  0x20\n  add\n  0x76616c69646174696f6e00000000000000000000000000000000000000000000\n  dup2\n  mstore\n  pop\n  dup2\n  mstore\n  0x20\n  add\n  mload(0x40)\n  dup1\n  0x40\n  add\n  0x40\n  mstore\n  dup1\n  0x09\n  dup2\n  mstore\n  0x20\n  add\n  0x63616c6c64617461780000000000000000000000000000000000000000000000\n  dup2\n  mstore\n  pop\n  dup2\n  mstore\n  0x20\n  add\n  mload(0x40)\n  dup1\n  0x40\n  add\n  0x40\n  mstore\n  dup1\n  0x0a\n  dup2\n  mstore\n  0x20\n  add\n  0x6162627265766961746500000000000000000000000000000000000000000000\n  dup2\n  mstore\n  pop\n  dup2\n  mstore\n  pop\n  0x01\n  swap1\n  0x2a\n  tag_1\n  swap3\n  swap2\n  swap1\n  tag_2\n  jump\t// in\ntag_1:\n  pop\n    /* \"contracts/Hangman.sol\":61:8002  contract Hangman {... */\n  callvalue\n  dup1\n  iszero\n  tag_3\n  jumpi\n  0x00\n  dup1\n  revert\ntag_3:\n  pop\n  jump(tag_4)\ntag_2:\n  dup3\n  dup1\n  sload\n  dup3\n  dup3\n  sstore\n  swap1\n  0x00\n  mstore\n  keccak256(0x00, 0x20)\n  swap1\n  dup2\n  add\n  swap3\n  dup3\n  iszero\n  tag_5\n  jumpi\n  swap2\n  0x20\n  mul\n  dup3\n  add\ntag_6:\n  dup3\n  dup2\n  gt\n  iszero\n  tag_7\n  jumpi\n  dup3\n  mload\n  dup3\n  swap1\n  dup2\n  tag_8\n  swap2\n  swap1\n  tag_9\n  jump\t// in\ntag_8:\n  pop\n  swap2\n  0x20\n  add\n  swap2\n  swap1\n  0x01\n  add\n  swap1\n  jump(tag_6)\ntag_7:\ntag_5:\n  pop\n  swap1\n  pop\n  tag_10\n  swap2\n  swap1\n  tag_11\n  jump\t// in\ntag_10:\n  pop\n  swap1\n  jump\t// out\ntag_11:\ntag_12:\n  dup1\n  dup3\n  gt\n  iszero\n  tag_13\n  jumpi\n  0x00\n  dup2\n  dup2\n  tag_14\n  swap2\n  swap1\n  tag_15\n  jump\t// in\ntag_14:\n  pop\n  0x01\n  add\n  jump(tag_12)\ntag_13:\n  pop\n  swap1\n  jump\t// out\ntag_15:\n  pop\n  dup1\n  sload\n  tag_16\n  swap1\n  tag_17\n  jump\t// in\ntag_16:\n  0x00\n  dup3\n  sstore\n  dup1\n  0x1f\n  lt\n  tag_19\n  jumpi\n  pop\n  jump(tag_18)\ntag_19:\n  0x1f\n  add\n  0x20\n  swap1\n  div\n  swap1\n  0x00\n  mstore\n  keccak256(0x00, 0x20)\n  swap1\n  dup2\n  add\n  swap1\n  tag_20\n  swap2\n  swap1\n  tag_21\n  jump\t// in\ntag_20:\ntag_18:\n  pop\n  jump\t// out\ntag_21:\ntag_22:\n  dup1\n  dup3\n  gt\n  iszero\n  tag_23\n  jumpi\n  0x00\n  dup2\n  0x00\n  swap1\n  sstore\n  pop\n  0x01\n  add\n  jump(tag_22)\ntag_23:\n  pop\n  swap1\n  jump\t// out\n    /* \"#utility.yul\":7:106   */\ntag_24:\n    /* \"#utility.yul\":59:65   */\n  0x00\n    /* \"#utility.yul\":93:98   */\n  dup2\n    /* \"#utility.yul\":87:99   */\n  mload\n    /* \"#utility.yul\":77:99   */\n  swap1\n  pop\n    /* \"#utility.yul\":7:106   */\n  swap2\n  swap1\n  pop\n  jump\t// out\n    /* \"#utility.yul\":112:292   */\ntag_25:\n    /* \"#utility.yul\":160:237   */\n  0x4e487b7100000000000000000000000000000000000000000000000000000000\n    /* \"#utility.yul\":157:158   */\n  0x00\n    /* \"#utility.yul\":150:238   */\n  mstore\n    /* \"#utility.yul\":257:261   */\n  0x41\n    /* \"#utility.yul\":254:255   */\n  0x04\n    /* \"#utility.yul\":247:262   */\n  mstore\n    /* \"#utility.yul\":281:285   */\n  0x24\n    /* \"#utility.yul\":278:279   */\n  0x00\n    /* \"#utility.yul\":271:286   */\n  revert\n    /* \"#utility.yul\":298:478   */\ntag_26:\n    /* \"#utility.yul\":346:423   */\n  0x4e487b7100000000000000000000000000000000000000000000000000000000\n    /* \"#utility.yul\":343:344   */\n  0x00\n    /* \"#utility.yul\":336:424   */\n  mstore\n    /* \"#utility.yul\":443:447   */\n  0x22\n    /* \"#utility.yul\":440:441   */\n  0x04\n    /* \"#utility.yul\":433:448   */\n  mstore\n    /* \"#utility.yul\":467:471   */\n  0x24\n    /* \"#utility.yul\":464:465   */\n  0x00\n    /* \"#utility.yul\":457:472   */\n  revert\n    /* \"#utility.yul\":484:804   */\ntag_17:\n    /* \"#utility.yul\":528:534   */\n  0x00\n    /* \"#utility.yul\":565:566   */\n  0x02\n    /* \"#utility.yul\":559:563   */\n  dup3\n    /* \"#utility.yul\":555:567   */\n  div\n    /* \"#utility.yul\":545:567   */\n  swap1\n  pop\n    /* \"#utility.yul\":612:613   */\n  0x01\n    /* \"#utility.yul\":606:610   */\n  dup3\n    /* \"#utility.yul\":602:614   */\n  and\n    /* \"#utility.yul\":633:651   */\n  dup1\n    /* \"#utility.yul\":623:704   */\n  tag_48\n  jumpi\n    /* \"#utility.yul\":689:693   */\n  0x7f\n    /* \"#utility.yul\":681:687   */\n  dup3\n    /* \"#utility.yul\":677:694   */\n  and\n    /* \"#utility.yul\":667:694   */\n  swap2\n  pop\n    /* \"#utility.yul\":623:704   */\ntag_48:\n    /* \"#utility.yul\":751:753   */\n  0x20\n    /* \"#utility.yul\":743:749   */\n  dup3\n    /* \"#utility.yul\":740:754   */\n  lt\n    /* \"#utility.yul\":720:738   */\n  dup2\n    /* \"#utility.yul\":717:755   */\n  sub\n    /* \"#utility.yul\":714:798   */\n  tag_49\n  jumpi\n    /* \"#utility.yul\":770:788   */\n  tag_50\n  tag_26\n  jump\t// in\ntag_50:\n    /* \"#utility.yul\":714:798   */\ntag_49:\n    /* \"#utility.yul\":535:804   */\n  pop\n    /* \"#utility.yul\":484:804   */\n  swap2\n  swap1\n  pop\n  jump\t// out\n    /* \"#utility.yul\":810:951   */\ntag_27:\n    /* \"#utility.yul\":859:863   */\n  0x00\n    /* \"#utility.yul\":882:885   */\n  dup2\n    /* \"#utility.yul\":874:885   */\n  swap1\n  pop\n    /* \"#utility.yul\":905:908   */\n  dup2\n    /* \"#utility.yul\":902:903   */\n  0x00\n    /* \"#utility.yul\":895:909   */\n  mstore\n    /* \"#utility.yul\":939:943   */\n  0x20\n    /* \"#utility.yul\":936:937   */\n  0x00\n    /* \"#utility.yul\":926:944   */\n  keccak256\n    /* \"#utility.yul\":918:944   */\n  swap1\n  pop\n    /* \"#utility.yul\":810:951   */\n  swap2\n  swap1\n  pop\n  jump\t// out\n    /* \"#utility.yul\":957:1050   */\ntag_28:\n    /* \"#utility.yul\":994:1000   */\n  0x00\n    /* \"#utility.yul\":1041:1043   */\n  0x20\n    /* \"#utility.yul\":1036:1038   */\n  0x1f\n    /* \"#utility.yul\":1029:1034   */\n  dup4\n    /* \"#utility.yul\":1025:1039   */\n  add\n    /* \"#utility.yul\":1021:1044   */\n  div\n    /* \"#utility.yul\":1011:1044   */\n  swap1\n  pop\n    /* \"#utility.yul\":957:1050   */\n  swap2\n  swap1\n  pop\n  jump\t// out\n    /* \"#utility.yul\":1056:1163   */\ntag_29:\n    /* \"#utility.yul\":1100:1108   */\n  0x00\n    /* \"#utility.yul\":1150:1155   */\n  dup3\n    /* \"#utility.yul\":1144:1148   */\n  dup3\n    /* \"#utility.yul\":1140:1156   */\n  shl\n    /* \"#utility.yul\":1119:1156   */\n  swap1\n  pop\n    /* \"#utility.yul\":1056:1163   */\n  swap3\n  swap2\n  pop\n  pop\n  jump\t// out\n    /* \"#utility.yul\":1169:1562   */\ntag_30:\n    /* \"#utility.yul\":1238:1244   */\n  0x00\n    /* \"#utility.yul\":1288:1289   */\n  0x08\n    /* \"#utility.yul\":1276:1286   */\n  dup4\n    /* \"#utility.yul\":1272:1290   */\n  mul\n    /* \"#utility.yul\":1311:1408   */\n  tag_55\n    /* \"#utility.yul\":1341:1407   */\n  0xffffffffffffffffffffffffffffffffffffffffffffffffffffffffffffffff\n    /* \"#utility.yul\":1330:1339   */\n  dup3\n    /* \"#utility.yul\":1311:1408   */\n  tag_29\n  jump\t// in\ntag_55:\n    /* \"#utility.yul\":1429:1468   */\n  tag_56\n    /* \"#utility.yul\":1459:1467   */\n  dup7\n    /* \"#utility.yul\":1448:1457   */\n  dup4\n    /* \"#utility.yul\":1429:1468   */\n  tag_29\n  jump\t// in\ntag_56:\n    /* \"#utility.yul\":1417:1468   */\n  swap6\n  pop\n    /* \"#utility.yul\":1501:1505   */\n  dup1\n    /* \"#utility.yul\":1497:1506   */\n  not\n    /* \"#utility.yul\":1490:1495   */\n  dup5\n    /* \"#utility.yul\":1486:1507   */\n  and\n    /* \"#utility.yul\":1477:1507   */\n  swap4\n  pop\n    /* \"#utility.yul\":1550:1554   */\n  dup1\n    /* \"#utility.yul\":1540:1548   */\n  dup7\n    /* \"#utility.yul\":1536:1555   */\n  and\n    /* \"#utility.yul\":1529:1534   */\n  dup5\n    /* \"#utility.yul\":1526:1556   */\n  or\n    /* \"#utility.yul\":1516:1556   */\n  swap3\n  pop\n    /* \"#utility.yul\":1245:1562   */\n  pop\n  pop\n    /* \"#utility.yul\":1169:1562   */\n  swap4\n  swap3\n  pop\n  pop\n  pop\n  jump\t// out\n    /* \"#utility.yul\":1568:1645   */\ntag_31:\n    /* \"#utility.yul\":1605:1612   */\n  0x00\n    /* \"#utility.yul\":1634:1639   */\n  dup2\n    /* \"#utility.yul\":1623:1639   */\n  swap1\n  pop\n    /* \"#utility.yul\":1568:1645   */\n  swap2\n  swap1\n  pop\n  jump\t// out\n    /* \"#utility.yul\":1651:1711   */\ntag_32:\n    /* \"#utility.yul\":1679:1682   */\n  0x00\n    /* \"#utility.yul\":1700:1705   */\n  dup2\n    /* \"#utility.yul\":1693:1705   */\n  swap1\n  pop\n    /* \"#utility.yul\":1651:1711   */\n  swap2\n  swap1\n  pop\n  jump\t// out\n    /* \"#utility.yul\":1717:1859   */\ntag_33:\n    /* \"#utility.yul\":1767:1776   */\n  0x00\n    /* \"#utility.yul\":1800:1853   */\n  tag_60\n    /* \"#utility.yul\":1818:1852   */\n  tag_61\n    /* \"#utility.yul\":1827:1851   */\n  tag_62\n    /* \"#utility.yul\":1845:1850   */\n  dup5\n    /* \"#utility.yul\":1827:1851   */\n  tag_31\n  jump\t// in\ntag_62:\n    /* \"#utility.yul\":1818:1852   */\n  tag_32\n  jump\t// in\ntag_61:\n    /* \"#utility.yul\":1800:1853   */\n  tag_31\n  jump\t// in\ntag_60:\n    /* \"#utility.yul\":1787:1853   */\n  swap1\n  pop\n    /* \"#utility.yul\":1717:1859   */\n  swap2\n  swap1\n  pop\n  jump\t// out\n    /* \"#utility.yul\":1865:1940   */\ntag_34:\n    /* \"#utility.yul\":1908:1911   */\n  0x00\n    /* \"#utility.yul\":1929:1934   */\n  dup2\n    /* \"#utility.yul\":1922:1934   */\n  swap1\n  pop\n    /* \"#utility.yul\":1865:1940   */\n  swap2\n  swap1\n  pop\n  jump\t// out\n    /* \"#utility.yul\":1946:2215   */\ntag_35:\n    /* \"#utility.yul\":2056:2095   */\n  tag_65\n    /* \"#utility.yul\":2087:2094   */\n  dup4\n    /* \"#utility.yul\":2056:2095   */\n  tag_33\n  jump\t// in\ntag_65:\n    /* \"#utility.yul\":2117:2208   */\n  tag_66\n    /* \"#utility.yul\":2166:2207   */\n  tag_67\n    /* \"#utility.yul\":2190:2206   */\n  dup3\n    /* \"#utility.yul\":2166:2207   */\n  tag_34\n  jump\t// in\ntag_67:\n    /* \"#utility.yul\":2158:2164   */\n  dup5\n    /* \"#utility.yul\":2151:2155   */\n  dup5\n    /* \"#utility.yul\":2145:2156   */\n  sload\n    /* \"#utility.yul\":2117:2208   */\n  tag_30\n  jump\t// in\ntag_66:\n    /* \"#utility.yul\":2111:2115   */\n  dup3\n    /* \"#utility.yul\":2104:2209   */\n  sstore\n    /* \"#utility.yul\":2022:2215   */\n  pop\n    /* \"#utility.yul\":1946:2215   */\n  pop\n  pop\n  pop\n  jump\t// out\n    /* \"#utility.yul\":2221:2294   */\ntag_36:\n    /* \"#utility.yul\":2266:2269   */\n  0x00\n    /* \"#utility.yul\":2221:2294   */\n  swap1\n  jump\t// out\n    /* \"#utility.yul\":2300:2489   */\ntag_37:\n    /* \"#utility.yul\":2377:2409   */\n  tag_70\n  tag_36\n  jump\t// in\ntag_70:\n    /* \"#utility.yul\":2418:2483   */\n  tag_71\n    /* \"#utility.yul\":2476:2482   */\n  dup2\n    /* \"#utility.yul\":2468:2474   */\n  dup5\n    /* \"#utility.yul\":2462:2466   */\n  dup5\n    /* \"#utility.yul\":2418:2483   */\n  tag_35\n  jump\t// in\ntag_71:\n    /* \"#utility.yul\":2353:2489   */\n  pop\n    /* \"#utility.yul\":2300:2489   */\n  pop\n  pop\n  jump\t// out\n    /* \"#utility.yul\":2495:2681   */\ntag_38:\n    /* \"#utility.yul\":2555:2675   */\ntag_73:\n    /* \"#utility.yul\":2572:2575   */\n  dup2\n    /* \"#utility.yul\":2565:2570   */\n  dup2\n    /* \"#utility.yul\":2562:2576   */\n  lt\n    /* \"#utility.yul\":2555:2675   */\n  iszero\n  tag_75\n  jumpi\n    /* \"#utility.yul\":2626:2665   */\n  tag_76\n    /* \"#utility.yul\":2663:2664   */\n  0x00\n    /* \"#utility.yul\":2656:2661   */\n  dup3\n    /* \"#utility.yul\":2626:2665   */\n  tag_37\n  jump\t// in\ntag_76:\n    /* \"#utility.yul\":2599:2600   */\n  0x01\n    /* \"#utility.yul\":2592:2597   */\n  dup2\n    /* \"#utility.yul\":2588:2601   */\n  add\n    /* \"#utility.yul\":2579:2601   */\n  swap1\n  pop\n    /* \"#utility.yul\":2555:2675   */\n  jump(tag_73)\ntag_75:\n    /* \"#utility.yul\":2495:2681   */\n  pop\n  pop\n  jump\t// out\n    /* \"#utility.yul\":2687:3230   */\ntag_39:\n    /* \"#utility.yul\":2788:2790   */\n  0x1f\n    /* \"#utility.yul\":2783:2786   */\n  dup3\n    /* \"#utility.yul\":2780:2791   */\n  gt\n    /* \"#utility.yul\":2777:3223   */\n  iszero\n  tag_78\n  jumpi\n    /* \"#utility.yul\":2822:2860   */\n  tag_79\n    /* \"#utility.yul\":2854:2859   */\n  dup2\n    /* \"#utility.yul\":2822:2860   */\n  tag_27\n  jump\t// in\ntag_79:\n    /* \"#utility.yul\":2906:2935   */\n  tag_80\n    /* \"#utility.yul\":2924:2934   */\n  dup5\n    /* \"#utility.yul\":2906:2935   */\n  tag_28\n  jump\t// in\ntag_80:\n    /* \"#utility.yul\":2896:2904   */\n  dup2\n    /* \"#utility.yul\":2892:2936   */\n  add\n    /* \"#utility.yul\":3089:3091   */\n  0x20\n    /* \"#utility.yul\":3077:3087   */\n  dup6\n    /* \"#utility.yul\":3074:3092   */\n  lt\n    /* \"#utility.yul\":3071:3120   */\n  iszero\n  tag_81\n  jumpi\n    /* \"#utility.yul\":3110:3118   */\n  dup2\n    /* \"#utility.yul\":3095:3118   */\n  swap1\n  pop\n    /* \"#utility.yul\":3071:3120   */\ntag_81:\n    /* \"#utility.yul\":3133:3213   */\n  tag_82\n    /* \"#utility.yul\":3189:3211   */\n  tag_83\n    /* \"#utility.yul\":3207:3210   */\n  dup6\n    /* \"#utility.yul\":3189:3211   */\n  tag_28\n  jump\t// in\ntag_83:\n    /* \"#utility.yul\":3179:3187   */\n  dup4\n    /* \"#utility.yul\":3175:3212   */\n  add\n    /* \"#utility.yul\":3162:3173   */\n  dup3\n    /* \"#utility.yul\":3133:3213   */\n  tag_38\n  jump\t// in\ntag_82:\n    /* \"#utility.yul\":2792:3223   */\n  pop\n  pop\n    /* \"#utility.yul\":2777:3223   */\ntag_78:\n    /* \"#utility.yul\":2687:3230   */\n  pop\n  pop\n  pop\n  jump\t// out\n    /* \"#utility.yul\":3236:3353   */\ntag_40:\n    /* \"#utility.yul\":3290:3298   */\n  0x00\n    /* \"#utility.yul\":3340:3345   */\n  dup3\n    /* \"#utility.yul\":3334:3338   */\n  dup3\n    /* \"#utility.yul\":3330:3346   */\n  shr\n    /* \"#utility.yul\":3309:3346   */\n  swap1\n  pop\n    /* \"#utility.yul\":3236:3353   */\n  swap3\n  swap2\n  pop\n  pop\n  jump\t// out\n    /* \"#utility.yul\":3359:3528   */\ntag_41:\n    /* \"#utility.yul\":3403:3409   */\n  0x00\n    /* \"#utility.yul\":3436:3487   */\n  tag_86\n    /* \"#utility.yul\":3484:3485   */\n  0x00\n    /* \"#utility.yul\":3480:3486   */\n  not\n    /* \"#utility.yul\":3472:3477   */\n  dup5\n    /* \"#utility.yul\":3469:3470   */\n  0x08\n    /* \"#utility.yul\":3465:3478   */\n  mul\n    /* \"#utility.yul\":3436:3487   */\n  tag_40\n  jump\t// in\ntag_86:\n    /* \"#utility.yul\":3432:3488   */\n  not\n    /* \"#utility.yul\":3517:3521   */\n  dup1\n    /* \"#utility.yul\":3511:3515   */\n  dup4\n    /* \"#utility.yul\":3507:3522   */\n  and\n    /* \"#utility.yul\":3497:3522   */\n  swap2\n  pop\n    /* \"#utility.yul\":3410:3528   */\n  pop\n    /* \"#utility.yul\":3359:3528   */\n  swap3\n  swap2\n  pop\n  pop\n  jump\t// out\n    /* \"#utility.yul\":3533:3828   */\ntag_42:\n    /* \"#utility.yul\":3609:3613   */\n  0x00\n    /* \"#utility.yul\":3755:3784   */\n  tag_88\n    /* \"#utility.yul\":3780:3783   */\n  dup4\n    /* \"#utility.yul\":3774:3778   */\n  dup4\n    /* \"#utility.yul\":3755:3784   */\n  tag_41\n  jump\t// in\ntag_88:\n    /* \"#utility.yul\":3747:3784   */\n  swap2\n  pop\n    /* \"#utility.yul\":3817:3820   */\n  dup3\n    /* \"#utility.yul\":3814:3815   */\n  0x02\n    /* \"#utility.yul\":3810:3821   */\n  mul\n    /* \"#utility.yul\":3804:3808   */\n  dup3\n    /* \"#utility.yul\":3801:3822   */\n  or\n    /* \"#utility.yul\":3793:3822   */\n  swap1\n  pop\n    /* \"#utility.yul\":3533:3828   */\n  swap3\n  swap2\n  pop\n  pop\n  jump\t// out\n    /* \"#utility.yul\":3833:5228   */\ntag_9:\n    /* \"#utility.yul\":3950:3987   */\n  tag_90\n    /* \"#utility.yul\":3983:3986   */\n  dup3\n    /* \"#utility.yul\":3950:3987   */\n  tag_24\n  jump\t// in\ntag_90:\n    /* \"#utility.yul\":4052:4070   */\n  0xffffffffffffffff\n    /* \"#utility.yul\":4044:4050   */\n  dup2\n    /* \"#utility.yul\":4041:4071   */\n  gt\n    /* \"#utility.yul\":4038:4094   */\n  iszero\n  tag_91\n  jumpi\n    /* \"#utility.yul\":4074:4092   */\n  tag_92\n  tag_25\n  jump\t// in\ntag_92:\n    /* \"#utility.yul\":4038:4094   */\ntag_91:\n    /* \"#utility.yul\":4118:4156   */\n  tag_93\n    /* \"#utility.yul\":4150:4154   */\n  dup3\n    /* \"#utility.yul\":4144:4155   */\n  sload\n    /* \"#utility.yul\":4118:4156   */\n  tag_17\n  jump\t// in\ntag_93:\n    /* \"#utility.yul\":4203:4270   */\n  tag_94\n    /* \"#utility.yul\":4263:4269   */\n  dup3\n    /* \"#utility.yul\":4255:4261   */\n  dup3\n    /* \"#utility.yul\":4249:4253   */\n  dup6\n    /* \"#utility.yul\":4203:4270   */\n  tag_39\n  jump\t// in\ntag_94:\n    /* \"#utility.yul\":4297:4298   */\n  0x00\n    /* \"#utility.yul\":4321:4325   */\n  0x20\n    /* \"#utility.yul\":4308:4325   */\n  swap1\n  pop\n    /* \"#utility.yul\":4353:4355   */\n  0x1f\n    /* \"#utility.yul\":4345:4351   */\n  dup4\n    /* \"#utility.yul\":4342:4356   */\n  gt\n    /* \"#utility.yul\":4370:4371   */\n  0x01\n    /* \"#utility.yul\":4365:4983   */\n  dup2\n  eq\n  tag_96\n  jumpi\n    /* \"#utility.yul\":5027:5028   */\n  0x00\n    /* \"#utility.yul\":5044:5050   */\n  dup5\n    /* \"#utility.yul\":5041:5118   */\n  iszero\n  tag_97\n  jumpi\n    /* \"#utility.yul\":5093:5102   */\n  dup3\n    /* \"#utility.yul\":5088:5091   */\n  dup8\n    /* \"#utility.yul\":5084:5103   */\n  add\n    /* \"#utility.yul\":5078:5104   */\n  mload\n    /* \"#utility.yul\":5069:5104   */\n  swap1\n  pop\n    /* \"#utility.yul\":5041:5118   */\ntag_97:\n    /* \"#utility.yul\":5144:5211   */\n  tag_98\n    /* \"#utility.yul\":5204:5210   */\n  dup6\n    /* \"#utility.yul\":5197:5202   */\n  dup3\n    /* \"#utility.yul\":5144:5211   */\n  tag_42\n  jump\t// in\ntag_98:\n    /* \"#utility.yul\":5138:5142   */\n  dup7\n    /* \"#utility.yul\":5131:5212   */\n  sstore\n    /* \"#utility.yul\":5000:5222   */\n  pop\n    /* \"#utility.yul\":4335:5222   */\n  jump(tag_95)\n    /* \"#utility.yul\":4365:4983   */\ntag_96:\n    /* \"#utility.yul\":4417:4421   */\n  0x1f\n    /* \"#utility.yul\":4413:4422   */\n  not\n    /* \"#utility.yul\":4405:4411   */\n  dup5\n    /* \"#utility.yul\":4401:4423   */\n  and\n    /* \"#utility.yul\":4451:4488   */\n  tag_99\n    /* \"#utility.yul\":4483:4487   */\n  dup7\n    /* \"#utility.yul\":4451:4488   */\n  tag_27\n  jump\t// in\ntag_99:\n    /* \"#utility.yul\":4510:4511   */\n  0x00\n    /* \"#utility.yul\":4524:4732   */\ntag_100:\n    /* \"#utility.yul\":4538:4545   */\n  dup3\n    /* \"#utility.yul\":4535:4536   */\n  dup2\n    /* \"#utility.yul\":4532:4546   */\n  lt\n    /* \"#utility.yul\":4524:4732   */\n  iszero\n  tag_102\n  jumpi\n    /* \"#utility.yul\":4617:4626   */\n  dup5\n    /* \"#utility.yul\":4612:4615   */\n  dup10\n    /* \"#utility.yul\":4608:4627   */\n  add\n    /* \"#utility.yul\":4602:4628   */\n  mload\n    /* \"#utility.yul\":4594:4600   */\n  dup3\n    /* \"#utility.yul\":4587:4629   */\n  sstore\n    /* \"#utility.yul\":4668:4669   */\n  0x01\n    /* \"#utility.yul\":4660:4666   */\n  dup3\n    /* \"#utility.yul\":4656:4670   */\n  add\n    /* \"#utility.yul\":4646:4670   */\n  swap2\n  pop\n    /* \"#utility.yul\":4715:4717   */\n  0x20\n    /* \"#utility.yul\":4704:4713   */\n  dup6\n    /* \"#utility.yul\":4700:4718   */\n  add\n    /* \"#utility.yul\":4687:4718   */\n  swap5\n  pop\n    /* \"#utility.yul\":4561:4565   */\n  0x20\n    /* \"#utility.yul\":4558:4559   */\n  dup2\n    /* \"#utility.yul\":4554:4566   */\n  add\n    /* \"#utility.yul\":4549:4566   */\n  swap1\n  pop\n    /* \"#utility.yul\":4524:4732   */\n  jump(tag_100)\ntag_102:\n    /* \"#utility.yul\":4760:4766   */\n  dup7\n    /* \"#utility.yul\":4751:4758   */\n  dup4\n    /* \"#utility.yul\":4748:4767   */\n  lt\n    /* \"#utility.yul\":4745:4924   */\n  iszero\n  tag_103\n  jumpi\n    /* \"#utility.yul\":4818:4827   */\n  dup5\n    /* \"#utility.yul\":4813:4816   */\n  dup10\n    /* \"#utility.yul\":4809:4828   */\n  add\n    /* \"#utility.yul\":4803:4829   */\n  mload\n    /* \"#utility.yul\":4861:4909   */\n  tag_104\n    /* \"#utility.yul\":4903:4907   */\n  0x1f\n    /* \"#utility.yul\":4895:4901   */\n  dup10\n    /* \"#utility.yul\":4891:4908   */\n  and\n    /* \"#utility.yul\":4880:4889   */\n  dup3\n    /* \"#utility.yul\":4861:4909   */\n  tag_41\n  jump\t// in\ntag_104:\n    /* \"#utility.yul\":4853:4859   */\n  dup4\n    /* \"#utility.yul\":4846:4910   */\n  sstore\n    /* \"#utility.yul\":4768:4924   */\n  pop\n    /* \"#utility.yul\":4745:4924   */\ntag_103:\n    /* \"#utility.yul\":4970:4971   */\n  0x01\n    /* \"#utility.yul\":4966:4967   */\n  0x02\n    /* \"#utility.yul\":4958:4964   */\n  dup9\n    /* \"#utility.yul\":4954:4968   */\n  mul\n    /* \"#utility.yul\":4950:4972   */\n  add\n    /* \"#utility.yul\":4944:4948   */\n  dup9\n    /* \"#utility.yul\":4937:4973   */\n  sstore\n    /* \"#utility.yul\":4372:4983   */\n  pop\n  pop\n  pop\n    /* \"#utility.yul\":4335:5222   */\ntag_95:\n  pop\n    /* \"#utility.yul\":3925:5228   */\n  pop\n  pop\n  pop\n    /* \"#utility.yul\":3833:5228   */\n  pop\n  pop\n  jump\t// out\n    /* \"contracts/Hangman.sol\":61:8002  contract Hangman {... */\ntag_4:\n  dataSize(sub_0)\n  dup1\n  dataOffset(sub_0)\n  0x00\n  codecopy\n  0x00\n  return\nstop\n\nsub_0: assembly {\n        /* \"contracts/Hangman.sol\":61:8002  contract Hangman {... */\n      mstore(0x40, 0x80)\n      callvalue\n      dup1\n      iszero\n      tag_1\n      jumpi\n      0x00\n      dup1\n      revert\n    tag_1:\n      pop\n      jumpi(tag_2, lt(calldatasize, 0x04))\n      shr(0xe0, calldataload(0x00))\n      dup1\n      0x02056c8b\n      eq\n      tag_3\n      jumpi\n      dup1\n      0x5d0797c0\n      eq\n      tag_4\n      jumpi\n      dup1\n      0x662a6559\n      eq\n      tag_5\n      jumpi\n      dup1\n      0x81196481\n      eq\n      tag_6\n      jumpi\n      dup1\n      0xd65ab5f2\n      eq\n      tag_7\n      jumpi\n      dup1\n      0xf77ea683\n      eq\n      tag_8\n      jumpi\n    tag_2:\n      0x00\n      dup1\n      revert\n        /* \"contracts/Hangman.sol\":4412:4912  function getMyGame() external view returns (... */\n    tag_3:\n      tag_9\n      tag_10\n      jump\t// in\n    tag_9:\n      mload(0x40)\n      tag_11\n      swap8\n      swap7\n      swap6\n      swap5\n      swap4\n      swap3\n      swap2\n      swap1\n      tag_12\n      jump\t// in\n    tag_11:\n      mload(0x40)\n      dup1\n      swap2\n      sub\n      swap1\n      return\n        /* \"contracts/Hangman.sol\":511:545  uint8 public constant MAX_LEN = 10 */\n    tag_4:\n      tag_13\n      tag_14\n      jump\t// in\n    tag_13:\n      mload(0x40)\n      tag_15\n      swap2\n      swap1\n      tag_16\n      jump\t// in\n    tag_15:\n      mload(0x40)\n      dup1\n      swap2\n      sub\n      swap1\n      return\n        /* \"contracts/Hangman.sol\":2759:4404  function guessLetter(string calldata _letter) external {... */\n    tag_5:\n      tag_17\n      0x04\n      dup1\n      calldatasize\n      sub\n      dup2\n      add\n      swap1\n      tag_18\n      swap2\n      swap1\n      tag_19\n      jump\t// in\n    tag_18:\n      tag_20\n      jump\t// in\n    tag_17:\n      stop\n        /* \"contracts/Hangman.sol\":471:504  uint8 public constant MIN_LEN = 4 */\n    tag_6:\n      tag_21\n      tag_22\n      jump\t// in\n    tag_21:\n      mload(0x40)\n      tag_23\n      swap2\n      swap1\n      tag_16\n      jump\t// in\n    tag_23:\n      mload(0x40)\n      dup1\n      swap2\n      sub\n      swap1\n      return\n        /* \"contracts/Hangman.sol\":2178:2751  function startGame() external {... */\n    tag_7:\n      tag_24\n      tag_25\n      jump\t// in\n    tag_24:\n      stop\n        /* \"contracts/Hangman.sol\":552:595  uint8 public constant MAX_WRONG_GUESSES = 6 */\n    tag_8:\n      tag_26\n      tag_27\n      jump\t// in\n    tag_26:\n      mload(0x40)\n      tag_28\n      swap2\n      swap1\n      tag_16\n      jump\t// in\n    tag_28:\n      mload(0x40)\n      dup1\n      swap2\n      sub\n      swap1\n      return\n        /* \"contracts/Hangman.sol\":4412:4912  function getMyGame() external view returns (... */\n    tag_10:\n        /* \"contracts/Hangman.sol\":4466:4479  Status status */\n      0x00\n        /* \"contracts/Hangman.sol\":4490:4502  uint8 length */\n      dup1\n        /* \"contracts/Hangman.sol\":4513:4531  uint8 wrongGuesses */\n      0x00\n        /* \"contracts/Hangman.sol\":4542:4559  bytes memory mask */\n      0x60\n        /* \"contracts/Hangman.sol\":4570:4588  uint32 guessedMask */\n      0x00\n        /* \"contracts/Hangman.sol\":4599:4617  uint32 correctMask */\n      dup1\n        /* \"contracts/Hangman.sol\":4628:4644  uint32 wrongMask */\n      0x00\n        /* \"contracts/Hangman.sol\":4663:4677  Game storage g */\n      dup1\n        /* \"contracts/Hangman.sol\":4680:4685  games */\n      0x00\n        /* \"contracts/Hangman.sol\":4680:4697  games[msg.sender] */\n      dup1\n        /* \"contracts/Hangman.sol\":4686:4696  msg.sender */\n      caller\n        /* \"contracts/Hangman.sol\":4680:4697  games[msg.sender] */\n      0xffffffffffffffffffffffffffffffffffffffff\n      and\n      0xffffffffffffffffffffffffffffffffffffffff\n      and\n      dup2\n      mstore\n      0x20\n      add\n      swap1\n      dup2\n      mstore\n      0x20\n      add\n      0x00\n      keccak256\n        /* \"contracts/Hangman.sol\":4663:4697  Game storage g = games[msg.sender] */\n      swap1\n      pop\n        /* \"contracts/Hangman.sol\":4730:4731  g */\n      dup1\n        /* \"contracts/Hangman.sol\":4730:4738  g.status */\n      0x00\n      add\n      0x00\n      swap1\n      sload\n      swap1\n      0x0100\n      exp\n      swap1\n      div\n      0xff\n      and\n        /* \"contracts/Hangman.sol\":4753:4754  g */\n      dup2\n        /* \"contracts/Hangman.sol\":4753:4761  g.length */\n      0x00\n      add\n      0x01\n      swap1\n      sload\n      swap1\n      0x0100\n      exp\n      swap1\n      div\n      0xff\n      and\n        /* \"contracts/Hangman.sol\":4776:4777  g */\n      dup3\n        /* \"contracts/Hangman.sol\":4776:4790  g.wrongGuesses */\n      0x00\n      add\n      0x02\n      swap1\n      sload\n      swap1\n      0x0100\n      exp\n      swap1\n      div\n      0xff\n      and\n        /* \"contracts/Hangman.sol\":4805:4806  g */\n      dup4\n        /* \"contracts/Hangman.sol\":4805:4811  g.mask */\n      0x01\n      add\n        /* \"contracts/Hangman.sol\":4826:4827  g */\n      dup5\n        /* \"contracts/Hangman.sol\":4826:4839  g.guessedMask */\n      0x02\n      add\n      0x00\n      swap1\n      sload\n      swap1\n      0x0100\n      exp\n      swap1\n      div\n      0xffffffff\n      and\n        /* \"contracts/Hangman.sol\":4854:4855  g */\n      dup6\n        /* \"contracts/Hangman.sol\":4854:4867  g.correctMask */\n      0x02\n      add\n      0x04\n      swap1\n      sload\n      swap1\n      0x0100\n      exp\n      swap1\n      div\n      0xffffffff\n      and\n        /* \"contracts/Hangman.sol\":4882:4883  g */\n      dup7\n        /* \"contracts/Hangman.sol\":4882:4893  g.wrongMask */\n      0x02\n      add\n      0x08\n      swap1\n      sload\n      swap1\n      0x0100\n      exp\n      swap1\n      div\n      0xffffffff\n      and\n        /* \"contracts/Hangman.sol\":4708:4904  return (... */\n      dup4\n      dup1\n      sload\n      tag_30\n      swap1\n      tag_31\n      jump\t// in\n    tag_30:\n      dup1\n      0x1f\n      add\n      0x20\n      dup1\n      swap2\n      div\n      mul\n      0x20\n      add\n      mload(0x40)\n      swap1\n      dup2\n      add\n      0x40\n      mstore\n      dup1\n      swap3\n      swap2\n      swap1\n      dup2\n      dup2\n      mstore\n      0x20\n      add\n      dup3\n      dup1\n      sload\n      tag_32\n      swap1\n      tag_31\n      jump\t// in\n    tag_32:\n      dup1\n      iszero\n      tag_33\n      jumpi\n      dup1\n      0x1f\n      lt\n      tag_34\n      jumpi\n      0x0100\n      dup1\n      dup4\n      sload\n      div\n      mul\n      dup4\n      mstore\n      swap2\n      0x20\n      add\n      swap2\n      jump(tag_33)\n    tag_34:\n      dup3\n      add\n      swap2\n      swap1\n      0x00\n      mstore\n      keccak256(0x00, 0x20)\n      swap1\n    tag_35:\n      dup2\n      sload\n      dup2\n      mstore\n      swap1\n      0x01\n      add\n      swap1\n      0x20\n      add\n      dup1\n      dup4\n      gt\n      tag_35\n      jumpi\n      dup3\n      swap1\n      sub\n      0x1f\n      and\n      dup3\n      add\n      swap2\n    tag_33:\n      pop\n      pop\n      pop\n      pop\n      pop\n      swap4\n      pop\n      swap8\n      pop\n      swap8\n      pop\n      swap8\n      pop\n      swap8\n      pop\n      swap8\n      pop\n      swap8\n      pop\n      swap8\n      pop\n      pop\n        /* \"contracts/Hangman.sol\":4412:4912  function getMyGame() external view returns (... */\n      swap1\n      swap2\n      swap3\n      swap4\n      swap5\n      swap6\n      swap7\n      jump\t// out\n        /* \"contracts/Hangman.sol\":511:545  uint8 public constant MAX_LEN = 10 */\n    tag_14:\n        /* \"contracts/Hangman.sol\":543:545  10 */\n      0x0a\n        /* \"contracts/Hangman.sol\":511:545  uint8 public constant MAX_LEN = 10 */\n      dup2\n      jump\t// out\n        /* \"contracts/Hangman.sol\":2759:4404  function guessLetter(string calldata _letter) external {... */\n    tag_20:\n        /* \"contracts/Hangman.sol\":2825:2839  Game storage g */\n      0x00\n        /* \"contracts/Hangman.sol\":2842:2847  games */\n      dup1\n        /* \"contracts/Hangman.sol\":2842:2859  games[msg.sender] */\n      0x00\n        /* \"contracts/Hangman.sol\":2848:2858  msg.sender */\n      caller\n        /* \"contracts/Hangman.sol\":2842:2859  games[msg.sender] */\n      0xffffffffffffffffffffffffffffffffffffffff\n      and\n      0xffffffffffffffffffffffffffffffffffffffff\n      and\n      dup2\n      mstore\n      0x20\n      add\n      swap1\n      dup2\n      mstore\n      0x20\n      add\n      0x00\n      keccak256\n        /* \"contracts/Hangman.sol\":2825:2859  Game storage g = games[msg.sender] */\n      swap1\n      pop\n        /* \"contracts/Hangman.sol\":2890:2903  Status.Active */\n      0x01\n        /* \"contracts/Hangman.sol\":2878:2903  g.status == Status.Active */\n      0x03\n      dup2\n      gt\n      iszero\n      tag_37\n      jumpi\n      tag_38\n      tag_39\n      jump\t// in\n    tag_38:\n    tag_37:\n        /* \"contracts/Hangman.sol\":2878:2879  g */\n      dup2\n        /* \"contracts/Hangman.sol\":2878:2886  g.status */\n      0x00\n      add\n      0x00\n      swap1\n      sload\n      swap1\n      0x0100\n      exp\n      swap1\n      div\n      0xff\n      and\n        /* \"contracts/Hangman.sol\":2878:2903  g.status == Status.Active */\n      0x03\n      dup2\n      gt\n      iszero\n      tag_40\n      jumpi\n      tag_41\n      tag_39\n      jump\t// in\n    tag_41:\n    tag_40:\n      eq\n        /* \"contracts/Hangman.sol\":2870:2922  require(g.status == Status.Active, \"no active game\") */\n      tag_42\n      jumpi\n      mload(0x40)\n      0x08c379a000000000000000000000000000000000000000000000000000000000\n      dup2\n      mstore\n      0x04\n      add\n      tag_43\n      swap1\n      tag_44\n      jump\t// in\n    tag_43:\n      mload(0x40)\n      dup1\n      swap2\n      sub\n      swap1\n      revert\n    tag_42:\n        /* \"contracts/Hangman.sol\":2935:2949  bytes memory b */\n      0x00\n        /* \"contracts/Hangman.sol\":2958:2965  _letter */\n      dup4\n      dup4\n        /* \"contracts/Hangman.sol\":2935:2966  bytes memory b = bytes(_letter) */\n      dup1\n      dup1\n      0x1f\n      add\n      0x20\n      dup1\n      swap2\n      div\n      mul\n      0x20\n      add\n      mload(0x40)\n      swap1\n      dup2\n      add\n      0x40\n      mstore\n      dup1\n      swap4\n      swap3\n      swap2\n      swap1\n      dup2\n      dup2\n      mstore\n      0x20\n      add\n      dup4\n      dup4\n      dup1\n      dup3\n      dup5\n      calldatacopy\n      0x00\n      dup2\n      dup5\n      add\n      mstore\n      not(0x1f)\n      0x1f\n      dup3\n      add\n      and\n      swap1\n      pop\n      dup1\n      dup4\n      add\n      swap3\n      pop\n      pop\n      pop\n      pop\n      pop\n      pop\n      pop\n      swap1\n      pop\n        /* \"contracts/Hangman.sol\":2997:2998  1 */\n      0x01\n        /* \"contracts/Hangman.sol\":2985:2986  b */\n      dup2\n        /* \"contracts/Hangman.sol\":2985:2993  b.length */\n      mload\n        /* \"contracts/Hangman.sol\":2985:2998  b.length == 1 */\n      eq\n        /* \"contracts/Hangman.sol\":2977:3030  require(b.length == 1, \"enter exactly one character\") */\n      tag_45\n      jumpi\n      mload(0x40)\n      0x08c379a000000000000000000000000000000000000000000000000000000000\n      dup2\n      mstore\n      0x04\n      add\n      tag_46\n      swap1\n      tag_47\n      jump\t// in\n    tag_46:\n      mload(0x40)\n      dup1\n      swap2\n      sub\n      swap1\n      revert\n    tag_45:\n        /* \"contracts/Hangman.sol\":3043:3056  bytes1 letter */\n      0x00\n        /* \"contracts/Hangman.sol\":3059:3060  b */\n      dup2\n        /* \"contracts/Hangman.sol\":3061:3062  0 */\n      0x00\n        /* \"contracts/Hangman.sol\":3059:3063  b[0] */\n      dup2\n      mload\n      dup2\n      lt\n      tag_48\n      jumpi\n      tag_49\n      tag_50\n      jump\t// in\n    tag_49:\n    tag_48:\n      0x20\n      add\n      add\n      mload\n      0xf8\n      shr\n      0xf8\n      shl\n        /* \"contracts/Hangman.sol\":3043:3063  bytes1 letter = b[0] */\n      swap1\n      pop\n        /* \"contracts/Hangman.sol\":3074:3081  uint8 c */\n      0x00\n        /* \"contracts/Hangman.sol\":3090:3096  letter */\n      dup2\n        /* \"contracts/Hangman.sol\":3084:3097  uint8(letter) */\n      0xf8\n      shr\n        /* \"contracts/Hangman.sol\":3074:3097  uint8 c = uint8(letter) */\n      swap1\n      pop\n        /* \"contracts/Hangman.sol\":3119:3121  65 */\n      0x41\n        /* \"contracts/Hangman.sol\":3114:3115  c */\n      dup2\n        /* \"contracts/Hangman.sol\":3114:3121  c >= 65 */\n      0xff\n      and\n      lt\n      iszero\n        /* \"contracts/Hangman.sol\":3114:3132  c >= 65 && c <= 90 */\n      dup1\n      iszero\n      tag_51\n      jumpi\n      pop\n        /* \"contracts/Hangman.sol\":3130:3132  90 */\n      0x5a\n        /* \"contracts/Hangman.sol\":3125:3126  c */\n      dup2\n        /* \"contracts/Hangman.sol\":3125:3132  c <= 90 */\n      0xff\n      and\n      gt\n      iszero\n        /* \"contracts/Hangman.sol\":3114:3132  c >= 65 && c <= 90 */\n    tag_51:\n        /* \"contracts/Hangman.sol\":3110:3201  if (c >= 65 && c <= 90) {... */\n      iszero\n      tag_52\n      jumpi\n        /* \"contracts/Hangman.sol\":3154:3156  32 */\n      0x20\n        /* \"contracts/Hangman.sol\":3149:3156  c += 32 */\n      dup2\n      tag_53\n      swap2\n      swap1\n      tag_54\n      jump\t// in\n    tag_53:\n      swap1\n      pop\n        /* \"contracts/Hangman.sol\":3187:3188  c */\n      dup1\n        /* \"contracts/Hangman.sol\":3180:3189  bytes1(c) */\n      0xf8\n      shl\n        /* \"contracts/Hangman.sol\":3171:3189  letter = bytes1(c) */\n      swap2\n      pop\n        /* \"contracts/Hangman.sol\":3110:3201  if (c >= 65 && c <= 90) {... */\n    tag_52:\n        /* \"contracts/Hangman.sol\":3224:3226  97 */\n      0x61\n        /* \"contracts/Hangman.sol\":3219:3220  c */\n      dup2\n        /* \"contracts/Hangman.sol\":3219:3226  c >= 97 */\n      0xff\n      and\n      lt\n      iszero\n        /* \"contracts/Hangman.sol\":3219:3238  c >= 97 && c <= 122 */\n      dup1\n      iszero\n      tag_55\n      jumpi\n      pop\n        /* \"contracts/Hangman.sol\":3235:3238  122 */\n      0x7a\n        /* \"contracts/Hangman.sol\":3230:3231  c */\n      dup2\n        /* \"contracts/Hangman.sol\":3230:3238  c <= 122 */\n      0xff\n      and\n      gt\n      iszero\n        /* \"contracts/Hangman.sol\":3219:3238  c >= 97 && c <= 122 */\n    tag_55:\n        /* \"contracts/Hangman.sol\":3211:3276  require(c >= 97 && c <= 122, \"input must be a single letter a-z\") */\n      tag_56\n      jumpi\n      mload(0x40)\n      0x08c379a000000000000000000000000000000000000000000000000000000000\n      dup2\n      mstore\n      0x04\n      add\n      tag_57\n      swap1\n      tag_58\n      jump\t// in\n    tag_57:\n      mload(0x40)\n      dup1\n      swap2\n      sub\n      swap1\n      revert\n    tag_56:\n        /* \"contracts/Hangman.sol\":3289:3298  uint8 idx */\n      0x00\n        /* \"contracts/Hangman.sol\":3305:3307  97 */\n      0x61\n        /* \"contracts/Hangman.sol\":3301:3302  c */\n      dup3\n        /* \"contracts/Hangman.sol\":3301:3307  c - 97 */\n      tag_59\n      swap2\n      swap1\n      tag_60\n      jump\t// in\n    tag_59:\n        /* \"contracts/Hangman.sol\":3289:3307  uint8 idx = c - 97 */\n      swap1\n      pop\n        /* \"contracts/Hangman.sol\":3318:3328  uint32 bit */\n      0x00\n        /* \"contracts/Hangman.sol\":3344:3347  idx */\n      dup2\n        /* \"contracts/Hangman.sol\":3331:3347  uint32(1) << idx */\n      0xff\n      and\n        /* \"contracts/Hangman.sol\":3338:3339  1 */\n      0x01\n        /* \"contracts/Hangman.sol\":3331:3347  uint32(1) << idx */\n      0xffffffff\n      and\n      swap1\n      shl\n        /* \"contracts/Hangman.sol\":3318:3347  uint32 bit = uint32(1) << idx */\n      swap1\n      pop\n        /* \"contracts/Hangman.sol\":3393:3394  0 */\n      0x00\n        /* \"contracts/Hangman.sol\":3385:3388  bit */\n      dup2\n        /* \"contracts/Hangman.sol\":3369:3370  g */\n      dup8\n        /* \"contracts/Hangman.sol\":3369:3382  g.guessedMask */\n      0x02\n      add\n      0x00\n      swap1\n      sload\n      swap1\n      0x0100\n      exp\n      swap1\n      div\n      0xffffffff\n      and\n        /* \"contracts/Hangman.sol\":3369:3388  g.guessedMask & bit */\n      and\n        /* \"contracts/Hangman.sol\":3368:3394  (g.guessedMask & bit) == 0 */\n      0xffffffff\n      and\n      eq\n        /* \"contracts/Hangman.sol\":3360:3421  require((g.guessedMask & bit) == 0, \"letter already guessed\") */\n      tag_61\n      jumpi\n      mload(0x40)\n      0x08c379a000000000000000000000000000000000000000000000000000000000\n      dup2\n      mstore\n      0x04\n      add\n      tag_62\n      swap1\n      tag_63\n      jump\t// in\n    tag_62:\n      mload(0x40)\n      dup1\n      swap2\n      sub\n      swap1\n      revert\n    tag_61:\n        /* \"contracts/Hangman.sol\":3434:3448  bytes memory w */\n      0x00\n        /* \"contracts/Hangman.sol\":3451:3474  _pickRandomCandidate(g) */\n      tag_64\n        /* \"contracts/Hangman.sol\":3472:3473  g */\n      dup8\n        /* \"contracts/Hangman.sol\":3451:3471  _pickRandomCandidate */\n      tag_65\n        /* \"contracts/Hangman.sol\":3451:3474  _pickRandomCandidate(g) */\n      jump\t// in\n    tag_64:\n        /* \"contracts/Hangman.sol\":3434:3474  bytes memory w = _pickRandomCandidate(g) */\n      swap1\n      pop\n        /* \"contracts/Hangman.sol\":3504:3507  bit */\n      dup2\n        /* \"contracts/Hangman.sol\":3487:3488  g */\n      dup8\n        /* \"contracts/Hangman.sol\":3487:3500  g.guessedMask */\n      0x02\n      add\n      0x00\n        /* \"contracts/Hangman.sol\":3487:3507  g.guessedMask |= bit */\n      dup3\n      dup3\n      dup3\n      swap1\n      sload\n      swap1\n      0x0100\n      exp\n      swap1\n      div\n      0xffffffff\n      and\n      or\n      swap3\n      pop\n      0x0100\n      exp\n      dup2\n      sload\n      dup2\n      0xffffffff\n      mul\n      not\n      and\n      swap1\n      dup4\n      0xffffffff\n      and\n      mul\n      or\n      swap1\n      sstore\n      pop\n        /* \"contracts/Hangman.sol\":3520:3534  bool isCorrect */\n      0x00\n        /* \"contracts/Hangman.sol\":3537:3557  _contains(w, letter) */\n      tag_66\n        /* \"contracts/Hangman.sol\":3547:3548  w */\n      dup3\n        /* \"contracts/Hangman.sol\":3550:3556  letter */\n      dup8\n        /* \"contracts/Hangman.sol\":3537:3546  _contains */\n      tag_67\n        /* \"contracts/Hangman.sol\":3537:3557  _contains(w, letter) */\n      jump\t// in\n    tag_66:\n        /* \"contracts/Hangman.sol\":3520:3557  bool isCorrect = _contains(w, letter) */\n      swap1\n      pop\n        /* \"contracts/Hangman.sol\":3574:3583  isCorrect */\n      dup1\n        /* \"contracts/Hangman.sol\":3570:4212  if (isCorrect) {... */\n      iszero\n      tag_68\n      jumpi\n        /* \"contracts/Hangman.sol\":3617:3620  bit */\n      dup3\n        /* \"contracts/Hangman.sol\":3600:3601  g */\n      dup9\n        /* \"contracts/Hangman.sol\":3600:3613  g.correctMask */\n      0x02\n      add\n      0x04\n        /* \"contracts/Hangman.sol\":3600:3620  g.correctMask |= bit */\n      dup3\n      dup3\n      dup3\n      swap1\n      sload\n      swap1\n      0x0100\n      exp\n      swap1\n      div\n      0xffffffff\n      and\n      or\n      swap3\n      pop\n      0x0100\n      exp\n      dup2\n      sload\n      dup2\n      0xffffffff\n      mul\n      not\n      and\n      swap1\n      dup4\n      0xffffffff\n      and\n      mul\n      or\n      swap1\n      sstore\n      pop\n        /* \"contracts/Hangman.sol\":3640:3649  uint256 i */\n      0x00\n        /* \"contracts/Hangman.sol\":3635:3901  for (uint256 i = 0; i < g.length; i++) {... */\n    tag_69:\n        /* \"contracts/Hangman.sol\":3659:3660  g */\n      dup9\n        /* \"contracts/Hangman.sol\":3659:3667  g.length */\n      0x00\n      add\n      0x01\n      swap1\n      sload\n      swap1\n      0x0100\n      exp\n      swap1\n      div\n      0xff\n      and\n        /* \"contracts/Hangman.sol\":3655:3667  i < g.length */\n      0xff\n      and\n        /* \"contracts/Hangman.sol\":3655:3656  i */\n      dup2\n        /* \"contracts/Hangman.sol\":3655:3667  i < g.length */\n      lt\n        /* \"contracts/Hangman.sol\":3635:3901  for (uint256 i = 0; i < g.length; i++) {... */\n      iszero\n      tag_70\n      jumpi\n        /* \"contracts/Hangman.sol\":3693:3702  bytes1 wc */\n      0x00\n        /* \"contracts/Hangman.sol\":3705:3706  w */\n      dup4\n        /* \"contracts/Hangman.sol\":3707:3708  i */\n      dup3\n        /* \"contracts/Hangman.sol\":3705:3709  w[i] */\n      dup2\n      mload\n      dup2\n      lt\n      tag_72\n      jumpi\n      tag_73\n      tag_50\n      jump\t// in\n    tag_73:\n    tag_72:\n      0x20\n      add\n      add\n      mload\n      0xf8\n      shr\n      0xf8\n      shl\n        /* \"contracts/Hangman.sol\":3693:3709  bytes1 wc = w[i] */\n      swap1\n      pop\n        /* \"contracts/Hangman.sol\":3732:3755  _isCorrectLetter(g, wc) */\n      tag_74\n        /* \"contracts/Hangman.sol\":3749:3750  g */\n      dup11\n        /* \"contracts/Hangman.sol\":3752:3754  wc */\n      dup3\n        /* \"contracts/Hangman.sol\":3732:3748  _isCorrectLetter */\n      tag_75\n        /* \"contracts/Hangman.sol\":3732:3755  _isCorrectLetter(g, wc) */\n      jump\t// in\n    tag_74:\n        /* \"contracts/Hangman.sol\":3728:3886  if (_isCorrectLetter(g, wc)) {... */\n      iszero\n      tag_76\n      jumpi\n        /* \"contracts/Hangman.sol\":3792:3794  wc */\n      dup1\n        /* \"contracts/Hangman.sol\":3780:3781  g */\n      dup11\n        /* \"contracts/Hangman.sol\":3780:3786  g.mask */\n      0x01\n      add\n        /* \"contracts/Hangman.sol\":3787:3788  i */\n      dup4\n        /* \"contracts/Hangman.sol\":3780:3789  g.mask[i] */\n      dup2\n      sload\n      tag_77\n      swap1\n      tag_31\n      jump\t// in\n    tag_77:\n      dup2\n      lt\n      tag_78\n      jumpi\n      tag_79\n      tag_50\n      jump\t// in\n    tag_79:\n    tag_78:\n      dup2\n      sload\n      0x01\n      and\n      iszero\n      tag_80\n      jumpi\n      swap1\n      0x00\n      mstore\n      keccak256(0x00, 0x20)\n      swap1\n      0x20\n      swap2\n      dup3\n      dup3\n      div\n      add\n      swap2\n      swap1\n      mod\n    tag_80:\n        /* \"contracts/Hangman.sol\":3780:3794  g.mask[i] = wc */\n      0x1f\n      sub\n      0x0100\n      exp\n      dup2\n      sload\n      dup2\n      0xff\n      mul\n      not\n      and\n      swap1\n      0x0100000000000000000000000000000000000000000000000000000000000000\n      dup5\n      div\n      mul\n      or\n      swap1\n      sstore\n      pop\n        /* \"contracts/Hangman.sol\":3728:3886  if (_isCorrectLetter(g, wc)) {... */\n      jump(tag_81)\n    tag_76:\n        /* \"contracts/Hangman.sol\":3855:3866  bytes1(\"_\") */\n      0x5f00000000000000000000000000000000000000000000000000000000000000\n        /* \"contracts/Hangman.sol\":3843:3844  g */\n      dup11\n        /* \"contracts/Hangman.sol\":3843:3849  g.mask */\n      0x01\n      add\n        /* \"contracts/Hangman.sol\":3850:3851  i */\n      dup4\n        /* \"contracts/Hangman.sol\":3843:3852  g.mask[i] */\n      dup2\n      sload\n      tag_82\n      swap1\n      tag_31\n      jump\t// in\n    tag_82:\n      dup2\n      lt\n      tag_83\n      jumpi\n      tag_84\n      tag_50\n      jump\t// in\n    tag_84:\n    tag_83:\n      dup2\n      sload\n      0x01\n      and\n      iszero\n      tag_85\n      jumpi\n      swap1\n      0x00\n      mstore\n      keccak256(0x00, 0x20)\n      swap1\n      0x20\n      swap2\n      dup3\n      dup3\n      div\n      add\n      swap2\n      swap1\n      mod\n    tag_85:\n        /* \"contracts/Hangman.sol\":3843:3866  g.mask[i] = bytes1(\"_\") */\n      0x1f\n      sub\n      0x0100\n      exp\n      dup2\n      sload\n      dup2\n      0xff\n      mul\n      not\n      and\n      swap1\n      0x0100000000000000000000000000000000000000000000000000000000000000\n      dup5\n      div\n      mul\n      or\n      swap1\n      sstore\n      pop\n        /* \"contracts/Hangman.sol\":3728:3886  if (_isCorrectLetter(g, wc)) {... */\n    tag_81:\n        /* \"contracts/Hangman.sol\":3674:3901  {... */\n      pop\n        /* \"contracts/Hangman.sol\":3669:3672  i++ */\n      dup1\n      dup1\n      tag_86\n      swap1\n      tag_87\n      jump\t// in\n    tag_86:\n      swap2\n      pop\n      pop\n        /* \"contracts/Hangman.sol\":3635:3901  for (uint256 i = 0; i < g.length; i++) {... */\n      jump(tag_69)\n    tag_70:\n      pop\n        /* \"contracts/Hangman.sol\":3922:3944  _hasUnrevealed(g.mask) */\n      tag_88\n        /* \"contracts/Hangman.sol\":3937:3938  g */\n      dup9\n        /* \"contracts/Hangman.sol\":3937:3943  g.mask */\n      0x01\n      add\n        /* \"contracts/Hangman.sol\":3922:3944  _hasUnrevealed(g.mask) */\n      dup1\n      sload\n      tag_89\n      swap1\n      tag_31\n      jump\t// in\n    tag_89:\n      dup1\n      0x1f\n      add\n      0x20\n      dup1\n      swap2\n      div\n      mul\n      0x20\n      add\n      mload(0x40)\n      swap1\n      dup2\n      add\n      0x40\n      mstore\n      dup1\n      swap3\n      swap2\n      swap1\n      dup2\n      dup2\n      mstore\n      0x20\n      add\n      dup3\n      dup1\n      sload\n      tag_90\n      swap1\n      tag_31\n      jump\t// in\n    tag_90:\n      dup1\n      iszero\n      tag_91\n      jumpi\n      dup1\n      0x1f\n      lt\n      tag_92\n      jumpi\n      0x0100\n      dup1\n      dup4\n      sload\n      div\n      mul\n      dup4\n      mstore\n      swap2\n      0x20\n      add\n      swap2\n      jump(tag_91)\n    tag_92:\n      dup3\n      add\n      swap2\n      swap1\n      0x00\n      mstore\n      keccak256(0x00, 0x20)\n      swap1\n    tag_93:\n      dup2\n      sload\n      dup2\n      mstore\n      swap1\n      0x01\n      add\n      swap1\n      0x20\n      add\n      dup1\n      dup4\n      gt\n      tag_93\n      jumpi\n      dup3\n      swap1\n      sub\n      0x1f\n      and\n      dup3\n      add\n      swap2\n    tag_91:\n      pop\n      pop\n      pop\n      pop\n      pop\n        /* \"contracts/Hangman.sol\":3922:3936  _hasUnrevealed */\n      tag_94\n        /* \"contracts/Hangman.sol\":3922:3944  _hasUnrevealed(g.mask) */\n      jump\t// in\n    tag_88:\n        /* \"contracts/Hangman.sol\":3917:4002  if (!_hasUnrevealed(g.mask)) {... */\n      tag_95\n      jumpi\n        /* \"contracts/Hangman.sol\":3976:3986  Status.Won */\n      0x02\n        /* \"contracts/Hangman.sol\":3965:3966  g */\n      dup9\n        /* \"contracts/Hangman.sol\":3965:3973  g.status */\n      0x00\n      add\n      0x00\n        /* \"contracts/Hangman.sol\":3965:3986  g.status = Status.Won */\n      0x0100\n      exp\n      dup2\n      sload\n      dup2\n      0xff\n      mul\n      not\n      and\n      swap1\n      dup4\n      0x03\n      dup2\n      gt\n      iszero\n      tag_96\n      jumpi\n      tag_97\n      tag_39\n      jump\t// in\n    tag_97:\n    tag_96:\n      mul\n      or\n      swap1\n      sstore\n      pop\n        /* \"contracts/Hangman.sol\":3917:4002  if (!_hasUnrevealed(g.mask)) {... */\n    tag_95:\n        /* \"contracts/Hangman.sol\":3570:4212  if (isCorrect) {... */\n      jump(tag_98)\n    tag_68:\n        /* \"contracts/Hangman.sol\":4049:4052  bit */\n      dup3\n        /* \"contracts/Hangman.sol\":4034:4035  g */\n      dup9\n        /* \"contracts/Hangman.sol\":4034:4045  g.wrongMask */\n      0x02\n      add\n      0x08\n        /* \"contracts/Hangman.sol\":4034:4052  g.wrongMask |= bit */\n      dup3\n      dup3\n      dup3\n      swap1\n      sload\n      swap1\n      0x0100\n      exp\n      swap1\n      div\n      0xffffffff\n      and\n      or\n      swap3\n      pop\n      0x0100\n      exp\n      dup2\n      sload\n      dup2\n      0xffffffff\n      mul\n      not\n      and\n      swap1\n      dup4\n      0xffffffff\n      and\n      mul\n      or\n      swap1\n      sstore\n      pop\n        /* \"contracts/Hangman.sol\":4085:4086  1 */\n      0x01\n        /* \"contracts/Hangman.sol\":4067:4068  g */\n      dup9\n        /* \"contracts/Hangman.sol\":4067:4081  g.wrongGuesses */\n      0x00\n      add\n      0x02\n        /* \"contracts/Hangman.sol\":4067:4086  g.wrongGuesses += 1 */\n      dup3\n      dup3\n      dup3\n      swap1\n      sload\n      swap1\n      0x0100\n      exp\n      swap1\n      div\n      0xff\n      and\n      tag_99\n      swap2\n      swap1\n      tag_54\n      jump\t// in\n    tag_99:\n      swap3\n      pop\n      0x0100\n      exp\n      dup2\n      sload\n      dup2\n      0xff\n      mul\n      not\n      and\n      swap1\n      dup4\n      0xff\n      and\n      mul\n      or\n      swap1\n      sstore\n      pop\n        /* \"contracts/Hangman.sol\":594:595  6 */\n      0x06\n        /* \"contracts/Hangman.sol\":4107:4142  g.wrongGuesses >= MAX_WRONG_GUESSES */\n      0xff\n      and\n        /* \"contracts/Hangman.sol\":4107:4108  g */\n      dup9\n        /* \"contracts/Hangman.sol\":4107:4121  g.wrongGuesses */\n      0x00\n      add\n      0x02\n      swap1\n      sload\n      swap1\n      0x0100\n      exp\n      swap1\n      div\n      0xff\n      and\n        /* \"contracts/Hangman.sol\":4107:4142  g.wrongGuesses >= MAX_WRONG_GUESSES */\n      0xff\n      and\n      lt\n        /* \"contracts/Hangman.sol\":4103:4201  if (g.wrongGuesses >= MAX_WRONG_GUESSES) {... */\n      tag_100\n      jumpi\n        /* \"contracts/Hangman.sol\":4174:4185  Status.Lost */\n      0x03\n        /* \"contracts/Hangman.sol\":4163:4164  g */\n      dup9\n        /* \"contracts/Hangman.sol\":4163:4171  g.status */\n      0x00\n      add\n      0x00\n        /* \"contracts/Hangman.sol\":4163:4185  g.status = Status.Lost */\n      0x0100\n      exp\n      dup2\n      sload\n      dup2\n      0xff\n      mul\n      not\n      and\n      swap1\n      dup4\n      0x03\n      dup2\n      gt\n      iszero\n      tag_101\n      jumpi\n      tag_102\n      tag_39\n      jump\t// in\n    tag_102:\n    tag_101:\n      mul\n      or\n      swap1\n      sstore\n      pop\n        /* \"contracts/Hangman.sol\":4103:4201  if (g.wrongGuesses >= MAX_WRONG_GUESSES) {... */\n    tag_100:\n        /* \"contracts/Hangman.sol\":3570:4212  if (isCorrect) {... */\n    tag_98:\n        /* \"contracts/Hangman.sol\":4257:4267  msg.sender */\n      caller\n        /* \"contracts/Hangman.sol\":4229:4396  LetterGuessed(... */\n      0xffffffffffffffffffffffffffffffffffffffff\n      and\n      0x158e50b6c009c05279b63369ee0914aac86906246da69b271f2e77f49fdd082a\n        /* \"contracts/Hangman.sol\":4282:4288  letter */\n      dup8\n        /* \"contracts/Hangman.sol\":4303:4312  isCorrect */\n      dup4\n        /* \"contracts/Hangman.sol\":4327:4328  g */\n      dup12\n        /* \"contracts/Hangman.sol\":4327:4333  g.mask */\n      0x01\n      add\n        /* \"contracts/Hangman.sol\":4348:4349  g */\n      dup13\n        /* \"contracts/Hangman.sol\":4348:4362  g.wrongGuesses */\n      0x00\n      add\n      0x02\n      swap1\n      sload\n      swap1\n      0x0100\n      exp\n      swap1\n      div\n      0xff\n      and\n        /* \"contracts/Hangman.sol\":4377:4378  g */\n      dup14\n        /* \"contracts/Hangman.sol\":4377:4385  g.status */\n      0x00\n      add\n      0x00\n      swap1\n      sload\n      swap1\n      0x0100\n      exp\n      swap1\n      div\n      0xff\n      and\n        /* \"contracts/Hangman.sol\":4229:4396  LetterGuessed(... */\n      mload(0x40)\n      tag_103\n      swap6\n      swap5\n      swap4\n      swap3\n      swap2\n      swap1\n      tag_104\n      jump\t// in\n    tag_103:\n      mload(0x40)\n      dup1\n      swap2\n      sub\n      swap1\n      log2\n        /* \"contracts/Hangman.sol\":2814:4404  {... */\n      pop\n      pop\n      pop\n      pop\n      pop\n      pop\n      pop\n      pop\n        /* \"contracts/Hangman.sol\":2759:4404  function guessLetter(string calldata _letter) external {... */\n      pop\n      pop\n      jump\t// out\n        /* \"contracts/Hangman.sol\":471:504  uint8 public constant MIN_LEN = 4 */\n    tag_22:\n        /* \"contracts/Hangman.sol\":503:504  4 */\n      0x04\n        /* \"contracts/Hangman.sol\":471:504  uint8 public constant MIN_LEN = 4 */\n      dup2\n      jump\t// out\n        /* \"contracts/Hangman.sol\":2178:2751  function startGame() external {... */\n    tag_25:\n        /* \"contracts/Hangman.sol\":2219:2233  Game storage g */\n      0x00\n        /* \"contracts/Hangman.sol\":2236:2241  games */\n      dup1\n        /* \"contracts/Hangman.sol\":2236:2253  games[msg.sender] */\n      0x00\n        /* \"contracts/Hangman.sol\":2242:2252  msg.sender */\n      caller\n        /* \"contracts/Hangman.sol\":2236:2253  games[msg.sender] */\n      0xffffffffffffffffffffffffffffffffffffffff\n      and\n      0xffffffffffffffffffffffffffffffffffffffff\n      and\n      dup2\n      mstore\n      0x20\n      add\n      swap1\n      dup2\n      mstore\n      0x20\n      add\n      0x00\n      keccak256\n        /* \"contracts/Hangman.sol\":2219:2253  Game storage g = games[msg.sender] */\n      swap1\n      pop\n        /* \"contracts/Hangman.sol\":2286:2299  Status.Active */\n      0x01\n        /* \"contracts/Hangman.sol\":2274:2299  g.status != Status.Active */\n      0x03\n      dup2\n      gt\n      iszero\n      tag_106\n      jumpi\n      tag_107\n      tag_39\n      jump\t// in\n    tag_107:\n    tag_106:\n        /* \"contracts/Hangman.sol\":2274:2275  g */\n      dup2\n        /* \"contracts/Hangman.sol\":2274:2282  g.status */\n      0x00\n      add\n      0x00\n      swap1\n      sload\n      swap1\n      0x0100\n      exp\n      swap1\n      div\n      0xff\n      and\n        /* \"contracts/Hangman.sol\":2274:2299  g.status != Status.Active */\n      0x03\n      dup2\n      gt\n      iszero\n      tag_108\n      jumpi\n      tag_109\n      tag_39\n      jump\t// in\n    tag_109:\n    tag_108:\n      sub\n        /* \"contracts/Hangman.sol\":2266:2323  require(g.status != Status.Active, \"game already active\") */\n      tag_110\n      jumpi\n      mload(0x40)\n      0x08c379a000000000000000000000000000000000000000000000000000000000\n      dup2\n      mstore\n      0x04\n      add\n      tag_111\n      swap1\n      tag_112\n      jump\t// in\n    tag_111:\n      mload(0x40)\n      dup1\n      swap2\n      sub\n      swap1\n      revert\n    tag_110:\n        /* \"contracts/Hangman.sol\":2336:2348  uint8 length */\n      0x00\n        /* \"contracts/Hangman.sol\":2351:2366  _randomLength() */\n      tag_113\n        /* \"contracts/Hangman.sol\":2351:2364  _randomLength */\n      tag_114\n        /* \"contracts/Hangman.sol\":2351:2366  _randomLength() */\n      jump\t// in\n    tag_113:\n        /* \"contracts/Hangman.sol\":2336:2366  uint8 length = _randomLength() */\n      swap1\n      pop\n        /* \"contracts/Hangman.sol\":2398:2411  Status.Active */\n      0x01\n        /* \"contracts/Hangman.sol\":2387:2388  g */\n      dup3\n        /* \"contracts/Hangman.sol\":2387:2395  g.status */\n      0x00\n      add\n      0x00\n        /* \"contracts/Hangman.sol\":2387:2411  g.status = Status.Active */\n      0x0100\n      exp\n      dup2\n      sload\n      dup2\n      0xff\n      mul\n      not\n      and\n      swap1\n      dup4\n      0x03\n      dup2\n      gt\n      iszero\n      tag_115\n      jumpi\n      tag_116\n      tag_39\n      jump\t// in\n    tag_116:\n    tag_115:\n      mul\n      or\n      swap1\n      sstore\n      pop\n        /* \"contracts/Hangman.sol\":2433:2439  length */\n      dup1\n        /* \"contracts/Hangman.sol\":2422:2423  g */\n      dup3\n        /* \"contracts/Hangman.sol\":2422:2430  g.length */\n      0x00\n      add\n      0x01\n        /* \"contracts/Hangman.sol\":2422:2439  g.length = length */\n      0x0100\n      exp\n      dup2\n      sload\n      dup2\n      0xff\n      mul\n      not\n      and\n      swap1\n      dup4\n      0xff\n      and\n      mul\n      or\n      swap1\n      sstore\n      pop\n        /* \"contracts/Hangman.sol\":2467:2468  0 */\n      0x00\n        /* \"contracts/Hangman.sol\":2450:2451  g */\n      dup3\n        /* \"contracts/Hangman.sol\":2450:2464  g.wrongGuesses */\n      0x00\n      add\n      0x02\n        /* \"contracts/Hangman.sol\":2450:2468  g.wrongGuesses = 0 */\n      0x0100\n      exp\n      dup2\n      sload\n      dup2\n      0xff\n      mul\n      not\n      and\n      swap1\n      dup4\n      0xff\n      and\n      mul\n      or\n      swap1\n      sstore\n      pop\n        /* \"contracts/Hangman.sol\":2495:2496  0 */\n      0x00\n        /* \"contracts/Hangman.sol\":2479:2480  g */\n      dup3\n        /* \"contracts/Hangman.sol\":2479:2492  g.guessedMask */\n      0x02\n      add\n      0x00\n        /* \"contracts/Hangman.sol\":2479:2496  g.guessedMask = 0 */\n      0x0100\n      exp\n      dup2\n      sload\n      dup2\n      0xffffffff\n      mul\n      not\n      and\n      swap1\n      dup4\n      0xffffffff\n      and\n      mul\n      or\n      swap1\n      sstore\n      pop\n        /* \"contracts/Hangman.sol\":2523:2524  0 */\n      0x00\n        /* \"contracts/Hangman.sol\":2507:2508  g */\n      dup3\n        /* \"contracts/Hangman.sol\":2507:2520  g.correctMask */\n      0x02\n      add\n      0x04\n        /* \"contracts/Hangman.sol\":2507:2524  g.correctMask = 0 */\n      0x0100\n      exp\n      dup2\n      sload\n      dup2\n      0xffffffff\n      mul\n      not\n      and\n      swap1\n      dup4\n      0xffffffff\n      and\n      mul\n      or\n      swap1\n      sstore\n      pop\n        /* \"contracts/Hangman.sol\":2549:2550  0 */\n      0x00\n        /* \"contracts/Hangman.sol\":2535:2536  g */\n      dup3\n        /* \"contracts/Hangman.sol\":2535:2546  g.wrongMask */\n      0x02\n      add\n      0x08\n        /* \"contracts/Hangman.sol\":2535:2550  g.wrongMask = 0 */\n      0x0100\n      exp\n      dup2\n      sload\n      dup2\n      0xffffffff\n      mul\n      not\n      and\n      swap1\n      dup4\n      0xffffffff\n      and\n      mul\n      or\n      swap1\n      sstore\n      pop\n        /* \"contracts/Hangman.sol\":2582:2588  length */\n      dup1\n        /* \"contracts/Hangman.sol\":2572:2589  new bytes(length) */\n      0xff\n      and\n      0xffffffffffffffff\n      dup2\n      gt\n      iszero\n      tag_117\n      jumpi\n      tag_118\n      tag_119\n      jump\t// in\n    tag_118:\n    tag_117:\n      mload(0x40)\n      swap1\n      dup1\n      dup3\n      mstore\n      dup1\n      0x1f\n      add\n      not(0x1f)\n      and\n      0x20\n      add\n      dup3\n      add\n      0x40\n      mstore\n      dup1\n      iszero\n      tag_120\n      jumpi\n      dup2\n      0x20\n      add\n      0x01\n      dup3\n      mul\n      dup1\n      calldatasize\n      dup4\n      calldatacopy\n      dup1\n      dup3\n      add\n      swap2\n      pop\n      pop\n      swap1\n      pop\n    tag_120:\n      pop\n        /* \"contracts/Hangman.sol\":2563:2564  g */\n      dup3\n        /* \"contracts/Hangman.sol\":2563:2569  g.mask */\n      0x01\n      add\n        /* \"contracts/Hangman.sol\":2563:2589  g.mask = new bytes(length) */\n      swap1\n      dup2\n      tag_121\n      swap2\n      swap1\n      tag_122\n      jump\t// in\n    tag_121:\n      pop\n        /* \"contracts/Hangman.sol\":2605:2614  uint256 i */\n      0x00\n        /* \"contracts/Hangman.sol\":2600:2687  for (uint256 i = 0; i < length; i++) {... */\n    tag_123:\n        /* \"contracts/Hangman.sol\":2624:2630  length */\n      dup2\n        /* \"contracts/Hangman.sol\":2620:2630  i < length */\n      0xff\n      and\n        /* \"contracts/Hangman.sol\":2620:2621  i */\n      dup2\n        /* \"contracts/Hangman.sol\":2620:2630  i < length */\n      lt\n        /* \"contracts/Hangman.sol\":2600:2687  for (uint256 i = 0; i < length; i++) {... */\n      iszero\n      tag_124\n      jumpi\n        /* \"contracts/Hangman.sol\":2664:2675  bytes1(\"_\") */\n      0x5f00000000000000000000000000000000000000000000000000000000000000\n        /* \"contracts/Hangman.sol\":2652:2653  g */\n      dup4\n        /* \"contracts/Hangman.sol\":2652:2658  g.mask */\n      0x01\n      add\n        /* \"contracts/Hangman.sol\":2659:2660  i */\n      dup3\n        /* \"contracts/Hangman.sol\":2652:2661  g.mask[i] */\n      dup2\n      sload\n      tag_126\n      swap1\n      tag_31\n      jump\t// in\n    tag_126:\n      dup2\n      lt\n      tag_127\n      jumpi\n      tag_128\n      tag_50\n      jump\t// in\n    tag_128:\n    tag_127:\n      dup2\n      sload\n      0x01\n      and\n      iszero\n      tag_129\n      jumpi\n      swap1\n      0x00\n      mstore\n      keccak256(0x00, 0x20)\n      swap1\n      0x20\n      swap2\n      dup3\n      dup3\n      div\n      add\n      swap2\n      swap1\n      mod\n    tag_129:\n        /* \"contracts/Hangman.sol\":2652:2675  g.mask[i] = bytes1(\"_\") */\n      0x1f\n      sub\n      0x0100\n      exp\n      dup2\n      sload\n      dup2\n      0xff\n      mul\n      not\n      and\n      swap1\n      0x0100000000000000000000000000000000000000000000000000000000000000\n      dup5\n      div\n      mul\n      or\n      swap1\n      sstore\n      pop\n        /* \"contracts/Hangman.sol\":2632:2635  i++ */\n      dup1\n      dup1\n      tag_130\n      swap1\n      tag_87\n      jump\t// in\n    tag_130:\n      swap2\n      pop\n      pop\n        /* \"contracts/Hangman.sol\":2600:2687  for (uint256 i = 0; i < length; i++) {... */\n      jump(tag_123)\n    tag_124:\n      pop\n        /* \"contracts/Hangman.sol\":2716:2726  msg.sender */\n      caller\n        /* \"contracts/Hangman.sol\":2704:2743  GameStarted(msg.sender, length, g.mask) */\n      0xffffffffffffffffffffffffffffffffffffffff\n      and\n      0x362a5ee0744680df9f8bd7848062c7608e392410201575266042218106f40596\n        /* \"contracts/Hangman.sol\":2728:2734  length */\n      dup3\n        /* \"contracts/Hangman.sol\":2736:2737  g */\n      dup5\n        /* \"contracts/Hangman.sol\":2736:2742  g.mask */\n      0x01\n      add\n        /* \"contracts/Hangman.sol\":2704:2743  GameStarted(msg.sender, length, g.mask) */\n      mload(0x40)\n      tag_131\n      swap3\n      swap2\n      swap1\n      tag_132\n      jump\t// in\n    tag_131:\n      mload(0x40)\n      dup1\n      swap2\n      sub\n      swap1\n      log2\n        /* \"contracts/Hangman.sol\":2208:2751  {... */\n      pop\n      pop\n        /* \"contracts/Hangman.sol\":2178:2751  function startGame() external {... */\n      jump\t// out\n        /* \"contracts/Hangman.sol\":552:595  uint8 public constant MAX_WRONG_GUESSES = 6 */\n    tag_27:\n        /* \"contracts/Hangman.sol\":594:595  6 */\n      0x06\n        /* \"contracts/Hangman.sol\":552:595  uint8 public constant MAX_WRONG_GUESSES = 6 */\n      dup2\n      jump\t// out\n        /* \"contracts/Hangman.sol\":5515:6072  function _pickRandomCandidate(Game storage g) internal view returns (bytes memory) {... */\n    tag_65:\n        /* \"contracts/Hangman.sol\":5584:5596  bytes memory */\n      0x60\n        /* \"contracts/Hangman.sol\":5609:5622  uint256 count */\n      0x00\n        /* \"contracts/Hangman.sol\":5625:5644  _countCandidates(g) */\n      tag_134\n        /* \"contracts/Hangman.sol\":5642:5643  g */\n      dup4\n        /* \"contracts/Hangman.sol\":5625:5641  _countCandidates */\n      tag_135\n        /* \"contracts/Hangman.sol\":5625:5644  _countCandidates(g) */\n      jump\t// in\n    tag_134:\n        /* \"contracts/Hangman.sol\":5609:5644  uint256 count = _countCandidates(g) */\n      swap1\n      pop\n        /* \"contracts/Hangman.sol\":5671:5672  0 */\n      0x00\n        /* \"contracts/Hangman.sol\":5663:5668  count */\n      dup2\n        /* \"contracts/Hangman.sol\":5663:5672  count > 0 */\n      gt\n        /* \"contracts/Hangman.sol\":5655:5691  require(count > 0, \"no valid words\") */\n      tag_136\n      jumpi\n      mload(0x40)\n      0x08c379a000000000000000000000000000000000000000000000000000000000\n      dup2\n      mstore\n      0x04\n      add\n      tag_137\n      swap1\n      tag_138\n      jump\t// in\n    tag_137:\n      mload(0x40)\n      dup1\n      swap2\n      sub\n      swap1\n      revert\n    tag_136:\n        /* \"contracts/Hangman.sol\":5704:5713  uint256 r */\n      0x00\n        /* \"contracts/Hangman.sol\":5716:5728  _rand(count) */\n      tag_139\n        /* \"contracts/Hangman.sol\":5722:5727  count */\n      dup3\n        /* \"contracts/Hangman.sol\":5716:5721  _rand */\n      tag_140\n        /* \"contracts/Hangman.sol\":5716:5728  _rand(count) */\n      jump\t// in\n    tag_139:\n        /* \"contracts/Hangman.sol\":5704:5728  uint256 r = _rand(count) */\n      swap1\n      pop\n        /* \"contracts/Hangman.sol\":5741:5753  uint256 seen */\n      0x00\n        /* \"contracts/Hangman.sol\":5773:5782  uint256 i */\n      dup1\n        /* \"contracts/Hangman.sol\":5768:6018  for (uint256 i = 0; i < DICT.length; i++) {... */\n    tag_141:\n        /* \"contracts/Hangman.sol\":5792:5796  DICT */\n      0x01\n        /* \"contracts/Hangman.sol\":5792:5803  DICT.length */\n      dup1\n      sload\n      swap1\n      pop\n        /* \"contracts/Hangman.sol\":5788:5789  i */\n      dup2\n        /* \"contracts/Hangman.sol\":5788:5803  i < DICT.length */\n      lt\n        /* \"contracts/Hangman.sol\":5768:6018  for (uint256 i = 0; i < DICT.length; i++) {... */\n      iszero\n      tag_142\n      jumpi\n        /* \"contracts/Hangman.sol\":5825:5839  bytes memory w */\n      0x00\n        /* \"contracts/Hangman.sol\":5848:5852  DICT */\n      0x01\n        /* \"contracts/Hangman.sol\":5853:5854  i */\n      dup3\n        /* \"contracts/Hangman.sol\":5848:5855  DICT[i] */\n      dup2\n      sload\n      dup2\n      lt\n      tag_144\n      jumpi\n      tag_145\n      tag_50\n      jump\t// in\n    tag_145:\n    tag_144:\n      swap1\n      0x00\n      mstore\n      keccak256(0x00, 0x20)\n      add\n        /* \"contracts/Hangman.sol\":5825:5856  bytes memory w = bytes(DICT[i]) */\n      dup1\n      sload\n      tag_147\n      swap1\n      tag_31\n      jump\t// in\n    tag_147:\n      dup1\n      0x1f\n      add\n      0x20\n      dup1\n      swap2\n      div\n      mul\n      0x20\n      add\n      mload(0x40)\n      swap1\n      dup2\n      add\n      0x40\n      mstore\n      dup1\n      swap3\n      swap2\n      swap1\n      dup2\n      dup2\n      mstore\n      0x20\n      add\n      dup3\n      dup1\n      sload\n      tag_148\n      swap1\n      tag_31\n      jump\t// in\n    tag_148:\n      dup1\n      iszero\n      tag_149\n      jumpi\n      dup1\n      0x1f\n      lt\n      tag_150\n      jumpi\n      0x0100\n      dup1\n      dup4\n      sload\n      div\n      mul\n      dup4\n      mstore\n      swap2\n      0x20\n      add\n      swap2\n      jump(tag_149)\n    tag_150:\n      dup3\n      add\n      swap2\n      swap1\n      0x00\n      mstore\n      keccak256(0x00, 0x20)\n      swap1\n    tag_151:\n      dup2\n      sload\n      dup2\n      mstore\n      swap1\n      0x01\n      add\n      swap1\n      0x20\n      add\n      dup1\n      dup4\n      gt\n      tag_151\n      jumpi\n      dup3\n      swap1\n      sub\n      0x1f\n      and\n      dup3\n      add\n      swap2\n    tag_149:\n      pop\n      pop\n      pop\n      pop\n      pop\n      swap1\n      pop\n        /* \"contracts/Hangman.sol\":5876:5901  _matchesConstraints(g, w) */\n      tag_152\n        /* \"contracts/Hangman.sol\":5896:5897  g */\n      dup8\n        /* \"contracts/Hangman.sol\":5899:5900  w */\n      dup3\n        /* \"contracts/Hangman.sol\":5876:5895  _matchesConstraints */\n      tag_153\n        /* \"contracts/Hangman.sol\":5876:5901  _matchesConstraints(g, w) */\n      jump\t// in\n    tag_152:\n        /* \"contracts/Hangman.sol\":5871:5911  if (!_matchesConstraints(g, w)) continue */\n      tag_154\n      jumpi\n        /* \"contracts/Hangman.sol\":5903:5911  continue */\n      pop\n      jump(tag_143)\n        /* \"contracts/Hangman.sol\":5871:5911  if (!_matchesConstraints(g, w)) continue */\n    tag_154:\n        /* \"contracts/Hangman.sol\":5940:5941  r */\n      dup4\n        /* \"contracts/Hangman.sol\":5932:5936  seen */\n      dup4\n        /* \"contracts/Hangman.sol\":5932:5941  seen == r */\n      sub\n        /* \"contracts/Hangman.sol\":5928:5986  if (seen == r) {... */\n      tag_155\n      jumpi\n        /* \"contracts/Hangman.sol\":5969:5970  w */\n      dup1\n        /* \"contracts/Hangman.sol\":5962:5970  return w */\n      swap6\n      pop\n      pop\n      pop\n      pop\n      pop\n      pop\n      jump(tag_133)\n        /* \"contracts/Hangman.sol\":5928:5986  if (seen == r) {... */\n    tag_155:\n        /* \"contracts/Hangman.sol\":6000:6006  seen++ */\n      dup3\n      dup1\n      tag_156\n      swap1\n      tag_87\n      jump\t// in\n    tag_156:\n      swap4\n      pop\n      pop\n        /* \"contracts/Hangman.sol\":5810:6018  {... */\n      pop\n        /* \"contracts/Hangman.sol\":5768:6018  for (uint256 i = 0; i < DICT.length; i++) {... */\n    tag_143:\n        /* \"contracts/Hangman.sol\":5805:5808  i++ */\n      dup1\n      dup1\n      tag_157\n      swap1\n      tag_87\n      jump\t// in\n    tag_157:\n      swap2\n      pop\n      pop\n        /* \"contracts/Hangman.sol\":5768:6018  for (uint256 i = 0; i < DICT.length; i++) {... */\n      jump(tag_141)\n    tag_142:\n      pop\n        /* \"contracts/Hangman.sol\":6028:6064  revert(\"candidate selection failed\") */\n      mload(0x40)\n      0x08c379a000000000000000000000000000000000000000000000000000000000\n      dup2\n      mstore\n      0x04\n      add\n      tag_158\n      swap1\n      tag_159\n      jump\t// in\n    tag_158:\n      mload(0x40)\n      dup1\n      swap2\n      sub\n      swap1\n      revert\n        /* \"contracts/Hangman.sol\":5515:6072  function _pickRandomCandidate(Game storage g) internal view returns (bytes memory) {... */\n    tag_133:\n      swap2\n      swap1\n      pop\n      jump\t// out\n        /* \"contracts/Hangman.sol\":7562:7779  function _contains(bytes memory w, bytes1 letter) internal pure returns (bool) {... */\n    tag_67:\n        /* \"contracts/Hangman.sol\":7635:7639  bool */\n      0x00\n        /* \"contracts/Hangman.sol\":7657:7666  uint256 i */\n      dup1\n        /* \"contracts/Hangman.sol\":7669:7670  0 */\n      0x00\n        /* \"contracts/Hangman.sol\":7657:7670  uint256 i = 0 */\n      swap1\n      pop\n        /* \"contracts/Hangman.sol\":7652:7749  for (uint256 i = 0; i < w.length; i++) {... */\n    tag_161:\n        /* \"contracts/Hangman.sol\":7676:7677  w */\n      dup4\n        /* \"contracts/Hangman.sol\":7676:7684  w.length */\n      mload\n        /* \"contracts/Hangman.sol\":7672:7673  i */\n      dup2\n        /* \"contracts/Hangman.sol\":7672:7684  i < w.length */\n      lt\n        /* \"contracts/Hangman.sol\":7652:7749  for (uint256 i = 0; i < w.length; i++) {... */\n      iszero\n      tag_162\n      jumpi\n        /* \"contracts/Hangman.sol\":7718:7724  letter */\n      dup3\n        /* \"contracts/Hangman.sol\":7710:7724  w[i] == letter */\n      not(0xffffffffffffffffffffffffffffffffffffffffffffffffffffffffffffff)\n      and\n        /* \"contracts/Hangman.sol\":7710:7711  w */\n      dup5\n        /* \"contracts/Hangman.sol\":7712:7713  i */\n      dup3\n        /* \"contracts/Hangman.sol\":7710:7714  w[i] */\n      dup2\n      mload\n      dup2\n      lt\n      tag_164\n      jumpi\n      tag_165\n      tag_50\n      jump\t// in\n    tag_165:\n    tag_164:\n      0x20\n      add\n      add\n      mload\n      0xf8\n      shr\n      0xf8\n      shl\n        /* \"contracts/Hangman.sol\":7710:7724  w[i] == letter */\n      not(0xffffffffffffffffffffffffffffffffffffffffffffffffffffffffffffff)\n      and\n      sub\n        /* \"contracts/Hangman.sol\":7706:7737  if (w[i] == letter) return true */\n      tag_166\n      jumpi\n        /* \"contracts/Hangman.sol\":7733:7737  true */\n      0x01\n        /* \"contracts/Hangman.sol\":7726:7737  return true */\n      swap2\n      pop\n      pop\n      jump(tag_160)\n        /* \"contracts/Hangman.sol\":7706:7737  if (w[i] == letter) return true */\n    tag_166:\n        /* \"contracts/Hangman.sol\":7686:7689  i++ */\n      dup1\n      dup1\n      tag_167\n      swap1\n      tag_87\n      jump\t// in\n    tag_167:\n      swap2\n      pop\n      pop\n        /* \"contracts/Hangman.sol\":7652:7749  for (uint256 i = 0; i < w.length; i++) {... */\n      jump(tag_161)\n    tag_162:\n      pop\n        /* \"contracts/Hangman.sol\":7766:7771  false */\n      0x00\n        /* \"contracts/Hangman.sol\":7759:7771  return false */\n      swap1\n      pop\n        /* \"contracts/Hangman.sol\":7562:7779  function _contains(bytes memory w, bytes1 letter) internal pure returns (bool) {... */\n    tag_160:\n      swap3\n      swap2\n      pop\n      pop\n      jump\t// out\n        /* \"contracts/Hangman.sol\":7036:7292  function _isCorrectLetter(Game storage g, bytes1 c) internal view returns (bool) {... */\n    tag_75:\n        /* \"contracts/Hangman.sol\":7111:7115  bool */\n      0x00\n        /* \"contracts/Hangman.sol\":7128:7136  uint8 uc */\n      dup1\n        /* \"contracts/Hangman.sol\":7145:7146  c */\n      dup3\n        /* \"contracts/Hangman.sol\":7139:7147  uint8(c) */\n      0xf8\n      shr\n        /* \"contracts/Hangman.sol\":7128:7147  uint8 uc = uint8(c) */\n      swap1\n      pop\n        /* \"contracts/Hangman.sol\":7167:7169  97 */\n      0x61\n        /* \"contracts/Hangman.sol\":7162:7164  uc */\n      dup2\n        /* \"contracts/Hangman.sol\":7162:7169  uc < 97 */\n      0xff\n      and\n      lt\n        /* \"contracts/Hangman.sol\":7162:7181  uc < 97 || uc > 122 */\n      dup1\n      tag_169\n      jumpi\n      pop\n        /* \"contracts/Hangman.sol\":7178:7181  122 */\n      0x7a\n        /* \"contracts/Hangman.sol\":7173:7175  uc */\n      dup2\n        /* \"contracts/Hangman.sol\":7173:7181  uc > 122 */\n      0xff\n      and\n      gt\n        /* \"contracts/Hangman.sol\":7162:7181  uc < 97 || uc > 122 */\n    tag_169:\n        /* \"contracts/Hangman.sol\":7158:7195  if (uc < 97 || uc > 122) return false */\n      iszero\n      tag_170\n      jumpi\n        /* \"contracts/Hangman.sol\":7190:7195  false */\n      0x00\n        /* \"contracts/Hangman.sol\":7183:7195  return false */\n      swap2\n      pop\n      pop\n      jump(tag_168)\n        /* \"contracts/Hangman.sol\":7158:7195  if (uc < 97 || uc > 122) return false */\n    tag_170:\n        /* \"contracts/Hangman.sol\":7206:7215  uint8 idx */\n      0x00\n        /* \"contracts/Hangman.sol\":7223:7225  97 */\n      0x61\n        /* \"contracts/Hangman.sol\":7218:7220  uc */\n      dup3\n        /* \"contracts/Hangman.sol\":7218:7225  uc - 97 */\n      tag_171\n      swap2\n      swap1\n      tag_60\n      jump\t// in\n    tag_171:\n        /* \"contracts/Hangman.sol\":7206:7225  uint8 idx = uc - 97 */\n      swap1\n      pop\n        /* \"contracts/Hangman.sol\":7283:7284  0 */\n      0x00\n        /* \"contracts/Hangman.sol\":7274:7277  idx */\n      dup2\n        /* \"contracts/Hangman.sol\":7261:7277  uint32(1) << idx */\n      0xff\n      and\n        /* \"contracts/Hangman.sol\":7268:7269  1 */\n      0x01\n        /* \"contracts/Hangman.sol\":7261:7277  uint32(1) << idx */\n      0xffffffff\n      and\n      swap1\n      shl\n        /* \"contracts/Hangman.sol\":7244:7245  g */\n      dup7\n        /* \"contracts/Hangman.sol\":7244:7257  g.correctMask */\n      0x02\n      add\n      0x04\n      swap1\n      sload\n      swap1\n      0x0100\n      exp\n      swap1\n      div\n      0xffffffff\n      and\n        /* \"contracts/Hangman.sol\":7244:7278  g.correctMask & (uint32(1) << idx) */\n      and\n        /* \"contracts/Hangman.sol\":7243:7284  (g.correctMask & (uint32(1) << idx)) != 0 */\n      0xffffffff\n      and\n      eq\n      iszero\n        /* \"contracts/Hangman.sol\":7236:7284  return (g.correctMask & (uint32(1) << idx)) != 0 */\n      swap3\n      pop\n      pop\n      pop\n        /* \"contracts/Hangman.sol\":7036:7292  function _isCorrectLetter(Game storage g, bytes1 c) internal view returns (bool) {... */\n    tag_168:\n      swap3\n      swap2\n      pop\n      pop\n      jump\t// out\n        /* \"contracts/Hangman.sol\":7787:7999  function _hasUnrevealed(bytes memory m) internal pure returns (bool) {... */\n    tag_94:\n        /* \"contracts/Hangman.sol\":7850:7854  bool */\n      0x00\n        /* \"contracts/Hangman.sol\":7872:7881  uint256 i */\n      dup1\n        /* \"contracts/Hangman.sol\":7884:7885  0 */\n      0x00\n        /* \"contracts/Hangman.sol\":7872:7885  uint256 i = 0 */\n      swap1\n      pop\n        /* \"contracts/Hangman.sol\":7867:7969  for (uint256 i = 0; i < m.length; i++) {... */\n    tag_173:\n        /* \"contracts/Hangman.sol\":7891:7892  m */\n      dup3\n        /* \"contracts/Hangman.sol\":7891:7899  m.length */\n      mload\n        /* \"contracts/Hangman.sol\":7887:7888  i */\n      dup2\n        /* \"contracts/Hangman.sol\":7887:7899  i < m.length */\n      lt\n        /* \"contracts/Hangman.sol\":7867:7969  for (uint256 i = 0; i < m.length; i++) {... */\n      iszero\n      tag_174\n      jumpi\n        /* \"contracts/Hangman.sol\":7933:7944  bytes1(\"_\") */\n      0x5f00000000000000000000000000000000000000000000000000000000000000\n        /* \"contracts/Hangman.sol\":7925:7944  m[i] == bytes1(\"_\") */\n      not(0xffffffffffffffffffffffffffffffffffffffffffffffffffffffffffffff)\n      and\n        /* \"contracts/Hangman.sol\":7925:7926  m */\n      dup4\n        /* \"contracts/Hangman.sol\":7927:7928  i */\n      dup3\n        /* \"contracts/Hangman.sol\":7925:7929  m[i] */\n      dup2\n      mload\n      dup2\n      lt\n      tag_176\n      jumpi\n      tag_177\n      tag_50\n      jump\t// in\n    tag_177:\n    tag_176:\n      0x20\n      add\n      add\n      mload\n      0xf8\n      shr\n      0xf8\n      shl\n        /* \"contracts/Hangman.sol\":7925:7944  m[i] == bytes1(\"_\") */\n      not(0xffffffffffffffffffffffffffffffffffffffffffffffffffffffffffffff)\n      and\n      sub\n        /* \"contracts/Hangman.sol\":7921:7957  if (m[i] == bytes1(\"_\")) return true */\n      tag_178\n      jumpi\n        /* \"contracts/Hangman.sol\":7953:7957  true */\n      0x01\n        /* \"contracts/Hangman.sol\":7946:7957  return true */\n      swap2\n      pop\n      pop\n      jump(tag_172)\n        /* \"contracts/Hangman.sol\":7921:7957  if (m[i] == bytes1(\"_\")) return true */\n    tag_178:\n        /* \"contracts/Hangman.sol\":7901:7904  i++ */\n      dup1\n      dup1\n      tag_179\n      swap1\n      tag_87\n      jump\t// in\n    tag_179:\n      swap2\n      pop\n      pop\n        /* \"contracts/Hangman.sol\":7867:7969  for (uint256 i = 0; i < m.length; i++) {... */\n      jump(tag_173)\n    tag_174:\n      pop\n        /* \"contracts/Hangman.sol\":7986:7991  false */\n      0x00\n        /* \"contracts/Hangman.sol\":7979:7991  return false */\n      swap1\n      pop\n        /* \"contracts/Hangman.sol\":7787:7999  function _hasUnrevealed(bytes memory m) internal pure returns (bool) {... */\n    tag_172:\n      swap2\n      swap1\n      pop\n      jump\t// out\n        /* \"contracts/Hangman.sol\":6458:6739  function _randomLength() internal view returns (uint8) {... */\n    tag_114:\n        /* \"contracts/Hangman.sol\":6506:6511  uint8 */\n      0x00\n        /* \"contracts/Hangman.sol\":6524:6536  uint256 span */\n      dup1\n        /* \"contracts/Hangman.sol\":6567:6568  1 */\n      0x01\n        /* \"contracts/Hangman.sol\":503:504  4 */\n      0x04\n        /* \"contracts/Hangman.sol\":543:545  10 */\n      0x0a\n        /* \"contracts/Hangman.sol\":6547:6564  MAX_LEN - MIN_LEN */\n      tag_181\n      swap2\n      swap1\n      tag_60\n      jump\t// in\n    tag_181:\n        /* \"contracts/Hangman.sol\":6547:6568  MAX_LEN - MIN_LEN + 1 */\n      tag_182\n      swap2\n      swap1\n      tag_54\n      jump\t// in\n    tag_182:\n        /* \"contracts/Hangman.sol\":6539:6569  uint256(MAX_LEN - MIN_LEN + 1) */\n      0xff\n      and\n        /* \"contracts/Hangman.sol\":6524:6569  uint256 span = uint256(MAX_LEN - MIN_LEN + 1) */\n      swap1\n      pop\n        /* \"contracts/Hangman.sol\":6580:6589  uint256 r */\n      0x00\n        /* \"contracts/Hangman.sol\":6652:6653  1 */\n      0x01\n        /* \"contracts/Hangman.sol\":6637:6649  block.number */\n      number\n        /* \"contracts/Hangman.sol\":6637:6653  block.number - 1 */\n      tag_183\n      swap2\n      swap1\n      tag_184\n      jump\t// in\n    tag_183:\n        /* \"contracts/Hangman.sol\":6627:6654  blockhash(block.number - 1) */\n      blockhash\n        /* \"contracts/Hangman.sol\":6656:6671  block.timestamp */\n      timestamp\n        /* \"contracts/Hangman.sol\":6673:6683  msg.sender */\n      caller\n        /* \"contracts/Hangman.sol\":6610:6684  abi.encodePacked(blockhash(block.number - 1), block.timestamp, msg.sender) */\n      add(0x20, mload(0x40))\n      tag_185\n      swap4\n      swap3\n      swap2\n      swap1\n      tag_186\n      jump\t// in\n    tag_185:\n      mload(0x40)\n      0x20\n      dup2\n      dup4\n      sub\n      sub\n      dup2\n      mstore\n      swap1\n      0x40\n      mstore\n        /* \"contracts/Hangman.sol\":6600:6685  keccak256(abi.encodePacked(blockhash(block.number - 1), block.timestamp, msg.sender)) */\n      dup1\n      mload\n      swap1\n      0x20\n      add\n      keccak256\n        /* \"contracts/Hangman.sol\":6592:6686  uint256(keccak256(abi.encodePacked(blockhash(block.number - 1), block.timestamp, msg.sender))) */\n      0x00\n      shr\n        /* \"contracts/Hangman.sol\":6580:6686  uint256 r = uint256(keccak256(abi.encodePacked(blockhash(block.number - 1), block.timestamp, msg.sender))) */\n      swap1\n      pop\n        /* \"contracts/Hangman.sol\":6725:6729  span */\n      dup2\n        /* \"contracts/Hangman.sol\":6721:6722  r */\n      dup2\n        /* \"contracts/Hangman.sol\":6721:6729  r % span */\n      tag_187\n      swap2\n      swap1\n      tag_188\n      jump\t// in\n    tag_187:\n        /* \"contracts/Hangman.sol\":503:504  4 */\n      0x04\n        /* \"contracts/Hangman.sol\":6710:6730  MIN_LEN + (r % span) */\n      0xff\n      and\n      tag_189\n      swap2\n      swap1\n      tag_190\n      jump\t// in\n    tag_189:\n        /* \"contracts/Hangman.sol\":6697:6731  return uint8(MIN_LEN + (r % span)) */\n      swap3\n      pop\n      pop\n      pop\n        /* \"contracts/Hangman.sol\":6458:6739  function _randomLength() internal view returns (uint8) {... */\n      swap1\n      jump\t// out\n        /* \"contracts/Hangman.sol\":6080:6410  function _countCandidates(Game storage g) internal view returns (uint256) {... */\n    tag_135:\n        /* \"contracts/Hangman.sol\":6145:6152  uint256 */\n      0x00\n        /* \"contracts/Hangman.sol\":6165:6178  uint256 count */\n      dup1\n        /* \"contracts/Hangman.sol\":6181:6182  0 */\n      0x00\n        /* \"contracts/Hangman.sol\":6165:6182  uint256 count = 0 */\n      swap1\n      pop\n        /* \"contracts/Hangman.sol\":6198:6207  uint256 i */\n      0x00\n        /* \"contracts/Hangman.sol\":6193:6380  for (uint256 i = 0; i < DICT.length; i++) {... */\n    tag_192:\n        /* \"contracts/Hangman.sol\":6217:6221  DICT */\n      0x01\n        /* \"contracts/Hangman.sol\":6217:6228  DICT.length */\n      dup1\n      sload\n      swap1\n      pop\n        /* \"contracts/Hangman.sol\":6213:6214  i */\n      dup2\n        /* \"contracts/Hangman.sol\":6213:6228  i < DICT.length */\n      lt\n        /* \"contracts/Hangman.sol\":6193:6380  for (uint256 i = 0; i < DICT.length; i++) {... */\n      iszero\n      tag_193\n      jumpi\n        /* \"contracts/Hangman.sol\":6250:6264  bytes memory w */\n      0x00\n        /* \"contracts/Hangman.sol\":6273:6277  DICT */\n      0x01\n        /* \"contracts/Hangman.sol\":6278:6279  i */\n      dup3\n        /* \"contracts/Hangman.sol\":6273:6280  DICT[i] */\n      dup2\n      sload\n      dup2\n      lt\n      tag_195\n      jumpi\n      tag_196\n      tag_50\n      jump\t// in\n    tag_196:\n    tag_195:\n      swap1\n      0x00\n      mstore\n      keccak256(0x00, 0x20)\n      add\n        /* \"contracts/Hangman.sol\":6250:6281  bytes memory w = bytes(DICT[i]) */\n      dup1\n      sload\n      tag_198\n      swap1\n      tag_31\n      jump\t// in\n    tag_198:\n      dup1\n      0x1f\n      add\n      0x20\n      dup1\n      swap2\n      div\n      mul\n      0x20\n      add\n      mload(0x40)\n      swap1\n      dup2\n      add\n      0x40\n      mstore\n      dup1\n      swap3\n      swap2\n      swap1\n      dup2\n      dup2\n      mstore\n      0x20\n      add\n      dup3\n      dup1\n      sload\n      tag_199\n      swap1\n      tag_31\n      jump\t// in\n    tag_199:\n      dup1\n      iszero\n      tag_200\n      jumpi\n      dup1\n      0x1f\n      lt\n      tag_201\n      jumpi\n      0x0100\n      dup1\n      dup4\n      sload\n      div\n      mul\n      dup4\n      mstore\n      swap2\n      0x20\n      add\n      swap2\n      jump(tag_200)\n    tag_201:\n      dup3\n      add\n      swap2\n      swap1\n      0x00\n      mstore\n      keccak256(0x00, 0x20)\n      swap1\n    tag_202:\n      dup2\n      sload\n      dup2\n      mstore\n      swap1\n      0x01\n      add\n      swap1\n      0x20\n      add\n      dup1\n      dup4\n      gt\n      tag_202\n      jumpi\n      dup3\n      swap1\n      sub\n      0x1f\n      and\n      dup3\n      add\n      swap2\n    tag_200:\n      pop\n      pop\n      pop\n      pop\n      pop\n      swap1\n      pop\n        /* \"contracts/Hangman.sol\":6300:6325  _matchesConstraints(g, w) */\n      tag_203\n        /* \"contracts/Hangman.sol\":6320:6321  g */\n      dup6\n        /* \"contracts/Hangman.sol\":6323:6324  w */\n      dup3\n        /* \"contracts/Hangman.sol\":6300:6319  _matchesConstraints */\n      tag_153\n        /* \"contracts/Hangman.sol\":6300:6325  _matchesConstraints(g, w) */\n      jump\t// in\n    tag_203:\n        /* \"contracts/Hangman.sol\":6296:6369  if (_matchesConstraints(g, w)) {... */\n      iszero\n      tag_204\n      jumpi\n        /* \"contracts/Hangman.sol\":6346:6353  count++ */\n      dup3\n      dup1\n      tag_205\n      swap1\n      tag_87\n      jump\t// in\n    tag_205:\n      swap4\n      pop\n      pop\n        /* \"contracts/Hangman.sol\":6296:6369  if (_matchesConstraints(g, w)) {... */\n    tag_204:\n        /* \"contracts/Hangman.sol\":6235:6380  {... */\n      pop\n        /* \"contracts/Hangman.sol\":6230:6233  i++ */\n      dup1\n      dup1\n      tag_206\n      swap1\n      tag_87\n      jump\t// in\n    tag_206:\n      swap2\n      pop\n      pop\n        /* \"contracts/Hangman.sol\":6193:6380  for (uint256 i = 0; i < DICT.length; i++) {... */\n      jump(tag_192)\n    tag_193:\n      pop\n        /* \"contracts/Hangman.sol\":6397:6402  count */\n      dup1\n        /* \"contracts/Hangman.sol\":6390:6402  return count */\n      swap2\n      pop\n      pop\n        /* \"contracts/Hangman.sol\":6080:6410  function _countCandidates(Game storage g) internal view returns (uint256) {... */\n      swap2\n      swap1\n      pop\n      jump\t// out\n        /* \"contracts/Hangman.sol\":6747:7028  function _rand(uint256 modulo) internal view returns (uint256) {... */\n    tag_140:\n        /* \"contracts/Hangman.sol\":6801:6808  uint256 */\n      0x00\n        /* \"contracts/Hangman.sol\":7014:7020  modulo */\n      dup2\n        /* \"contracts/Hangman.sol\":6977:6978  1 */\n      0x01\n        /* \"contracts/Hangman.sol\":6962:6974  block.number */\n      number\n        /* \"contracts/Hangman.sol\":6962:6978  block.number - 1 */\n      tag_208\n      swap2\n      swap1\n      tag_184\n      jump\t// in\n    tag_208:\n        /* \"contracts/Hangman.sol\":6952:6979  blockhash(block.number - 1) */\n      blockhash\n        /* \"contracts/Hangman.sol\":6981:6996  block.timestamp */\n      timestamp\n        /* \"contracts/Hangman.sol\":6998:7008  msg.sender */\n      caller\n        /* \"contracts/Hangman.sol\":6935:7009  abi.encodePacked(blockhash(block.number - 1), block.timestamp, msg.sender) */\n      add(0x20, mload(0x40))\n      tag_209\n      swap4\n      swap3\n      swap2\n      swap1\n      tag_186\n      jump\t// in\n    tag_209:\n      mload(0x40)\n      0x20\n      dup2\n      dup4\n      sub\n      sub\n      dup2\n      mstore\n      swap1\n      0x40\n      mstore\n        /* \"contracts/Hangman.sol\":6925:7010  keccak256(abi.encodePacked(blockhash(block.number - 1), block.timestamp, msg.sender)) */\n      dup1\n      mload\n      swap1\n      0x20\n      add\n      keccak256\n        /* \"contracts/Hangman.sol\":6903:7011  uint256(... */\n      0x00\n      shr\n        /* \"contracts/Hangman.sol\":6903:7020  uint256(... */\n      tag_210\n      swap2\n      swap1\n      tag_188\n      jump\t// in\n    tag_210:\n        /* \"contracts/Hangman.sol\":6896:7020  return uint256(... */\n      swap1\n      pop\n        /* \"contracts/Hangman.sol\":6747:7028  function _rand(uint256 modulo) internal view returns (uint256) {... */\n      swap2\n      swap1\n      pop\n      jump\t// out\n        /* \"contracts/Hangman.sol\":4970:5507  function _matchesConstraints(Game storage g, bytes memory w) internal view returns (bool) {... */\n    tag_153:\n        /* \"contracts/Hangman.sol\":5054:5058  bool */\n      0x00\n        /* \"contracts/Hangman.sol\":5087:5088  g */\n      dup3\n        /* \"contracts/Hangman.sol\":5087:5095  g.length */\n      0x00\n      add\n      0x01\n      swap1\n      sload\n      swap1\n      0x0100\n      exp\n      swap1\n      div\n      0xff\n      and\n        /* \"contracts/Hangman.sol\":5075:5095  w.length != g.length */\n      0xff\n      and\n        /* \"contracts/Hangman.sol\":5075:5076  w */\n      dup3\n        /* \"contracts/Hangman.sol\":5075:5083  w.length */\n      mload\n        /* \"contracts/Hangman.sol\":5075:5095  w.length != g.length */\n      eq\n        /* \"contracts/Hangman.sol\":5071:5109  if (w.length != g.length) return false */\n      tag_212\n      jumpi\n        /* \"contracts/Hangman.sol\":5104:5109  false */\n      0x00\n        /* \"contracts/Hangman.sol\":5097:5109  return false */\n      swap1\n      pop\n      jump(tag_211)\n        /* \"contracts/Hangman.sol\":5071:5109  if (w.length != g.length) return false */\n    tag_212:\n        /* \"contracts/Hangman.sol\":5127:5136  uint256 i */\n      0x00\n        /* \"contracts/Hangman.sol\":5122:5478  for (uint256 i = 0; i < g.length; i++) {... */\n    tag_213:\n        /* \"contracts/Hangman.sol\":5146:5147  g */\n      dup4\n        /* \"contracts/Hangman.sol\":5146:5154  g.length */\n      0x00\n      add\n      0x01\n      swap1\n      sload\n      swap1\n      0x0100\n      exp\n      swap1\n      div\n      0xff\n      and\n        /* \"contracts/Hangman.sol\":5142:5154  i < g.length */\n      0xff\n      and\n        /* \"contracts/Hangman.sol\":5142:5143  i */\n      dup2\n        /* \"contracts/Hangman.sol\":5142:5154  i < g.length */\n      lt\n        /* \"contracts/Hangman.sol\":5122:5478  for (uint256 i = 0; i < g.length; i++) {... */\n      iszero\n      tag_214\n      jumpi\n        /* \"contracts/Hangman.sol\":5176:5185  bytes1 wc */\n      0x00\n        /* \"contracts/Hangman.sol\":5188:5189  w */\n      dup4\n        /* \"contracts/Hangman.sol\":5190:5191  i */\n      dup3\n        /* \"contracts/Hangman.sol\":5188:5192  w[i] */\n      dup2\n      mload\n      dup2\n      lt\n      tag_216\n      jumpi\n      tag_217\n      tag_50\n      jump\t// in\n    tag_217:\n    tag_216:\n      0x20\n      add\n      add\n      mload\n      0xf8\n      shr\n      0xf8\n      shl\n        /* \"contracts/Hangman.sol\":5176:5192  bytes1 wc = w[i] */\n      swap1\n      pop\n        /* \"contracts/Hangman.sol\":5207:5216  bytes1 mc */\n      0x00\n        /* \"contracts/Hangman.sol\":5219:5220  g */\n      dup6\n        /* \"contracts/Hangman.sol\":5219:5225  g.mask */\n      0x01\n      add\n        /* \"contracts/Hangman.sol\":5226:5227  i */\n      dup4\n        /* \"contracts/Hangman.sol\":5219:5228  g.mask[i] */\n      dup2\n      sload\n      tag_218\n      swap1\n      tag_31\n      jump\t// in\n    tag_218:\n      dup2\n      lt\n      tag_219\n      jumpi\n      tag_220\n      tag_50\n      jump\t// in\n    tag_220:\n    tag_219:\n      dup2\n      sload\n      0x01\n      and\n      iszero\n      tag_221\n      jumpi\n      swap1\n      0x00\n      mstore\n      keccak256(0x00, 0x20)\n      swap1\n      0x20\n      swap2\n      dup3\n      dup3\n      div\n      add\n      swap2\n      swap1\n      mod\n    tag_221:\n      swap1\n      sload\n      swap1\n      byte\n      0x0100000000000000000000000000000000000000000000000000000000000000\n      mul\n        /* \"contracts/Hangman.sol\":5207:5228  bytes1 mc = g.mask[i] */\n      swap1\n      pop\n        /* \"contracts/Hangman.sol\":5249:5270  _isWrongLetter(g, wc) */\n      tag_222\n        /* \"contracts/Hangman.sol\":5264:5265  g */\n      dup7\n        /* \"contracts/Hangman.sol\":5267:5269  wc */\n      dup4\n        /* \"contracts/Hangman.sol\":5249:5263  _isWrongLetter */\n      tag_223\n        /* \"contracts/Hangman.sol\":5249:5270  _isWrongLetter(g, wc) */\n      jump\t// in\n    tag_222:\n        /* \"contracts/Hangman.sol\":5245:5284  if (_isWrongLetter(g, wc)) return false */\n      iszero\n      tag_224\n      jumpi\n        /* \"contracts/Hangman.sol\":5279:5284  false */\n      0x00\n        /* \"contracts/Hangman.sol\":5272:5284  return false */\n      swap4\n      pop\n      pop\n      pop\n      pop\n      jump(tag_211)\n        /* \"contracts/Hangman.sol\":5245:5284  if (_isWrongLetter(g, wc)) return false */\n    tag_224:\n        /* \"contracts/Hangman.sol\":5311:5322  bytes1(\"_\") */\n      0x5f00000000000000000000000000000000000000000000000000000000000000\n        /* \"contracts/Hangman.sol\":5305:5322  mc != bytes1(\"_\") */\n      not(0xffffffffffffffffffffffffffffffffffffffffffffffffffffffffffffff)\n      and\n        /* \"contracts/Hangman.sol\":5305:5307  mc */\n      dup2\n        /* \"contracts/Hangman.sol\":5305:5322  mc != bytes1(\"_\") */\n      not(0xffffffffffffffffffffffffffffffffffffffffffffffffffffffffffffff)\n      and\n      eq\n        /* \"contracts/Hangman.sol\":5301:5467  if (mc != bytes1(\"_\")) {... */\n      tag_225\n      jumpi\n        /* \"contracts/Hangman.sol\":5353:5355  mc */\n      dup1\n        /* \"contracts/Hangman.sol\":5347:5355  wc != mc */\n      not(0xffffffffffffffffffffffffffffffffffffffffffffffffffffffffffffff)\n      and\n        /* \"contracts/Hangman.sol\":5347:5349  wc */\n      dup3\n        /* \"contracts/Hangman.sol\":5347:5355  wc != mc */\n      not(0xffffffffffffffffffffffffffffffffffffffffffffffffffffffffffffff)\n      and\n      eq\n        /* \"contracts/Hangman.sol\":5343:5369  if (wc != mc) return false */\n      tag_226\n      jumpi\n        /* \"contracts/Hangman.sol\":5364:5369  false */\n      0x00\n        /* \"contracts/Hangman.sol\":5357:5369  return false */\n      swap4\n      pop\n      pop\n      pop\n      pop\n      jump(tag_211)\n        /* \"contracts/Hangman.sol\":5343:5369  if (wc != mc) return false */\n    tag_226:\n        /* \"contracts/Hangman.sol\":5301:5467  if (mc != bytes1(\"_\")) {... */\n      jump(tag_227)\n    tag_225:\n        /* \"contracts/Hangman.sol\":5414:5437  _isCorrectLetter(g, wc) */\n      tag_228\n        /* \"contracts/Hangman.sol\":5431:5432  g */\n      dup7\n        /* \"contracts/Hangman.sol\":5434:5436  wc */\n      dup4\n        /* \"contracts/Hangman.sol\":5414:5430  _isCorrectLetter */\n      tag_75\n        /* \"contracts/Hangman.sol\":5414:5437  _isCorrectLetter(g, wc) */\n      jump\t// in\n    tag_228:\n        /* \"contracts/Hangman.sol\":5410:5451  if (_isCorrectLetter(g, wc)) return false */\n      iszero\n      tag_229\n      jumpi\n        /* \"contracts/Hangman.sol\":5446:5451  false */\n      0x00\n        /* \"contracts/Hangman.sol\":5439:5451  return false */\n      swap4\n      pop\n      pop\n      pop\n      pop\n      jump(tag_211)\n        /* \"contracts/Hangman.sol\":5410:5451  if (_isCorrectLetter(g, wc)) return false */\n    tag_229:\n        /* \"contracts/Hangman.sol\":5301:5467  if (mc != bytes1(\"_\")) {... */\n    tag_227:\n        /* \"contracts/Hangman.sol\":5161:5478  {... */\n      pop\n      pop\n        /* \"contracts/Hangman.sol\":5156:5159  i++ */\n      dup1\n      dup1\n      tag_230\n      swap1\n      tag_87\n      jump\t// in\n    tag_230:\n      swap2\n      pop\n      pop\n        /* \"contracts/Hangman.sol\":5122:5478  for (uint256 i = 0; i < g.length; i++) {... */\n      jump(tag_213)\n    tag_214:\n      pop\n        /* \"contracts/Hangman.sol\":5495:5499  true */\n      0x01\n        /* \"contracts/Hangman.sol\":5488:5499  return true */\n      swap1\n      pop\n        /* \"contracts/Hangman.sol\":4970:5507  function _matchesConstraints(Game storage g, bytes memory w) internal view returns (bool) {... */\n    tag_211:\n      swap3\n      swap2\n      pop\n      pop\n      jump\t// out\n        /* \"contracts/Hangman.sol\":7300:7552  function _isWrongLetter(Game storage g, bytes1 c) internal view returns (bool) {... */\n    tag_223:\n        /* \"contracts/Hangman.sol\":7373:7377  bool */\n      0x00\n        /* \"contracts/Hangman.sol\":7390:7398  uint8 uc */\n      dup1\n        /* \"contracts/Hangman.sol\":7407:7408  c */\n      dup3\n        /* \"contracts/Hangman.sol\":7401:7409  uint8(c) */\n      0xf8\n      shr\n        /* \"contracts/Hangman.sol\":7390:7409  uint8 uc = uint8(c) */\n      swap1\n      pop\n        /* \"contracts/Hangman.sol\":7429:7431  97 */\n      0x61\n        /* \"contracts/Hangman.sol\":7424:7426  uc */\n      dup2\n        /* \"contracts/Hangman.sol\":7424:7431  uc < 97 */\n      0xff\n      and\n      lt\n        /* \"contracts/Hangman.sol\":7424:7443  uc < 97 || uc > 122 */\n      dup1\n      tag_232\n      jumpi\n      pop\n        /* \"contracts/Hangman.sol\":7440:7443  122 */\n      0x7a\n        /* \"contracts/Hangman.sol\":7435:7437  uc */\n      dup2\n        /* \"contracts/Hangman.sol\":7435:7443  uc > 122 */\n      0xff\n      and\n      gt\n        /* \"contracts/Hangman.sol\":7424:7443  uc < 97 || uc > 122 */\n    tag_232:\n        /* \"contracts/Hangman.sol\":7420:7457  if (uc < 97 || uc > 122) return false */\n      iszero\n      tag_233\n      jumpi\n        /* \"contracts/Hangman.sol\":7452:7457  false */\n      0x00\n        /* \"contracts/Hangman.sol\":7445:7457  return false */\n      swap2\n      pop\n      pop\n      jump(tag_231)\n        /* \"contracts/Hangman.sol\":7420:7457  if (uc < 97 || uc > 122) return false */\n    tag_233:\n        /* \"contracts/Hangman.sol\":7468:7477  uint8 idx */\n      0x00\n        /* \"contracts/Hangman.sol\":7485:7487  97 */\n      0x61\n        /* \"contracts/Hangman.sol\":7480:7482  uc */\n      dup3\n        /* \"contracts/Hangman.sol\":7480:7487  uc - 97 */\n      tag_234\n      swap2\n      swap1\n      tag_60\n      jump\t// in\n    tag_234:\n        /* \"contracts/Hangman.sol\":7468:7487  uint8 idx = uc - 97 */\n      swap1\n      pop\n        /* \"contracts/Hangman.sol\":7543:7544  0 */\n      0x00\n        /* \"contracts/Hangman.sol\":7534:7537  idx */\n      dup2\n        /* \"contracts/Hangman.sol\":7521:7537  uint32(1) << idx */\n      0xff\n      and\n        /* \"contracts/Hangman.sol\":7528:7529  1 */\n      0x01\n        /* \"contracts/Hangman.sol\":7521:7537  uint32(1) << idx */\n      0xffffffff\n      and\n      swap1\n      shl\n        /* \"contracts/Hangman.sol\":7506:7507  g */\n      dup7\n        /* \"contracts/Hangman.sol\":7506:7517  g.wrongMask */\n      0x02\n      add\n      0x08\n      swap1\n      sload\n      swap1\n      0x0100\n      exp\n      swap1\n      div\n      0xffffffff\n      and\n        /* \"contracts/Hangman.sol\":7506:7538  g.wrongMask & (uint32(1) << idx) */\n      and\n        /* \"contracts/Hangman.sol\":7505:7544  (g.wrongMask & (uint32(1) << idx)) != 0 */\n      0xffffffff\n      and\n      eq\n      iszero\n        /* \"contracts/Hangman.sol\":7498:7544  return (g.wrongMask & (uint32(1) << idx)) != 0 */\n      swap3\n      pop\n      pop\n      pop\n        /* \"contracts/Hangman.sol\":7300:7552  function _isWrongLetter(Game storage g, bytes1 c) internal view returns (bool) {... */\n    tag_231:\n      swap3\n      swap2\n      pop\n      pop\n      jump\t// out\n        /* \"#utility.yul\":7:187   */\n    tag_39:\n        /* \"#utility.yul\":55:132   */\n      0x4e487b7100000000000000000000000000000000000000000000000000000000\n        /* \"#utility.yul\":52:53   */\n      0x00\n        /* \"#utility.yul\":45:133   */\n      mstore\n        /* \"#utility.yul\":152:156   */\n      0x21\n        /* \"#utility.yul\":149:150   */\n      0x04\n        /* \"#utility.yul\":142:157   */\n      mstore\n        /* \"#utility.yul\":176:180   */\n      0x24\n        /* \"#utility.yul\":173:174   */\n      0x00\n        /* \"#utility.yul\":166:181   */\n      revert\n        /* \"#utility.yul\":193:306   */\n    tag_235:\n        /* \"#utility.yul\":274:275   */\n      0x04\n        /* \"#utility.yul\":267:272   */\n      dup2\n        /* \"#utility.yul\":264:276   */\n      lt\n        /* \"#utility.yul\":254:300   */\n      tag_308\n      jumpi\n        /* \"#utility.yul\":280:298   */\n      tag_309\n      tag_39\n      jump\t// in\n    tag_309:\n        /* \"#utility.yul\":254:300   */\n    tag_308:\n        /* \"#utility.yul\":193:306   */\n      pop\n      jump\t// out\n        /* \"#utility.yul\":312:439   */\n    tag_236:\n        /* \"#utility.yul\":357:364   */\n      0x00\n        /* \"#utility.yul\":386:391   */\n      dup2\n        /* \"#utility.yul\":375:391   */\n      swap1\n      pop\n        /* \"#utility.yul\":392:433   */\n      tag_311\n        /* \"#utility.yul\":427:432   */\n      dup3\n        /* \"#utility.yul\":392:433   */\n      tag_235\n      jump\t// in\n    tag_311:\n        /* \"#utility.yul\":312:439   */\n      swap2\n      swap1\n      pop\n      jump\t// out\n        /* \"#utility.yul\":445:572   */\n    tag_237:\n        /* \"#utility.yul\":501:510   */\n      0x00\n        /* \"#utility.yul\":534:566   */\n      tag_313\n        /* \"#utility.yul\":560:565   */\n      dup3\n        /* \"#utility.yul\":534:566   */\n      tag_236\n      jump\t// in\n    tag_313:\n        /* \"#utility.yul\":521:566   */\n      swap1\n      pop\n        /* \"#utility.yul\":445:572   */\n      swap2\n      swap1\n      pop\n      jump\t// out\n        /* \"#utility.yul\":578:721   */\n    tag_238:\n        /* \"#utility.yul\":671:714   */\n      tag_315\n        /* \"#utility.yul\":708:713   */\n      dup2\n        /* \"#utility.yul\":671:714   */\n      tag_237\n      jump\t// in\n    tag_315:\n        /* \"#utility.yul\":666:669   */\n      dup3\n        /* \"#utility.yul\":659:715   */\n      mstore\n        /* \"#utility.yul\":578:721   */\n      pop\n      pop\n      jump\t// out\n        /* \"#utility.yul\":727:813   */\n    tag_239:\n        /* \"#utility.yul\":762:769   */\n      0x00\n        /* \"#utility.yul\":802:806   */\n      0xff\n        /* \"#utility.yul\":795:800   */\n      dup3\n        /* \"#utility.yul\":791:807   */\n      and\n        /* \"#utility.yul\":780:807   */\n      swap1\n      pop\n        /* \"#utility.yul\":727:813   */\n      swap2\n      swap1\n      pop\n      jump\t// out\n        /* \"#utility.yul\":819:931   */\n    tag_240:\n        /* \"#utility.yul\":902:924   */\n      tag_318\n        /* \"#utility.yul\":918:923   */\n      dup2\n        /* \"#utility.yul\":902:924   */\n      tag_239\n      jump\t// in\n    tag_318:\n        /* \"#utility.yul\":897:900   */\n      dup3\n        /* \"#utility.yul\":890:925   */\n      mstore\n        /* \"#utility.yul\":819:931   */\n      pop\n      pop\n      jump\t// out\n        /* \"#utility.yul\":937:1035   */\n    tag_241:\n        /* \"#utility.yul\":988:994   */\n      0x00\n        /* \"#utility.yul\":1022:1027   */\n      dup2\n        /* \"#utility.yul\":1016:1028   */\n      mload\n        /* \"#utility.yul\":1006:1028   */\n      swap1\n      pop\n        /* \"#utility.yul\":937:1035   */\n      swap2\n      swap1\n      pop\n      jump\t// out\n        /* \"#utility.yul\":1041:1209   */\n    tag_242:\n        /* \"#utility.yul\":1124:1135   */\n      0x00\n        /* \"#utility.yul\":1158:1164   */\n      dup3\n        /* \"#utility.yul\":1153:1156   */\n      dup3\n        /* \"#utility.yul\":1146:1165   */\n      mstore\n        /* \"#utility.yul\":1198:1202   */\n      0x20\n        /* \"#utility.yul\":1193:1196   */\n      dup3\n        /* \"#utility.yul\":1189:1203   */\n      add\n        /* \"#utility.yul\":1174:1203   */\n      swap1\n      pop\n        /* \"#utility.yul\":1041:1209   */\n      swap3\n      swap2\n      pop\n      pop\n      jump\t// out\n        /* \"#utility.yul\":1215:1461   */\n    tag_243:\n        /* \"#utility.yul\":1296:1297   */\n      0x00\n        /* \"#utility.yul\":1306:1419   */\n    tag_322:\n        /* \"#utility.yul\":1320:1326   */\n      dup4\n        /* \"#utility.yul\":1317:1318   */\n      dup2\n        /* \"#utility.yul\":1314:1327   */\n      lt\n        /* \"#utility.yul\":1306:1419   */\n      iszero\n      tag_324\n      jumpi\n        /* \"#utility.yul\":1405:1406   */\n      dup1\n        /* \"#utility.yul\":1400:1403   */\n      dup3\n        /* \"#utility.yul\":1396:1407   */\n      add\n        /* \"#utility.yul\":1390:1408   */\n      mload\n        /* \"#utility.yul\":1386:1387   */\n      dup2\n        /* \"#utility.yul\":1381:1384   */\n      dup5\n        /* \"#utility.yul\":1377:1388   */\n      add\n        /* \"#utility.yul\":1370:1409   */\n      mstore\n        /* \"#utility.yul\":1342:1344   */\n      0x20\n        /* \"#utility.yul\":1339:1340   */\n      dup2\n        /* \"#utility.yul\":1335:1345   */\n      add\n        /* \"#utility.yul\":1330:1345   */\n      swap1\n      pop\n        /* \"#utility.yul\":1306:1419   */\n      jump(tag_322)\n    tag_324:\n        /* \"#utility.yul\":1453:1454   */\n      0x00\n        /* \"#utility.yul\":1444:1450   */\n      dup5\n        /* \"#utility.yul\":1439:1442   */\n      dup5\n        /* \"#utility.yul\":1435:1451   */\n      add\n        /* \"#utility.yul\":1428:1455   */\n      mstore\n        /* \"#utility.yul\":1277:1461   */\n      pop\n        /* \"#utility.yul\":1215:1461   */\n      pop\n      pop\n      pop\n      jump\t// out\n        /* \"#utility.yul\":1467:1569   */\n    tag_244:\n        /* \"#utility.yul\":1508:1514   */\n      0x00\n        /* \"#utility.yul\":1559:1561   */\n      0x1f\n        /* \"#utility.yul\":1555:1562   */\n      not\n        /* \"#utility.yul\":1550:1552   */\n      0x1f\n        /* \"#utility.yul\":1543:1548   */\n      dup4\n        /* \"#utility.yul\":1539:1553   */\n      add\n        /* \"#utility.yul\":1535:1563   */\n      and\n        /* \"#utility.yul\":1525:1563   */\n      swap1\n      pop\n        /* \"#utility.yul\":1467:1569   */\n      swap2\n      swap1\n      pop\n      jump\t// out\n        /* \"#utility.yul\":1575:1948   */\n    tag_245:\n        /* \"#utility.yul\":1661:1664   */\n      0x00\n        /* \"#utility.yul\":1689:1727   */\n      tag_327\n        /* \"#utility.yul\":1721:1726   */\n      dup3\n        /* \"#utility.yul\":1689:1727   */\n      tag_241\n      jump\t// in\n    tag_327:\n        /* \"#utility.yul\":1743:1813   */\n      tag_328\n        /* \"#utility.yul\":1806:1812   */\n      dup2\n        /* \"#utility.yul\":1801:1804   */\n      dup6\n        /* \"#utility.yul\":1743:1813   */\n      tag_242\n      jump\t// in\n    tag_328:\n        /* \"#utility.yul\":1736:1813   */\n      swap4\n      pop\n        /* \"#utility.yul\":1822:1887   */\n      tag_329\n        /* \"#utility.yul\":1880:1886   */\n      dup2\n        /* \"#utility.yul\":1875:1878   */\n      dup6\n        /* \"#utility.yul\":1868:1872   */\n      0x20\n        /* \"#utility.yul\":1861:1866   */\n      dup7\n        /* \"#utility.yul\":1857:1873   */\n      add\n        /* \"#utility.yul\":1822:1887   */\n      tag_243\n      jump\t// in\n    tag_329:\n        /* \"#utility.yul\":1912:1941   */\n      tag_330\n        /* \"#utility.yul\":1934:1940   */\n      dup2\n        /* \"#utility.yul\":1912:1941   */\n      tag_244\n      jump\t// in\n    tag_330:\n        /* \"#utility.yul\":1907:1910   */\n      dup5\n        /* \"#utility.yul\":1903:1942   */\n      add\n        /* \"#utility.yul\":1896:1942   */\n      swap2\n      pop\n        /* \"#utility.yul\":1665:1948   */\n      pop\n        /* \"#utility.yul\":1575:1948   */\n      swap3\n      swap2\n      pop\n      pop\n      jump\t// out\n        /* \"#utility.yul\":1954:2047   */\n    tag_246:\n        /* \"#utility.yul\":1990:1997   */\n      0x00\n        /* \"#utility.yul\":2030:2040   */\n      0xffffffff\n        /* \"#utility.yul\":2023:2028   */\n      dup3\n        /* \"#utility.yul\":2019:2041   */\n      and\n        /* \"#utility.yul\":2008:2041   */\n      swap1\n      pop\n        /* \"#utility.yul\":1954:2047   */\n      swap2\n      swap1\n      pop\n      jump\t// out\n        /* \"#utility.yul\":2053:2168   */\n    tag_247:\n        /* \"#utility.yul\":2138:2161   */\n      tag_333\n        /* \"#utility.yul\":2155:2160   */\n      dup2\n        /* \"#utility.yul\":2138:2161   */\n      tag_246\n      jump\t// in\n    tag_333:\n        /* \"#utility.yul\":2133:2136   */\n      dup3\n        /* \"#utility.yul\":2126:2162   */\n      mstore\n        /* \"#utility.yul\":2053:2168   */\n      pop\n      pop\n      jump\t// out\n        /* \"#utility.yul\":2174:3131   */\n    tag_12:\n        /* \"#utility.yul\":2445:2449   */\n      0x00\n        /* \"#utility.yul\":2483:2486   */\n      0xe0\n        /* \"#utility.yul\":2472:2481   */\n      dup3\n        /* \"#utility.yul\":2468:2487   */\n      add\n        /* \"#utility.yul\":2460:2487   */\n      swap1\n      pop\n        /* \"#utility.yul\":2497:2574   */\n      tag_335\n        /* \"#utility.yul\":2571:2572   */\n      0x00\n        /* \"#utility.yul\":2560:2569   */\n      dup4\n        /* \"#utility.yul\":2556:2573   */\n      add\n        /* \"#utility.yul\":2547:2553   */\n      dup11\n        /* \"#utility.yul\":2497:2574   */\n      tag_238\n      jump\t// in\n    tag_335:\n        /* \"#utility.yul\":2584:2652   */\n      tag_336\n        /* \"#utility.yul\":2648:2650   */\n      0x20\n        /* \"#utility.yul\":2637:2646   */\n      dup4\n        /* \"#utility.yul\":2633:2651   */\n      add\n        /* \"#utility.yul\":2624:2630   */\n      dup10\n        /* \"#utility.yul\":2584:2652   */\n      tag_240\n      jump\t// in\n    tag_336:\n        /* \"#utility.yul\":2662:2730   */\n      tag_337\n        /* \"#utility.yul\":2726:2728   */\n      0x40\n        /* \"#utility.yul\":2715:2724   */\n      dup4\n        /* \"#utility.yul\":2711:2729   */\n      add\n        /* \"#utility.yul\":2702:2708   */\n      dup9\n        /* \"#utility.yul\":2662:2730   */\n      tag_240\n      jump\t// in\n    tag_337:\n        /* \"#utility.yul\":2777:2786   */\n      dup2\n        /* \"#utility.yul\":2771:2775   */\n      dup2\n        /* \"#utility.yul\":2767:2787   */\n      sub\n        /* \"#utility.yul\":2762:2764   */\n      0x60\n        /* \"#utility.yul\":2751:2760   */\n      dup4\n        /* \"#utility.yul\":2747:2765   */\n      add\n        /* \"#utility.yul\":2740:2788   */\n      mstore\n        /* \"#utility.yul\":2805:2881   */\n      tag_338\n        /* \"#utility.yul\":2876:2880   */\n      dup2\n        /* \"#utility.yul\":2867:2873   */\n      dup8\n        /* \"#utility.yul\":2805:2881   */\n      tag_245\n      jump\t// in\n    tag_338:\n        /* \"#utility.yul\":2797:2881   */\n      swap1\n      pop\n        /* \"#utility.yul\":2891:2962   */\n      tag_339\n        /* \"#utility.yul\":2957:2960   */\n      0x80\n        /* \"#utility.yul\":2946:2955   */\n      dup4\n        /* \"#utility.yul\":2942:2961   */\n      add\n        /* \"#utility.yul\":2933:2939   */\n      dup7\n        /* \"#utility.yul\":2891:2962   */\n      tag_247\n      jump\t// in\n    tag_339:\n        /* \"#utility.yul\":2972:3043   */\n      tag_340\n        /* \"#utility.yul\":3038:3041   */\n      0xa0\n        /* \"#utility.yul\":3027:3036   */\n      dup4\n        /* \"#utility.yul\":3023:3042   */\n      add\n        /* \"#utility.yul\":3014:3020   */\n      dup6\n        /* \"#utility.yul\":2972:3043   */\n      tag_247\n      jump\t// in\n    tag_340:\n        /* \"#utility.yul\":3053:3124   */\n      tag_341\n        /* \"#utility.yul\":3119:3122   */\n      0xc0\n        /* \"#utility.yul\":3108:3117   */\n      dup4\n        /* \"#utility.yul\":3104:3123   */\n      add\n        /* \"#utility.yul\":3095:3101   */\n      dup5\n        /* \"#utility.yul\":3053:3124   */\n      tag_247\n      jump\t// in\n    tag_341:\n        /* \"#utility.yul\":2174:3131   */\n      swap9\n      swap8\n      pop\n      pop\n      pop\n      pop\n      pop\n      pop\n      pop\n      pop\n      jump\t// out\n        /* \"#utility.yul\":3137:3351   */\n    tag_16:\n        /* \"#utility.yul\":3226:3230   */\n      0x00\n        /* \"#utility.yul\":3264:3266   */\n      0x20\n        /* \"#utility.yul\":3253:3262   */\n      dup3\n        /* \"#utility.yul\":3249:3267   */\n      add\n        /* \"#utility.yul\":3241:3267   */\n      swap1\n      pop\n        /* \"#utility.yul\":3277:3344   */\n      tag_343\n        /* \"#utility.yul\":3341:3342   */\n      0x00\n        /* \"#utility.yul\":3330:3339   */\n      dup4\n        /* \"#utility.yul\":3326:3343   */\n      add\n        /* \"#utility.yul\":3317:3323   */\n      dup5\n        /* \"#utility.yul\":3277:3344   */\n      tag_240\n      jump\t// in\n    tag_343:\n        /* \"#utility.yul\":3137:3351   */\n      swap3\n      swap2\n      pop\n      pop\n      jump\t// out\n        /* \"#utility.yul\":3438:3555   */\n    tag_249:\n        /* \"#utility.yul\":3547:3548   */\n      0x00\n        /* \"#utility.yul\":3544:3545   */\n      dup1\n        /* \"#utility.yul\":3537:3549   */\n      revert\n        /* \"#utility.yul\":3561:3678   */\n    tag_250:\n        /* \"#utility.yul\":3670:3671   */\n      0x00\n        /* \"#utility.yul\":3667:3668   */\n      dup1\n        /* \"#utility.yul\":3660:3672   */\n      revert\n        /* \"#utility.yul\":3684:3801   */\n    tag_251:\n        /* \"#utility.yul\":3793:3794   */\n      0x00\n        /* \"#utility.yul\":3790:3791   */\n      dup1\n        /* \"#utility.yul\":3783:3795   */\n      revert\n        /* \"#utility.yul\":3807:3924   */\n    tag_252:\n        /* \"#utility.yul\":3916:3917   */\n      0x00\n        /* \"#utility.yul\":3913:3914   */\n      dup1\n        /* \"#utility.yul\":3906:3918   */\n      revert\n        /* \"#utility.yul\":3930:4047   */\n    tag_253:\n        /* \"#utility.yul\":4039:4040   */\n      0x00\n        /* \"#utility.yul\":4036:4037   */\n      dup1\n        /* \"#utility.yul\":4029:4041   */\n      revert\n        /* \"#utility.yul\":4067:4620   */\n    tag_254:\n        /* \"#utility.yul\":4125:4133   */\n      0x00\n        /* \"#utility.yul\":4135:4141   */\n      dup1\n        /* \"#utility.yul\":4185:4188   */\n      dup4\n        /* \"#utility.yul\":4178:4182   */\n      0x1f\n        /* \"#utility.yul\":4170:4176   */\n      dup5\n        /* \"#utility.yul\":4166:4183   */\n      add\n        /* \"#utility.yul\":4162:4189   */\n      slt\n        /* \"#utility.yul\":4152:4274   */\n      tag_351\n      jumpi\n        /* \"#utility.yul\":4193:4272   */\n      tag_352\n      tag_251\n      jump\t// in\n    tag_352:\n        /* \"#utility.yul\":4152:4274   */\n    tag_351:\n        /* \"#utility.yul\":4306:4312   */\n      dup3\n        /* \"#utility.yul\":4293:4313   */\n      calldataload\n        /* \"#utility.yul\":4283:4313   */\n      swap1\n      pop\n        /* \"#utility.yul\":4336:4354   */\n      0xffffffffffffffff\n        /* \"#utility.yul\":4328:4334   */\n      dup2\n        /* \"#utility.yul\":4325:4355   */\n      gt\n        /* \"#utility.yul\":4322:4439   */\n      iszero\n      tag_353\n      jumpi\n        /* \"#utility.yul\":4358:4437   */\n      tag_354\n      tag_252\n      jump\t// in\n    tag_354:\n        /* \"#utility.yul\":4322:4439   */\n    tag_353:\n        /* \"#utility.yul\":4472:4476   */\n      0x20\n        /* \"#utility.yul\":4464:4470   */\n      dup4\n        /* \"#utility.yul\":4460:4477   */\n      add\n        /* \"#utility.yul\":4448:4477   */\n      swap2\n      pop\n        /* \"#utility.yul\":4526:4529   */\n      dup4\n        /* \"#utility.yul\":4518:4522   */\n      0x01\n        /* \"#utility.yul\":4510:4516   */\n      dup3\n        /* \"#utility.yul\":4506:4523   */\n      mul\n        /* \"#utility.yul\":4496:4504   */\n      dup4\n        /* \"#utility.yul\":4492:4524   */\n      add\n        /* \"#utility.yul\":4489:4530   */\n      gt\n        /* \"#utility.yul\":4486:4614   */\n      iszero\n      tag_355\n      jumpi\n        /* \"#utility.yul\":4533:4612   */\n      tag_356\n      tag_253\n      jump\t// in\n    tag_356:\n        /* \"#utility.yul\":4486:4614   */\n    tag_355:\n        /* \"#utility.yul\":4067:4620   */\n      swap3\n      pop\n      swap3\n      swap1\n      pop\n      jump\t// out\n        /* \"#utility.yul\":4626:5155   */\n    tag_19:\n        /* \"#utility.yul\":4697:4703   */\n      0x00\n        /* \"#utility.yul\":4705:4711   */\n      dup1\n        /* \"#utility.yul\":4754:4756   */\n      0x20\n        /* \"#utility.yul\":4742:4751   */\n      dup4\n        /* \"#utility.yul\":4733:4740   */\n      dup6\n        /* \"#utility.yul\":4729:4752   */\n      sub\n        /* \"#utility.yul\":4725:4757   */\n      slt\n        /* \"#utility.yul\":4722:4841   */\n      iszero\n      tag_358\n      jumpi\n        /* \"#utility.yul\":4760:4839   */\n      tag_359\n      tag_249\n      jump\t// in\n    tag_359:\n        /* \"#utility.yul\":4722:4841   */\n    tag_358:\n        /* \"#utility.yul\":4908:4909   */\n      0x00\n        /* \"#utility.yul\":4897:4906   */\n      dup4\n        /* \"#utility.yul\":4893:4910   */\n      add\n        /* \"#utility.yul\":4880:4911   */\n      calldataload\n        /* \"#utility.yul\":4938:4956   */\n      0xffffffffffffffff\n        /* \"#utility.yul\":4930:4936   */\n      dup2\n        /* \"#utility.yul\":4927:4957   */\n      gt\n        /* \"#utility.yul\":4924:5041   */\n      iszero\n      tag_360\n      jumpi\n        /* \"#utility.yul\":4960:5039   */\n      tag_361\n      tag_250\n      jump\t// in\n    tag_361:\n        /* \"#utility.yul\":4924:5041   */\n    tag_360:\n        /* \"#utility.yul\":5073:5138   */\n      tag_362\n        /* \"#utility.yul\":5130:5137   */\n      dup6\n        /* \"#utility.yul\":5121:5127   */\n      dup3\n        /* \"#utility.yul\":5110:5119   */\n      dup7\n        /* \"#utility.yul\":5106:5128   */\n      add\n        /* \"#utility.yul\":5073:5138   */\n      tag_254\n      jump\t// in\n    tag_362:\n        /* \"#utility.yul\":5055:5138   */\n      swap3\n      pop\n      swap3\n      pop\n        /* \"#utility.yul\":4851:5148   */\n      pop\n        /* \"#utility.yul\":4626:5155   */\n      swap3\n      pop\n      swap3\n      swap1\n      pop\n      jump\t// out\n        /* \"#utility.yul\":5161:5341   */\n    tag_255:\n        /* \"#utility.yul\":5209:5286   */\n      0x4e487b7100000000000000000000000000000000000000000000000000000000\n        /* \"#utility.yul\":5206:5207   */\n      0x00\n        /* \"#utility.yul\":5199:5287   */\n      mstore\n        /* \"#utility.yul\":5306:5310   */\n      0x22\n        /* \"#utility.yul\":5303:5304   */\n      0x04\n        /* \"#utility.yul\":5296:5311   */\n      mstore\n        /* \"#utility.yul\":5330:5334   */\n      0x24\n        /* \"#utility.yul\":5327:5328   */\n      0x00\n        /* \"#utility.yul\":5320:5335   */\n      revert\n        /* \"#utility.yul\":5347:5667   */\n    tag_31:\n        /* \"#utility.yul\":5391:5397   */\n      0x00\n        /* \"#utility.yul\":5428:5429   */\n      0x02\n        /* \"#utility.yul\":5422:5426   */\n      dup3\n        /* \"#utility.yul\":5418:5430   */\n      div\n        /* \"#utility.yul\":5408:5430   */\n      swap1\n      pop\n        /* \"#utility.yul\":5475:5476   */\n      0x01\n        /* \"#utility.yul\":5469:5473   */\n      dup3\n        /* \"#utility.yul\":5465:5477   */\n      and\n        /* \"#utility.yul\":5496:5514   */\n      dup1\n        /* \"#utility.yul\":5486:5567   */\n      tag_365\n      jumpi\n        /* \"#utility.yul\":5552:5556   */\n      0x7f\n        /* \"#utility.yul\":5544:5550   */\n      dup3\n        /* \"#utility.yul\":5540:5557   */\n      and\n        /* \"#utility.yul\":5530:5557   */\n      swap2\n      pop\n        /* \"#utility.yul\":5486:5567   */\n    tag_365:\n        /* \"#utility.yul\":5614:5616   */\n      0x20\n        /* \"#utility.yul\":5606:5612   */\n      dup3\n        /* \"#utility.yul\":5603:5617   */\n      lt\n        /* \"#utility.yul\":5583:5601   */\n      dup2\n        /* \"#utility.yul\":5580:5618   */\n      sub\n        /* \"#utility.yul\":5577:5661   */\n      tag_366\n      jumpi\n        /* \"#utility.yul\":5633:5651   */\n      tag_367\n      tag_255\n      jump\t// in\n    tag_367:\n        /* \"#utility.yul\":5577:5661   */\n    tag_366:\n        /* \"#utility.yul\":5398:5667   */\n      pop\n        /* \"#utility.yul\":5347:5667   */\n      swap2\n      swap1\n      pop\n      jump\t// out\n        /* \"#utility.yul\":5673:5842   */\n    tag_256:\n        /* \"#utility.yul\":5757:5768   */\n      0x00\n        /* \"#utility.yul\":5791:5797   */\n      dup3\n        /* \"#utility.yul\":5786:5789   */\n      dup3\n        /* \"#utility.yul\":5779:5798   */\n      mstore\n        /* \"#utility.yul\":5831:5835   */\n      0x20\n        /* \"#utility.yul\":5826:5829   */\n      dup3\n        /* \"#utility.yul\":5822:5836   */\n      add\n        /* \"#utility.yul\":5807:5836   */\n      swap1\n      pop\n        /* \"#utility.yul\":5673:5842   */\n      swap3\n      swap2\n      pop\n      pop\n      jump\t// out\n        /* \"#utility.yul\":5848:6012   */\n    tag_257:\n        /* \"#utility.yul\":5988:6004   */\n      0x6e6f206163746976652067616d65000000000000000000000000000000000000\n        /* \"#utility.yul\":5984:5985   */\n      0x00\n        /* \"#utility.yul\":5976:5982   */\n      dup3\n        /* \"#utility.yul\":5972:5986   */\n      add\n        /* \"#utility.yul\":5965:6005   */\n      mstore\n        /* \"#utility.yul\":5848:6012   */\n      pop\n      jump\t// out\n        /* \"#utility.yul\":6018:6384   */\n    tag_258:\n        /* \"#utility.yul\":6160:6163   */\n      0x00\n        /* \"#utility.yul\":6181:6248   */\n      tag_371\n        /* \"#utility.yul\":6245:6247   */\n      0x0e\n        /* \"#utility.yul\":6240:6243   */\n      dup4\n        /* \"#utility.yul\":6181:6248   */\n      tag_256\n      jump\t// in\n    tag_371:\n        /* \"#utility.yul\":6174:6248   */\n      swap2\n      pop\n        /* \"#utility.yul\":6257:6350   */\n      tag_372\n        /* \"#utility.yul\":6346:6349   */\n      dup3\n        /* \"#utility.yul\":6257:6350   */\n      tag_257\n      jump\t// in\n    tag_372:\n        /* \"#utility.yul\":6375:6377   */\n      0x20\n        /* \"#utility.yul\":6370:6373   */\n      dup3\n        /* \"#utility.yul\":6366:6378   */\n      add\n        /* \"#utility.yul\":6359:6378   */\n      swap1\n      pop\n        /* \"#utility.yul\":6018:6384   */\n      swap2\n      swap1\n      pop\n      jump\t// out\n        /* \"#utility.yul\":6390:6809   */\n    tag_44:\n        /* \"#utility.yul\":6556:6560   */\n      0x00\n        /* \"#utility.yul\":6594:6596   */\n      0x20\n        /* \"#utility.yul\":6583:6592   */\n      dup3\n        /* \"#utility.yul\":6579:6597   */\n      add\n        /* \"#utility.yul\":6571:6597   */\n      swap1\n      pop\n        /* \"#utility.yul\":6643:6652   */\n      dup2\n        /* \"#utility.yul\":6637:6641   */\n      dup2\n        /* \"#utility.yul\":6633:6653   */\n      sub\n        /* \"#utility.yul\":6629:6630   */\n      0x00\n        /* \"#utility.yul\":6618:6627   */\n      dup4\n        /* \"#utility.yul\":6614:6631   */\n      add\n        /* \"#utility.yul\":6607:6654   */\n      mstore\n        /* \"#utility.yul\":6671:6802   */\n      tag_374\n        /* \"#utility.yul\":6797:6801   */\n      dup2\n        /* \"#utility.yul\":6671:6802   */\n      tag_258\n      jump\t// in\n    tag_374:\n        /* \"#utility.yul\":6663:6802   */\n      swap1\n      pop\n        /* \"#utility.yul\":6390:6809   */\n      swap2\n      swap1\n      pop\n      jump\t// out\n        /* \"#utility.yul\":6815:6992   */\n    tag_259:\n        /* \"#utility.yul\":6955:6984   */\n      0x656e7465722065786163746c79206f6e65206368617261637465720000000000\n        /* \"#utility.yul\":6951:6952   */\n      0x00\n        /* \"#utility.yul\":6943:6949   */\n      dup3\n        /* \"#utility.yul\":6939:6953   */\n      add\n        /* \"#utility.yul\":6932:6985   */\n      mstore\n        /* \"#utility.yul\":6815:6992   */\n      pop\n      jump\t// out\n        /* \"#utility.yul\":6998:7364   */\n    tag_260:\n        /* \"#utility.yul\":7140:7143   */\n      0x00\n        /* \"#utility.yul\":7161:7228   */\n      tag_377\n        /* \"#utility.yul\":7225:7227   */\n      0x1b\n        /* \"#utility.yul\":7220:7223   */\n      dup4\n        /* \"#utility.yul\":7161:7228   */\n      tag_256\n      jump\t// in\n    tag_377:\n        /* \"#utility.yul\":7154:7228   */\n      swap2\n      pop\n        /* \"#utility.yul\":7237:7330   */\n      tag_378\n        /* \"#utility.yul\":7326:7329   */\n      dup3\n        /* \"#utility.yul\":7237:7330   */\n      tag_259\n      jump\t// in\n    tag_378:\n        /* \"#utility.yul\":7355:7357   */\n      0x20\n        /* \"#utility.yul\":7350:7353   */\n      dup3\n        /* \"#utility.yul\":7346:7358   */\n      add\n        /* \"#utility.yul\":7339:7358   */\n      swap1\n      pop\n        /* \"#utility.yul\":6998:7364   */\n      swap2\n      swap1\n      pop\n      jump\t// out\n        /* \"#utility.yul\":7370:7789   */\n    tag_47:\n        /* \"#utility.yul\":7536:7540   */\n      0x00\n        /* \"#utility.yul\":7574:7576   */\n      0x20\n        /* \"#utility.yul\":7563:7572   */\n      dup3\n        /* \"#utility.yul\":7559:7577   */\n      add\n        /* \"#utility.yul\":7551:7577   */\n      swap1\n      pop\n        /* \"#utility.yul\":7623:7632   */\n      dup2\n        /* \"#utility.yul\":7617:7621   */\n      dup2\n        /* \"#utility.yul\":7613:7633   */\n      sub\n        /* \"#utility.yul\":7609:7610   */\n      0x00\n        /* \"#utility.yul\":7598:7607   */\n      dup4\n        /* \"#utility.yul\":7594:7611   */\n      add\n        /* \"#utility.yul\":7587:7634   */\n      mstore\n        /* \"#utility.yul\":7651:7782   */\n      tag_380\n        /* \"#utility.yul\":7777:7781   */\n      dup2\n        /* \"#utility.yul\":7651:7782   */\n      tag_260\n      jump\t// in\n    tag_380:\n        /* \"#utility.yul\":7643:7782   */\n      swap1\n      pop\n        /* \"#utility.yul\":7370:7789   */\n      swap2\n      swap1\n      pop\n      jump\t// out\n        /* \"#utility.yul\":7795:7975   */\n    tag_50:\n        /* \"#utility.yul\":7843:7920   */\n      0x4e487b7100000000000000000000000000000000000000000000000000000000\n        /* \"#utility.yul\":7840:7841   */\n      0x00\n        /* \"#utility.yul\":7833:7921   */\n      mstore\n        /* \"#utility.yul\":7940:7944   */\n      0x32\n        /* \"#utility.yul\":7937:7938   */\n      0x04\n        /* \"#utility.yul\":7930:7945   */\n      mstore\n        /* \"#utility.yul\":7964:7968   */\n      0x24\n        /* \"#utility.yul\":7961:7962   */\n      0x00\n        /* \"#utility.yul\":7954:7969   */\n      revert\n        /* \"#utility.yul\":7981:8161   */\n    tag_261:\n        /* \"#utility.yul\":8029:8106   */\n      0x4e487b7100000000000000000000000000000000000000000000000000000000\n        /* \"#utility.yul\":8026:8027   */\n      0x00\n        /* \"#utility.yul\":8019:8107   */\n      mstore\n        /* \"#utility.yul\":8126:8130   */\n      0x11\n        /* \"#utility.yul\":8123:8124   */\n      0x04\n        /* \"#utility.yul\":8116:8131   */\n      mstore\n        /* \"#utility.yul\":8150:8154   */\n      0x24\n        /* \"#utility.yul\":8147:8148   */\n      0x00\n        /* \"#utility.yul\":8140:8155   */\n      revert\n        /* \"#utility.yul\":8167:8355   */\n    tag_54:\n        /* \"#utility.yul\":8205:8208   */\n      0x00\n        /* \"#utility.yul\":8224:8242   */\n      tag_384\n        /* \"#utility.yul\":8240:8241   */\n      dup3\n        /* \"#utility.yul\":8224:8242   */\n      tag_239\n      jump\t// in\n    tag_384:\n        /* \"#utility.yul\":8219:8242   */\n      swap2\n      pop\n        /* \"#utility.yul\":8256:8274   */\n      tag_385\n        /* \"#utility.yul\":8272:8273   */\n      dup4\n        /* \"#utility.yul\":8256:8274   */\n      tag_239\n      jump\t// in\n    tag_385:\n        /* \"#utility.yul\":8251:8274   */\n      swap3\n      pop\n        /* \"#utility.yul\":8297:8298   */\n      dup3\n        /* \"#utility.yul\":8294:8295   */\n      dup3\n        /* \"#utility.yul\":8290:8299   */\n      add\n        /* \"#utility.yul\":8283:8299   */\n      swap1\n      pop\n        /* \"#utility.yul\":8320:8324   */\n      0xff\n        /* \"#utility.yul\":8315:8318   */\n      dup2\n        /* \"#utility.yul\":8312:8325   */\n      gt\n        /* \"#utility.yul\":8309:8348   */\n      iszero\n      tag_386\n      jumpi\n        /* \"#utility.yul\":8328:8346   */\n      tag_387\n      tag_261\n      jump\t// in\n    tag_387:\n        /* \"#utility.yul\":8309:8348   */\n    tag_386:\n        /* \"#utility.yul\":8167:8355   */\n      swap3\n      swap2\n      pop\n      pop\n      jump\t// out\n        /* \"#utility.yul\":8361:8581   */\n    tag_262:\n        /* \"#utility.yul\":8501:8535   */\n      0x696e707574206d75737420626520612073696e676c65206c657474657220612d\n        /* \"#utility.yul\":8497:8498   */\n      0x00\n        /* \"#utility.yul\":8489:8495   */\n      dup3\n        /* \"#utility.yul\":8485:8499   */\n      add\n        /* \"#utility.yul\":8478:8536   */\n      mstore\n        /* \"#utility.yul\":8570:8573   */\n      0x7a00000000000000000000000000000000000000000000000000000000000000\n        /* \"#utility.yul\":8565:8567   */\n      0x20\n        /* \"#utility.yul\":8557:8563   */\n      dup3\n        /* \"#utility.yul\":8553:8568   */\n      add\n        /* \"#utility.yul\":8546:8574   */\n      mstore\n        /* \"#utility.yul\":8361:8581   */\n      pop\n      jump\t// out\n        /* \"#utility.yul\":8587:8953   */\n    tag_263:\n        /* \"#utility.yul\":8729:8732   */\n      0x00\n        /* \"#utility.yul\":8750:8817   */\n      tag_390\n        /* \"#utility.yul\":8814:8816   */\n      0x21\n        /* \"#utility.yul\":8809:8812   */\n      dup4\n        /* \"#utility.yul\":8750:8817   */\n      tag_256\n      jump\t// in\n    tag_390:\n        /* \"#utility.yul\":8743:8817   */\n      swap2\n      pop\n        /* \"#utility.yul\":8826:8919   */\n      tag_391\n        /* \"#utility.yul\":8915:8918   */\n      dup3\n        /* \"#utility.yul\":8826:8919   */\n      tag_262\n      jump\t// in\n    tag_391:\n        /* \"#utility.yul\":8944:8946   */\n      0x40\n        /* \"#utility.yul\":8939:8942   */\n      dup3\n        /* \"#utility.yul\":8935:8947   */\n      add\n        /* \"#utility.yul\":8928:8947   */\n      swap1\n      pop\n        /* \"#utility.yul\":8587:8953   */\n      swap2\n      swap1\n      pop\n      jump\t// out\n        /* \"#utility.yul\":8959:9378   */\n    tag_58:\n        /* \"#utility.yul\":9125:9129   */\n      0x00\n        /* \"#utility.yul\":9163:9165   */\n      0x20\n        /* \"#utility.yul\":9152:9161   */\n      dup3\n        /* \"#utility.yul\":9148:9166   */\n      add\n        /* \"#utility.yul\":9140:9166   */\n      swap1\n      pop\n        /* \"#utility.yul\":9212:9221   */\n      dup2\n        /* \"#utility.yul\":9206:9210   */\n      dup2\n        /* \"#utility.yul\":9202:9222   */\n      sub\n        /* \"#utility.yul\":9198:9199   */\n      0x00\n        /* \"#utility.yul\":9187:9196   */\n      dup4\n        /* \"#utility.yul\":9183:9200   */\n      add\n        /* \"#utility.yul\":9176:9223   */\n      mstore\n        /* \"#utility.yul\":9240:9371   */\n      tag_393\n        /* \"#utility.yul\":9366:9370   */\n      dup2\n        /* \"#utility.yul\":9240:9371   */\n      tag_263\n      jump\t// in\n    tag_393:\n        /* \"#utility.yul\":9232:9371   */\n      swap1\n      pop\n        /* \"#utility.yul\":8959:9378   */\n      swap2\n      swap1\n      pop\n      jump\t// out\n        /* \"#utility.yul\":9384:9575   */\n    tag_60:\n        /* \"#utility.yul\":9422:9426   */\n      0x00\n        /* \"#utility.yul\":9442:9460   */\n      tag_395\n        /* \"#utility.yul\":9458:9459   */\n      dup3\n        /* \"#utility.yul\":9442:9460   */\n      tag_239\n      jump\t// in\n    tag_395:\n        /* \"#utility.yul\":9437:9460   */\n      swap2\n      pop\n        /* \"#utility.yul\":9474:9492   */\n      tag_396\n        /* \"#utility.yul\":9490:9491   */\n      dup4\n        /* \"#utility.yul\":9474:9492   */\n      tag_239\n      jump\t// in\n    tag_396:\n        /* \"#utility.yul\":9469:9492   */\n      swap3\n      pop\n        /* \"#utility.yul\":9516:9517   */\n      dup3\n        /* \"#utility.yul\":9513:9514   */\n      dup3\n        /* \"#utility.yul\":9509:9518   */\n      sub\n        /* \"#utility.yul\":9501:9518   */\n      swap1\n      pop\n        /* \"#utility.yul\":9540:9544   */\n      0xff\n        /* \"#utility.yul\":9534:9538   */\n      dup2\n        /* \"#utility.yul\":9531:9545   */\n      gt\n        /* \"#utility.yul\":9528:9568   */\n      iszero\n      tag_397\n      jumpi\n        /* \"#utility.yul\":9548:9566   */\n      tag_398\n      tag_261\n      jump\t// in\n    tag_398:\n        /* \"#utility.yul\":9528:9568   */\n    tag_397:\n        /* \"#utility.yul\":9384:9575   */\n      swap3\n      swap2\n      pop\n      pop\n      jump\t// out\n        /* \"#utility.yul\":9581:9753   */\n    tag_264:\n        /* \"#utility.yul\":9721:9745   */\n      0x6c657474657220616c7265616479206775657373656400000000000000000000\n        /* \"#utility.yul\":9717:9718   */\n      0x00\n        /* \"#utility.yul\":9709:9715   */\n      dup3\n        /* \"#utility.yul\":9705:9719   */\n      add\n        /* \"#utility.yul\":9698:9746   */\n      mstore\n        /* \"#utility.yul\":9581:9753   */\n      pop\n      jump\t// out\n        /* \"#utility.yul\":9759:10125   */\n    tag_265:\n        /* \"#utility.yul\":9901:9904   */\n      0x00\n        /* \"#utility.yul\":9922:9989   */\n      tag_401\n        /* \"#utility.yul\":9986:9988   */\n      0x16\n        /* \"#utility.yul\":9981:9984   */\n      dup4\n        /* \"#utility.yul\":9922:9989   */\n      tag_256\n      jump\t// in\n    tag_401:\n        /* \"#utility.yul\":9915:9989   */\n      swap2\n      pop\n        /* \"#utility.yul\":9998:10091   */\n      tag_402\n        /* \"#utility.yul\":10087:10090   */\n      dup3\n        /* \"#utility.yul\":9998:10091   */\n      tag_264\n      jump\t// in\n    tag_402:\n        /* \"#utility.yul\":10116:10118   */\n      0x20\n        /* \"#utility.yul\":10111:10114   */\n      dup3\n        /* \"#utility.yul\":10107:10119   */\n      add\n        /* \"#utility.yul\":10100:10119   */\n      swap1\n      pop\n        /* \"#utility.yul\":9759:10125   */\n      swap2\n      swap1\n      pop\n      jump\t// out\n        /* \"#utility.yul\":10131:10550   */\n    tag_63:\n        /* \"#utility.yul\":10297:10301   */\n      0x00\n        /* \"#utility.yul\":10335:10337   */\n      0x20\n        /* \"#utility.yul\":10324:10333   */\n      dup3\n        /* \"#utility.yul\":10320:10338   */\n      add\n        /* \"#utility.yul\":10312:10338   */\n      swap1\n      pop\n        /* \"#utility.yul\":10384:10393   */\n      dup2\n        /* \"#utility.yul\":10378:10382   */\n      dup2\n        /* \"#utility.yul\":10374:10394   */\n      sub\n        /* \"#utility.yul\":10370:10371   */\n      0x00\n        /* \"#utility.yul\":10359:10368   */\n      dup4\n        /* \"#utility.yul\":10355:10372   */\n      add\n        /* \"#utility.yul\":10348:10395   */\n      mstore\n        /* \"#utility.yul\":10412:10543   */\n      tag_404\n        /* \"#utility.yul\":10538:10542   */\n      dup2\n        /* \"#utility.yul\":10412:10543   */\n      tag_265\n      jump\t// in\n    tag_404:\n        /* \"#utility.yul\":10404:10543   */\n      swap1\n      pop\n        /* \"#utility.yul\":10131:10550   */\n      swap2\n      swap1\n      pop\n      jump\t// out\n        /* \"#utility.yul\":10556:10633   */\n    tag_266:\n        /* \"#utility.yul\":10593:10600   */\n      0x00\n        /* \"#utility.yul\":10622:10627   */\n      dup2\n        /* \"#utility.yul\":10611:10627   */\n      swap1\n      pop\n        /* \"#utility.yul\":10556:10633   */\n      swap2\n      swap1\n      pop\n      jump\t// out\n        /* \"#utility.yul\":10639:10872   */\n    tag_87:\n        /* \"#utility.yul\":10678:10681   */\n      0x00\n        /* \"#utility.yul\":10701:10725   */\n      tag_407\n        /* \"#utility.yul\":10719:10724   */\n      dup3\n        /* \"#utility.yul\":10701:10725   */\n      tag_266\n      jump\t// in\n    tag_407:\n        /* \"#utility.yul\":10692:10725   */\n      swap2\n      pop\n        /* \"#utility.yul\":10747:10813   */\n      0xffffffffffffffffffffffffffffffffffffffffffffffffffffffffffffffff\n        /* \"#utility.yul\":10740:10745   */\n      dup3\n        /* \"#utility.yul\":10737:10814   */\n      sub\n        /* \"#utility.yul\":10734:10837   */\n      tag_408\n      jumpi\n        /* \"#utility.yul\":10817:10835   */\n      tag_409\n      tag_261\n      jump\t// in\n    tag_409:\n        /* \"#utility.yul\":10734:10837   */\n    tag_408:\n        /* \"#utility.yul\":10864:10865   */\n      0x01\n        /* \"#utility.yul\":10857:10862   */\n      dup3\n        /* \"#utility.yul\":10853:10866   */\n      add\n        /* \"#utility.yul\":10846:10866   */\n      swap1\n      pop\n        /* \"#utility.yul\":10639:10872   */\n      swap2\n      swap1\n      pop\n      jump\t// out\n        /* \"#utility.yul\":10878:11027   */\n    tag_267:\n        /* \"#utility.yul\":10914:10921   */\n      0x00\n        /* \"#utility.yul\":10954:11020   */\n      0xff00000000000000000000000000000000000000000000000000000000000000\n        /* \"#utility.yul\":10947:10952   */\n      dup3\n        /* \"#utility.yul\":10943:11021   */\n      and\n        /* \"#utility.yul\":10932:11021   */\n      swap1\n      pop\n        /* \"#utility.yul\":10878:11027   */\n      swap2\n      swap1\n      pop\n      jump\t// out\n        /* \"#utility.yul\":11033:11148   */\n    tag_268:\n        /* \"#utility.yul\":11118:11141   */\n      tag_412\n        /* \"#utility.yul\":11135:11140   */\n      dup2\n        /* \"#utility.yul\":11118:11141   */\n      tag_267\n      jump\t// in\n    tag_412:\n        /* \"#utility.yul\":11113:11116   */\n      dup3\n        /* \"#utility.yul\":11106:11142   */\n      mstore\n        /* \"#utility.yul\":11033:11148   */\n      pop\n      pop\n      jump\t// out\n        /* \"#utility.yul\":11154:11244   */\n    tag_269:\n        /* \"#utility.yul\":11188:11195   */\n      0x00\n        /* \"#utility.yul\":11231:11236   */\n      dup2\n        /* \"#utility.yul\":11224:11237   */\n      iszero\n        /* \"#utility.yul\":11217:11238   */\n      iszero\n        /* \"#utility.yul\":11206:11238   */\n      swap1\n      pop\n        /* \"#utility.yul\":11154:11244   */\n      swap2\n      swap1\n      pop\n      jump\t// out\n        /* \"#utility.yul\":11250:11359   */\n    tag_270:\n        /* \"#utility.yul\":11331:11352   */\n      tag_415\n        /* \"#utility.yul\":11346:11351   */\n      dup2\n        /* \"#utility.yul\":11331:11352   */\n      tag_269\n      jump\t// in\n    tag_415:\n        /* \"#utility.yul\":11326:11329   */\n      dup3\n        /* \"#utility.yul\":11319:11353   */\n      mstore\n        /* \"#utility.yul\":11250:11359   */\n      pop\n      pop\n      jump\t// out\n        /* \"#utility.yul\":11365:11505   */\n    tag_271:\n        /* \"#utility.yul\":11413:11417   */\n      0x00\n        /* \"#utility.yul\":11436:11439   */\n      dup2\n        /* \"#utility.yul\":11428:11439   */\n      swap1\n      pop\n        /* \"#utility.yul\":11459:11462   */\n      dup2\n        /* \"#utility.yul\":11456:11457   */\n      0x00\n        /* \"#utility.yul\":11449:11463   */\n      mstore\n        /* \"#utility.yul\":11493:11497   */\n      0x20\n        /* \"#utility.yul\":11490:11491   */\n      0x00\n        /* \"#utility.yul\":11480:11498   */\n      keccak256\n        /* \"#utility.yul\":11472:11498   */\n      swap1\n      pop\n        /* \"#utility.yul\":11365:11505   */\n      swap2\n      swap1\n      pop\n      jump\t// out\n        /* \"#utility.yul\":11533:12360   */\n    tag_272:\n        /* \"#utility.yul\":11616:11619   */\n      0x00\n        /* \"#utility.yul\":11653:11658   */\n      dup2\n        /* \"#utility.yul\":11647:11659   */\n      sload\n        /* \"#utility.yul\":11682:11718   */\n      tag_418\n        /* \"#utility.yul\":11708:11717   */\n      dup2\n        /* \"#utility.yul\":11682:11718   */\n      tag_31\n      jump\t// in\n    tag_418:\n        /* \"#utility.yul\":11734:11804   */\n      tag_419\n        /* \"#utility.yul\":11797:11803   */\n      dup2\n        /* \"#utility.yul\":11792:11795   */\n      dup7\n        /* \"#utility.yul\":11734:11804   */\n      tag_242\n      jump\t// in\n    tag_419:\n        /* \"#utility.yul\":11727:11804   */\n      swap5\n      pop\n        /* \"#utility.yul\":11835:11836   */\n      0x01\n        /* \"#utility.yul\":11824:11833   */\n      dup3\n        /* \"#utility.yul\":11820:11837   */\n      and\n        /* \"#utility.yul\":11851:11852   */\n      0x00\n        /* \"#utility.yul\":11846:12010   */\n      dup2\n      eq\n      tag_421\n      jumpi\n        /* \"#utility.yul\":12024:12025   */\n      0x01\n        /* \"#utility.yul\":12019:12354   */\n      dup2\n      eq\n      tag_422\n      jumpi\n        /* \"#utility.yul\":11813:12354   */\n      jump(tag_420)\n        /* \"#utility.yul\":11846:12010   */\n    tag_421:\n        /* \"#utility.yul\":11930:11934   */\n      0xff\n        /* \"#utility.yul\":11926:11935   */\n      not\n        /* \"#utility.yul\":11915:11924   */\n      dup4\n        /* \"#utility.yul\":11911:11936   */\n      and\n        /* \"#utility.yul\":11906:11909   */\n      dup7\n        /* \"#utility.yul\":11899:11937   */\n      mstore\n        /* \"#utility.yul\":11990:11996   */\n      dup2\n        /* \"#utility.yul\":11983:11997   */\n      iszero\n        /* \"#utility.yul\":11976:11998   */\n      iszero\n        /* \"#utility.yul\":11970:11974   */\n      0x20\n        /* \"#utility.yul\":11966:11999   */\n      mul\n        /* \"#utility.yul\":11961:11964   */\n      dup7\n        /* \"#utility.yul\":11957:12000   */\n      add\n        /* \"#utility.yul\":11950:12000   */\n      swap4\n      pop\n        /* \"#utility.yul\":11846:12010   */\n      jump(tag_420)\n        /* \"#utility.yul\":12019:12354   */\n    tag_422:\n        /* \"#utility.yul\":12086:12123   */\n      tag_423\n        /* \"#utility.yul\":12117:12122   */\n      dup6\n        /* \"#utility.yul\":12086:12123   */\n      tag_271\n      jump\t// in\n    tag_423:\n        /* \"#utility.yul\":12145:12146   */\n      0x00\n        /* \"#utility.yul\":12159:12313   */\n    tag_424:\n        /* \"#utility.yul\":12173:12179   */\n      dup4\n        /* \"#utility.yul\":12170:12171   */\n      dup2\n        /* \"#utility.yul\":12167:12180   */\n      lt\n        /* \"#utility.yul\":12159:12313   */\n      iszero\n      tag_426\n      jumpi\n        /* \"#utility.yul\":12247:12254   */\n      dup2\n        /* \"#utility.yul\":12241:12255   */\n      sload\n        /* \"#utility.yul\":12237:12238   */\n      dup2\n        /* \"#utility.yul\":12232:12235   */\n      dup10\n        /* \"#utility.yul\":12228:12239   */\n      add\n        /* \"#utility.yul\":12221:12256   */\n      mstore\n        /* \"#utility.yul\":12297:12298   */\n      0x01\n        /* \"#utility.yul\":12288:12295   */\n      dup3\n        /* \"#utility.yul\":12284:12299   */\n      add\n        /* \"#utility.yul\":12273:12299   */\n      swap2\n      pop\n        /* \"#utility.yul\":12195:12199   */\n      0x20\n        /* \"#utility.yul\":12192:12193   */\n      dup2\n        /* \"#utility.yul\":12188:12200   */\n      add\n        /* \"#utility.yul\":12183:12200   */\n      swap1\n      pop\n        /* \"#utility.yul\":12159:12313   */\n      jump(tag_424)\n    tag_426:\n        /* \"#utility.yul\":12342:12343   */\n      dup1\n        /* \"#utility.yul\":12337:12340   */\n      dup9\n        /* \"#utility.yul\":12333:12344   */\n      add\n        /* \"#utility.yul\":12326:12344   */\n      swap6\n      pop\n        /* \"#utility.yul\":12026:12354   */\n      pop\n      pop\n        /* \"#utility.yul\":11813:12354   */\n    tag_420:\n      pop\n        /* \"#utility.yul\":11620:12360   */\n      pop\n      pop\n        /* \"#utility.yul\":11533:12360   */\n      swap3\n      swap2\n      pop\n      pop\n      jump\t// out\n        /* \"#utility.yul\":12366:13099   */\n    tag_104:\n        /* \"#utility.yul\":12580:12584   */\n      0x00\n        /* \"#utility.yul\":12618:12621   */\n      0xa0\n        /* \"#utility.yul\":12607:12616   */\n      dup3\n        /* \"#utility.yul\":12603:12622   */\n      add\n        /* \"#utility.yul\":12595:12622   */\n      swap1\n      pop\n        /* \"#utility.yul\":12632:12701   */\n      tag_428\n        /* \"#utility.yul\":12698:12699   */\n      0x00\n        /* \"#utility.yul\":12687:12696   */\n      dup4\n        /* \"#utility.yul\":12683:12700   */\n      add\n        /* \"#utility.yul\":12674:12680   */\n      dup9\n        /* \"#utility.yul\":12632:12701   */\n      tag_268\n      jump\t// in\n    tag_428:\n        /* \"#utility.yul\":12711:12777   */\n      tag_429\n        /* \"#utility.yul\":12773:12775   */\n      0x20\n        /* \"#utility.yul\":12762:12771   */\n      dup4\n        /* \"#utility.yul\":12758:12776   */\n      add\n        /* \"#utility.yul\":12749:12755   */\n      dup8\n        /* \"#utility.yul\":12711:12777   */\n      tag_270\n      jump\t// in\n    tag_429:\n        /* \"#utility.yul\":12824:12833   */\n      dup2\n        /* \"#utility.yul\":12818:12822   */\n      dup2\n        /* \"#utility.yul\":12814:12834   */\n      sub\n        /* \"#utility.yul\":12809:12811   */\n      0x40\n        /* \"#utility.yul\":12798:12807   */\n      dup4\n        /* \"#utility.yul\":12794:12812   */\n      add\n        /* \"#utility.yul\":12787:12835   */\n      mstore\n        /* \"#utility.yul\":12852:12925   */\n      tag_430\n        /* \"#utility.yul\":12920:12924   */\n      dup2\n        /* \"#utility.yul\":12911:12917   */\n      dup7\n        /* \"#utility.yul\":12852:12925   */\n      tag_272\n      jump\t// in\n    tag_430:\n        /* \"#utility.yul\":12844:12925   */\n      swap1\n      pop\n        /* \"#utility.yul\":12935:13003   */\n      tag_431\n        /* \"#utility.yul\":12999:13001   */\n      0x60\n        /* \"#utility.yul\":12988:12997   */\n      dup4\n        /* \"#utility.yul\":12984:13002   */\n      add\n        /* \"#utility.yul\":12975:12981   */\n      dup6\n        /* \"#utility.yul\":12935:13003   */\n      tag_240\n      jump\t// in\n    tag_431:\n        /* \"#utility.yul\":13013:13092   */\n      tag_432\n        /* \"#utility.yul\":13087:13090   */\n      0x80\n        /* \"#utility.yul\":13076:13085   */\n      dup4\n        /* \"#utility.yul\":13072:13091   */\n      add\n        /* \"#utility.yul\":13063:13069   */\n      dup5\n        /* \"#utility.yul\":13013:13092   */\n      tag_238\n      jump\t// in\n    tag_432:\n        /* \"#utility.yul\":12366:13099   */\n      swap7\n      swap6\n      pop\n      pop\n      pop\n      pop\n      pop\n      pop\n      jump\t// out\n        /* \"#utility.yul\":13105:13274   */\n    tag_273:\n        /* \"#utility.yul\":13245:13266   */\n      0x67616d6520616c72656164792061637469766500000000000000000000000000\n        /* \"#utility.yul\":13241:13242   */\n      0x00\n        /* \"#utility.yul\":13233:13239   */\n      dup3\n        /* \"#utility.yul\":13229:13243   */\n      add\n        /* \"#utility.yul\":13222:13267   */\n      mstore\n        /* \"#utility.yul\":13105:13274   */\n      pop\n      jump\t// out\n        /* \"#utility.yul\":13280:13646   */\n    tag_274:\n        /* \"#utility.yul\":13422:13425   */\n      0x00\n        /* \"#utility.yul\":13443:13510   */\n      tag_435\n        /* \"#utility.yul\":13507:13509   */\n      0x13\n        /* \"#utility.yul\":13502:13505   */\n      dup4\n        /* \"#utility.yul\":13443:13510   */\n      tag_256\n      jump\t// in\n    tag_435:\n        /* \"#utility.yul\":13436:13510   */\n      swap2\n      pop\n        /* \"#utility.yul\":13519:13612   */\n      tag_436\n        /* \"#utility.yul\":13608:13611   */\n      dup3\n        /* \"#utility.yul\":13519:13612   */\n      tag_273\n      jump\t// in\n    tag_436:\n        /* \"#utility.yul\":13637:13639   */\n      0x20\n        /* \"#utility.yul\":13632:13635   */\n      dup3\n        /* \"#utility.yul\":13628:13640   */\n      add\n        /* \"#utility.yul\":13621:13640   */\n      swap1\n      pop\n        /* \"#utility.yul\":13280:13646   */\n      swap2\n      swap1\n      pop\n      jump\t// out\n        /* \"#utility.yul\":13652:14071   */\n    tag_112:\n        /* \"#utility.yul\":13818:13822   */\n      0x00\n        /* \"#utility.yul\":13856:13858   */\n      0x20\n        /* \"#utility.yul\":13845:13854   */\n      dup3\n        /* \"#utility.yul\":13841:13859   */\n      add\n        /* \"#utility.yul\":13833:13859   */\n      swap1\n      pop\n        /* \"#utility.yul\":13905:13914   */\n      dup2\n        /* \"#utility.yul\":13899:13903   */\n      dup2\n        /* \"#utility.yul\":13895:13915   */\n      sub\n        /* \"#utility.yul\":13891:13892   */\n      0x00\n        /* \"#utility.yul\":13880:13889   */\n      dup4\n        /* \"#utility.yul\":13876:13893   */\n      add\n        /* \"#utility.yul\":13869:13916   */\n      mstore\n        /* \"#utility.yul\":13933:14064   */\n      tag_438\n        /* \"#utility.yul\":14059:14063   */\n      dup2\n        /* \"#utility.yul\":13933:14064   */\n      tag_274\n      jump\t// in\n    tag_438:\n        /* \"#utility.yul\":13925:14064   */\n      swap1\n      pop\n        /* \"#utility.yul\":13652:14071   */\n      swap2\n      swap1\n      pop\n      jump\t// out\n        /* \"#utility.yul\":14077:14257   */\n    tag_119:\n        /* \"#utility.yul\":14125:14202   */\n      0x4e487b7100000000000000000000000000000000000000000000000000000000\n        /* \"#utility.yul\":14122:14123   */\n      0x00\n        /* \"#utility.yul\":14115:14203   */\n      mstore\n        /* \"#utility.yul\":14222:14226   */\n      0x41\n        /* \"#utility.yul\":14219:14220   */\n      0x04\n        /* \"#utility.yul\":14212:14227   */\n      mstore\n        /* \"#utility.yul\":14246:14250   */\n      0x24\n        /* \"#utility.yul\":14243:14244   */\n      0x00\n        /* \"#utility.yul\":14236:14251   */\n      revert\n        /* \"#utility.yul\":14263:14356   */\n    tag_275:\n        /* \"#utility.yul\":14300:14306   */\n      0x00\n        /* \"#utility.yul\":14347:14349   */\n      0x20\n        /* \"#utility.yul\":14342:14344   */\n      0x1f\n        /* \"#utility.yul\":14335:14340   */\n      dup4\n        /* \"#utility.yul\":14331:14345   */\n      add\n        /* \"#utility.yul\":14327:14350   */\n      div\n        /* \"#utility.yul\":14317:14350   */\n      swap1\n      pop\n        /* \"#utility.yul\":14263:14356   */\n      swap2\n      swap1\n      pop\n      jump\t// out\n        /* \"#utility.yul\":14362:14469   */\n    tag_276:\n        /* \"#utility.yul\":14406:14414   */\n      0x00\n        /* \"#utility.yul\":14456:14461   */\n      dup3\n        /* \"#utility.yul\":14450:14454   */\n      dup3\n        /* \"#utility.yul\":14446:14462   */\n      shl\n        /* \"#utility.yul\":14425:14462   */\n      swap1\n      pop\n        /* \"#utility.yul\":14362:14469   */\n      swap3\n      swap2\n      pop\n      pop\n      jump\t// out\n        /* \"#utility.yul\":14475:14868   */\n    tag_277:\n        /* \"#utility.yul\":14544:14550   */\n      0x00\n        /* \"#utility.yul\":14594:14595   */\n      0x08\n        /* \"#utility.yul\":14582:14592   */\n      dup4\n        /* \"#utility.yul\":14578:14596   */\n      mul\n        /* \"#utility.yul\":14617:14714   */\n      tag_443\n        /* \"#utility.yul\":14647:14713   */\n      0xffffffffffffffffffffffffffffffffffffffffffffffffffffffffffffffff\n        /* \"#utility.yul\":14636:14645   */\n      dup3\n        /* \"#utility.yul\":14617:14714   */\n      tag_276\n      jump\t// in\n    tag_443:\n        /* \"#utility.yul\":14735:14774   */\n      tag_444\n        /* \"#utility.yul\":14765:14773   */\n      dup7\n        /* \"#utility.yul\":14754:14763   */\n      dup4\n        /* \"#utility.yul\":14735:14774   */\n      tag_276\n      jump\t// in\n    tag_444:\n        /* \"#utility.yul\":14723:14774   */\n      swap6\n      pop\n        /* \"#utility.yul\":14807:14811   */\n      dup1\n        /* \"#utility.yul\":14803:14812   */\n      not\n        /* \"#utility.yul\":14796:14801   */\n      dup5\n        /* \"#utility.yul\":14792:14813   */\n      and\n        /* \"#utility.yul\":14783:14813   */\n      swap4\n      pop\n        /* \"#utility.yul\":14856:14860   */\n      dup1\n        /* \"#utility.yul\":14846:14854   */\n      dup7\n        /* \"#utility.yul\":14842:14861   */\n      and\n        /* \"#utility.yul\":14835:14840   */\n      dup5\n        /* \"#utility.yul\":14832:14862   */\n      or\n        /* \"#utility.yul\":14822:14862   */\n      swap3\n      pop\n        /* \"#utility.yul\":14551:14868   */\n      pop\n      pop\n        /* \"#utility.yul\":14475:14868   */\n      swap4\n      swap3\n      pop\n      pop\n      pop\n      jump\t// out\n        /* \"#utility.yul\":14874:14934   */\n    tag_278:\n        /* \"#utility.yul\":14902:14905   */\n      0x00\n        /* \"#utility.yul\":14923:14928   */\n      dup2\n        /* \"#utility.yul\":14916:14928   */\n      swap1\n      pop\n        /* \"#utility.yul\":14874:14934   */\n      swap2\n      swap1\n      pop\n      jump\t// out\n        /* \"#utility.yul\":14940:15082   */\n    tag_279:\n        /* \"#utility.yul\":14990:14999   */\n      0x00\n        /* \"#utility.yul\":15023:15076   */\n      tag_447\n        /* \"#utility.yul\":15041:15075   */\n      tag_448\n        /* \"#utility.yul\":15050:15074   */\n      tag_449\n        /* \"#utility.yul\":15068:15073   */\n      dup5\n        /* \"#utility.yul\":15050:15074   */\n      tag_266\n      jump\t// in\n    tag_449:\n        /* \"#utility.yul\":15041:15075   */\n      tag_278\n      jump\t// in\n    tag_448:\n        /* \"#utility.yul\":15023:15076   */\n      tag_266\n      jump\t// in\n    tag_447:\n        /* \"#utility.yul\":15010:15076   */\n      swap1\n      pop\n        /* \"#utility.yul\":14940:15082   */\n      swap2\n      swap1\n      pop\n      jump\t// out\n        /* \"#utility.yul\":15088:15163   */\n    tag_280:\n        /* \"#utility.yul\":15131:15134   */\n      0x00\n        /* \"#utility.yul\":15152:15157   */\n      dup2\n        /* \"#utility.yul\":15145:15157   */\n      swap1\n      pop\n        /* \"#utility.yul\":15088:15163   */\n      swap2\n      swap1\n      pop\n      jump\t// out\n        /* \"#utility.yul\":15169:15438   */\n    tag_281:\n        /* \"#utility.yul\":15279:15318   */\n      tag_452\n        /* \"#utility.yul\":15310:15317   */\n      dup4\n        /* \"#utility.yul\":15279:15318   */\n      tag_279\n      jump\t// in\n    tag_452:\n        /* \"#utility.yul\":15340:15431   */\n      tag_453\n        /* \"#utility.yul\":15389:15430   */\n      tag_454\n        /* \"#utility.yul\":15413:15429   */\n      dup3\n        /* \"#utility.yul\":15389:15430   */\n      tag_280\n      jump\t// in\n    tag_454:\n        /* \"#utility.yul\":15381:15387   */\n      dup5\n        /* \"#utility.yul\":15374:15378   */\n      dup5\n        /* \"#utility.yul\":15368:15379   */\n      sload\n        /* \"#utility.yul\":15340:15431   */\n      tag_277\n      jump\t// in\n    tag_453:\n        /* \"#utility.yul\":15334:15338   */\n      dup3\n        /* \"#utility.yul\":15327:15432   */\n      sstore\n        /* \"#utility.yul\":15245:15438   */\n      pop\n        /* \"#utility.yul\":15169:15438   */\n      pop\n      pop\n      pop\n      jump\t// out\n        /* \"#utility.yul\":15444:15517   */\n    tag_282:\n        /* \"#utility.yul\":15489:15492   */\n      0x00\n        /* \"#utility.yul\":15444:15517   */\n      swap1\n      jump\t// out\n        /* \"#utility.yul\":15523:15712   */\n    tag_283:\n        /* \"#utility.yul\":15600:15632   */\n      tag_457\n      tag_282\n      jump\t// in\n    tag_457:\n        /* \"#utility.yul\":15641:15706   */\n      tag_458\n        /* \"#utility.yul\":15699:15705   */\n      dup2\n        /* \"#utility.yul\":15691:15697   */\n      dup5\n        /* \"#utility.yul\":15685:15689   */\n      dup5\n        /* \"#utility.yul\":15641:15706   */\n      tag_281\n      jump\t// in\n    tag_458:\n        /* \"#utility.yul\":15576:15712   */\n      pop\n        /* \"#utility.yul\":15523:15712   */\n      pop\n      pop\n      jump\t// out\n        /* \"#utility.yul\":15718:15904   */\n    tag_284:\n        /* \"#utility.yul\":15778:15898   */\n    tag_460:\n        /* \"#utility.yul\":15795:15798   */\n      dup2\n        /* \"#utility.yul\":15788:15793   */\n      dup2\n        /* \"#utility.yul\":15785:15799   */\n      lt\n        /* \"#utility.yul\":15778:15898   */\n      iszero\n      tag_462\n      jumpi\n        /* \"#utility.yul\":15849:15888   */\n      tag_463\n        /* \"#utility.yul\":15886:15887   */\n      0x00\n        /* \"#utility.yul\":15879:15884   */\n      dup3\n        /* \"#utility.yul\":15849:15888   */\n      tag_283\n      jump\t// in\n    tag_463:\n        /* \"#utility.yul\":15822:15823   */\n      0x01\n        /* \"#utility.yul\":15815:15820   */\n      dup2\n        /* \"#utility.yul\":15811:15824   */\n      add\n        /* \"#utility.yul\":15802:15824   */\n      swap1\n      pop\n        /* \"#utility.yul\":15778:15898   */\n      jump(tag_460)\n    tag_462:\n        /* \"#utility.yul\":15718:15904   */\n      pop\n      pop\n      jump\t// out\n        /* \"#utility.yul\":15910:16451   */\n    tag_285:\n        /* \"#utility.yul\":16010:16012   */\n      0x1f\n        /* \"#utility.yul\":16005:16008   */\n      dup3\n        /* \"#utility.yul\":16002:16013   */\n      gt\n        /* \"#utility.yul\":15999:16444   */\n      iszero\n      tag_465\n      jumpi\n        /* \"#utility.yul\":16044:16081   */\n      tag_466\n        /* \"#utility.yul\":16075:16080   */\n      dup2\n        /* \"#utility.yul\":16044:16081   */\n      tag_271\n      jump\t// in\n    tag_466:\n        /* \"#utility.yul\":16127:16156   */\n      tag_467\n        /* \"#utility.yul\":16145:16155   */\n      dup5\n        /* \"#utility.yul\":16127:16156   */\n      tag_275\n      jump\t// in\n    tag_467:\n        /* \"#utility.yul\":16117:16125   */\n      dup2\n        /* \"#utility.yul\":16113:16157   */\n      add\n        /* \"#utility.yul\":16310:16312   */\n      0x20\n        /* \"#utility.yul\":16298:16308   */\n      dup6\n        /* \"#utility.yul\":16295:16313   */\n      lt\n        /* \"#utility.yul\":16292:16341   */\n      iszero\n      tag_468\n      jumpi\n        /* \"#utility.yul\":16331:16339   */\n      dup2\n        /* \"#utility.yul\":16316:16339   */\n      swap1\n      pop\n        /* \"#utility.yul\":16292:16341   */\n    tag_468:\n        /* \"#utility.yul\":16354:16434   */\n      tag_469\n        /* \"#utility.yul\":16410:16432   */\n      tag_470\n        /* \"#utility.yul\":16428:16431   */\n      dup6\n        /* \"#utility.yul\":16410:16432   */\n      tag_275\n      jump\t// in\n    tag_470:\n        /* \"#utility.yul\":16400:16408   */\n      dup4\n        /* \"#utility.yul\":16396:16433   */\n      add\n        /* \"#utility.yul\":16383:16394   */\n      dup3\n        /* \"#utility.yul\":16354:16434   */\n      tag_284\n      jump\t// in\n    tag_469:\n        /* \"#utility.yul\":16014:16444   */\n      pop\n      pop\n        /* \"#utility.yul\":15999:16444   */\n    tag_465:\n        /* \"#utility.yul\":15910:16451   */\n      pop\n      pop\n      pop\n      jump\t// out\n        /* \"#utility.yul\":16457:16574   */\n    tag_286:\n        /* \"#utility.yul\":16511:16519   */\n      0x00\n        /* \"#utility.yul\":16561:16566   */\n      dup3\n        /* \"#utility.yul\":16555:16559   */\n      dup3\n        /* \"#utility.yul\":16551:16567   */\n      shr\n        /* \"#utility.yul\":16530:16567   */\n      swap1\n      pop\n        /* \"#utility.yul\":16457:16574   */\n      swap3\n      swap2\n      pop\n      pop\n      jump\t// out\n        /* \"#utility.yul\":16580:16749   */\n    tag_287:\n        /* \"#utility.yul\":16624:16630   */\n      0x00\n        /* \"#utility.yul\":16657:16708   */\n      tag_473\n        /* \"#utility.yul\":16705:16706   */\n      0x00\n        /* \"#utility.yul\":16701:16707   */\n      not\n        /* \"#utility.yul\":16693:16698   */\n      dup5\n        /* \"#utility.yul\":16690:16691   */\n      0x08\n        /* \"#utility.yul\":16686:16699   */\n      mul\n        /* \"#utility.yul\":16657:16708   */\n      tag_286\n      jump\t// in\n    tag_473:\n        /* \"#utility.yul\":16653:16709   */\n      not\n        /* \"#utility.yul\":16738:16742   */\n      dup1\n        /* \"#utility.yul\":16732:16736   */\n      dup4\n        /* \"#utility.yul\":16728:16743   */\n      and\n        /* \"#utility.yul\":16718:16743   */\n      swap2\n      pop\n        /* \"#utility.yul\":16631:16749   */\n      pop\n        /* \"#utility.yul\":16580:16749   */\n      swap3\n      swap2\n      pop\n      pop\n      jump\t// out\n        /* \"#utility.yul\":16754:17049   */\n    tag_288:\n        /* \"#utility.yul\":16830:16834   */\n      0x00\n        /* \"#utility.yul\":16976:17005   */\n      tag_475\n        /* \"#utility.yul\":17001:17004   */\n      dup4\n        /* \"#utility.yul\":16995:16999   */\n      dup4\n        /* \"#utility.yul\":16976:17005   */\n      tag_287\n      jump\t// in\n    tag_475:\n        /* \"#utility.yul\":16968:17005   */\n      swap2\n      pop\n        /* \"#utility.yul\":17038:17041   */\n      dup3\n        /* \"#utility.yul\":17035:17036   */\n      0x02\n        /* \"#utility.yul\":17031:17042   */\n      mul\n        /* \"#utility.yul\":17025:17029   */\n      dup3\n        /* \"#utility.yul\":17022:17043   */\n      or\n        /* \"#utility.yul\":17014:17043   */\n      swap1\n      pop\n        /* \"#utility.yul\":16754:17049   */\n      swap3\n      swap2\n      pop\n      pop\n      jump\t// out\n        /* \"#utility.yul\":17054:18444   */\n    tag_122:\n        /* \"#utility.yul\":17169:17205   */\n      tag_477\n        /* \"#utility.yul\":17201:17204   */\n      dup3\n        /* \"#utility.yul\":17169:17205   */\n      tag_241\n      jump\t// in\n    tag_477:\n        /* \"#utility.yul\":17270:17288   */\n      0xffffffffffffffff\n        /* \"#utility.yul\":17262:17268   */\n      dup2\n        /* \"#utility.yul\":17259:17289   */\n      gt\n        /* \"#utility.yul\":17256:17312   */\n      iszero\n      tag_478\n      jumpi\n        /* \"#utility.yul\":17292:17310   */\n      tag_479\n      tag_119\n      jump\t// in\n    tag_479:\n        /* \"#utility.yul\":17256:17312   */\n    tag_478:\n        /* \"#utility.yul\":17336:17374   */\n      tag_480\n        /* \"#utility.yul\":17368:17372   */\n      dup3\n        /* \"#utility.yul\":17362:17373   */\n      sload\n        /* \"#utility.yul\":17336:17374   */\n      tag_31\n      jump\t// in\n    tag_480:\n        /* \"#utility.yul\":17421:17487   */\n      tag_481\n        /* \"#utility.yul\":17480:17486   */\n      dup3\n        /* \"#utility.yul\":17472:17478   */\n      dup3\n        /* \"#utility.yul\":17466:17470   */\n      dup6\n        /* \"#utility.yul\":17421:17487   */\n      tag_285\n      jump\t// in\n    tag_481:\n        /* \"#utility.yul\":17514:17515   */\n      0x00\n        /* \"#utility.yul\":17538:17542   */\n      0x20\n        /* \"#utility.yul\":17525:17542   */\n      swap1\n      pop\n        /* \"#utility.yul\":17570:17572   */\n      0x1f\n        /* \"#utility.yul\":17562:17568   */\n      dup4\n        /* \"#utility.yul\":17559:17573   */\n      gt\n        /* \"#utility.yul\":17587:17588   */\n      0x01\n        /* \"#utility.yul\":17582:18199   */\n      dup2\n      eq\n      tag_483\n      jumpi\n        /* \"#utility.yul\":18243:18244   */\n      0x00\n        /* \"#utility.yul\":18260:18266   */\n      dup5\n        /* \"#utility.yul\":18257:18334   */\n      iszero\n      tag_484\n      jumpi\n        /* \"#utility.yul\":18309:18318   */\n      dup3\n        /* \"#utility.yul\":18304:18307   */\n      dup8\n        /* \"#utility.yul\":18300:18319   */\n      add\n        /* \"#utility.yul\":18294:18320   */\n      mload\n        /* \"#utility.yul\":18285:18320   */\n      swap1\n      pop\n        /* \"#utility.yul\":18257:18334   */\n    tag_484:\n        /* \"#utility.yul\":18360:18427   */\n      tag_485\n        /* \"#utility.yul\":18420:18426   */\n      dup6\n        /* \"#utility.yul\":18413:18418   */\n      dup3\n        /* \"#utility.yul\":18360:18427   */\n      tag_288\n      jump\t// in\n    tag_485:\n        /* \"#utility.yul\":18354:18358   */\n      dup7\n        /* \"#utility.yul\":18347:18428   */\n      sstore\n        /* \"#utility.yul\":18216:18438   */\n      pop\n        /* \"#utility.yul\":17552:18438   */\n      jump(tag_482)\n        /* \"#utility.yul\":17582:18199   */\n    tag_483:\n        /* \"#utility.yul\":17634:17638   */\n      0x1f\n        /* \"#utility.yul\":17630:17639   */\n      not\n        /* \"#utility.yul\":17622:17628   */\n      dup5\n        /* \"#utility.yul\":17618:17640   */\n      and\n        /* \"#utility.yul\":17668:17704   */\n      tag_486\n        /* \"#utility.yul\":17699:17703   */\n      dup7\n        /* \"#utility.yul\":17668:17704   */\n      tag_271\n      jump\t// in\n    tag_486:\n        /* \"#utility.yul\":17726:17727   */\n      0x00\n        /* \"#utility.yul\":17740:17948   */\n    tag_487:\n        /* \"#utility.yul\":17754:17761   */\n      dup3\n        /* \"#utility.yul\":17751:17752   */\n      dup2\n        /* \"#utility.yul\":17748:17762   */\n      lt\n        /* \"#utility.yul\":17740:17948   */\n      iszero\n      tag_489\n      jumpi\n        /* \"#utility.yul\":17833:17842   */\n      dup5\n        /* \"#utility.yul\":17828:17831   */\n      dup10\n        /* \"#utility.yul\":17824:17843   */\n      add\n        /* \"#utility.yul\":17818:17844   */\n      mload\n        /* \"#utility.yul\":17810:17816   */\n      dup3\n        /* \"#utility.yul\":17803:17845   */\n      sstore\n        /* \"#utility.yul\":17884:17885   */\n      0x01\n        /* \"#utility.yul\":17876:17882   */\n      dup3\n        /* \"#utility.yul\":17872:17886   */\n      add\n        /* \"#utility.yul\":17862:17886   */\n      swap2\n      pop\n        /* \"#utility.yul\":17931:17933   */\n      0x20\n        /* \"#utility.yul\":17920:17929   */\n      dup6\n        /* \"#utility.yul\":17916:17934   */\n      add\n        /* \"#utility.yul\":17903:17934   */\n      swap5\n      pop\n        /* \"#utility.yul\":17777:17781   */\n      0x20\n        /* \"#utility.yul\":17774:17775   */\n      dup2\n        /* \"#utility.yul\":17770:17782   */\n      add\n        /* \"#utility.yul\":17765:17782   */\n      swap1\n      pop\n        /* \"#utility.yul\":17740:17948   */\n      jump(tag_487)\n    tag_489:\n        /* \"#utility.yul\":17976:17982   */\n      dup7\n        /* \"#utility.yul\":17967:17974   */\n      dup4\n        /* \"#utility.yul\":17964:17983   */\n      lt\n        /* \"#utility.yul\":17961:18140   */\n      iszero\n      tag_490\n      jumpi\n        /* \"#utility.yul\":18034:18043   */\n      dup5\n        /* \"#utility.yul\":18029:18032   */\n      dup10\n        /* \"#utility.yul\":18025:18044   */\n      add\n        /* \"#utility.yul\":18019:18045   */\n      mload\n        /* \"#utility.yul\":18077:18125   */\n      tag_491\n        /* \"#utility.yul\":18119:18123   */\n      0x1f\n        /* \"#utility.yul\":18111:18117   */\n      dup10\n        /* \"#utility.yul\":18107:18124   */\n      and\n        /* \"#utility.yul\":18096:18105   */\n      dup3\n        /* \"#utility.yul\":18077:18125   */\n      tag_287\n      jump\t// in\n    tag_491:\n        /* \"#utility.yul\":18069:18075   */\n      dup4\n        /* \"#utility.yul\":18062:18126   */\n      sstore\n        /* \"#utility.yul\":17984:18140   */\n      pop\n        /* \"#utility.yul\":17961:18140   */\n    tag_490:\n        /* \"#utility.yul\":18186:18187   */\n      0x01\n        /* \"#utility.yul\":18182:18183   */\n      0x02\n        /* \"#utility.yul\":18174:18180   */\n      dup9\n        /* \"#utility.yul\":18170:18184   */\n      mul\n        /* \"#utility.yul\":18166:18188   */\n      add\n        /* \"#utility.yul\":18160:18164   */\n      dup9\n        /* \"#utility.yul\":18153:18189   */\n      sstore\n        /* \"#utility.yul\":17589:18199   */\n      pop\n      pop\n      pop\n        /* \"#utility.yul\":17552:18438   */\n    tag_482:\n      pop\n        /* \"#utility.yul\":17144:18444   */\n      pop\n      pop\n      pop\n        /* \"#utility.yul\":17054:18444   */\n      pop\n      pop\n      jump\t// out\n        /* \"#utility.yul\":18450:18855   */\n    tag_132:\n        /* \"#utility.yul\":18582:18586   */\n      0x00\n        /* \"#utility.yul\":18620:18622   */\n      0x40\n        /* \"#utility.yul\":18609:18618   */\n      dup3\n        /* \"#utility.yul\":18605:18623   */\n      add\n        /* \"#utility.yul\":18597:18623   */\n      swap1\n      pop\n        /* \"#utility.yul\":18633:18700   */\n      tag_493\n        /* \"#utility.yul\":18697:18698   */\n      0x00\n        /* \"#utility.yul\":18686:18695   */\n      dup4\n        /* \"#utility.yul\":18682:18699   */\n      add\n        /* \"#utility.yul\":18673:18679   */\n      dup6\n        /* \"#utility.yul\":18633:18700   */\n      tag_240\n      jump\t// in\n    tag_493:\n        /* \"#utility.yul\":18747:18756   */\n      dup2\n        /* \"#utility.yul\":18741:18745   */\n      dup2\n        /* \"#utility.yul\":18737:18757   */\n      sub\n        /* \"#utility.yul\":18732:18734   */\n      0x20\n        /* \"#utility.yul\":18721:18730   */\n      dup4\n        /* \"#utility.yul\":18717:18735   */\n      add\n        /* \"#utility.yul\":18710:18758   */\n      mstore\n        /* \"#utility.yul\":18775:18848   */\n      tag_494\n        /* \"#utility.yul\":18843:18847   */\n      dup2\n        /* \"#utility.yul\":18834:18840   */\n      dup5\n        /* \"#utility.yul\":18775:18848   */\n      tag_272\n      jump\t// in\n    tag_494:\n        /* \"#utility.yul\":18767:18848   */\n      swap1\n      pop\n        /* \"#utility.yul\":18450:18855   */\n      swap4\n      swap3\n      pop\n      pop\n      pop\n      jump\t// out\n        /* \"#utility.yul\":18861:19025   */\n    tag_289:\n        /* \"#utility.yul\":19001:19017   */\n      0x6e6f2076616c696420776f726473000000000000000000000000000000000000\n        /* \"#utility.yul\":18997:18998   */\n      0x00\n        /* \"#utility.yul\":18989:18995   */\n      dup3\n        /* \"#utility.yul\":18985:18999   */\n      add\n        /* \"#utility.yul\":18978:19018   */\n      mstore\n        /* \"#utility.yul\":18861:19025   */\n      pop\n      jump\t// out\n        /* \"#utility.yul\":19031:19397   */\n    tag_290:\n        /* \"#utility.yul\":19173:19176   */\n      0x00\n        /* \"#utility.yul\":19194:19261   */\n      tag_497\n        /* \"#utility.yul\":19258:19260   */\n      0x0e\n        /* \"#utility.yul\":19253:19256   */\n      dup4\n        /* \"#utility.yul\":19194:19261   */\n      tag_256\n      jump\t// in\n    tag_497:\n        /* \"#utility.yul\":19187:19261   */\n      swap2\n      pop\n        /* \"#utility.yul\":19270:19363   */\n      tag_498\n        /* \"#utility.yul\":19359:19362   */\n      dup3\n        /* \"#utility.yul\":19270:19363   */\n      tag_289\n      jump\t// in\n    tag_498:\n        /* \"#utility.yul\":19388:19390   */\n      0x20\n        /* \"#utility.yul\":19383:19386   */\n      dup3\n        /* \"#utility.yul\":19379:19391   */\n      add\n        /* \"#utility.yul\":19372:19391   */\n      swap1\n      pop\n        /* \"#utility.yul\":19031:19397   */\n      swap2\n      swap1\n      pop\n      jump\t// out\n        /* \"#utility.yul\":19403:19822   */\n    tag_138:\n        /* \"#utility.yul\":19569:19573   */\n      0x00\n        /* \"#utility.yul\":19607:19609   */\n      0x20\n        /* \"#utility.yul\":19596:19605   */\n      dup3\n        /* \"#utility.yul\":19592:19610   */\n      add\n        /* \"#utility.yul\":19584:19610   */\n      swap1\n      pop\n        /* \"#utility.yul\":19656:19665   */\n      dup2\n        /* \"#utility.yul\":19650:19654   */\n      dup2\n        /* \"#utility.yul\":19646:19666   */\n      sub\n        /* \"#utility.yul\":19642:19643   */\n      0x00\n        /* \"#utility.yul\":19631:19640   */\n      dup4\n        /* \"#utility.yul\":19627:19644   */\n      add\n        /* \"#utility.yul\":19620:19667   */\n      mstore\n        /* \"#utility.yul\":19684:19815   */\n      tag_500\n        /* \"#utility.yul\":19810:19814   */\n      dup2\n        /* \"#utility.yul\":19684:19815   */\n      tag_290\n      jump\t// in\n    tag_500:\n        /* \"#utility.yul\":19676:19815   */\n      swap1\n      pop\n        /* \"#utility.yul\":19403:19822   */\n      swap2\n      swap1\n      pop\n      jump\t// out\n        /* \"#utility.yul\":19828:20004   */\n    tag_291:\n        /* \"#utility.yul\":19968:19996   */\n      0x63616e6469646174652073656c656374696f6e206661696c6564000000000000\n        /* \"#utility.yul\":19964:19965   */\n      0x00\n        /* \"#utility.yul\":19956:19962   */\n      dup3\n        /* \"#utility.yul\":19952:19966   */\n      add\n        /* \"#utility.yul\":19945:19997   */\n      mstore\n        /* \"#utility.yul\":19828:20004   */\n      pop\n      jump\t// out\n        /* \"#utility.yul\":20010:20376   */\n    tag_292:\n        /* \"#utility.yul\":20152:20155   */\n      0x00\n        /* \"#utility.yul\":20173:20240   */\n      tag_503\n        /* \"#utility.yul\":20237:20239   */\n      0x1a\n        /* \"#utility.yul\":20232:20235   */\n      dup4\n        /* \"#utility.yul\":20173:20240   */\n      tag_256\n      jump\t// in\n    tag_503:\n        /* \"#utility.yul\":20166:20240   */\n      swap2\n      pop\n        /* \"#utility.yul\":20249:20342   */\n      tag_504\n        /* \"#utility.yul\":20338:20341   */\n      dup3\n        /* \"#utility.yul\":20249:20342   */\n      tag_291\n      jump\t// in\n    tag_504:\n        /* \"#utility.yul\":20367:20369   */\n      0x20\n        /* \"#utility.yul\":20362:20365   */\n      dup3\n        /* \"#utility.yul\":20358:20370   */\n      add\n        /* \"#utility.yul\":20351:20370   */\n      swap1\n      pop\n        /* \"#utility.yul\":20010:20376   */\n      swap2\n      swap1\n      pop\n      jump\t// out\n        /* \"#utility.yul\":20382:20801   */\n    tag_159:\n        /* \"#utility.yul\":20548:20552   */\n      0x00\n        /* \"#utility.yul\":20586:20588   */\n      0x20\n        /* \"#utility.yul\":20575:20584   */\n      dup3\n        /* \"#utility.yul\":20571:20589   */\n      add\n        /* \"#utility.yul\":20563:20589   */\n      swap1\n      pop\n        /* \"#utility.yul\":20635:20644   */\n      dup2\n        /* \"#utility.yul\":20629:20633   */\n      dup2\n        /* \"#utility.yul\":20625:20645   */\n      sub\n        /* \"#utility.yul\":20621:20622   */\n      0x00\n        /* \"#utility.yul\":20610:20619   */\n      dup4\n        /* \"#utility.yul\":20606:20623   */\n      add\n        /* \"#utility.yul\":20599:20646   */\n      mstore\n        /* \"#utility.yul\":20663:20794   */\n      tag_506\n        /* \"#utility.yul\":20789:20793   */\n      dup2\n        /* \"#utility.yul\":20663:20794   */\n      tag_292\n      jump\t// in\n    tag_506:\n        /* \"#utility.yul\":20655:20794   */\n      swap1\n      pop\n        /* \"#utility.yul\":20382:20801   */\n      swap2\n      swap1\n      pop\n      jump\t// out\n        /* \"#utility.yul\":20807:21001   */\n    tag_184:\n        /* \"#utility.yul\":20847:20851   */\n      0x00\n        /* \"#utility.yul\":20867:20887   */\n      tag_508\n        /* \"#utility.yul\":20885:20886   */\n      dup3\n        /* \"#utility.yul\":20867:20887   */\n      tag_266\n      jump\t// in\n    tag_508:\n        /* \"#utility.yul\":20862:20887   */\n      swap2\n      pop\n        /* \"#utility.yul\":20901:20921   */\n      tag_509\n        /* \"#utility.yul\":20919:20920   */\n      dup4\n        /* \"#utility.yul\":20901:20921   */\n      tag_266\n      jump\t// in\n    tag_509:\n        /* \"#utility.yul\":20896:20921   */\n      swap3\n      pop\n        /* \"#utility.yul\":20945:20946   */\n      dup3\n        /* \"#utility.yul\":20942:20943   */\n      dup3\n        /* \"#utility.yul\":20938:20947   */\n      sub\n        /* \"#utility.yul\":20930:20947   */\n      swap1\n      pop\n        /* \"#utility.yul\":20969:20970   */\n      dup2\n        /* \"#utility.yul\":20963:20967   */\n      dup2\n        /* \"#utility.yul\":20960:20971   */\n      gt\n        /* \"#utility.yul\":20957:20994   */\n      iszero\n      tag_510\n      jumpi\n        /* \"#utility.yul\":20974:20992   */\n      tag_511\n      tag_261\n      jump\t// in\n    tag_511:\n        /* \"#utility.yul\":20957:20994   */\n    tag_510:\n        /* \"#utility.yul\":20807:21001   */\n      swap3\n      swap2\n      pop\n      pop\n      jump\t// out\n        /* \"#utility.yul\":21007:21084   */\n    tag_293:\n        /* \"#utility.yul\":21044:21051   */\n      0x00\n        /* \"#utility.yul\":21073:21078   */\n      dup2\n        /* \"#utility.yul\":21062:21078   */\n      swap1\n      pop\n        /* \"#utility.yul\":21007:21084   */\n      swap2\n      swap1\n      pop\n      jump\t// out\n        /* \"#utility.yul\":21090:21169   */\n    tag_294:\n        /* \"#utility.yul\":21129:21136   */\n      0x00\n        /* \"#utility.yul\":21158:21163   */\n      dup2\n        /* \"#utility.yul\":21147:21163   */\n      swap1\n      pop\n        /* \"#utility.yul\":21090:21169   */\n      swap2\n      swap1\n      pop\n      jump\t// out\n        /* \"#utility.yul\":21175:21332   */\n    tag_295:\n        /* \"#utility.yul\":21280:21325   */\n      tag_515\n        /* \"#utility.yul\":21300:21324   */\n      tag_516\n        /* \"#utility.yul\":21318:21323   */\n      dup3\n        /* \"#utility.yul\":21300:21324   */\n      tag_293\n      jump\t// in\n    tag_516:\n        /* \"#utility.yul\":21280:21325   */\n      tag_294\n      jump\t// in\n    tag_515:\n        /* \"#utility.yul\":21275:21278   */\n      dup3\n        /* \"#utility.yul\":21268:21326   */\n      mstore\n        /* \"#utility.yul\":21175:21332   */\n      pop\n      pop\n      jump\t// out\n        /* \"#utility.yul\":21338:21417   */\n    tag_296:\n        /* \"#utility.yul\":21377:21384   */\n      0x00\n        /* \"#utility.yul\":21406:21411   */\n      dup2\n        /* \"#utility.yul\":21395:21411   */\n      swap1\n      pop\n        /* \"#utility.yul\":21338:21417   */\n      swap2\n      swap1\n      pop\n      jump\t// out\n        /* \"#utility.yul\":21423:21580   */\n    tag_297:\n        /* \"#utility.yul\":21528:21573   */\n      tag_519\n        /* \"#utility.yul\":21548:21572   */\n      tag_520\n        /* \"#utility.yul\":21566:21571   */\n      dup3\n        /* \"#utility.yul\":21548:21572   */\n      tag_266\n      jump\t// in\n    tag_520:\n        /* \"#utility.yul\":21528:21573   */\n      tag_296\n      jump\t// in\n    tag_519:\n        /* \"#utility.yul\":21523:21526   */\n      dup3\n        /* \"#utility.yul\":21516:21574   */\n      mstore\n        /* \"#utility.yul\":21423:21580   */\n      pop\n      pop\n      jump\t// out\n        /* \"#utility.yul\":21586:21712   */\n    tag_298:\n        /* \"#utility.yul\":21623:21630   */\n      0x00\n        /* \"#utility.yul\":21663:21705   */\n      0xffffffffffffffffffffffffffffffffffffffff\n        /* \"#utility.yul\":21656:21661   */\n      dup3\n        /* \"#utility.yul\":21652:21706   */\n      and\n        /* \"#utility.yul\":21641:21706   */\n      swap1\n      pop\n        /* \"#utility.yul\":21586:21712   */\n      swap2\n      swap1\n      pop\n      jump\t// out\n        /* \"#utility.yul\":21718:21814   */\n    tag_299:\n        /* \"#utility.yul\":21755:21762   */\n      0x00\n        /* \"#utility.yul\":21784:21808   */\n      tag_523\n        /* \"#utility.yul\":21802:21807   */\n      dup3\n        /* \"#utility.yul\":21784:21808   */\n      tag_298\n      jump\t// in\n    tag_523:\n        /* \"#utility.yul\":21773:21808   */\n      swap1\n      pop\n        /* \"#utility.yul\":21718:21814   */\n      swap2\n      swap1\n      pop\n      jump\t// out\n        /* \"#utility.yul\":21820:21914   */\n    tag_300:\n        /* \"#utility.yul\":21853:21861   */\n      0x00\n        /* \"#utility.yul\":21901:21906   */\n      dup2\n        /* \"#utility.yul\":21897:21899   */\n      0x60\n        /* \"#utility.yul\":21893:21907   */\n      shl\n        /* \"#utility.yul\":21872:21907   */\n      swap1\n      pop\n        /* \"#utility.yul\":21820:21914   */\n      swap2\n      swap1\n      pop\n      jump\t// out\n        /* \"#utility.yul\":21920:22014   */\n    tag_301:\n        /* \"#utility.yul\":21959:21966   */\n      0x00\n        /* \"#utility.yul\":21988:22008   */\n      tag_526\n        /* \"#utility.yul\":22002:22007   */\n      dup3\n        /* \"#utility.yul\":21988:22008   */\n      tag_300\n      jump\t// in\n    tag_526:\n        /* \"#utility.yul\":21977:22008   */\n      swap1\n      pop\n        /* \"#utility.yul\":21920:22014   */\n      swap2\n      swap1\n      pop\n      jump\t// out\n        /* \"#utility.yul\":22020:22120   */\n    tag_302:\n        /* \"#utility.yul\":22059:22066   */\n      0x00\n        /* \"#utility.yul\":22088:22114   */\n      tag_528\n        /* \"#utility.yul\":22108:22113   */\n      dup3\n        /* \"#utility.yul\":22088:22114   */\n      tag_301\n      jump\t// in\n    tag_528:\n        /* \"#utility.yul\":22077:22114   */\n      swap1\n      pop\n        /* \"#utility.yul\":22020:22120   */\n      swap2\n      swap1\n      pop\n      jump\t// out\n        /* \"#utility.yul\":22126:22283   */\n    tag_303:\n        /* \"#utility.yul\":22231:22276   */\n      tag_530\n        /* \"#utility.yul\":22251:22275   */\n      tag_531\n        /* \"#utility.yul\":22269:22274   */\n      dup3\n        /* \"#utility.yul\":22251:22275   */\n      tag_299\n      jump\t// in\n    tag_531:\n        /* \"#utility.yul\":22231:22276   */\n      tag_302\n      jump\t// in\n    tag_530:\n        /* \"#utility.yul\":22226:22229   */\n      dup3\n        /* \"#utility.yul\":22219:22277   */\n      mstore\n        /* \"#utility.yul\":22126:22283   */\n      pop\n      pop\n      jump\t// out\n        /* \"#utility.yul\":22289:22827   */\n    tag_186:\n        /* \"#utility.yul\":22457:22460   */\n      0x00\n        /* \"#utility.yul\":22472:22547   */\n      tag_533\n        /* \"#utility.yul\":22543:22546   */\n      dup3\n        /* \"#utility.yul\":22534:22540   */\n      dup7\n        /* \"#utility.yul\":22472:22547   */\n      tag_295\n      jump\t// in\n    tag_533:\n        /* \"#utility.yul\":22572:22574   */\n      0x20\n        /* \"#utility.yul\":22567:22570   */\n      dup3\n        /* \"#utility.yul\":22563:22575   */\n      add\n        /* \"#utility.yul\":22556:22575   */\n      swap2\n      pop\n        /* \"#utility.yul\":22585:22660   */\n      tag_534\n        /* \"#utility.yul\":22656:22659   */\n      dup3\n        /* \"#utility.yul\":22647:22653   */\n      dup6\n        /* \"#utility.yul\":22585:22660   */\n      tag_297\n      jump\t// in\n    tag_534:\n        /* \"#utility.yul\":22685:22687   */\n      0x20\n        /* \"#utility.yul\":22680:22683   */\n      dup3\n        /* \"#utility.yul\":22676:22688   */\n      add\n        /* \"#utility.yul\":22669:22688   */\n      swap2\n      pop\n        /* \"#utility.yul\":22698:22773   */\n      tag_535\n        /* \"#utility.yul\":22769:22772   */\n      dup3\n        /* \"#utility.yul\":22760:22766   */\n      dup5\n        /* \"#utility.yul\":22698:22773   */\n      tag_303\n      jump\t// in\n    tag_535:\n        /* \"#utility.yul\":22798:22800   */\n      0x14\n        /* \"#utility.yul\":22793:22796   */\n      dup3\n        /* \"#utility.yul\":22789:22801   */\n      add\n        /* \"#utility.yul\":22782:22801   */\n      swap2\n      pop\n        /* \"#utility.yul\":22818:22821   */\n      dup2\n        /* \"#utility.yul\":22811:22821   */\n      swap1\n      pop\n        /* \"#utility.yul\":22289:22827   */\n      swap5\n      swap4\n      pop\n      pop\n      pop\n      pop\n      jump\t// out\n        /* \"#utility.yul\":22833:23013   */\n    tag_304:\n        /* \"#utility.yul\":22881:22958   */\n      0x4e487b7100000000000000000000000000000000000000000000000000000000\n        /* \"#utility.yul\":22878:22879   */\n      0x00\n        /* \"#utility.yul\":22871:22959   */\n      mstore\n        /* \"#utility.yul\":22978:22982   */\n      0x12\n        /* \"#utility.yul\":22975:22976   */\n      0x04\n        /* \"#utility.yul\":22968:22983   */\n      mstore\n        /* \"#utility.yul\":23002:23006   */\n      0x24\n        /* \"#utility.yul\":22999:23000   */\n      0x00\n        /* \"#utility.yul\":22992:23007   */\n      revert\n        /* \"#utility.yul\":23019:23195   */\n    tag_188:\n        /* \"#utility.yul\":23051:23052   */\n      0x00\n        /* \"#utility.yul\":23068:23088   */\n      tag_538\n        /* \"#utility.yul\":23086:23087   */\n      dup3\n        /* \"#utility.yul\":23068:23088   */\n      tag_266\n      jump\t// in\n    tag_538:\n        /* \"#utility.yul\":23063:23088   */\n      swap2\n      pop\n        /* \"#utility.yul\":23102:23122   */\n      tag_539\n        /* \"#utility.yul\":23120:23121   */\n      dup4\n        /* \"#utility.yul\":23102:23122   */\n      tag_266\n      jump\t// in\n    tag_539:\n        /* \"#utility.yul\":23097:23122   */\n      swap3\n      pop\n        /* \"#utility.yul\":23141:23142   */\n      dup3\n        /* \"#utility.yul\":23131:23166   */\n      tag_540\n      jumpi\n        /* \"#utility.yul\":23146:23164   */\n      tag_541\n      tag_304\n      jump\t// in\n    tag_541:\n        /* \"#utility.yul\":23131:23166   */\n    tag_540:\n        /* \"#utility.yul\":23187:23188   */\n      dup3\n        /* \"#utility.yul\":23184:23185   */\n      dup3\n        /* \"#utility.yul\":23180:23189   */\n      mod\n        /* \"#utility.yul\":23175:23189   */\n      swap1\n      pop\n        /* \"#utility.yul\":23019:23195   */\n      swap3\n      swap2\n      pop\n      pop\n      jump\t// out\n        /* \"#utility.yul\":23201:23392   */\n    tag_190:\n        /* \"#utility.yul\":23241:23244   */\n      0x00\n        /* \"#utility.yul\":23260:23280   */\n      tag_543\n        /* \"#utility.yul\":23278:23279   */\n      dup3\n        /* \"#utility.yul\":23260:23280   */\n      tag_266\n      jump\t// in\n    tag_543:\n        /* \"#utility.yul\":23255:23280   */\n      swap2\n      pop\n        /* \"#utility.yul\":23294:23314   */\n      tag_544\n        /* \"#utility.yul\":23312:23313   */\n      dup4\n        /* \"#utility.yul\":23294:23314   */\n      tag_266\n      jump\t// in\n    tag_544:\n        /* \"#utility.yul\":23289:23314   */\n      swap3\n      pop\n        /* \"#utility.yul\":23337:23338   */\n      dup3\n        /* \"#utility.yul\":23334:23335   */\n      dup3\n        /* \"#utility.yul\":23330:23339   */\n      add\n        /* \"#utility.yul\":23323:23339   */\n      swap1\n      pop\n        /* \"#utility.yul\":23358:23361   */\n      dup1\n        /* \"#utility.yul\":23355:23356   */\n      dup3\n        /* \"#utility.yul\":23352:23362   */\n      gt\n        /* \"#utility.yul\":23349:23385   */\n      iszero\n      tag_545\n      jumpi\n        /* \"#utility.yul\":23365:23383   */\n      tag_546\n      tag_261\n      jump\t// in\n    tag_546:\n        /* \"#utility.yul\":23349:23385   */\n    tag_545:\n        /* \"#utility.yul\":23201:23392   */\n      swap3\n      swap2\n      pop\n      pop\n      jump\t// out\n\n    auxdata: 0xa2646970667358221220992acc3d9d2ae7fb4bd1f05599ad7be896289eda16ff7fddb530c5de512e6b0164736f6c63430008130033\n}\n",
				"bytecode": {
					"linkReferences": {},
					"object": "60806040526040518061054001604052806040518060400160405280600481526020017f67616d650000000000000000000000000000000000000000000000000000000081525081526020016040518060400160405280600481526020017f6e6f64650000000000000000000000000000000000000000000000000000000081525081526020016040518060400160405280600481526020017f686173680000000000000000000000000000000000000000000000000000000081525081526020016040518060400160405280600481526020017f627974650000000000000000000000000000000000000000000000000000000081525081526020016040518060400160405280600481526020017f6d61736b0000000000000000000000000000000000000000000000000000000081525081526020016040518060400160405280600481526020017f636f64650000000000000000000000000000000000000000000000000000000081525081526020016040518060400160405280600581526020017f626c6f636b00000000000000000000000000000000000000000000000000000081525081526020016040518060400160405280600581526020017f636861696e00000000000000000000000000000000000000000000000000000081525081526020016040518060400160405280600581526020017f746f6b656e00000000000000000000000000000000000000000000000000000081525081526020016040518060400160405280600581526020017f6d696e657200000000000000000000000000000000000000000000000000000081525081526020016040518060400160405280600581526020017f677565737300000000000000000000000000000000000000000000000000000081525081526020016040518060400160405280600581526020017f736f6c766500000000000000000000000000000000000000000000000000000081525081526020016040518060400160405280600681526020017f77616c6c6574000000000000000000000000000000000000000000000000000081525081526020016040518060400160405280600681526020017f6c6564676572000000000000000000000000000000000000000000000000000081525081526020016040518060400160405280600681526020017f63727970746f000000000000000000000000000000000000000000000000000081525081526020016040518060400160405280600581526020017f6e6f6e636500000000000000000000000000000000000000000000000000000081525081526020016040518060400160405280600681526020017f73656e646572000000000000000000000000000000000000000000000000000081525081526020016040518060400160405280600681526020017f766572696679000000000000000000000000000000000000000000000000000081525081526020016040518060400160405280600781526020017f6163636f756e740000000000000000000000000000000000000000000000000081525081526020016040518060400160405280600781526020017f62616c616e63650000000000000000000000000000000000000000000000000081525081526020016040518060400160405280600781526020017f73746f726167650000000000000000000000000000000000000000000000000081525081526020016040518060400160405280600781526020017f636f6d70696c650000000000000000000000000000000000000000000000000081525081526020016040518060400160405280600781526020017f657865637574650000000000000000000000000000000000000000000000000081525081526020016040518060400160405280600781526020017f6e6574776f726b0000000000000000000000000000000000000000000000000081525081526020016040518060400160405280600881526020017f636f6e747261637400000000000000000000000000000000000000000000000081525081526020016040518060400160405280600881526020017f66756e6374696f6e00000000000000000000000000000000000000000000000081525081526020016040518060400160405280600881526020017f7661726961626c6500000000000000000000000000000000000000000000000081525081526020016040518060400160405280600881526020017f6d6f64696669657200000000000000000000000000000000000000000000000081525081526020016040518060400160405280600881526020017f6f766572666c6f7700000000000000000000000000000000000000000000000081525081526020016040518060400160405280600881526020017f6761736c696d697400000000000000000000000000000000000000000000000081525081526020016040518060400160405280600981526020017f696d6d757461626c65000000000000000000000000000000000000000000000081525081526020016040518060400160405280600981526020017f636f6e73656e737573000000000000000000000000000000000000000000000081525081526020016040518060400160405280600981526020017f626c6f636b74696d65000000000000000000000000000000000000000000000081525081526020016040518060400160405280600981526020017f7369676e6174757265000000000000000000000000000000000000000000000081525081526020016040518060400160405280600a81526020017f6465706c6f796d656e740000000000000000000000000000000000000000000081525081526020016040518060400160405280600981526020017f696e74657266616365000000000000000000000000000000000000000000000081525081526020016040518060400160405280600b81526020017f7472616e73616374696f6e00000000000000000000000000000000000000000081525081526020016040518060400160405280600b81526020017f636f6e73747261696e747300000000000000000000000000000000000000000081525081526020016040518060400160405280600a81526020017f70726f6772616d6d65720000000000000000000000000000000000000000000081525081526020016040518060400160405280600a81526020017f76616c69646174696f6e0000000000000000000000000000000000000000000081525081526020016040518060400160405280600981526020017f63616c6c6461746178000000000000000000000000000000000000000000000081525081526020016040518060400160405280600a81526020017f6162627265766961746500000000000000000000000000000000000000000000815250815250600190602a620009ce929190620009e3565b50348015620009dc57600080fd5b5062000e31565b82805482825590600052602060002090810192821562000a30579160200282015b8281111562000a2f57825182908162000a1e919062000d4a565b509160200191906001019062000a04565b5b50905062000a3f919062000a43565b5090565b5b8082111562000a67576000818162000a5d919062000a6b565b5060010162000a44565b5090565b50805462000a799062000b39565b6000825580601f1062000a8d575062000aae565b601f01602090049060005260206000209081019062000aad919062000ab1565b5b50565b5b8082111562000acc57600081600090555060010162000ab2565b5090565b600081519050919050565b7f4e487b7100000000000000000000000000000000000000000000000000000000600052604160045260246000fd5b7f4e487b7100000000000000000000000000000000000000000000000000000000600052602260045260246000fd5b6000600282049050600182168062000b5257607f821691505b60208210810362000b685762000b6762000b0a565b5b50919050565b60008190508160005260206000209050919050565b60006020601f8301049050919050565b600082821b905092915050565b60006008830262000bd27fffffffffffffffffffffffffffffffffffffffffffffffffffffffffffffffff8262000b93565b62000bde868362000b93565b95508019841693508086168417925050509392505050565b6000819050919050565b6000819050919050565b600062000c2b62000c2562000c1f8462000bf6565b62000c00565b62000bf6565b9050919050565b6000819050919050565b62000c478362000c0a565b62000c5f62000c568262000c32565b84845462000ba0565b825550505050565b600090565b62000c7662000c67565b62000c8381848462000c3c565b505050565b5b8181101562000cab5762000c9f60008262000c6c565b60018101905062000c89565b5050565b601f82111562000cfa5762000cc48162000b6e565b62000ccf8462000b83565b8101602085101562000cdf578190505b62000cf762000cee8562000b83565b83018262000c88565b50505b505050565b600082821c905092915050565b600062000d1f6000198460080262000cff565b1980831691505092915050565b600062000d3a838362000d0c565b9150826002028217905092915050565b62000d558262000ad0565b67ffffffffffffffff81111562000d715762000d7062000adb565b5b62000d7d825462000b39565b62000d8a82828562000caf565b600060209050601f83116001811462000dc2576000841562000dad578287015190505b62000db9858262000d2c565b86555062000e29565b601f19841662000dd28662000b6e565b60005b8281101562000dfc5784890151825560018201915060208501945060208101905062000dd5565b8683101562000e1c578489015162000e18601f89168262000d0c565b8355505b6001600288020188555050505b505050505050565b6121268062000e416000396000f3fe608060405234801561001057600080fd5b50600436106100625760003560e01c806302056c8b146100675780635d0797c01461008b578063662a6559146100a957806381196481146100c5578063d65ab5f2146100e3578063f77ea683146100ed575b600080fd5b61006f61010b565b6040516100829796959493929190611522565b60405180910390f35b610093610275565b6040516100a09190611598565b60405180910390f35b6100c360048036038101906100be9190611622565b61027a565b005b6100cd610914565b6040516100da9190611598565b60405180910390f35b6100eb610919565b005b6100f5610c24565b6040516101029190611598565b60405180910390f35b600080600060606000806000806000803373ffffffffffffffffffffffffffffffffffffffff1673ffffffffffffffffffffffffffffffffffffffff16815260200190815260200160002090508060000160009054906101000a900460ff168160000160019054906101000a900460ff168260000160029054906101000a900460ff16836001018460020160009054906101000a900463ffffffff168560020160049054906101000a900463ffffffff168660020160089054906101000a900463ffffffff168380546101dd9061169e565b80601f01602080910402602001604051908101604052809291908181526020018280546102099061169e565b80156102565780601f1061022b57610100808354040283529160200191610256565b820191906000526020600020905b81548152906001019060200180831161023957829003601f168201915b5050505050935097509750975097509750975097505090919293949596565b600a81565b60008060003373ffffffffffffffffffffffffffffffffffffffff1673ffffffffffffffffffffffffffffffffffffffff1681526020019081526020016000209050600160038111156102d0576102cf6113e0565b5b8160000160009054906101000a900460ff1660038111156102f4576102f36113e0565b5b14610334576040517f08c379a000000000000000000000000000000000000000000000000000000000815260040161032b9061172c565b60405180910390fd5b600083838080601f016020809104026020016040519081016040528093929190818152602001838380828437600081840152601f19601f82011690508083019250505050505050905060018151146103c1576040517f08c379a00000000000000000000000000000000000000000000000000000000081526004016103b890611798565b60405180910390fd5b6000816000815181106103d7576103d66117b8565b5b602001015160f81c60f81b905060008160f81c905060418160ff16101580156104045750605a8160ff1611155b1561041f576020816104169190611816565b90508060f81b91505b60618160ff16101580156104375750607a8160ff1611155b610476576040517f08c379a000000000000000000000000000000000000000000000000000000000815260040161046d906118bd565b60405180910390fd5b600060618261048591906118dd565b905060008160ff16600163ffffffff16901b90506000818760020160009054906101000a900463ffffffff161663ffffffff16146104f8576040517f08c379a00000000000000000000000000000000000000000000000000000000081526004016104ef9061195e565b60405180910390fd5b600061050387610c29565b9050818760020160008282829054906101000a900463ffffffff161792506101000a81548163ffffffff021916908363ffffffff16021790555060006105498287610dd0565b905080156107ce57828860020160048282829054906101000a900463ffffffff161792506101000a81548163ffffffff021916908363ffffffff16021790555060005b8860000160019054906101000a900460ff1660ff168110156107015760008382815181106105bd576105bc6117b8565b5b602001015160f81c60f81b90506105d48a82610e72565b1561065557808a6001018381546105ea9061169e565b81106105f9576105f86117b8565b5b8154600116156106185790600052602060002090602091828204019190065b601f036101000a81548160ff021916907f0100000000000000000000000000000000000000000000000000000000000000840402179055506106ed565b7f5f000000000000000000000000000000000000000000000000000000000000008a6001018381546106869061169e565b8110610695576106946117b8565b5b8154600116156106b45790600052602060002090602091828204019190065b601f036101000a81548160ff021916907f0100000000000000000000000000000000000000000000000000000000000000840402179055505b5080806106f990611988565b91505061058c565b506107978860010180546107149061169e565b80601f01602080910402602001604051908101604052809291908181526020018280546107409061169e565b801561078d5780601f106107625761010080835404028352916020019161078d565b820191906000526020600020905b81548152906001019060200180831161077057829003601f168201915b5050505050610ee9565b6107c95760028860000160006101000a81548160ff021916908360038111156107c3576107c26113e0565b5b02179055505b61088d565b828860020160088282829054906101000a900463ffffffff161792506101000a81548163ffffffff021916908363ffffffff16021790555060018860000160028282829054906101000a900460ff166108279190611816565b92506101000a81548160ff021916908360ff160217905550600660ff168860000160029054906101000a900460ff1660ff161061088c5760038860000160006101000a81548160ff02191690836003811115610886576108856113e0565b5b02179055505b5b3373ffffffffffffffffffffffffffffffffffffffff167f158e50b6c009c05279b63369ee0914aac86906246da69b271f2e77f49fdd082a87838b6001018c60000160029054906101000a900460ff168d60000160009054906101000a900460ff16604051610900959493929190611abf565b60405180910390a250505050505050505050565b600481565b60008060003373ffffffffffffffffffffffffffffffffffffffff1673ffffffffffffffffffffffffffffffffffffffff16815260200190815260200160002090506001600381111561096f5761096e6113e0565b5b8160000160009054906101000a900460ff166003811115610993576109926113e0565b5b036109d3576040517f08c379a00000000000000000000000000000000000000000000000000000000081526004016109ca90611b65565b60405180910390fd5b60006109dd610faa565b905060018260000160006101000a81548160ff02191690836003811115610a0757610a066113e0565b5b0217905550808260000160016101000a81548160ff021916908360ff16021790555060008260000160026101000a81548160ff021916908360ff16021790555060008260020160006101000a81548163ffffffff021916908363ffffffff16021790555060008260020160046101000a81548163ffffffff021916908363ffffffff16021790555060008260020160086101000a81548163ffffffff021916908363ffffffff1602179055508060ff1667ffffffffffffffff811115610ad057610acf611b85565b5b6040519080825280601f01601f191660200182016040528015610b025781602001600182028036833780820191505090505b50826001019081610b139190611d4b565b5060005b8160ff16811015610bcc577f5f0000000000000000000000000000000000000000000000000000000000000083600101828154610b539061169e565b8110610b6257610b616117b8565b5b815460011615610b815790600052602060002090602091828204019190065b601f036101000a81548160ff021916907f0100000000000000000000000000000000000000000000000000000000000000840402179055508080610bc490611988565b915050610b17565b503373ffffffffffffffffffffffffffffffffffffffff167f362a5ee0744680df9f8bd7848062c7608e392410201575266042218106f405968284600101604051610c18929190611e1d565b60405180910390a25050565b600681565b60606000610c368361102d565b905060008111610c7b576040517f08c379a0000000000000000000000000000000000000000000000000000000008152600401610c7290611e99565b60405180910390fd5b6000610c868261112b565b90506000805b600180549050811015610d8f57600060018281548110610caf57610cae6117b8565b5b906000526020600020018054610cc49061169e565b80601f0160208091040260200160405190810160405280929190818152602001828054610cf09061169e565b8015610d3d5780601f10610d1257610100808354040283529160200191610d3d565b820191906000526020600020905b815481529060010190602001808311610d2057829003601f168201915b50505050509050610d4e878261117a565b610d585750610d7c565b838303610d6c578095505050505050610dcb565b8280610d7790611988565b935050505b8080610d8790611988565b915050610c8c565b506040517f08c379a0000000000000000000000000000000000000000000000000000000008152600401610dc290611f05565b60405180910390fd5b919050565b600080600090505b8351811015610e6657827effffffffffffffffffffffffffffffffffffffffffffffffffffffffffffff1916848281518110610e1757610e166117b8565b5b602001015160f81c60f81b7effffffffffffffffffffffffffffffffffffffffffffffffffffffffffffff191603610e53576001915050610e6c565b8080610e5e90611988565b915050610dd8565b50600090505b92915050565b6000808260f81c905060618160ff161080610e905750607a8160ff16115b15610e9f576000915050610ee3565b6000606182610eae91906118dd565b905060008160ff16600163ffffffff16901b8660020160049054906101000a900463ffffffff161663ffffffff161415925050505b92915050565b600080600090505b8251811015610f9f577f5f000000000000000000000000000000000000000000000000000000000000007effffffffffffffffffffffffffffffffffffffffffffffffffffffffffffff1916838281518110610f5057610f4f6117b8565b5b602001015160f81c60f81b7effffffffffffffffffffffffffffffffffffffffffffffffffffffffffffff191603610f8c576001915050610fa5565b8080610f9790611988565b915050610ef1565b50600090505b919050565b60008060016004600a610fbd91906118dd565b610fc79190611816565b60ff1690506000600143610fdb9190611f25565b404233604051602001610ff09392919061201f565b6040516020818303038152906040528051906020012060001c90508181611017919061208b565b600460ff1661102691906120bc565b9250505090565b6000806000905060005b6001805490508110156111215760006001828154811061105a576110596117b8565b5b90600052602060002001805461106f9061169e565b80601f016020809104026020016040519081016040528092919081815260200182805461109b9061169e565b80156110e85780601f106110bd576101008083540402835291602001916110e8565b820191906000526020600020905b8154815290600101906020018083116110cb57829003601f168201915b505050505090506110f9858261117a565b1561110d57828061110990611988565b9350505b50808061111990611988565b915050611037565b5080915050919050565b60008160014361113b9190611f25565b4042336040516020016111509392919061201f565b6040516020818303038152906040528051906020012060001c611173919061208b565b9050919050565b60008260000160019054906101000a900460ff1660ff168251146111a15760009050611363565b60005b8360000160019054906101000a900460ff1660ff1681101561135d5760008382815181106111d5576111d46117b8565b5b602001015160f81c60f81b90506000856001018381546111f49061169e565b8110611203576112026117b8565b5b8154600116156112225790600052602060002090602091828204019190065b9054901a7f01000000000000000000000000000000000000000000000000000000000000000290506112548683611369565b156112655760009350505050611363565b7f5f000000000000000000000000000000000000000000000000000000000000007effffffffffffffffffffffffffffffffffffffffffffffffffffffffffffff1916817effffffffffffffffffffffffffffffffffffffffffffffffffffffffffffff19161461132c57807effffffffffffffffffffffffffffffffffffffffffffffffffffffffffffff1916827effffffffffffffffffffffffffffffffffffffffffffffffffffffffffffff1916146113275760009350505050611363565b611348565b6113368683610e72565b156113475760009350505050611363565b5b5050808061135590611988565b9150506111a4565b50600190505b92915050565b6000808260f81c905060618160ff1610806113875750607a8160ff16115b156113965760009150506113da565b60006061826113a591906118dd565b905060008160ff16600163ffffffff16901b8660020160089054906101000a900463ffffffff161663ffffffff161415925050505b92915050565b7f4e487b7100000000000000000000000000000000000000000000000000000000600052602160045260246000fd5b600481106114205761141f6113e0565b5b50565b60008190506114318261140f565b919050565b600061144182611423565b9050919050565b61145181611436565b82525050565b600060ff82169050919050565b61146d81611457565b82525050565b600081519050919050565b600082825260208201905092915050565b60005b838110156114ad578082015181840152602081019050611492565b60008484015250505050565b6000601f19601f8301169050919050565b60006114d582611473565b6114df818561147e565b93506114ef81856020860161148f565b6114f8816114b9565b840191505092915050565b600063ffffffff82169050919050565b61151c81611503565b82525050565b600060e082019050611537600083018a611448565b6115446020830189611464565b6115516040830188611464565b818103606083015261156381876114ca565b90506115726080830186611513565b61157f60a0830185611513565b61158c60c0830184611513565b98975050505050505050565b60006020820190506115ad6000830184611464565b92915050565b600080fd5b600080fd5b600080fd5b600080fd5b600080fd5b60008083601f8401126115e2576115e16115bd565b5b8235905067ffffffffffffffff8111156115ff576115fe6115c2565b5b60208301915083600182028301111561161b5761161a6115c7565b5b9250929050565b60008060208385031215611639576116386115b3565b5b600083013567ffffffffffffffff811115611657576116566115b8565b5b611663858286016115cc565b92509250509250929050565b7f4e487b7100000000000000000000000000000000000000000000000000000000600052602260045260246000fd5b600060028204905060018216806116b657607f821691505b6020821081036116c9576116c861166f565b5b50919050565b600082825260208201905092915050565b7f6e6f206163746976652067616d65000000000000000000000000000000000000600082015250565b6000611716600e836116cf565b9150611721826116e0565b602082019050919050565b6000602082019050818103600083015261174581611709565b9050919050565b7f656e7465722065786163746c79206f6e65206368617261637465720000000000600082015250565b6000611782601b836116cf565b915061178d8261174c565b602082019050919050565b600060208201905081810360008301526117b181611775565b9050919050565b7f4e487b7100000000000000000000000000000000000000000000000000000000600052603260045260246000fd5b7f4e487b7100000000000000000000000000000000000000000000000000000000600052601160045260246000fd5b600061182182611457565b915061182c83611457565b9250828201905060ff811115611845576118446117e7565b5b92915050565b7f696e707574206d75737420626520612073696e676c65206c657474657220612d60008201527f7a00000000000000000000000000000000000000000000000000000000000000602082015250565b60006118a76021836116cf565b91506118b28261184b565b604082019050919050565b600060208201905081810360008301526118d68161189a565b9050919050565b60006118e882611457565b91506118f383611457565b9250828203905060ff81111561190c5761190b6117e7565b5b92915050565b7f6c657474657220616c7265616479206775657373656400000000000000000000600082015250565b60006119486016836116cf565b915061195382611912565b602082019050919050565b600060208201905081810360008301526119778161193b565b9050919050565b6000819050919050565b60006119938261197e565b91507fffffffffffffffffffffffffffffffffffffffffffffffffffffffffffffffff82036119c5576119c46117e7565b5b600182019050919050565b60007fff0000000000000000000000000000000000000000000000000000000000000082169050919050565b611a05816119d0565b82525050565b60008115159050919050565b611a2081611a0b565b82525050565b60008190508160005260206000209050919050565b60008154611a488161169e565b611a52818661147e565b94506001821660008114611a6d5760018114611a8357611ab6565b60ff198316865281151560200286019350611ab6565b611a8c85611a26565b60005b83811015611aae57815481890152600182019150602081019050611a8f565b808801955050505b50505092915050565b600060a082019050611ad460008301886119fc565b611ae16020830187611a17565b8181036040830152611af38186611a3b565b9050611b026060830185611464565b611b0f6080830184611448565b9695505050505050565b7f67616d6520616c72656164792061637469766500000000000000000000000000600082015250565b6000611b4f6013836116cf565b9150611b5a82611b19565b602082019050919050565b60006020820190508181036000830152611b7e81611b42565b9050919050565b7f4e487b7100000000000000000000000000000000000000000000000000000000600052604160045260246000fd5b60006020601f8301049050919050565b600082821b905092915050565b600060088302611c017fffffffffffffffffffffffffffffffffffffffffffffffffffffffffffffffff82611bc4565b611c0b8683611bc4565b95508019841693508086168417925050509392505050565b6000819050919050565b6000611c48611c43611c3e8461197e565b611c23565b61197e565b9050919050565b6000819050919050565b611c6283611c2d565b611c76611c6e82611c4f565b848454611bd1565b825550505050565b600090565b611c8b611c7e565b611c96818484611c59565b505050565b5b81811015611cba57611caf600082611c83565b600181019050611c9c565b5050565b601f821115611cff57611cd081611a26565b611cd984611bb4565b81016020851015611ce8578190505b611cfc611cf485611bb4565b830182611c9b565b50505b505050565b600082821c905092915050565b6000611d2260001984600802611d04565b1980831691505092915050565b6000611d3b8383611d11565b9150826002028217905092915050565b611d5482611473565b67ffffffffffffffff811115611d6d57611d6c611b85565b5b611d77825461169e565b611d82828285611cbe565b600060209050601f831160018114611db55760008415611da3578287015190505b611dad8582611d2f565b865550611e15565b601f198416611dc386611a26565b60005b82811015611deb57848901518255600182019150602085019450602081019050611dc6565b86831015611e085784890151611e04601f891682611d11565b8355505b6001600288020188555050505b505050505050565b6000604082019050611e326000830185611464565b8181036020830152611e448184611a3b565b90509392505050565b7f6e6f2076616c696420776f726473000000000000000000000000000000000000600082015250565b6000611e83600e836116cf565b9150611e8e82611e4d565b602082019050919050565b60006020820190508181036000830152611eb281611e76565b9050919050565b7f63616e6469646174652073656c656374696f6e206661696c6564000000000000600082015250565b6000611eef601a836116cf565b9150611efa82611eb9565b602082019050919050565b60006020820190508181036000830152611f1e81611ee2565b9050919050565b6000611f308261197e565b9150611f3b8361197e565b9250828203905081811115611f5357611f526117e7565b5b92915050565b6000819050919050565b6000819050919050565b611f7e611f7982611f59565b611f63565b82525050565b6000819050919050565b611f9f611f9a8261197e565b611f84565b82525050565b600073ffffffffffffffffffffffffffffffffffffffff82169050919050565b6000611fd082611fa5565b9050919050565b60008160601b9050919050565b6000611fef82611fd7565b9050919050565b600061200182611fe4565b9050919050565b61201961201482611fc5565b611ff6565b82525050565b600061202b8286611f6d565b60208201915061203b8285611f8e565b60208201915061204b8284612008565b601482019150819050949350505050565b7f4e487b7100000000000000000000000000000000000000000000000000000000600052601260045260246000fd5b60006120968261197e565b91506120a18361197e565b9250826120b1576120b061205c565b5b828206905092915050565b60006120c78261197e565b91506120d28361197e565b92508282019050808211156120ea576120e96117e7565b5b9291505056fea2646970667358221220992acc3d9d2ae7fb4bd1f05599ad7be896289eda16ff7fddb530c5de512e6b0164736f6c63430008130033",
					"opcodes": "PUSH1 0x80 PUSH1 0x40 MSTORE PUSH1 0x40 MLOAD DUP1 PUSH2 0x540 ADD PUSH1 0x40 MSTORE DUP1 PUSH1 0x40 MLOAD DUP1 PUSH1 0x40 ADD PUSH1 0x40 MSTORE DUP1 PUSH1 0x4 DUP2 MSTORE PUSH1 0x20 ADD PUSH32 0x67616D6500000000000000000000000000000000000000000000000000000000 DUP2 MSTORE POP DUP2 MSTORE PUSH1 0x20 ADD PUSH1 0x40 MLOAD DUP1 PUSH1 0x40 ADD PUSH1 0x40 MSTORE DUP1 PUSH1 0x4 DUP2 MSTORE PUSH1 0x20 ADD PUSH32 0x6E6F646500000000000000000000000000000000000000000000000000000000 DUP2 MSTORE POP DUP2 MSTORE PUSH1 0x20 ADD PUSH1 0x40 MLOAD DUP1 PUSH1 0x40 ADD PUSH1 0x40 MSTORE DUP1 PUSH1 0x4 DUP2 MSTORE PUSH1 0x20 ADD PUSH32 0x6861736800000000000000000000000000000000000000000000000000000000 DUP2 MSTORE POP DUP2 MSTORE PUSH1 0x20 ADD PUSH1 0x40 MLOAD DUP1 PUSH1 0x40 ADD PUSH1 0x40 MSTORE DUP1 PUSH1 0x4 DUP2 MSTORE PUSH1 0x20 ADD PUSH32 0x6279746500000000000000000000000000000000000000000000000000000000 DUP2 MSTORE POP DUP2 MSTORE PUSH1 0x20 ADD PUSH1 0x40 MLOAD DUP1 PUSH1 0x40 ADD PUSH1 0x40 MSTORE DUP1 PUSH1 0x4 DUP2 MSTORE PUSH1 0x20 ADD PUSH32 0x6D61736B00000000000000000000000000000000000000000000000000000000 DUP2 MSTORE POP DUP2 MSTORE PUSH1 0x20 ADD PUSH1 0x40 MLOAD DUP1 PUSH1 0x40 ADD PUSH1 0x40 MSTORE DUP1 PUSH1 0x4 DUP2 MSTORE PUSH1 0x20 ADD PUSH32 0x636F646500000000000000000000000000000000000000000000000000000000 DUP2 MSTORE POP DUP2 MSTORE PUSH1 0x20 ADD PUSH1 0x40 MLOAD DUP1 PUSH1 0x40 ADD PUSH1 0x40 MSTORE DUP1 PUSH1 0x5 DUP2 MSTORE PUSH1 0x20 ADD PUSH32 0x626C6F636B000000000000000000000000000000000000000000000000000000 DUP2 MSTORE POP DUP2 MSTORE PUSH1 0x20 ADD PUSH1 0x40 MLOAD DUP1 PUSH1 0x40 ADD PUSH1 0x40 MSTORE DUP1 PUSH1 0x5 DUP2 MSTORE PUSH1 0x20 ADD PUSH32 0x636861696E000000000000000000000000000000000000000000000000000000 DUP2 MSTORE POP DUP2 MSTORE PUSH1 0x20 ADD PUSH1 0x40 MLOAD DUP1 PUSH1 0x40 ADD PUSH1 0x40 MSTORE DUP1 PUSH1 0x5 DUP2 MSTORE PUSH1 0x20 ADD PUSH32 0x746F6B656E000000000000000000000000000000000000000000000000000000 DUP2 MSTORE POP DUP2 MSTORE PUSH1 0x20 ADD PUSH1 0x40 MLOAD DUP1 PUSH1 0x40 ADD PUSH1 0x40 MSTORE DUP1 PUSH1 0x5 DUP2 MSTORE PUSH1 0x20 ADD PUSH32 0x6D696E6572000000000000000000000000000000000000000000000000000000 DUP2 MSTORE POP DUP2 MSTORE PUSH1 0x20 ADD PUSH1 0x40 MLOAD DUP1 PUSH1 0x40 ADD PUSH1 0x40 MSTORE DUP1 PUSH1 0x5 DUP2 MSTORE PUSH1 0x20 ADD PUSH32 0x6775657373000000000000000000000000000000000000000000000000000000 DUP2 MSTORE POP DUP2 MSTORE PUSH1 0x20 ADD PUSH1 0x40 MLOAD DUP1 PUSH1 0x40 ADD PUSH1 0x40 MSTORE DUP1 PUSH1 0x5 DUP2 MSTORE PUSH1 0x20 ADD PUSH32 0x736F6C7665000000000000000000000000000000000000000000000000000000 DUP2 MSTORE POP DUP2 MSTORE PUSH1 0x20 ADD PUSH1 0x40 MLOAD DUP1 PUSH1 0x40 ADD PUSH1 0x40 MSTORE DUP1 PUSH1 0x6 DUP2 MSTORE PUSH1 0x20 ADD PUSH32 0x77616C6C65740000000000000000000000000000000000000000000000000000 DUP2 MSTORE POP DUP2 MSTORE PUSH1 0x20 ADD PUSH1 0x40 MLOAD DUP1 PUSH1 0x40 ADD PUSH1 0x40 MSTORE DUP1 PUSH1 0x6 DUP2 MSTORE PUSH1 0x20 ADD PUSH32 0x6C65646765720000000000000000000000000000000000000000000000000000 DUP2 MSTORE POP DUP2 MSTORE PUSH1 0x20 ADD PUSH1 0x40 MLOAD DUP1 PUSH1 0x40 ADD PUSH1 0x40 MSTORE DUP1 PUSH1 0x6 DUP2 MSTORE PUSH1 0x20 ADD PUSH32 0x63727970746F0000000000000000000000000000000000000000000000000000 DUP2 MSTORE POP DUP2 MSTORE PUSH1 0x20 ADD PUSH1 0x40 MLOAD DUP1 PUSH1 0x40 ADD PUSH1 0x40 MSTORE DUP1 PUSH1 0x5 DUP2 MSTORE PUSH1 0x20 ADD PUSH32 0x6E6F6E6365000000000000000000000000000000000000000000000000000000 DUP2 MSTORE POP DUP2 MSTORE PUSH1 0x20 ADD PUSH1 0x40 MLOAD DUP1 PUSH1 0x40 ADD PUSH1 0x40 MSTORE DUP1 PUSH1 0x6 DUP2 MSTORE PUSH1 0x20 ADD PUSH32 0x73656E6465720000000000000000000000000000000000000000000000000000 DUP2 MSTORE POP DUP2 MSTORE PUSH1 0x20 ADD PUSH1 0x40 MLOAD DUP1 PUSH1 0x40 ADD PUSH1 0x40 MSTORE DUP1 PUSH1 0x6 DUP2 MSTORE PUSH1 0x20 ADD PUSH32 0x7665726966790000000000000000000000000000000000000000000000000000 DUP2 MSTORE POP DUP2 MSTORE PUSH1 0x20 ADD PUSH1 0x40 MLOAD DUP1 PUSH1 0x40 ADD PUSH1 0x40 MSTORE DUP1 PUSH1 0x7 DUP2 MSTORE PUSH1 0x20 ADD PUSH32 0x6163636F756E7400000000000000000000000000000000000000000000000000 DUP2 MSTORE POP DUP2 MSTORE PUSH1 0x20 ADD PUSH1 0x40 MLOAD DUP1 PUSH1 0x40 ADD PUSH1 0x40 MSTORE DUP1 PUSH1 0x7 DUP2 MSTORE PUSH1 0x20 ADD PUSH32 0x62616C616E636500000000000000000000000000000000000000000000000000 DUP2 MSTORE POP DUP2 MSTORE PUSH1 0x20 ADD PUSH1 0x40 MLOAD DUP1 PUSH1 0x40 ADD PUSH1 0x40 MSTORE DUP1 PUSH1 0x7 DUP2 MSTORE PUSH1 0x20 ADD PUSH32 0x73746F7261676500000000000000000000000000000000000000000000000000 DUP2 MSTORE POP DUP2 MSTORE PUSH1 0x20 ADD PUSH1 0x40 MLOAD DUP1 PUSH1 0x40 ADD PUSH1 0x40 MSTORE DUP1 PUSH1 0x7 DUP2 MSTORE PUSH1 0x20 ADD PUSH32 0x636F6D70696C6500000000000000000000000000000000000000000000000000 DUP2 MSTORE POP DUP2 MSTORE PUSH1 0x20 ADD PUSH1 0x40 MLOAD DUP1 PUSH1 0x40 ADD PUSH1 0x40 MSTORE DUP1 PUSH1 0x7 DUP2 MSTORE PUSH1 0x20 ADD PUSH32 0x6578656375746500000000000000000000000000000000000000000000000000 DUP2 MSTORE POP DUP2 MSTORE PUSH1 0x20 ADD PUSH1 0x40 MLOAD DUP1 PUSH1 0x40 ADD PUSH1 0x40 MSTORE DUP1 PUSH1 0x7 DUP2 MSTORE PUSH1 0x20 ADD PUSH32 0x6E6574776F726B00000000000000000000000000000000000000000000000000 DUP2 MSTORE POP DUP2 MSTORE PUSH1 0x20 ADD PUSH1 0x40 MLOAD DUP1 PUSH1 0x40 ADD PUSH1 0x40 MSTORE DUP1 PUSH1 0x8 DUP2 MSTORE PUSH1 0x20 ADD PUSH32 0x636F6E7472616374000000000000000000000000000000000000000000000000 DUP2 MSTORE POP DUP2 MSTORE PUSH1 0x20 ADD PUSH1 0x40 MLOAD DUP1 PUSH1 0x40 ADD PUSH1 0x40 MSTORE DUP1 PUSH1 0x8 DUP2 MSTORE PUSH1 0x20 ADD PUSH32 0x66756E6374696F6E000000000000000000000000000000000000000000000000 DUP2 MSTORE POP DUP2 MSTORE PUSH1 0x20 ADD PUSH1 0x40 MLOAD DUP1 PUSH1 0x40 ADD PUSH1 0x40 MSTORE DUP1 PUSH1 0x8 DUP2 MSTORE PUSH1 0x20 ADD PUSH32 0x7661726961626C65000000000000000000000000000000000000000000000000 DUP2 MSTORE POP DUP2 MSTORE PUSH1 0x20 ADD PUSH1 0x40 MLOAD DUP1 PUSH1 0x40 ADD PUSH1 0x40 MSTORE DUP1 PUSH1 0x8 DUP2 MSTORE PUSH1 0x20 ADD PUSH32 0x6D6F646966696572000000000000000000000000000000000000000000000000 DUP2 MSTORE POP DUP2 MSTORE PUSH1 0x20 ADD PUSH1 0x40 MLOAD DUP1 PUSH1 0x40 ADD PUSH1 0x40 MSTORE DUP1 PUSH1 0x8 DUP2 MSTORE PUSH1 0x20 ADD PUSH32 0x6F766572666C6F77000000000000000000000000000000000000000000000000 DUP2 MSTORE POP DUP2 MSTORE PUSH1 0x20 ADD PUSH1 0x40 MLOAD DUP1 PUSH1 0x40 ADD PUSH1 0x40 MSTORE DUP1 PUSH1 0x8 DUP2 MSTORE PUSH1 0x20 ADD PUSH32 0x6761736C696D6974000000000000000000000000000000000000000000000000 DUP2 MSTORE POP DUP2 MSTORE PUSH1 0x20 ADD PUSH1 0x40 MLOAD DUP1 PUSH1 0x40 ADD PUSH1 0x40 MSTORE DUP1 PUSH1 0x9 DUP2 MSTORE PUSH1 0x20 ADD PUSH32 0x696D6D757461626C650000000000000000000000000000000000000000000000 DUP2 MSTORE POP DUP2 MSTORE PUSH1 0x20 ADD PUSH1 0x40 MLOAD DUP1 PUSH1 0x40 ADD PUSH1 0x40 MSTORE DUP1 PUSH1 0x9 DUP2 MSTORE PUSH1 0x20 ADD PUSH32 0x636F6E73656E7375730000000000000000000000000000000000000000000000 DUP2 MSTORE POP DUP2 MSTORE PUSH1 0x20 ADD PUSH1 0x40 MLOAD DUP1 PUSH1 0x40 ADD PUSH1 0x40 MSTORE DUP1 PUSH1 0x9 DUP2 MSTORE PUSH1 0x20 ADD PUSH32 0x626C6F636B74696D650000000000000000000000000000000000000000000000 DUP2 MSTORE POP DUP2 MSTORE PUSH1 0x20 ADD PUSH1 0x40 MLOAD DUP1 PUSH1 0x40 ADD PUSH1 0x40 MSTORE DUP1 PUSH1 0x9 DUP2 MSTORE PUSH1 0x20 ADD PUSH32 0x7369676E61747572650000000000000000000000000000000000000000000000 DUP2 MSTORE POP DUP2 MSTORE PUSH1 0x20 ADD PUSH1 0x40 MLOAD DUP1 PUSH1 0x40 ADD PUSH1 0x40 MSTORE DUP1 PUSH1 0xA DUP2 MSTORE PUSH1 0x20 ADD PUSH32 0x6465706C6F796D656E7400000000000000000000000000000000000000000000 DUP2 MSTORE POP DUP2 MSTORE PUSH1 0x20 ADD PUSH1 0x40 MLOAD DUP1 PUSH1 0x40 ADD PUSH1 0x40 MSTORE DUP1 PUSH1 0x9 DUP2 MSTORE PUSH1 0x20 ADD PUSH32 0x696E746572666163650000000000000000000000000000000000000000000000 DUP2 MSTORE POP DUP2 MSTORE PUSH1 0x20 ADD PUSH1 0x40 MLOAD DUP1 PUSH1 0x40 ADD PUSH1 0x40 MSTORE DUP1 PUSH1 0xB DUP2 MSTORE PUSH1 0x20 ADD PUSH32 0x7472616E73616374696F6E000000000000000000000000000000000000000000 DUP2 MSTORE POP DUP2 MSTORE PUSH1 0x20 ADD PUSH1 0x40 MLOAD DUP1 PUSH1 0x40 ADD PUSH1 0x40 MSTORE DUP1 PUSH1 0xB DUP2 MSTORE PUSH1 0x20 ADD PUSH32 0x636F6E73747261696E7473000000000000000000000000000000000000000000 DUP2 MSTORE POP DUP2 MSTORE PUSH1 0x20 ADD PUSH1 0x40 MLOAD DUP1 PUSH1 0x40 ADD PUSH1 0x40 MSTORE DUP1 PUSH1 0xA DUP2 MSTORE PUSH1 0x20 ADD PUSH32 0x70726F6772616D6D657200000000000000000000000000000000000000000000 DUP2 MSTORE POP DUP2 MSTORE PUSH1 0x20 ADD PUSH1 0x40 MLOAD DUP1 PUSH1 0x40 ADD PUSH1 0x40 MSTORE DUP1 PUSH1 0xA DUP2 MSTORE PUSH1 0x20 ADD PUSH32 0x76616C69646174696F6E00000000000000000000000000000000000000000000 DUP2 MSTORE POP DUP2 MSTORE PUSH1 0x20 ADD PUSH1 0x40 MLOAD DUP1 PUSH1 0x40 ADD PUSH1 0x40 MSTORE DUP1 PUSH1 0x9 DUP2 MSTORE PUSH1 0x20 ADD PUSH32 0x63616C6C64617461780000000000000000000000000000000000000000000000 DUP2 MSTORE POP DUP2 MSTORE PUSH1 0x20 ADD PUSH1 0x40 MLOAD DUP1 PUSH1 0x40 ADD PUSH1 0x40 MSTORE DUP1 PUSH1 0xA DUP2 MSTORE PUSH1 0x20 ADD PUSH32 0x6162627265766961746500000000000000000000000000000000000000000000 DUP2 MSTORE POP DUP2 MSTORE POP PUSH1 0x1 SWAP1 PUSH1 0x2A PUSH3 0x9CE SWAP3 SWAP2 SWAP1 PUSH3 0x9E3 JUMP JUMPDEST POP CALLVALUE DUP1 ISZERO PUSH3 0x9DC JUMPI PUSH1 0x0 DUP1 REVERT JUMPDEST POP PUSH3 0xE31 JUMP JUMPDEST DUP3 DUP1 SLOAD DUP3 DUP3 SSTORE SWAP1 PUSH1 0x0 MSTORE PUSH1 0x20 PUSH1 0x0 KECCAK256 SWAP1 DUP2 ADD SWAP3 DUP3 ISZERO PUSH3 0xA30 JUMPI SWAP2 PUSH1 0x20 MUL DUP3 ADD JUMPDEST DUP3 DUP2 GT ISZERO PUSH3 0xA2F JUMPI DUP3 MLOAD DUP3 SWAP1 DUP2 PUSH3 0xA1E SWAP2 SWAP1 PUSH3 0xD4A JUMP JUMPDEST POP SWAP2 PUSH1 0x20 ADD SWAP2 SWAP1 PUSH1 0x1 ADD SWAP1 PUSH3 0xA04 JUMP JUMPDEST JUMPDEST POP SWAP1 POP PUSH3 0xA3F SWAP2 SWAP1 PUSH3 0xA43 JUMP JUMPDEST POP SWAP1 JUMP JUMPDEST JUMPDEST DUP1 DUP3 GT ISZERO PUSH3 0xA67 JUMPI PUSH1 0x0 DUP2 DUP2 PUSH3 0xA5D SWAP2 SWAP1 PUSH3 0xA6B JUMP JUMPDEST POP PUSH1 0x1 ADD PUSH3 0xA44 JUMP JUMPDEST POP SWAP1 JUMP JUMPDEST POP DUP1 SLOAD PUSH3 0xA79 SWAP1 PUSH3 0xB39 JUMP JUMPDEST PUSH1 0x0 DUP3 SSTORE DUP1 PUSH1 0x1F LT PUSH3 0xA8D JUMPI POP PUSH3 0xAAE JUMP JUMPDEST PUSH1 0x1F ADD PUSH1 0x20 SWAP1 DIV SWAP1 PUSH1 0x0 MSTORE PUSH1 0x20 PUSH1 0x0 KECCAK256 SWAP1 DUP2 ADD SWAP1 PUSH3 0xAAD SWAP2 SWAP1 PUSH3 0xAB1 JUMP JUMPDEST JUMPDEST POP JUMP JUMPDEST JUMPDEST DUP1 DUP3 GT ISZERO PUSH3 0xACC JUMPI PUSH1 0x0 DUP2 PUSH1 0x0 SWAP1 SSTORE POP PUSH1 0x1 ADD PUSH3 0xAB2 JUMP JUMPDEST POP SWAP1 JUMP JUMPDEST PUSH1 0x0 DUP2 MLOAD SWAP1 POP SWAP2 SWAP1 POP JUMP JUMPDEST PUSH32 0x4E487B7100000000000000000000000000000000000000000000000000000000 PUSH1 0x0 MSTORE PUSH1 0x41 PUSH1 0x4 MSTORE PUSH1 0x24 PUSH1 0x0 REVERT JUMPDEST PUSH32 0x4E487B7100000000000000000000000000000000000000000000000000000000 PUSH1 0x0 MSTORE PUSH1 0x22 PUSH1 0x4 MSTORE PUSH1 0x24 PUSH1 0x0 REVERT JUMPDEST PUSH1 0x0 PUSH1 0x2 DUP3 DIV SWAP1 POP PUSH1 0x1 DUP3 AND DUP1 PUSH3 0xB52 JUMPI PUSH1 0x7F DUP3 AND SWAP2 POP JUMPDEST PUSH1 0x20 DUP3 LT DUP2 SUB PUSH3 0xB68 JUMPI PUSH3 0xB67 PUSH3 0xB0A JUMP JUMPDEST JUMPDEST POP SWAP2 SWAP1 POP JUMP JUMPDEST PUSH1 0x0 DUP2 SWAP1 POP DUP2 PUSH1 0x0 MSTORE PUSH1 0x20 PUSH1 0x0 KECCAK256 SWAP1 POP SWAP2 SWAP1 POP JUMP JUMPDEST PUSH1 0x0 PUSH1 0x20 PUSH1 0x1F DUP4 ADD DIV SWAP1 POP SWAP2 SWAP1 POP JUMP JUMPDEST PUSH1 0x0 DUP3 DUP3 SHL SWAP1 POP SWAP3 SWAP2 POP POP JUMP JUMPDEST PUSH1 0x0 PUSH1 0x8 DUP4 MUL PUSH3 0xBD2 PUSH32 0xFFFFFFFFFFFFFFFFFFFFFFFFFFFFFFFFFFFFFFFFFFFFFFFFFFFFFFFFFFFFFFFF DUP3 PUSH3 0xB93 JUMP JUMPDEST PUSH3 0xBDE DUP7 DUP4 PUSH3 0xB93 JUMP JUMPDEST SWAP6 POP DUP1 NOT DUP5 AND SWAP4 POP DUP1 DUP7 AND DUP5 OR SWAP3 POP POP POP SWAP4 SWAP3 POP POP POP JUMP JUMPDEST PUSH1 0x0 DUP2 SWAP1 POP SWAP2 SWAP1 POP JUMP JUMPDEST PUSH1 0x0 DUP2 SWAP1 POP SWAP2 SWAP1 POP JUMP JUMPDEST PUSH1 0x0 PUSH3 0xC2B PUSH3 0xC25 PUSH3 0xC1F DUP5 PUSH3 0xBF6 JUMP JUMPDEST PUSH3 0xC00 JUMP JUMPDEST PUSH3 0xBF6 JUMP JUMPDEST SWAP1 POP SWAP2 SWAP1 POP JUMP JUMPDEST PUSH1 0x0 DUP2 SWAP1 POP SWAP2 SWAP1 POP JUMP JUMPDEST PUSH3 0xC47 DUP4 PUSH3 0xC0A JUMP JUMPDEST PUSH3 0xC5F PUSH3 0xC56 DUP3 PUSH3 0xC32 JUMP JUMPDEST DUP5 DUP5 SLOAD PUSH3 0xBA0 JUMP JUMPDEST DUP3 SSTORE POP POP POP POP JUMP JUMPDEST PUSH1 0x0 SWAP1 JUMP JUMPDEST PUSH3 0xC76 PUSH3 0xC67 JUMP JUMPDEST PUSH3 0xC83 DUP2 DUP5 DUP5 PUSH3 0xC3C JUMP JUMPDEST POP POP POP JUMP JUMPDEST JUMPDEST DUP2 DUP2 LT ISZERO PUSH3 0xCAB JUMPI PUSH3 0xC9F PUSH1 0x0 DUP3 PUSH3 0xC6C JUMP JUMPDEST PUSH1 0x1 DUP2 ADD SWAP1 POP PUSH3 0xC89 JUMP JUMPDEST POP POP JUMP JUMPDEST PUSH1 0x1F DUP3 GT ISZERO PUSH3 0xCFA JUMPI PUSH3 0xCC4 DUP2 PUSH3 0xB6E JUMP JUMPDEST PUSH3 0xCCF DUP5 PUSH3 0xB83 JUMP JUMPDEST DUP2 ADD PUSH1 0x20 DUP6 LT ISZERO PUSH3 0xCDF JUMPI DUP2 SWAP1 POP JUMPDEST PUSH3 0xCF7 PUSH3 0xCEE DUP6 PUSH3 0xB83 JUMP JUMPDEST DUP4 ADD DUP3 PUSH3 0xC88 JUMP JUMPDEST POP POP JUMPDEST POP POP POP JUMP JUMPDEST PUSH1 0x0 DUP3 DUP3 SHR SWAP1 POP SWAP3 SWAP2 POP POP JUMP JUMPDEST PUSH1 0x0 PUSH3 0xD1F PUSH1 0x0 NOT DUP5 PUSH1 0x8 MUL PUSH3 0xCFF JUMP JUMPDEST NOT DUP1 DUP4 AND SWAP2 POP POP SWAP3 SWAP2 POP POP JUMP JUMPDEST PUSH1 0x0 PUSH3 0xD3A DUP4 DUP4 PUSH3 0xD0C JUMP JUMPDEST SWAP2 POP DUP3 PUSH1 0x2 MUL DUP3 OR SWAP1 POP SWAP3 SWAP2 POP POP JUMP JUMPDEST PUSH3 0xD55 DUP3 PUSH3 0xAD0 JUMP JUMPDEST PUSH8 0xFFFFFFFFFFFFFFFF DUP2 GT ISZERO PUSH3 0xD71 JUMPI PUSH3 0xD70 PUSH3 0xADB JUMP JUMPDEST JUMPDEST PUSH3 0xD7D DUP3 SLOAD PUSH3 0xB39 JUMP JUMPDEST PUSH3 0xD8A DUP3 DUP3 DUP6 PUSH3 0xCAF JUMP JUMPDEST PUSH1 0x0 PUSH1 0x20 SWAP1 POP PUSH1 0x1F DUP4 GT PUSH1 0x1 DUP2 EQ PUSH3 0xDC2 JUMPI PUSH1 0x0 DUP5 ISZERO PUSH3 0xDAD JUMPI DUP3 DUP8 ADD MLOAD SWAP1 POP JUMPDEST PUSH3 0xDB9 DUP6 DUP3 PUSH3 0xD2C JUMP JUMPDEST DUP7 SSTORE POP PUSH3 0xE29 JUMP JUMPDEST PUSH1 0x1F NOT DUP5 AND PUSH3 0xDD2 DUP7 PUSH3 0xB6E JUMP JUMPDEST PUSH1 0x0 JUMPDEST DUP3 DUP2 LT ISZERO PUSH3 0xDFC JUMPI DUP5 DUP10 ADD MLOAD DUP3 SSTORE PUSH1 0x1 DUP3 ADD SWAP2 POP PUSH1 0x20 DUP6 ADD SWAP5 POP PUSH1 0x20 DUP2 ADD SWAP1 POP PUSH3 0xDD5 JUMP JUMPDEST DUP7 DUP4 LT ISZERO PUSH3 0xE1C JUMPI DUP5 DUP10 ADD MLOAD PUSH3 0xE18 PUSH1 0x1F DUP10 AND DUP3 PUSH3 0xD0C JUMP JUMPDEST DUP4 SSTORE POP JUMPDEST PUSH1 0x1 PUSH1 0x2 DUP9 MUL ADD DUP9 SSTORE POP POP POP JUMPDEST POP POP POP POP POP POP JUMP JUMPDEST PUSH2 0x2126 DUP1 PUSH3 0xE41 PUSH1 0x0 CODECOPY PUSH1 0x0 RETURN INVALID PUSH1 0x80 PUSH1 0x40 MSTORE CALLVALUE DUP1 ISZERO PUSH2 0x10 JUMPI PUSH1 0x0 DUP1 REVERT JUMPDEST POP PUSH1 0x4 CALLDATASIZE LT PUSH2 0x62 JUMPI PUSH1 0x0 CALLDATALOAD PUSH1 0xE0 SHR DUP1 PUSH4 0x2056C8B EQ PUSH2 0x67 JUMPI DUP1 PUSH4 0x5D0797C0 EQ PUSH2 0x8B JUMPI DUP1 PUSH4 0x662A6559 EQ PUSH2 0xA9 JUMPI DUP1 PUSH4 0x81196481 EQ PUSH2 0xC5 JUMPI DUP1 PUSH4 0xD65AB5F2 EQ PUSH2 0xE3 JUMPI DUP1 PUSH4 0xF77EA683 EQ PUSH2 0xED JUMPI JUMPDEST PUSH1 0x0 DUP1 REVERT JUMPDEST PUSH2 0x6F PUSH2 0x10B JUMP JUMPDEST PUSH1 0x40 MLOAD PUSH2 0x82 SWAP8 SWAP7 SWAP6 SWAP5 SWAP4 SWAP3 SWAP2 SWAP1 PUSH2 0x1522 JUMP JUMPDEST PUSH1 0x40 MLOAD DUP1 SWAP2 SUB SWAP1 RETURN JUMPDEST PUSH2 0x93 PUSH2 0x275 JUMP JUMPDEST PUSH1 0x40 MLOAD PUSH2 0xA0 SWAP2 SWAP1 PUSH2 0x1598 JUMP JUMPDEST PUSH1 0x40 MLOAD DUP1 SWAP2 SUB SWAP1 RETURN JUMPDEST PUSH2 0xC3 PUSH1 0x4 DUP1 CALLDATASIZE SUB DUP2 ADD SWAP1 PUSH2 0xBE SWAP2 SWAP1 PUSH2 0x1622 JUMP JUMPDEST PUSH2 0x27A JUMP JUMPDEST STOP JUMPDEST PUSH2 0xCD PUSH2 0x914 JUMP JUMPDEST PUSH1 0x40 MLOAD PUSH2 0xDA SWAP2 SWAP1 PUSH2 0x1598 JUMP JUMPDEST PUSH1 0x40 MLOAD DUP1 SWAP2 SUB SWAP1 RETURN JUMPDEST PUSH2 0xEB PUSH2 0x919 JUMP JUMPDEST STOP JUMPDEST PUSH2 0xF5 PUSH2 0xC24 JUMP JUMPDEST PUSH1 0x40 MLOAD PUSH2 0x102 SWAP2 SWAP1 PUSH2 0x1598 JUMP JUMPDEST PUSH1 0x40 MLOAD DUP1 SWAP2 SUB SWAP1 RETURN JUMPDEST PUSH1 0x0 DUP1 PUSH1 0x0 PUSH1 0x60 PUSH1 0x0 DUP1 PUSH1 0x0 DUP1 PUSH1 0x0 DUP1 CALLER PUSH20 0xFFFFFFFFFFFFFFFFFFFFFFFFFFFFFFFFFFFFFFFF AND PUSH20 0xFFFFFFFFFFFFFFFFFFFFFFFFFFFFFFFFFFFFFFFF AND DUP2 MSTORE PUSH1 0x20 ADD SWAP1 DUP2 MSTORE PUSH1 0x20 ADD PUSH1 0x0 KECCAK256 SWAP1 POP DUP1 PUSH1 0x0 ADD PUSH1 0x0 SWAP1 SLOAD SWAP1 PUSH2 0x100 EXP SWAP1 DIV PUSH1 0xFF AND DUP2 PUSH1 0x0 ADD PUSH1 0x1 SWAP1 SLOAD SWAP1 PUSH2 0x100 EXP SWAP1 DIV PUSH1 0xFF AND DUP3 PUSH1 0x0 ADD PUSH1 0x2 SWAP1 SLOAD SWAP1 PUSH2 0x100 EXP SWAP1 DIV PUSH1 0xFF AND DUP4 PUSH1 0x1 ADD DUP5 PUSH1 0x2 ADD PUSH1 0x0 SWAP1 SLOAD SWAP1 PUSH2 0x100 EXP SWAP1 DIV PUSH4 0xFFFFFFFF AND DUP6 PUSH1 0x2 ADD PUSH1 0x4 SWAP1 SLOAD SWAP1 PUSH2 0x100 EXP SWAP1 DIV PUSH4 0xFFFFFFFF AND DUP7 PUSH1 0x2 ADD PUSH1 0x8 SWAP1 SLOAD SWAP1 PUSH2 0x100 EXP SWAP1 DIV PUSH4 0xFFFFFFFF AND DUP4 DUP1 SLOAD PUSH2 0x1DD SWAP1 PUSH2 0x169E JUMP JUMPDEST DUP1 PUSH1 0x1F ADD PUSH1 0x20 DUP1 SWAP2 DIV MUL PUSH1 0x20 ADD PUSH1 0x40 MLOAD SWAP1 DUP2 ADD PUSH1 0x40 MSTORE DUP1 SWAP3 SWAP2 SWAP1 DUP2 DUP2 MSTORE PUSH1 0x20 ADD DUP3 DUP1 SLOAD PUSH2 0x209 SWAP1 PUSH2 0x169E JUMP JUMPDEST DUP1 ISZERO PUSH2 0x256 JUMPI DUP1 PUSH1 0x1F LT PUSH2 0x22B JUMPI PUSH2 0x100 DUP1 DUP4 SLOAD DIV MUL DUP4 MSTORE SWAP2 PUSH1 0x20 ADD SWAP2 PUSH2 0x256 JUMP JUMPDEST DUP3 ADD SWAP2 SWAP1 PUSH1 0x0 MSTORE PUSH1 0x20 PUSH1 0x0 KECCAK256 SWAP1 JUMPDEST DUP2 SLOAD DUP2 MSTORE SWAP1 PUSH1 0x1 ADD SWAP1 PUSH1 0x20 ADD DUP1 DUP4 GT PUSH2 0x239 JUMPI DUP3 SWAP1 SUB PUSH1 0x1F AND DUP3 ADD SWAP2 JUMPDEST POP POP POP POP POP SWAP4 POP SWAP8 POP SWAP8 POP SWAP8 POP SWAP8 POP SWAP8 POP SWAP8 POP SWAP8 POP POP SWAP1 SWAP2 SWAP3 SWAP4 SWAP5 SWAP6 SWAP7 JUMP JUMPDEST PUSH1 0xA DUP2 JUMP JUMPDEST PUSH1 0x0 DUP1 PUSH1 0x0 CALLER PUSH20 0xFFFFFFFFFFFFFFFFFFFFFFFFFFFFFFFFFFFFFFFF AND PUSH20 0xFFFFFFFFFFFFFFFFFFFFFFFFFFFFFFFFFFFFFFFF AND DUP2 MSTORE PUSH1 0x20 ADD SWAP1 DUP2 MSTORE PUSH1 0x20 ADD PUSH1 0x0 KECCAK256 SWAP1 POP PUSH1 0x1 PUSH1 0x3 DUP2 GT ISZERO PUSH2 0x2D0 JUMPI PUSH2 0x2CF PUSH2 0x13E0 JUMP JUMPDEST JUMPDEST DUP2 PUSH1 0x0 ADD PUSH1 0x0 SWAP1 SLOAD SWAP1 PUSH2 0x100 EXP SWAP1 DIV PUSH1 0xFF AND PUSH1 0x3 DUP2 GT ISZERO PUSH2 0x2F4 JUMPI PUSH2 0x2F3 PUSH2 0x13E0 JUMP JUMPDEST JUMPDEST EQ PUSH2 0x334 JUMPI PUSH1 0x40 MLOAD PUSH32 0x8C379A000000000000000000000000000000000000000000000000000000000 DUP2 MSTORE PUSH1 0x4 ADD PUSH2 0x32B SWAP1 PUSH2 0x172C JUMP JUMPDEST PUSH1 0x40 MLOAD DUP1 SWAP2 SUB SWAP1 REVERT JUMPDEST PUSH1 0x0 DUP4 DUP4 DUP1 DUP1 PUSH1 0x1F ADD PUSH1 0x20 DUP1 SWAP2 DIV MUL PUSH1 0x20 ADD PUSH1 0x40 MLOAD SWAP1 DUP2 ADD PUSH1 0x40 MSTORE DUP1 SWAP4 SWAP3 SWAP2 SWAP1 DUP2 DUP2 MSTORE PUSH1 0x20 ADD DUP4 DUP4 DUP1 DUP3 DUP5 CALLDATACOPY PUSH1 0x0 DUP2 DUP5 ADD MSTORE PUSH1 0x1F NOT PUSH1 0x1F DUP3 ADD AND SWAP1 POP DUP1 DUP4 ADD SWAP3 POP POP POP POP POP POP POP SWAP1 POP PUSH1 0x1 DUP2 MLOAD EQ PUSH2 0x3C1 JUMPI PUSH1 0x40 MLOAD PUSH32 0x8C379A000000000000000000000000000000000000000000000000000000000 DUP2 MSTORE PUSH1 0x4 ADD PUSH2 0x3B8 SWAP1 PUSH2 0x1798 JUMP JUMPDEST PUSH1 0x40 MLOAD DUP1 SWAP2 SUB SWAP1 REVERT JUMPDEST PUSH1 0x0 DUP2 PUSH1 0x0 DUP2 MLOAD DUP2 LT PUSH2 0x3D7 JUMPI PUSH2 0x3D6 PUSH2 0x17B8 JUMP JUMPDEST JUMPDEST PUSH1 0x20 ADD ADD MLOAD PUSH1 0xF8 SHR PUSH1 0xF8 SHL SWAP1 POP PUSH1 0x0 DUP2 PUSH1 0xF8 SHR SWAP1 POP PUSH1 0x41 DUP2 PUSH1 0xFF AND LT ISZERO DUP1 ISZERO PUSH2 0x404 JUMPI POP PUSH1 0x5A DUP2 PUSH1 0xFF AND GT ISZERO JUMPDEST ISZERO PUSH2 0x41F JUMPI PUSH1 0x20 DUP2 PUSH2 0x416 SWAP2 SWAP1 PUSH2 0x1816 JUMP JUMPDEST SWAP1 POP DUP1 PUSH1 0xF8 SHL SWAP2 POP JUMPDEST PUSH1 0x61 DUP2 PUSH1 0xFF AND LT ISZERO DUP1 ISZERO PUSH2 0x437 JUMPI POP PUSH1 0x7A DUP2 PUSH1 0xFF AND GT ISZERO JUMPDEST PUSH2 0x476 JUMPI PUSH1 0x40 MLOAD PUSH32 0x8C379A000000000000000000000000000000000000000000000000000000000 DUP2 MSTORE PUSH1 0x4 ADD PUSH2 0x46D SWAP1 PUSH2 0x18BD JUMP JUMPDEST PUSH1 0x40 MLOAD DUP1 SWAP2 SUB SWAP1 REVERT JUMPDEST PUSH1 0x0 PUSH1 0x61 DUP3 PUSH2 0x485 SWAP2 SWAP1 PUSH2 0x18DD JUMP JUMPDEST SWAP1 POP PUSH1 0x0 DUP2 PUSH1 0xFF AND PUSH1 0x1 PUSH4 0xFFFFFFFF AND SWAP1 SHL SWAP1 POP PUSH1 0x0 DUP2 DUP8 PUSH1 0x2 ADD PUSH1 0x0 SWAP1 SLOAD SWAP1 PUSH2 0x100 EXP SWAP1 DIV PUSH4 0xFFFFFFFF AND AND PUSH4 0xFFFFFFFF AND EQ PUSH2 0x4F8 JUMPI PUSH1 0x40 MLOAD PUSH32 0x8C379A000000000000000000000000000000000000000000000000000000000 DUP2 MSTORE PUSH1 0x4 ADD PUSH2 0x4EF SWAP1 PUSH2 0x195E JUMP JUMPDEST PUSH1 0x40 MLOAD DUP1 SWAP2 SUB SWAP1 REVERT JUMPDEST PUSH1 0x0 PUSH2 0x503 DUP8 PUSH2 0xC29 JUMP JUMPDEST SWAP1 POP DUP2 DUP8 PUSH1 0x2 ADD PUSH1 0x0 DUP3 DUP3 DUP3 SWAP1 SLOAD SWAP1 PUSH2 0x100 EXP SWAP1 DIV PUSH4 0xFFFFFFFF AND OR SWAP3 POP PUSH2 0x100 EXP DUP2 SLOAD DUP2 PUSH4 0xFFFFFFFF MUL NOT AND SWAP1 DUP4 PUSH4 0xFFFFFFFF AND MUL OR SWAP1 SSTORE POP PUSH1 0x0 PUSH2 0x549 DUP3 DUP8 PUSH2 0xDD0 JUMP JUMPDEST SWAP1 POP DUP1 ISZERO PUSH2 0x7CE JUMPI DUP3 DUP9 PUSH1 0x2 ADD PUSH1 0x4 DUP3 DUP3 DUP3 SWAP1 SLOAD SWAP1 PUSH2 0x100 EXP SWAP1 DIV PUSH4 0xFFFFFFFF AND OR SWAP3 POP PUSH2 0x100 EXP DUP2 SLOAD DUP2 PUSH4 0xFFFFFFFF MUL NOT AND SWAP1 DUP4 PUSH4 0xFFFFFFFF AND MUL OR SWAP1 SSTORE POP PUSH1 0x0 JUMPDEST DUP9 PUSH1 0x0 ADD PUSH1 0x1 SWAP1 SLOAD SWAP1 PUSH2 0x100 EXP SWAP1 DIV PUSH1 0xFF AND PUSH1 0xFF AND DUP2 LT ISZERO PUSH2 0x701 JUMPI PUSH1 0x0 DUP4 DUP3 DUP2 MLOAD DUP2 LT PUSH2 0x5BD JUMPI PUSH2 0x5BC PUSH2 0x17B8 JUMP JUMPDEST JUMPDEST PUSH1 0x20 ADD ADD MLOAD PUSH1 0xF8 SHR PUSH1 0xF8 SHL SWAP1 POP PUSH2 0x5D4 DUP11 DUP3 PUSH2 0xE72 JUMP JUMPDEST ISZERO PUSH2 0x655 JUMPI DUP1 DUP11 PUSH1 0x1 ADD DUP4 DUP2 SLOAD PUSH2 0x5EA SWAP1 PUSH2 0x169E JUMP JUMPDEST DUP2 LT PUSH2 0x5F9 JUMPI PUSH2 0x5F8 PUSH2 0x17B8 JUMP JUMPDEST JUMPDEST DUP2 SLOAD PUSH1 0x1 AND ISZERO PUSH2 0x618 JUMPI SWAP1 PUSH1 0x0 MSTORE PUSH1 0x20 PUSH1 0x0 KECCAK256 SWAP1 PUSH1 0x20 SWAP2 DUP3 DUP3 DIV ADD SWAP2 SWAP1 MOD JUMPDEST PUSH1 0x1F SUB PUSH2 0x100 EXP DUP2 SLOAD DUP2 PUSH1 0xFF MUL NOT AND SWAP1 PUSH32 0x100000000000000000000000000000000000000000000000000000000000000 DUP5 DIV MUL OR SWAP1 SSTORE POP PUSH2 0x6ED JUMP JUMPDEST PUSH32 0x5F00000000000000000000000000000000000000000000000000000000000000 DUP11 PUSH1 0x1 ADD DUP4 DUP2 SLOAD PUSH2 0x686 SWAP1 PUSH2 0x169E JUMP JUMPDEST DUP2 LT PUSH2 0x695 JUMPI PUSH2 0x694 PUSH2 0x17B8 JUMP JUMPDEST JUMPDEST DUP2 SLOAD PUSH1 0x1 AND ISZERO PUSH2 0x6B4 JUMPI SWAP1 PUSH1 0x0 MSTORE PUSH1 0x20 PUSH1 0x0 KECCAK256 SWAP1 PUSH1 0x20 SWAP2 DUP3 DUP3 DIV ADD SWAP2 SWAP1 MOD JUMPDEST PUSH1 0x1F SUB PUSH2 0x100 EXP DUP2 SLOAD DUP2 PUSH1 0xFF MUL NOT AND SWAP1 PUSH32 0x100000000000000000000000000000000000000000000000000000000000000 DUP5 DIV MUL OR SWAP1 SSTORE POP JUMPDEST POP DUP1 DUP1 PUSH2 0x6F9 SWAP1 PUSH2 0x1988 JUMP JUMPDEST SWAP2 POP POP PUSH2 0x58C JUMP JUMPDEST POP PUSH2 0x797 DUP9 PUSH1 0x1 ADD DUP1 SLOAD PUSH2 0x714 SWAP1 PUSH2 0x169E JUMP JUMPDEST DUP1 PUSH1 0x1F ADD PUSH1 0x20 DUP1 SWAP2 DIV MUL PUSH1 0x20 ADD PUSH1 0x40 MLOAD SWAP1 DUP2 ADD PUSH1 0x40 MSTORE DUP1 SWAP3 SWAP2 SWAP1 DUP2 DUP2 MSTORE PUSH1 0x20 ADD DUP3 DUP1 SLOAD PUSH2 0x740 SWAP1 PUSH2 0x169E JUMP JUMPDEST DUP1 ISZERO PUSH2 0x78D JUMPI DUP1 PUSH1 0x1F LT PUSH2 0x762 JUMPI PUSH2 0x100 DUP1 DUP4 SLOAD DIV MUL DUP4 MSTORE SWAP2 PUSH1 0x20 ADD SWAP2 PUSH2 0x78D JUMP JUMPDEST DUP3 ADD SWAP2 SWAP1 PUSH1 0x0 MSTORE PUSH1 0x20 PUSH1 0x0 KECCAK256 SWAP1 JUMPDEST DUP2 SLOAD DUP2 MSTORE SWAP1 PUSH1 0x1 ADD SWAP1 PUSH1 0x20 ADD DUP1 DUP4 GT PUSH2 0x770 JUMPI DUP3 SWAP1 SUB PUSH1 0x1F AND DUP3 ADD SWAP2 JUMPDEST POP POP POP POP POP PUSH2 0xEE9 JUMP JUMPDEST PUSH2 0x7C9 JUMPI PUSH1 0x2 DUP9 PUSH1 0x0 ADD PUSH1 0x0 PUSH2 0x100 EXP DUP2 SLOAD DUP2 PUSH1 0xFF MUL NOT AND SWAP1 DUP4 PUSH1 0x3 DUP2 GT ISZERO PUSH2 0x7C3 JUMPI PUSH2 0x7C2 PUSH2 0x13E0 JUMP JUMPDEST JUMPDEST MUL OR SWAP1 SSTORE POP JUMPDEST PUSH2 0x88D JUMP JUMPDEST DUP3 DUP9 PUSH1 0x2 ADD PUSH1 0x8 DUP3 DUP3 DUP3 SWAP1 SLOAD SWAP1 PUSH2 0x100 EXP SWAP1 DIV PUSH4 0xFFFFFFFF AND OR SWAP3 POP PUSH2 0x100 EXP DUP2 SLOAD DUP2 PUSH4 0xFFFFFFFF MUL NOT AND SWAP1 DUP4 PUSH4 0xFFFFFFFF AND MUL OR SWAP1 SSTORE POP PUSH1 0x1 DUP9 PUSH1 0x0 ADD PUSH1 0x2 DUP3 DUP3 DUP3 SWAP1 SLOAD SWAP1 PUSH2 0x100 EXP SWAP1 DIV PUSH1 0xFF AND PUSH2 0x827 SWAP2 SWAP1 PUSH2 0x1816 JUMP JUMPDEST SWAP3 POP PUSH2 0x100 EXP DUP2 SLOAD DUP2 PUSH1 0xFF MUL NOT AND SWAP1 DUP4 PUSH1 0xFF AND MUL OR SWAP1 SSTORE POP PUSH1 0x6 PUSH1 0xFF AND DUP9 PUSH1 0x0 ADD PUSH1 0x2 SWAP1 SLOAD SWAP1 PUSH2 0x100 EXP SWAP1 DIV PUSH1 0xFF AND PUSH1 0xFF AND LT PUSH2 0x88C JUMPI PUSH1 0x3 DUP9 PUSH1 0x0 ADD PUSH1 0x0 PUSH2 0x100 EXP DUP2 SLOAD DUP2 PUSH1 0xFF MUL NOT AND SWAP1 DUP4 PUSH1 0x3 DUP2 GT ISZERO PUSH2 0x886 JUMPI PUSH2 0x885 PUSH2 0x13E0 JUMP JUMPDEST JUMPDEST MUL OR SWAP1 SSTORE POP JUMPDEST JUMPDEST CALLER PUSH20 0xFFFFFFFFFFFFFFFFFFFFFFFFFFFFFFFFFFFFFFFF AND PUSH32 0x158E50B6C009C05279B63369EE0914AAC86906246DA69B271F2E77F49FDD082A DUP8 DUP4 DUP12 PUSH1 0x1 ADD DUP13 PUSH1 0x0 ADD PUSH1 0x2 SWAP1 SLOAD SWAP1 PUSH2 0x100 EXP SWAP1 DIV PUSH1 0xFF AND DUP14 PUSH1 0x0 ADD PUSH1 0x0 SWAP1 SLOAD SWAP1 PUSH2 0x100 EXP SWAP1 DIV PUSH1 0xFF AND PUSH1 0x40 MLOAD PUSH2 0x900 SWAP6 SWAP5 SWAP4 SWAP3 SWAP2 SWAP1 PUSH2 0x1ABF JUMP JUMPDEST PUSH1 0x40 MLOAD DUP1 SWAP2 SUB SWAP1 LOG2 POP POP POP POP POP POP POP POP POP POP JUMP JUMPDEST PUSH1 0x4 DUP2 JUMP JUMPDEST PUSH1 0x0 DUP1 PUSH1 0x0 CALLER PUSH20 0xFFFFFFFFFFFFFFFFFFFFFFFFFFFFFFFFFFFFFFFF AND PUSH20 0xFFFFFFFFFFFFFFFFFFFFFFFFFFFFFFFFFFFFFFFF AND DUP2 MSTORE PUSH1 0x20 ADD SWAP1 DUP2 MSTORE PUSH1 0x20 ADD PUSH1 0x0 KECCAK256 SWAP1 POP PUSH1 0x1 PUSH1 0x3 DUP2 GT ISZERO PUSH2 0x96F JUMPI PUSH2 0x96E PUSH2 0x13E0 JUMP JUMPDEST JUMPDEST DUP2 PUSH1 0x0 ADD PUSH1 0x0 SWAP1 SLOAD SWAP1 PUSH2 0x100 EXP SWAP1 DIV PUSH1 0xFF AND PUSH1 0x3 DUP2 GT ISZERO PUSH2 0x993 JUMPI PUSH2 0x992 PUSH2 0x13E0 JUMP JUMPDEST JUMPDEST SUB PUSH2 0x9D3 JUMPI PUSH1 0x40 MLOAD PUSH32 0x8C379A000000000000000000000000000000000000000000000000000000000 DUP2 MSTORE PUSH1 0x4 ADD PUSH2 0x9CA SWAP1 PUSH2 0x1B65 JUMP JUMPDEST PUSH1 0x40 MLOAD DUP1 SWAP2 SUB SWAP1 REVERT JUMPDEST PUSH1 0x0 PUSH2 0x9DD PUSH2 0xFAA JUMP JUMPDEST SWAP1 POP PUSH1 0x1 DUP3 PUSH1 0x0 ADD PUSH1 0x0 PUSH2 0x100 EXP DUP2 SLOAD DUP2 PUSH1 0xFF MUL NOT AND SWAP1 DUP4 PUSH1 0x3 DUP2 GT ISZERO PUSH2 0xA07 JUMPI PUSH2 0xA06 PUSH2 0x13E0 JUMP JUMPDEST JUMPDEST MUL OR SWAP1 SSTORE POP DUP1 DUP3 PUSH1 0x0 ADD PUSH1 0x1 PUSH2 0x100 EXP DUP2 SLOAD DUP2 PUSH1 0xFF MUL NOT AND SWAP1 DUP4 PUSH1 0xFF AND MUL OR SWAP1 SSTORE POP PUSH1 0x0 DUP3 PUSH1 0x0 ADD PUSH1 0x2 PUSH2 0x100 EXP DUP2 SLOAD DUP2 PUSH1 0xFF MUL NOT AND SWAP1 DUP4 PUSH1 0xFF AND MUL OR SWAP1 SSTORE POP PUSH1 0x0 DUP3 PUSH1 0x2 ADD PUSH1 0x0 PUSH2 0x100 EXP DUP2 SLOAD DUP2 PUSH4 0xFFFFFFFF MUL NOT AND SWAP1 DUP4 PUSH4 0xFFFFFFFF AND MUL OR SWAP1 SSTORE POP PUSH1 0x0 DUP3 PUSH1 0x2 ADD PUSH1 0x4 PUSH2 0x100 EXP DUP2 SLOAD DUP2 PUSH4 0xFFFFFFFF MUL NOT AND SWAP1 DUP4 PUSH4 0xFFFFFFFF AND MUL OR SWAP1 SSTORE POP PUSH1 0x0 DUP3 PUSH1 0x2 ADD PUSH1 0x8 PUSH2 0x100 EXP DUP2 SLOAD DUP2 PUSH4 0xFFFFFFFF MUL NOT AND SWAP1 DUP4 PUSH4 0xFFFFFFFF AND MUL OR SWAP1 SSTORE POP DUP1 PUSH1 0xFF AND PUSH8 0xFFFFFFFFFFFFFFFF DUP2 GT ISZERO PUSH2 0xAD0 JUMPI PUSH2 0xACF PUSH2 0x1B85 JUMP JUMPDEST JUMPDEST PUSH1 0x40 MLOAD SWAP1 DUP1 DUP3 MSTORE DUP1 PUSH1 0x1F ADD PUSH1 0x1F NOT AND PUSH1 0x20 ADD DUP3 ADD PUSH1 0x40 MSTORE DUP1 ISZERO PUSH2 0xB02 JUMPI DUP2 PUSH1 0x20 ADD PUSH1 0x1 DUP3 MUL DUP1 CALLDATASIZE DUP4 CALLDATACOPY DUP1 DUP3 ADD SWAP2 POP POP SWAP1 POP JUMPDEST POP DUP3 PUSH1 0x1 ADD SWAP1 DUP2 PUSH2 0xB13 SWAP2 SWAP1 PUSH2 0x1D4B JUMP JUMPDEST POP PUSH1 0x0 JUMPDEST DUP2 PUSH1 0xFF AND DUP2 LT ISZERO PUSH2 0xBCC JUMPI PUSH32 0x5F00000000000000000000000000000000000000000000000000000000000000 DUP4 PUSH1 0x1 ADD DUP3 DUP2 SLOAD PUSH2 0xB53 SWAP1 PUSH2 0x169E JUMP JUMPDEST DUP2 LT PUSH2 0xB62 JUMPI PUSH2 0xB61 PUSH2 0x17B8 JUMP JUMPDEST JUMPDEST DUP2 SLOAD PUSH1 0x1 AND ISZERO PUSH2 0xB81 JUMPI SWAP1 PUSH1 0x0 MSTORE PUSH1 0x20 PUSH1 0x0 KECCAK256 SWAP1 PUSH1 0x20 SWAP2 DUP3 DUP3 DIV ADD SWAP2 SWAP1 MOD JUMPDEST PUSH1 0x1F SUB PUSH2 0x100 EXP DUP2 SLOAD DUP2 PUSH1 0xFF MUL NOT AND SWAP1 PUSH32 0x100000000000000000000000000000000000000000000000000000000000000 DUP5 DIV MUL OR SWAP1 SSTORE POP DUP1 DUP1 PUSH2 0xBC4 SWAP1 PUSH2 0x1988 JUMP JUMPDEST SWAP2 POP POP PUSH2 0xB17 JUMP JUMPDEST POP CALLER PUSH20 0xFFFFFFFFFFFFFFFFFFFFFFFFFFFFFFFFFFFFFFFF AND PUSH32 0x362A5EE0744680DF9F8BD7848062C7608E392410201575266042218106F40596 DUP3 DUP5 PUSH1 0x1 ADD PUSH1 0x40 MLOAD PUSH2 0xC18 SWAP3 SWAP2 SWAP1 PUSH2 0x1E1D JUMP JUMPDEST PUSH1 0x40 MLOAD DUP1 SWAP2 SUB SWAP1 LOG2 POP POP JUMP JUMPDEST PUSH1 0x6 DUP2 JUMP JUMPDEST PUSH1 0x60 PUSH1 0x0 PUSH2 0xC36 DUP4 PUSH2 0x102D JUMP JUMPDEST SWAP1 POP PUSH1 0x0 DUP2 GT PUSH2 0xC7B JUMPI PUSH1 0x40 MLOAD PUSH32 0x8C379A000000000000000000000000000000000000000000000000000000000 DUP2 MSTORE PUSH1 0x4 ADD PUSH2 0xC72 SWAP1 PUSH2 0x1E99 JUMP JUMPDEST PUSH1 0x40 MLOAD DUP1 SWAP2 SUB SWAP1 REVERT JUMPDEST PUSH1 0x0 PUSH2 0xC86 DUP3 PUSH2 0x112B JUMP JUMPDEST SWAP1 POP PUSH1 0x0 DUP1 JUMPDEST PUSH1 0x1 DUP1 SLOAD SWAP1 POP DUP2 LT ISZERO PUSH2 0xD8F JUMPI PUSH1 0x0 PUSH1 0x1 DUP3 DUP2 SLOAD DUP2 LT PUSH2 0xCAF JUMPI PUSH2 0xCAE PUSH2 0x17B8 JUMP JUMPDEST JUMPDEST SWAP1 PUSH1 0x0 MSTORE PUSH1 0x20 PUSH1 0x0 KECCAK256 ADD DUP1 SLOAD PUSH2 0xCC4 SWAP1 PUSH2 0x169E JUMP JUMPDEST DUP1 PUSH1 0x1F ADD PUSH1 0x20 DUP1 SWAP2 DIV MUL PUSH1 0x20 ADD PUSH1 0x40 MLOAD SWAP1 DUP2 ADD PUSH1 0x40 MSTORE DUP1 SWAP3 SWAP2 SWAP1 DUP2 DUP2 MSTORE PUSH1 0x20 ADD DUP3 DUP1 SLOAD PUSH2 0xCF0 SWAP1 PUSH2 0x169E JUMP JUMPDEST DUP1 ISZERO PUSH2 0xD3D JUMPI DUP1 PUSH1 0x1F LT PUSH2 0xD12 JUMPI PUSH2 0x100 DUP1 DUP4 SLOAD DIV MUL DUP4 MSTORE SWAP2 PUSH1 0x20 ADD SWAP2 PUSH2 0xD3D JUMP JUMPDEST DUP3 ADD SWAP2 SWAP1 PUSH1 0x0 MSTORE PUSH1 0x20 PUSH1 0x0 KECCAK256 SWAP1 JUMPDEST DUP2 SLOAD DUP2 MSTORE SWAP1 PUSH1 0x1 ADD SWAP1 PUSH1 0x20 ADD DUP1 DUP4 GT PUSH2 0xD20 JUMPI DUP3 SWAP1 SUB PUSH1 0x1F AND DUP3 ADD SWAP2 JUMPDEST POP POP POP POP POP SWAP1 POP PUSH2 0xD4E DUP8 DUP3 PUSH2 0x117A JUMP JUMPDEST PUSH2 0xD58 JUMPI POP PUSH2 0xD7C JUMP JUMPDEST DUP4 DUP4 SUB PUSH2 0xD6C JUMPI DUP1 SWAP6 POP POP POP POP POP POP PUSH2 0xDCB JUMP JUMPDEST DUP3 DUP1 PUSH2 0xD77 SWAP1 PUSH2 0x1988 JUMP JUMPDEST SWAP4 POP POP POP JUMPDEST DUP1 DUP1 PUSH2 0xD87 SWAP1 PUSH2 0x1988 JUMP JUMPDEST SWAP2 POP POP PUSH2 0xC8C JUMP JUMPDEST POP PUSH1 0x40 MLOAD PUSH32 0x8C379A000000000000000000000000000000000000000000000000000000000 DUP2 MSTORE PUSH1 0x4 ADD PUSH2 0xDC2 SWAP1 PUSH2 0x1F05 JUMP JUMPDEST PUSH1 0x40 MLOAD DUP1 SWAP2 SUB SWAP1 REVERT JUMPDEST SWAP2 SWAP1 POP JUMP JUMPDEST PUSH1 0x0 DUP1 PUSH1 0x0 SWAP1 POP JUMPDEST DUP4 MLOAD DUP2 LT ISZERO PUSH2 0xE66 JUMPI DUP3 PUSH31 0xFFFFFFFFFFFFFFFFFFFFFFFFFFFFFFFFFFFFFFFFFFFFFFFFFFFFFFFFFFFFFF NOT AND DUP5 DUP3 DUP2 MLOAD DUP2 LT PUSH2 0xE17 JUMPI PUSH2 0xE16 PUSH2 0x17B8 JUMP JUMPDEST JUMPDEST PUSH1 0x20 ADD ADD MLOAD PUSH1 0xF8 SHR PUSH1 0xF8 SHL PUSH31 0xFFFFFFFFFFFFFFFFFFFFFFFFFFFFFFFFFFFFFFFFFFFFFFFFFFFFFFFFFFFFFF NOT AND SUB PUSH2 0xE53 JUMPI PUSH1 0x1 SWAP2 POP POP PUSH2 0xE6C JUMP JUMPDEST DUP1 DUP1 PUSH2 0xE5E SWAP1 PUSH2 0x1988 JUMP JUMPDEST SWAP2 POP POP PUSH2 0xDD8 JUMP JUMPDEST POP PUSH1 0x0 SWAP1 POP JUMPDEST SWAP3 SWAP2 POP POP JUMP JUMPDEST PUSH1 0x0 DUP1 DUP3 PUSH1 0xF8 SHR SWAP1 POP PUSH1 0x61 DUP2 PUSH1 0xFF AND LT DUP1 PUSH2 0xE90 JUMPI POP PUSH1 0x7A DUP2 PUSH1 0xFF AND GT JUMPDEST ISZERO PUSH2 0xE9F JUMPI PUSH1 0x0 SWAP2 POP POP PUSH2 0xEE3 JUMP JUMPDEST PUSH1 0x0 PUSH1 0x61 DUP3 PUSH2 0xEAE SWAP2 SWAP1 PUSH2 0x18DD JUMP JUMPDEST SWAP1 POP PUSH1 0x0 DUP2 PUSH1 0xFF AND PUSH1 0x1 PUSH4 0xFFFFFFFF AND SWAP1 SHL DUP7 PUSH1 0x2 ADD PUSH1 0x4 SWAP1 SLOAD SWAP1 PUSH2 0x100 EXP SWAP1 DIV PUSH4 0xFFFFFFFF AND AND PUSH4 0xFFFFFFFF AND EQ ISZERO SWAP3 POP POP POP JUMPDEST SWAP3 SWAP2 POP POP JUMP JUMPDEST PUSH1 0x0 DUP1 PUSH1 0x0 SWAP1 POP JUMPDEST DUP3 MLOAD DUP2 LT ISZERO PUSH2 0xF9F JUMPI PUSH32 0x5F00000000000000000000000000000000000000000000000000000000000000 PUSH31 0xFFFFFFFFFFFFFFFFFFFFFFFFFFFFFFFFFFFFFFFFFFFFFFFFFFFFFFFFFFFFFF NOT AND DUP4 DUP3 DUP2 MLOAD DUP2 LT PUSH2 0xF50 JUMPI PUSH2 0xF4F PUSH2 0x17B8 JUMP JUMPDEST JUMPDEST PUSH1 0x20 ADD ADD MLOAD PUSH1 0xF8 SHR PUSH1 0xF8 SHL PUSH31 0xFFFFFFFFFFFFFFFFFFFFFFFFFFFFFFFFFFFFFFFFFFFFFFFFFFFFFFFFFFFFFF NOT AND SUB PUSH2 0xF8C JUMPI PUSH1 0x1 SWAP2 POP POP PUSH2 0xFA5 JUMP JUMPDEST DUP1 DUP1 PUSH2 0xF97 SWAP1 PUSH2 0x1988 JUMP JUMPDEST SWAP2 POP POP PUSH2 0xEF1 JUMP JUMPDEST POP PUSH1 0x0 SWAP1 POP JUMPDEST SWAP2 SWAP1 POP JUMP JUMPDEST PUSH1 0x0 DUP1 PUSH1 0x1 PUSH1 0x4 PUSH1 0xA PUSH2 0xFBD SWAP2 SWAP1 PUSH2 0x18DD JUMP JUMPDEST PUSH2 0xFC7 SWAP2 SWAP1 PUSH2 0x1816 JUMP JUMPDEST PUSH1 0xFF AND SWAP1 POP PUSH1 0x0 PUSH1 0x1 NUMBER PUSH2 0xFDB SWAP2 SWAP1 PUSH2 0x1F25 JUMP JUMPDEST BLOCKHASH TIMESTAMP CALLER PUSH1 0x40 MLOAD PUSH1 0x20 ADD PUSH2 0xFF0 SWAP4 SWAP3 SWAP2 SWAP1 PUSH2 0x201F JUMP JUMPDEST PUSH1 0x40 MLOAD PUSH1 0x20 DUP2 DUP4 SUB SUB DUP2 MSTORE SWAP1 PUSH1 0x40 MSTORE DUP1 MLOAD SWAP1 PUSH1 0x20 ADD KECCAK256 PUSH1 0x0 SHR SWAP1 POP DUP2 DUP2 PUSH2 0x1017 SWAP2 SWAP1 PUSH2 0x208B JUMP JUMPDEST PUSH1 0x4 PUSH1 0xFF AND PUSH2 0x1026 SWAP2 SWAP1 PUSH2 0x20BC JUMP JUMPDEST SWAP3 POP POP POP SWAP1 JUMP JUMPDEST PUSH1 0x0 DUP1 PUSH1 0x0 SWAP1 POP PUSH1 0x0 JUMPDEST PUSH1 0x1 DUP1 SLOAD SWAP1 POP DUP2 LT ISZERO PUSH2 0x1121 JUMPI PUSH1 0x0 PUSH1 0x1 DUP3 DUP2 SLOAD DUP2 LT PUSH2 0x105A JUMPI PUSH2 0x1059 PUSH2 0x17B8 JUMP JUMPDEST JUMPDEST SWAP1 PUSH1 0x0 MSTORE PUSH1 0x20 PUSH1 0x0 KECCAK256 ADD DUP1 SLOAD PUSH2 0x106F SWAP1 PUSH2 0x169E JUMP JUMPDEST DUP1 PUSH1 0x1F ADD PUSH1 0x20 DUP1 SWAP2 DIV MUL PUSH1 0x20 ADD PUSH1 0x40 MLOAD SWAP1 DUP2 ADD PUSH1 0x40 MSTORE DUP1 SWAP3 SWAP2 SWAP1 DUP2 DUP2 MSTORE PUSH1 0x20 ADD DUP3 DUP1 SLOAD PUSH2 0x109B SWAP1 PUSH2 0x169E JUMP JUMPDEST DUP1 ISZERO PUSH2 0x10E8 JUMPI DUP1 PUSH1 0x1F LT PUSH2 0x10BD JUMPI PUSH2 0x100 DUP1 DUP4 SLOAD DIV MUL DUP4 MSTORE SWAP2 PUSH1 0x20 ADD SWAP2 PUSH2 0x10E8 JUMP JUMPDEST DUP3 ADD SWAP2 SWAP1 PUSH1 0x0 MSTORE PUSH1 0x20 PUSH1 0x0 KECCAK256 SWAP1 JUMPDEST DUP2 SLOAD DUP2 MSTORE SWAP1 PUSH1 0x1 ADD SWAP1 PUSH1 0x20 ADD DUP1 DUP4 GT PUSH2 0x10CB JUMPI DUP3 SWAP1 SUB PUSH1 0x1F AND DUP3 ADD SWAP2 JUMPDEST POP POP POP POP POP SWAP1 POP PUSH2 0x10F9 DUP6 DUP3 PUSH2 0x117A JUMP JUMPDEST ISZERO PUSH2 0x110D JUMPI DUP3 DUP1 PUSH2 0x1109 SWAP1 PUSH2 0x1988 JUMP JUMPDEST SWAP4 POP POP JUMPDEST POP DUP1 DUP1 PUSH2 0x1119 SWAP1 PUSH2 0x1988 JUMP JUMPDEST SWAP2 POP POP PUSH2 0x1037 JUMP JUMPDEST POP DUP1 SWAP2 POP POP SWAP2 SWAP1 POP JUMP JUMPDEST PUSH1 0x0 DUP2 PUSH1 0x1 NUMBER PUSH2 0x113B SWAP2 SWAP1 PUSH2 0x1F25 JUMP JUMPDEST BLOCKHASH TIMESTAMP CALLER PUSH1 0x40 MLOAD PUSH1 0x20 ADD PUSH2 0x1150 SWAP4 SWAP3 SWAP2 SWAP1 PUSH2 0x201F JUMP JUMPDEST PUSH1 0x40 MLOAD PUSH1 0x20 DUP2 DUP4 SUB SUB DUP2 MSTORE SWAP1 PUSH1 0x40 MSTORE DUP1 MLOAD SWAP1 PUSH1 0x20 ADD KECCAK256 PUSH1 0x0 SHR PUSH2 0x1173 SWAP2 SWAP1 PUSH2 0x208B JUMP JUMPDEST SWAP1 POP SWAP2 SWAP1 POP JUMP JUMPDEST PUSH1 0x0 DUP3 PUSH1 0x0 ADD PUSH1 0x1 SWAP1 SLOAD SWAP1 PUSH2 0x100 EXP SWAP1 DIV PUSH1 0xFF AND PUSH1 0xFF AND DUP3 MLOAD EQ PUSH2 0x11A1 JUMPI PUSH1 0x0 SWAP1 POP PUSH2 0x1363 JUMP JUMPDEST PUSH1 0x0 JUMPDEST DUP4 PUSH1 0x0 ADD PUSH1 0x1 SWAP1 SLOAD SWAP1 PUSH2 0x100 EXP SWAP1 DIV PUSH1 0xFF AND PUSH1 0xFF AND DUP2 LT ISZERO PUSH2 0x135D JUMPI PUSH1 0x0 DUP4 DUP3 DUP2 MLOAD DUP2 LT PUSH2 0x11D5 JUMPI PUSH2 0x11D4 PUSH2 0x17B8 JUMP JUMPDEST JUMPDEST PUSH1 0x20 ADD ADD MLOAD PUSH1 0xF8 SHR PUSH1 0xF8 SHL SWAP1 POP PUSH1 0x0 DUP6 PUSH1 0x1 ADD DUP4 DUP2 SLOAD PUSH2 0x11F4 SWAP1 PUSH2 0x169E JUMP JUMPDEST DUP2 LT PUSH2 0x1203 JUMPI PUSH2 0x1202 PUSH2 0x17B8 JUMP JUMPDEST JUMPDEST DUP2 SLOAD PUSH1 0x1 AND ISZERO PUSH2 0x1222 JUMPI SWAP1 PUSH1 0x0 MSTORE PUSH1 0x20 PUSH1 0x0 KECCAK256 SWAP1 PUSH1 0x20 SWAP2 DUP3 DUP3 DIV ADD SWAP2 SWAP1 MOD JUMPDEST SWAP1 SLOAD SWAP1 BYTE PUSH32 0x100000000000000000000000000000000000000000000000000000000000000 MUL SWAP1 POP PUSH2 0x1254 DUP7 DUP4 PUSH2 0x1369 JUMP JUMPDEST ISZERO PUSH2 0x1265 JUMPI PUSH1 0x0 SWAP4 POP POP POP POP PUSH2 0x1363 JUMP JUMPDEST PUSH32 0x5F00000000000000000000000000000000000000000000000000000000000000 PUSH31 0xFFFFFFFFFFFFFFFFFFFFFFFFFFFFFFFFFFFFFFFFFFFFFFFFFFFFFFFFFFFFFF NOT AND DUP2 PUSH31 0xFFFFFFFFFFFFFFFFFFFFFFFFFFFFFFFFFFFFFFFFFFFFFFFFFFFFFFFFFFFFFF NOT AND EQ PUSH2 0x132C JUMPI DUP1 PUSH31 0xFFFFFFFFFFFFFFFFFFFFFFFFFFFFFFFFFFFFFFFFFFFFFFFFFFFFFFFFFFFFFF NOT AND DUP3 PUSH31 0xFFFFFFFFFFFFFFFFFFFFFFFFFFFFFFFFFFFFFFFFFFFFFFFFFFFFFFFFFFFFFF NOT AND EQ PUSH2 0x1327 JUMPI PUSH1 0x0 SWAP4 POP POP POP POP PUSH2 0x1363 JUMP JUMPDEST PUSH2 0x1348 JUMP JUMPDEST PUSH2 0x1336 DUP7 DUP4 PUSH2 0xE72 JUMP JUMPDEST ISZERO PUSH2 0x1347 JUMPI PUSH1 0x0 SWAP4 POP POP POP POP PUSH2 0x1363 JUMP JUMPDEST JUMPDEST POP POP DUP1 DUP1 PUSH2 0x1355 SWAP1 PUSH2 0x1988 JUMP JUMPDEST SWAP2 POP POP PUSH2 0x11A4 JUMP JUMPDEST POP PUSH1 0x1 SWAP1 POP JUMPDEST SWAP3 SWAP2 POP POP JUMP JUMPDEST PUSH1 0x0 DUP1 DUP3 PUSH1 0xF8 SHR SWAP1 POP PUSH1 0x61 DUP2 PUSH1 0xFF AND LT DUP1 PUSH2 0x1387 JUMPI POP PUSH1 0x7A DUP2 PUSH1 0xFF AND GT JUMPDEST ISZERO PUSH2 0x1396 JUMPI PUSH1 0x0 SWAP2 POP POP PUSH2 0x13DA JUMP JUMPDEST PUSH1 0x0 PUSH1 0x61 DUP3 PUSH2 0x13A5 SWAP2 SWAP1 PUSH2 0x18DD JUMP JUMPDEST SWAP1 POP PUSH1 0x0 DUP2 PUSH1 0xFF AND PUSH1 0x1 PUSH4 0xFFFFFFFF AND SWAP1 SHL DUP7 PUSH1 0x2 ADD PUSH1 0x8 SWAP1 SLOAD SWAP1 PUSH2 0x100 EXP SWAP1 DIV PUSH4 0xFFFFFFFF AND AND PUSH4 0xFFFFFFFF AND EQ ISZERO SWAP3 POP POP POP JUMPDEST SWAP3 SWAP2 POP POP JUMP JUMPDEST PUSH32 0x4E487B7100000000000000000000000000000000000000000000000000000000 PUSH1 0x0 MSTORE PUSH1 0x21 PUSH1 0x4 MSTORE PUSH1 0x24 PUSH1 0x0 REVERT JUMPDEST PUSH1 0x4 DUP2 LT PUSH2 0x1420 JUMPI PUSH2 0x141F PUSH2 0x13E0 JUMP JUMPDEST JUMPDEST POP JUMP JUMPDEST PUSH1 0x0 DUP2 SWAP1 POP PUSH2 0x1431 DUP3 PUSH2 0x140F JUMP JUMPDEST SWAP2 SWAP1 POP JUMP JUMPDEST PUSH1 0x0 PUSH2 0x1441 DUP3 PUSH2 0x1423 JUMP JUMPDEST SWAP1 POP SWAP2 SWAP1 POP JUMP JUMPDEST PUSH2 0x1451 DUP2 PUSH2 0x1436 JUMP JUMPDEST DUP3 MSTORE POP POP JUMP JUMPDEST PUSH1 0x0 PUSH1 0xFF DUP3 AND SWAP1 POP SWAP2 SWAP1 POP JUMP JUMPDEST PUSH2 0x146D DUP2 PUSH2 0x1457 JUMP JUMPDEST DUP3 MSTORE POP POP JUMP JUMPDEST PUSH1 0x0 DUP2 MLOAD SWAP1 POP SWAP2 SWAP1 POP JUMP JUMPDEST PUSH1 0x0 DUP3 DUP3 MSTORE PUSH1 0x20 DUP3 ADD SWAP1 POP SWAP3 SWAP2 POP POP JUMP JUMPDEST PUSH1 0x0 JUMPDEST DUP4 DUP2 LT ISZERO PUSH2 0x14AD JUMPI DUP1 DUP3 ADD MLOAD DUP2 DUP5 ADD MSTORE PUSH1 0x20 DUP2 ADD SWAP1 POP PUSH2 0x1492 JUMP JUMPDEST PUSH1 0x0 DUP5 DUP5 ADD MSTORE POP POP POP POP JUMP JUMPDEST PUSH1 0x0 PUSH1 0x1F NOT PUSH1 0x1F DUP4 ADD AND SWAP1 POP SWAP2 SWAP1 POP JUMP JUMPDEST PUSH1 0x0 PUSH2 0x14D5 DUP3 PUSH2 0x1473 JUMP JUMPDEST PUSH2 0x14DF DUP2 DUP6 PUSH2 0x147E JUMP JUMPDEST SWAP4 POP PUSH2 0x14EF DUP2 DUP6 PUSH1 0x20 DUP7 ADD PUSH2 0x148F JUMP JUMPDEST PUSH2 0x14F8 DUP2 PUSH2 0x14B9 JUMP JUMPDEST DUP5 ADD SWAP2 POP POP SWAP3 SWAP2 POP POP JUMP JUMPDEST PUSH1 0x0 PUSH4 0xFFFFFFFF DUP3 AND SWAP1 POP SWAP2 SWAP1 POP JUMP JUMPDEST PUSH2 0x151C DUP2 PUSH2 0x1503 JUMP JUMPDEST DUP3 MSTORE POP POP JUMP JUMPDEST PUSH1 0x0 PUSH1 0xE0 DUP3 ADD SWAP1 POP PUSH2 0x1537 PUSH1 0x0 DUP4 ADD DUP11 PUSH2 0x1448 JUMP JUMPDEST PUSH2 0x1544 PUSH1 0x20 DUP4 ADD DUP10 PUSH2 0x1464 JUMP JUMPDEST PUSH2 0x1551 PUSH1 0x40 DUP4 ADD DUP9 PUSH2 0x1464 JUMP JUMPDEST DUP2 DUP2 SUB PUSH1 0x60 DUP4 ADD MSTORE PUSH2 0x1563 DUP2 DUP8 PUSH2 0x14CA JUMP JUMPDEST SWAP1 POP PUSH2 0x1572 PUSH1 0x80 DUP4 ADD DUP7 PUSH2 0x1513 JUMP JUMPDEST PUSH2 0x157F PUSH1 0xA0 DUP4 ADD DUP6 PUSH2 0x1513 JUMP JUMPDEST PUSH2 0x158C PUSH1 0xC0 DUP4 ADD DUP5 PUSH2 0x1513 JUMP JUMPDEST SWAP9 SWAP8 POP POP POP POP POP POP POP POP JUMP JUMPDEST PUSH1 0x0 PUSH1 0x20 DUP3 ADD SWAP1 POP PUSH2 0x15AD PUSH1 0x0 DUP4 ADD DUP5 PUSH2 0x1464 JUMP JUMPDEST SWAP3 SWAP2 POP POP JUMP JUMPDEST PUSH1 0x0 DUP1 REVERT JUMPDEST PUSH1 0x0 DUP1 REVERT JUMPDEST PUSH1 0x0 DUP1 REVERT JUMPDEST PUSH1 0x0 DUP1 REVERT JUMPDEST PUSH1 0x0 DUP1 REVERT JUMPDEST PUSH1 0x0 DUP1 DUP4 PUSH1 0x1F DUP5 ADD SLT PUSH2 0x15E2 JUMPI PUSH2 0x15E1 PUSH2 0x15BD JUMP JUMPDEST JUMPDEST DUP3 CALLDATALOAD SWAP1 POP PUSH8 0xFFFFFFFFFFFFFFFF DUP2 GT ISZERO PUSH2 0x15FF JUMPI PUSH2 0x15FE PUSH2 0x15C2 JUMP JUMPDEST JUMPDEST PUSH1 0x20 DUP4 ADD SWAP2 POP DUP4 PUSH1 0x1 DUP3 MUL DUP4 ADD GT ISZERO PUSH2 0x161B JUMPI PUSH2 0x161A PUSH2 0x15C7 JUMP JUMPDEST JUMPDEST SWAP3 POP SWAP3 SWAP1 POP JUMP JUMPDEST PUSH1 0x0 DUP1 PUSH1 0x20 DUP4 DUP6 SUB SLT ISZERO PUSH2 0x1639 JUMPI PUSH2 0x1638 PUSH2 0x15B3 JUMP JUMPDEST JUMPDEST PUSH1 0x0 DUP4 ADD CALLDATALOAD PUSH8 0xFFFFFFFFFFFFFFFF DUP2 GT ISZERO PUSH2 0x1657 JUMPI PUSH2 0x1656 PUSH2 0x15B8 JUMP JUMPDEST JUMPDEST PUSH2 0x1663 DUP6 DUP3 DUP7 ADD PUSH2 0x15CC JUMP JUMPDEST SWAP3 POP SWAP3 POP POP SWAP3 POP SWAP3 SWAP1 POP JUMP JUMPDEST PUSH32 0x4E487B7100000000000000000000000000000000000000000000000000000000 PUSH1 0x0 MSTORE PUSH1 0x22 PUSH1 0x4 MSTORE PUSH1 0x24 PUSH1 0x0 REVERT JUMPDEST PUSH1 0x0 PUSH1 0x2 DUP3 DIV SWAP1 POP PUSH1 0x1 DUP3 AND DUP1 PUSH2 0x16B6 JUMPI PUSH1 0x7F DUP3 AND SWAP2 POP JUMPDEST PUSH1 0x20 DUP3 LT DUP2 SUB PUSH2 0x16C9 JUMPI PUSH2 0x16C8 PUSH2 0x166F JUMP JUMPDEST JUMPDEST POP SWAP2 SWAP1 POP JUMP JUMPDEST PUSH1 0x0 DUP3 DUP3 MSTORE PUSH1 0x20 DUP3 ADD SWAP1 POP SWAP3 SWAP2 POP POP JUMP JUMPDEST PUSH32 0x6E6F206163746976652067616D65000000000000000000000000000000000000 PUSH1 0x0 DUP3 ADD MSTORE POP JUMP JUMPDEST PUSH1 0x0 PUSH2 0x1716 PUSH1 0xE DUP4 PUSH2 0x16CF JUMP JUMPDEST SWAP2 POP PUSH2 0x1721 DUP3 PUSH2 0x16E0 JUMP JUMPDEST PUSH1 0x20 DUP3 ADD SWAP1 POP SWAP2 SWAP1 POP JUMP JUMPDEST PUSH1 0x0 PUSH1 0x20 DUP3 ADD SWAP1 POP DUP2 DUP2 SUB PUSH1 0x0 DUP4 ADD MSTORE PUSH2 0x1745 DUP2 PUSH2 0x1709 JUMP JUMPDEST SWAP1 POP SWAP2 SWAP1 POP JUMP JUMPDEST PUSH32 0x656E7465722065786163746C79206F6E65206368617261637465720000000000 PUSH1 0x0 DUP3 ADD MSTORE POP JUMP JUMPDEST PUSH1 0x0 PUSH2 0x1782 PUSH1 0x1B DUP4 PUSH2 0x16CF JUMP JUMPDEST SWAP2 POP PUSH2 0x178D DUP3 PUSH2 0x174C JUMP JUMPDEST PUSH1 0x20 DUP3 ADD SWAP1 POP SWAP2 SWAP1 POP JUMP JUMPDEST PUSH1 0x0 PUSH1 0x20 DUP3 ADD SWAP1 POP DUP2 DUP2 SUB PUSH1 0x0 DUP4 ADD MSTORE PUSH2 0x17B1 DUP2 PUSH2 0x1775 JUMP JUMPDEST SWAP1 POP SWAP2 SWAP1 POP JUMP JUMPDEST PUSH32 0x4E487B7100000000000000000000000000000000000000000000000000000000 PUSH1 0x0 MSTORE PUSH1 0x32 PUSH1 0x4 MSTORE PUSH1 0x24 PUSH1 0x0 REVERT JUMPDEST PUSH32 0x4E487B7100000000000000000000000000000000000000000000000000000000 PUSH1 0x0 MSTORE PUSH1 0x11 PUSH1 0x4 MSTORE PUSH1 0x24 PUSH1 0x0 REVERT JUMPDEST PUSH1 0x0 PUSH2 0x1821 DUP3 PUSH2 0x1457 JUMP JUMPDEST SWAP2 POP PUSH2 0x182C DUP4 PUSH2 0x1457 JUMP JUMPDEST SWAP3 POP DUP3 DUP3 ADD SWAP1 POP PUSH1 0xFF DUP2 GT ISZERO PUSH2 0x1845 JUMPI PUSH2 0x1844 PUSH2 0x17E7 JUMP JUMPDEST JUMPDEST SWAP3 SWAP2 POP POP JUMP JUMPDEST PUSH32 0x696E707574206D75737420626520612073696E676C65206C657474657220612D PUSH1 0x0 DUP3 ADD MSTORE PUSH32 0x7A00000000000000000000000000000000000000000000000000000000000000 PUSH1 0x20 DUP3 ADD MSTORE POP JUMP JUMPDEST PUSH1 0x0 PUSH2 0x18A7 PUSH1 0x21 DUP4 PUSH2 0x16CF JUMP JUMPDEST SWAP2 POP PUSH2 0x18B2 DUP3 PUSH2 0x184B JUMP JUMPDEST PUSH1 0x40 DUP3 ADD SWAP1 POP SWAP2 SWAP1 POP JUMP JUMPDEST PUSH1 0x0 PUSH1 0x20 DUP3 ADD SWAP1 POP DUP2 DUP2 SUB PUSH1 0x0 DUP4 ADD MSTORE PUSH2 0x18D6 DUP2 PUSH2 0x189A JUMP JUMPDEST SWAP1 POP SWAP2 SWAP1 POP JUMP JUMPDEST PUSH1 0x0 PUSH2 0x18E8 DUP3 PUSH2 0x1457 JUMP JUMPDEST SWAP2 POP PUSH2 0x18F3 DUP4 PUSH2 0x1457 JUMP JUMPDEST SWAP3 POP DUP3 DUP3 SUB SWAP1 POP PUSH1 0xFF DUP2 GT ISZERO PUSH2 0x190C JUMPI PUSH2 0x190B PUSH2 0x17E7 JUMP JUMPDEST JUMPDEST SWAP3 SWAP2 POP POP JUMP JUMPDEST PUSH32 0x6C657474657220616C7265616479206775657373656400000000000000000000 PUSH1 0x0 DUP3 ADD MSTORE POP JUMP JUMPDEST PUSH1 0x0 PUSH2 0x1948 PUSH1 0x16 DUP4 PUSH2 0x16CF JUMP JUMPDEST SWAP2 POP PUSH2 0x1953 DUP3 PUSH2 0x1912 JUMP JUMPDEST PUSH1 0x20 DUP3 ADD SWAP1 POP SWAP2 SWAP1 POP JUMP JUMPDEST PUSH1 0x0 PUSH1 0x20 DUP3 ADD SWAP1 POP DUP2 DUP2 SUB PUSH1 0x0 DUP4 ADD MSTORE PUSH2 0x1977 DUP2 PUSH2 0x193B JUMP JUMPDEST SWAP1 POP SWAP2 SWAP1 POP JUMP JUMPDEST PUSH1 0x0 DUP2 SWAP1 POP SWAP2 SWAP1 POP JUMP JUMPDEST PUSH1 0x0 PUSH2 0x1993 DUP3 PUSH2 0x197E JUMP JUMPDEST SWAP2 POP PUSH32 0xFFFFFFFFFFFFFFFFFFFFFFFFFFFFFFFFFFFFFFFFFFFFFFFFFFFFFFFFFFFFFFFF DUP3 SUB PUSH2 0x19C5 JUMPI PUSH2 0x19C4 PUSH2 0x17E7 JUMP JUMPDEST JUMPDEST PUSH1 0x1 DUP3 ADD SWAP1 POP SWAP2 SWAP1 POP JUMP JUMPDEST PUSH1 0x0 PUSH32 0xFF00000000000000000000000000000000000000000000000000000000000000 DUP3 AND SWAP1 POP SWAP2 SWAP1 POP JUMP JUMPDEST PUSH2 0x1A05 DUP2 PUSH2 0x19D0 JUMP JUMPDEST DUP3 MSTORE POP POP JUMP JUMPDEST PUSH1 0x0 DUP2 ISZERO ISZERO SWAP1 POP SWAP2 SWAP1 POP JUMP JUMPDEST PUSH2 0x1A20 DUP2 PUSH2 0x1A0B JUMP JUMPDEST DUP3 MSTORE POP POP JUMP JUMPDEST PUSH1 0x0 DUP2 SWAP1 POP DUP2 PUSH1 0x0 MSTORE PUSH1 0x20 PUSH1 0x0 KECCAK256 SWAP1 POP SWAP2 SWAP1 POP JUMP JUMPDEST PUSH1 0x0 DUP2 SLOAD PUSH2 0x1A48 DUP2 PUSH2 0x169E JUMP JUMPDEST PUSH2 0x1A52 DUP2 DUP7 PUSH2 0x147E JUMP JUMPDEST SWAP5 POP PUSH1 0x1 DUP3 AND PUSH1 0x0 DUP2 EQ PUSH2 0x1A6D JUMPI PUSH1 0x1 DUP2 EQ PUSH2 0x1A83 JUMPI PUSH2 0x1AB6 JUMP JUMPDEST PUSH1 0xFF NOT DUP4 AND DUP7 MSTORE DUP2 ISZERO ISZERO PUSH1 0x20 MUL DUP7 ADD SWAP4 POP PUSH2 0x1AB6 JUMP JUMPDEST PUSH2 0x1A8C DUP6 PUSH2 0x1A26 JUMP JUMPDEST PUSH1 0x0 JUMPDEST DUP4 DUP2 LT ISZERO PUSH2 0x1AAE JUMPI DUP2 SLOAD DUP2 DUP10 ADD MSTORE PUSH1 0x1 DUP3 ADD SWAP2 POP PUSH1 0x20 DUP2 ADD SWAP1 POP PUSH2 0x1A8F JUMP JUMPDEST DUP1 DUP9 ADD SWAP6 POP POP POP JUMPDEST POP POP POP SWAP3 SWAP2 POP POP JUMP JUMPDEST PUSH1 0x0 PUSH1 0xA0 DUP3 ADD SWAP1 POP PUSH2 0x1AD4 PUSH1 0x0 DUP4 ADD DUP9 PUSH2 0x19FC JUMP JUMPDEST PUSH2 0x1AE1 PUSH1 0x20 DUP4 ADD DUP8 PUSH2 0x1A17 JUMP JUMPDEST DUP2 DUP2 SUB PUSH1 0x40 DUP4 ADD MSTORE PUSH2 0x1AF3 DUP2 DUP7 PUSH2 0x1A3B JUMP JUMPDEST SWAP1 POP PUSH2 0x1B02 PUSH1 0x60 DUP4 ADD DUP6 PUSH2 0x1464 JUMP JUMPDEST PUSH2 0x1B0F PUSH1 0x80 DUP4 ADD DUP5 PUSH2 0x1448 JUMP JUMPDEST SWAP7 SWAP6 POP POP POP POP POP POP JUMP JUMPDEST PUSH32 0x67616D6520616C72656164792061637469766500000000000000000000000000 PUSH1 0x0 DUP3 ADD MSTORE POP JUMP JUMPDEST PUSH1 0x0 PUSH2 0x1B4F PUSH1 0x13 DUP4 PUSH2 0x16CF JUMP JUMPDEST SWAP2 POP PUSH2 0x1B5A DUP3 PUSH2 0x1B19 JUMP JUMPDEST PUSH1 0x20 DUP3 ADD SWAP1 POP SWAP2 SWAP1 POP JUMP JUMPDEST PUSH1 0x0 PUSH1 0x20 DUP3 ADD SWAP1 POP DUP2 DUP2 SUB PUSH1 0x0 DUP4 ADD MSTORE PUSH2 0x1B7E DUP2 PUSH2 0x1B42 JUMP JUMPDEST SWAP1 POP SWAP2 SWAP1 POP JUMP JUMPDEST PUSH32 0x4E487B7100000000000000000000000000000000000000000000000000000000 PUSH1 0x0 MSTORE PUSH1 0x41 PUSH1 0x4 MSTORE PUSH1 0x24 PUSH1 0x0 REVERT JUMPDEST PUSH1 0x0 PUSH1 0x20 PUSH1 0x1F DUP4 ADD DIV SWAP1 POP SWAP2 SWAP1 POP JUMP JUMPDEST PUSH1 0x0 DUP3 DUP3 SHL SWAP1 POP SWAP3 SWAP2 POP POP JUMP JUMPDEST PUSH1 0x0 PUSH1 0x8 DUP4 MUL PUSH2 0x1C01 PUSH32 0xFFFFFFFFFFFFFFFFFFFFFFFFFFFFFFFFFFFFFFFFFFFFFFFFFFFFFFFFFFFFFFFF DUP3 PUSH2 0x1BC4 JUMP JUMPDEST PUSH2 0x1C0B DUP7 DUP4 PUSH2 0x1BC4 JUMP JUMPDEST SWAP6 POP DUP1 NOT DUP5 AND SWAP4 POP DUP1 DUP7 AND DUP5 OR SWAP3 POP POP POP SWAP4 SWAP3 POP POP POP JUMP JUMPDEST PUSH1 0x0 DUP2 SWAP1 POP SWAP2 SWAP1 POP JUMP JUMPDEST PUSH1 0x0 PUSH2 0x1C48 PUSH2 0x1C43 PUSH2 0x1C3E DUP5 PUSH2 0x197E JUMP JUMPDEST PUSH2 0x1C23 JUMP JUMPDEST PUSH2 0x197E JUMP JUMPDEST SWAP1 POP SWAP2 SWAP1 POP JUMP JUMPDEST PUSH1 0x0 DUP2 SWAP1 POP SWAP2 SWAP1 POP JUMP JUMPDEST PUSH2 0x1C62 DUP4 PUSH2 0x1C2D JUMP JUMPDEST PUSH2 0x1C76 PUSH2 0x1C6E DUP3 PUSH2 0x1C4F JUMP JUMPDEST DUP5 DUP5 SLOAD PUSH2 0x1BD1 JUMP JUMPDEST DUP3 SSTORE POP POP POP POP JUMP JUMPDEST PUSH1 0x0 SWAP1 JUMP JUMPDEST PUSH2 0x1C8B PUSH2 0x1C7E JUMP JUMPDEST PUSH2 0x1C96 DUP2 DUP5 DUP5 PUSH2 0x1C59 JUMP JUMPDEST POP POP POP JUMP JUMPDEST JUMPDEST DUP2 DUP2 LT ISZERO PUSH2 0x1CBA JUMPI PUSH2 0x1CAF PUSH1 0x0 DUP3 PUSH2 0x1C83 JUMP JUMPDEST PUSH1 0x1 DUP2 ADD SWAP1 POP PUSH2 0x1C9C JUMP JUMPDEST POP POP JUMP JUMPDEST PUSH1 0x1F DUP3 GT ISZERO PUSH2 0x1CFF JUMPI PUSH2 0x1CD0 DUP2 PUSH2 0x1A26 JUMP JUMPDEST PUSH2 0x1CD9 DUP5 PUSH2 0x1BB4 JUMP JUMPDEST DUP2 ADD PUSH1 0x20 DUP6 LT ISZERO PUSH2 0x1CE8 JUMPI DUP2 SWAP1 POP JUMPDEST PUSH2 0x1CFC PUSH2 0x1CF4 DUP6 PUSH2 0x1BB4 JUMP JUMPDEST DUP4 ADD DUP3 PUSH2 0x1C9B JUMP JUMPDEST POP POP JUMPDEST POP POP POP JUMP JUMPDEST PUSH1 0x0 DUP3 DUP3 SHR SWAP1 POP SWAP3 SWAP2 POP POP JUMP JUMPDEST PUSH1 0x0 PUSH2 0x1D22 PUSH1 0x0 NOT DUP5 PUSH1 0x8 MUL PUSH2 0x1D04 JUMP JUMPDEST NOT DUP1 DUP4 AND SWAP2 POP POP SWAP3 SWAP2 POP POP JUMP JUMPDEST PUSH1 0x0 PUSH2 0x1D3B DUP4 DUP4 PUSH2 0x1D11 JUMP JUMPDEST SWAP2 POP DUP3 PUSH1 0x2 MUL DUP3 OR SWAP1 POP SWAP3 SWAP2 POP POP JUMP JUMPDEST PUSH2 0x1D54 DUP3 PUSH2 0x1473 JUMP JUMPDEST PUSH8 0xFFFFFFFFFFFFFFFF DUP2 GT ISZERO PUSH2 0x1D6D JUMPI PUSH2 0x1D6C PUSH2 0x1B85 JUMP JUMPDEST JUMPDEST PUSH2 0x1D77 DUP3 SLOAD PUSH2 0x169E JUMP JUMPDEST PUSH2 0x1D82 DUP3 DUP3 DUP6 PUSH2 0x1CBE JUMP JUMPDEST PUSH1 0x0 PUSH1 0x20 SWAP1 POP PUSH1 0x1F DUP4 GT PUSH1 0x1 DUP2 EQ PUSH2 0x1DB5 JUMPI PUSH1 0x0 DUP5 ISZERO PUSH2 0x1DA3 JUMPI DUP3 DUP8 ADD MLOAD SWAP1 POP JUMPDEST PUSH2 0x1DAD DUP6 DUP3 PUSH2 0x1D2F JUMP JUMPDEST DUP7 SSTORE POP PUSH2 0x1E15 JUMP JUMPDEST PUSH1 0x1F NOT DUP5 AND PUSH2 0x1DC3 DUP7 PUSH2 0x1A26 JUMP JUMPDEST PUSH1 0x0 JUMPDEST DUP3 DUP2 LT ISZERO PUSH2 0x1DEB JUMPI DUP5 DUP10 ADD MLOAD DUP3 SSTORE PUSH1 0x1 DUP3 ADD SWAP2 POP PUSH1 0x20 DUP6 ADD SWAP5 POP PUSH1 0x20 DUP2 ADD SWAP1 POP PUSH2 0x1DC6 JUMP JUMPDEST DUP7 DUP4 LT ISZERO PUSH2 0x1E08 JUMPI DUP5 DUP10 ADD MLOAD PUSH2 0x1E04 PUSH1 0x1F DUP10 AND DUP3 PUSH2 0x1D11 JUMP JUMPDEST DUP4 SSTORE POP JUMPDEST PUSH1 0x1 PUSH1 0x2 DUP9 MUL ADD DUP9 SSTORE POP POP POP JUMPDEST POP POP POP POP POP POP JUMP JUMPDEST PUSH1 0x0 PUSH1 0x40 DUP3 ADD SWAP1 POP PUSH2 0x1E32 PUSH1 0x0 DUP4 ADD DUP6 PUSH2 0x1464 JUMP JUMPDEST DUP2 DUP2 SUB PUSH1 0x20 DUP4 ADD MSTORE PUSH2 0x1E44 DUP2 DUP5 PUSH2 0x1A3B JUMP JUMPDEST SWAP1 POP SWAP4 SWAP3 POP POP POP JUMP JUMPDEST PUSH32 0x6E6F2076616C696420776F726473000000000000000000000000000000000000 PUSH1 0x0 DUP3 ADD MSTORE POP JUMP JUMPDEST PUSH1 0x0 PUSH2 0x1E83 PUSH1 0xE DUP4 PUSH2 0x16CF JUMP JUMPDEST SWAP2 POP PUSH2 0x1E8E DUP3 PUSH2 0x1E4D JUMP JUMPDEST PUSH1 0x20 DUP3 ADD SWAP1 POP SWAP2 SWAP1 POP JUMP JUMPDEST PUSH1 0x0 PUSH1 0x20 DUP3 ADD SWAP1 POP DUP2 DUP2 SUB PUSH1 0x0 DUP4 ADD MSTORE PUSH2 0x1EB2 DUP2 PUSH2 0x1E76 JUMP JUMPDEST SWAP1 POP SWAP2 SWAP1 POP JUMP JUMPDEST PUSH32 0x63616E6469646174652073656C656374696F6E206661696C6564000000000000 PUSH1 0x0 DUP3 ADD MSTORE POP JUMP JUMPDEST PUSH1 0x0 PUSH2 0x1EEF PUSH1 0x1A DUP4 PUSH2 0x16CF JUMP JUMPDEST SWAP2 POP PUSH2 0x1EFA DUP3 PUSH2 0x1EB9 JUMP JUMPDEST PUSH1 0x20 DUP3 ADD SWAP1 POP SWAP2 SWAP1 POP JUMP JUMPDEST PUSH1 0x0 PUSH1 0x20 DUP3 ADD SWAP1 POP DUP2 DUP2 SUB PUSH1 0x0 DUP4 ADD MSTORE PUSH2 0x1F1E DUP2 PUSH2 0x1EE2 JUMP JUMPDEST SWAP1 POP SWAP2 SWAP1 POP JUMP JUMPDEST PUSH1 0x0 PUSH2 0x1F30 DUP3 PUSH2 0x197E JUMP JUMPDEST SWAP2 POP PUSH2 0x1F3B DUP4 PUSH2 0x197E JUMP JUMPDEST SWAP3 POP DUP3 DUP3 SUB SWAP1 POP DUP2 DUP2 GT ISZERO PUSH2 0x1F53 JUMPI PUSH2 0x1F52 PUSH2 0x17E7 JUMP JUMPDEST JUMPDEST SWAP3 SWAP2 POP POP JUMP JUMPDEST PUSH1 0x0 DUP2 SWAP1 POP SWAP2 SWAP1 POP JUMP JUMPDEST PUSH1 0x0 DUP2 SWAP1 POP SWAP2 SWAP1 POP JUMP JUMPDEST PUSH2 0x1F7E PUSH2 0x1F79 DUP3 PUSH2 0x1F59 JUMP JUMPDEST PUSH2 0x1F63 JUMP JUMPDEST DUP3 MSTORE POP POP JUMP JUMPDEST PUSH1 0x0 DUP2 SWAP1 POP SWAP2 SWAP1 POP JUMP JUMPDEST PUSH2 0x1F9F PUSH2 0x1F9A DUP3 PUSH2 0x197E JUMP JUMPDEST PUSH2 0x1F84 JUMP JUMPDEST DUP3 MSTORE POP POP JUMP JUMPDEST PUSH1 0x0 PUSH20 0xFFFFFFFFFFFFFFFFFFFFFFFFFFFFFFFFFFFFFFFF DUP3 AND SWAP1 POP SWAP2 SWAP1 POP JUMP JUMPDEST PUSH1 0x0 PUSH2 0x1FD0 DUP3 PUSH2 0x1FA5 JUMP JUMPDEST SWAP1 POP SWAP2 SWAP1 POP JUMP JUMPDEST PUSH1 0x0 DUP2 PUSH1 0x60 SHL SWAP1 POP SWAP2 SWAP1 POP JUMP JUMPDEST PUSH1 0x0 PUSH2 0x1FEF DUP3 PUSH2 0x1FD7 JUMP JUMPDEST SWAP1 POP SWAP2 SWAP1 POP JUMP JUMPDEST PUSH1 0x0 PUSH2 0x2001 DUP3 PUSH2 0x1FE4 JUMP JUMPDEST SWAP1 POP SWAP2 SWAP1 POP JUMP JUMPDEST PUSH2 0x2019 PUSH2 0x2014 DUP3 PUSH2 0x1FC5 JUMP JUMPDEST PUSH2 0x1FF6 JUMP JUMPDEST DUP3 MSTORE POP POP JUMP JUMPDEST PUSH1 0x0 PUSH2 0x202B DUP3 DUP7 PUSH2 0x1F6D JUMP JUMPDEST PUSH1 0x20 DUP3 ADD SWAP2 POP PUSH2 0x203B DUP3 DUP6 PUSH2 0x1F8E JUMP JUMPDEST PUSH1 0x20 DUP3 ADD SWAP2 POP PUSH2 0x204B DUP3 DUP5 PUSH2 0x2008 JUMP JUMPDEST PUSH1 0x14 DUP3 ADD SWAP2 POP DUP2 SWAP1 POP SWAP5 SWAP4 POP POP POP POP JUMP JUMPDEST PUSH32 0x4E487B7100000000000000000000000000000000000000000000000000000000 PUSH1 0x0 MSTORE PUSH1 0x12 PUSH1 0x4 MSTORE PUSH1 0x24 PUSH1 0x0 REVERT JUMPDEST PUSH1 0x0 PUSH2 0x2096 DUP3 PUSH2 0x197E JUMP JUMPDEST SWAP2 POP PUSH2 0x20A1 DUP4 PUSH2 0x197E JUMP JUMPDEST SWAP3 POP DUP3 PUSH2 0x20B1 JUMPI PUSH2 0x20B0 PUSH2 0x205C JUMP JUMPDEST JUMPDEST DUP3 DUP3 MOD SWAP1 POP SWAP3 SWAP2 POP POP JUMP JUMPDEST PUSH1 0x0 PUSH2 0x20C7 DUP3 PUSH2 0x197E JUMP JUMPDEST SWAP2 POP PUSH2 0x20D2 DUP4 PUSH2 0x197E JUMP JUMPDEST SWAP3 POP DUP3 DUP3 ADD SWAP1 POP DUP1 DUP3 GT ISZERO PUSH2 0x20EA JUMPI PUSH2 0x20E9 PUSH2 0x17E7 JUMP JUMPDEST JUMPDEST SWAP3 SWAP2 POP POP JUMP INVALID LOG2 PUSH5 0x6970667358 0x22 SLT KECCAK256 SWAP10 0x2A 0xCC RETURNDATASIZE SWAP14 0x2A 0xE7 0xFB 0x4B 0xD1 CREATE SSTORE SWAP10 0xAD PUSH28 0xE896289EDA16FF7FDDB530C5DE512E6B0164736F6C63430008130033 "
				},
				"gasEstimates": {
					"creation": {
						"codeDepositCost": "1697200",
						"executionCost": "infinite",
						"totalCost": "infinite"
					},
					"external": {
						"MAX_LEN()": "335",
						"MAX_WRONG_GUESSES()": "423",
						"MIN_LEN()": "379",
						"getMyGame()": "infinite",
						"guessLetter(string)": "infinite",
						"startGame()": "infinite"
					},
					"internal": {
						"_contains(bytes memory,bytes1)": "infinite",
						"_countCandidates(struct Hangman.Game storage pointer)": "infinite",
						"_hasUnrevealed(bytes memory)": "infinite",
						"_isCorrectLetter(struct Hangman.Game storage pointer,bytes1)": "infinite",
						"_isWrongLetter(struct Hangman.Game storage pointer,bytes1)": "infinite",
						"_matchesConstraints(struct Hangman.Game storage pointer,bytes memory)": "infinite",
						"_pickRandomCandidate(struct Hangman.Game storage pointer)": "infinite",
						"_rand(uint256)": "infinite",
						"_randomLength()": "infinite"
					}
				},
				"methodIdentifiers": {
					"MAX_LEN()": "5d0797c0",
					"MAX_WRONG_GUESSES()": "f77ea683",
					"MIN_LEN()": "81196481",
					"getMyGame()": "02056c8b",
					"guessLetter(string)": "662a6559",
					"startGame()": "d65ab5f2"
				}
			},
			"storageLayout": {
				"storage": [
					{
						"astId": 27,
						"contract": "contracts/Hangman.sol:Hangman",
						"label": "games",
						"offset": 0,
						"slot": "0",
						"type": "t_mapping(t_address,t_struct(Game)22_storage)"
					},
					{
						"astId": 82,
						"contract": "contracts/Hangman.sol:Hangman",
						"label": "DICT",
						"offset": 0,
						"slot": "1",
						"type": "t_array(t_string_storage)dyn_storage"
					}
				],
				"types": {
					"t_address": {
						"encoding": "inplace",
						"label": "address",
						"numberOfBytes": "20"
					},
					"t_array(t_string_storage)dyn_storage": {
						"base": "t_string_storage",
						"encoding": "dynamic_array",
						"label": "string[]",
						"numberOfBytes": "32"
					},
					"t_bytes_storage": {
						"encoding": "bytes",
						"label": "bytes",
						"numberOfBytes": "32"
					},
					"t_enum(Status)6": {
						"encoding": "inplace",
						"label": "enum Hangman.Status",
						"numberOfBytes": "1"
					},
					"t_mapping(t_address,t_struct(Game)22_storage)": {
						"encoding": "mapping",
						"key": "t_address",
						"label": "mapping(address => struct Hangman.Game)",
						"numberOfBytes": "32",
						"value": "t_struct(Game)22_storage"
					},
					"t_string_storage": {
						"encoding": "bytes",
						"label": "string",
						"numberOfBytes": "32"
					},
					"t_struct(Game)22_storage": {
						"encoding": "inplace",
						"label": "struct Hangman.Game",
						"members": [
							{
								"astId": 9,
								"contract": "contracts/Hangman.sol:Hangman",
								"label": "status",
								"offset": 0,
								"slot": "0",
								"type": "t_enum(Status)6"
							},
							{
								"astId": 11,
								"contract": "contracts/Hangman.sol:Hangman",
								"label": "length",
								"offset": 1,
								"slot": "0",
								"type": "t_uint8"
							},
							{
								"astId": 13,
								"contract": "contracts/Hangman.sol:Hangman",
								"label": "wrongGuesses",
								"offset": 2,
								"slot": "0",
								"type": "t_uint8"
							},
							{
								"astId": 15,
								"contract": "contracts/Hangman.sol:Hangman",
								"label": "mask",
								"offset": 0,
								"slot": "1",
								"type": "t_bytes_storage"
							},
							{
								"astId": 17,
								"contract": "contracts/Hangman.sol:Hangman",
								"label": "guessedMask",
								"offset": 0,
								"slot": "2",
								"type": "t_uint32"
							},
							{
								"astId": 19,
								"contract": "contracts/Hangman.sol:Hangman",
								"label": "correctMask",
								"offset": 4,
								"slot": "2",
								"type": "t_uint32"
							},
							{
								"astId": 21,
								"contract": "contracts/Hangman.sol:Hangman",
								"label": "wrongMask",
								"offset": 8,
								"slot": "2",
								"type": "t_uint32"
							}
						],
						"numberOfBytes": "96"
					},
					"t_uint32": {
						"encoding": "inplace",
						"label": "uint32",
						"numberOfBytes": "4"
					},
					"t_uint8": {
						"encoding": "inplace",
						"label": "uint8",
						"numberOfBytes": "1"
					}
				}
			},
			"userdoc": {
				"kind": "user",
				"methods": {},
				"version": 1
			}
		}
	}
}