{
	"contracts/Hangman.sol": {
		"Hangman": {
			"abi": [
				{
					"anonymous": false,
					"inputs": [
						{
							"indexed": true,
							"internalType": "address",
							"name": "player",
							"type": "address"
						},
						{
							"indexed": false,
							"internalType": "uint8",
							"name": "length",
							"type": "uint8"
						},
						{
							"indexed": false,
							"internalType": "bytes",
							"name": "mask",
							"type": "bytes"
						}
					],
					"name": "GameStarted",
					"type": "event"
				},
				{
					"anonymous": false,
					"inputs": [
						{
							"indexed": true,
							"internalType": "address",
							"name": "player",
							"type": "address"
						},
						{
							"indexed": false,
							"internalType": "bytes1",
							"name": "letter",
							"type": "bytes1"
						},
						{
							"indexed": false,
							"internalType": "bool",
							"name": "correct",
							"type": "bool"
						},
						{
							"indexed": false,
							"internalType": "bytes",
							"name": "mask",
							"type": "bytes"
						},
						{
							"indexed": false,
							"internalType": "uint8",
							"name": "wrongGuesses",
							"type": "uint8"
						},
						{
							"indexed": false,
							"internalType": "enum Hangman.Status",
							"name": "status",
							"type": "uint8"
						}
					],
					"name": "LetterGuessed",
					"type": "event"
				},
				{
					"inputs": [],
					"name": "MAX_LEN",
					"outputs": [
						{
							"internalType": "uint8",
							"name": "",
							"type": "uint8"
						}
					],
					"stateMutability": "view",
					"type": "function"
				},
				{
					"inputs": [],
					"name": "MAX_WRONG_GUESSES",
					"outputs": [
						{
							"internalType": "uint8",
							"name": "",
							"type": "uint8"
						}
					],
					"stateMutability": "view",
					"type": "function"
				},
				{
					"inputs": [],
					"name": "MIN_LEN",
					"outputs": [
						{
							"internalType": "uint8",
							"name": "",
							"type": "uint8"
						}
					],
					"stateMutability": "view",
					"type": "function"
				},
				{
					"inputs": [],
					"name": "getMyGame",
					"outputs": [
						{
							"internalType": "enum Hangman.Status",
							"name": "status",
							"type": "uint8"
						},
						{
							"internalType": "uint8",
							"name": "length",
							"type": "uint8"
						},
						{
							"internalType": "uint8",
							"name": "wrongGuesses",
							"type": "uint8"
						},
						{
							"internalType": "bytes",
							"name": "mask",
							"type": "bytes"
						},
						{
							"internalType": "uint32",
							"name": "guessedMask",
							"type": "uint32"
						},
						{
							"internalType": "uint32",
							"name": "correctMask",
							"type": "uint32"
						},
						{
							"internalType": "uint32",
							"name": "wrongMask",
							"type": "uint32"
						}
					],
					"stateMutability": "view",
					"type": "function"
				},
				{
					"inputs": [
						{
							"internalType": "bytes1",
							"name": "letter",
							"type": "bytes1"
						}
					],
					"name": "guessLetter",
					"outputs": [],
					"stateMutability": "nonpayable",
					"type": "function"
				},
				{
					"inputs": [],
					"name": "startGame",
					"outputs": [],
					"stateMutability": "nonpayable",
					"type": "function"
				}
			],
			"devdoc": {
				"kind": "dev",
				"methods": {},
				"version": 1
			},
			"evm": {
				"assembly": "    /* \"contracts/Hangman.sol\":61:7043  contract Hangman {... */\n  mstore(0x40, 0x80)\n    /* \"contracts/Hangman.sol\":686:1795  string[] private DICT = [... */\n  mload(0x40)\n  dup1\n  0x0540\n  add\n  0x40\n  mstore\n  dup1\n  mload(0x40)\n  dup1\n  0x40\n  add\n  0x40\n  mstore\n  dup1\n  0x04\n  dup2\n  mstore\n  0x20\n  add\n  0x67616d6500000000000000000000000000000000000000000000000000000000\n  dup2\n  mstore\n  pop\n  dup2\n  mstore\n  0x20\n  add\n  mload(0x40)\n  dup1\n  0x40\n  add\n  0x40\n  mstore\n  dup1\n  0x04\n  dup2\n  mstore\n  0x20\n  add\n  0x6e6f646500000000000000000000000000000000000000000000000000000000\n  dup2\n  mstore\n  pop\n  dup2\n  mstore\n  0x20\n  add\n  mload(0x40)\n  dup1\n  0x40\n  add\n  0x40\n  mstore\n  dup1\n  0x04\n  dup2\n  mstore\n  0x20\n  add\n  0x6861736800000000000000000000000000000000000000000000000000000000\n  dup2\n  mstore\n  pop\n  dup2\n  mstore\n  0x20\n  add\n  mload(0x40)\n  dup1\n  0x40\n  add\n  0x40\n  mstore\n  dup1\n  0x04\n  dup2\n  mstore\n  0x20\n  add\n  0x6279746500000000000000000000000000000000000000000000000000000000\n  dup2\n  mstore\n  pop\n  dup2\n  mstore\n  0x20\n  add\n  mload(0x40)\n  dup1\n  0x40\n  add\n  0x40\n  mstore\n  dup1\n  0x04\n  dup2\n  mstore\n  0x20\n  add\n  0x6d61736b00000000000000000000000000000000000000000000000000000000\n  dup2\n  mstore\n  pop\n  dup2\n  mstore\n  0x20\n  add\n  mload(0x40)\n  dup1\n  0x40\n  add\n  0x40\n  mstore\n  dup1\n  0x04\n  dup2\n  mstore\n  0x20\n  add\n  0x636f646500000000000000000000000000000000000000000000000000000000\n  dup2\n  mstore\n  pop\n  dup2\n  mstore\n  0x20\n  add\n  mload(0x40)\n  dup1\n  0x40\n  add\n  0x40\n  mstore\n  dup1\n  0x05\n  dup2\n  mstore\n  0x20\n  add\n  0x626c6f636b000000000000000000000000000000000000000000000000000000\n  dup2\n  mstore\n  pop\n  dup2\n  mstore\n  0x20\n  add\n  mload(0x40)\n  dup1\n  0x40\n  add\n  0x40\n  mstore\n  dup1\n  0x05\n  dup2\n  mstore\n  0x20\n  add\n  0x636861696e000000000000000000000000000000000000000000000000000000\n  dup2\n  mstore\n  pop\n  dup2\n  mstore\n  0x20\n  add\n  mload(0x40)\n  dup1\n  0x40\n  add\n  0x40\n  mstore\n  dup1\n  0x05\n  dup2\n  mstore\n  0x20\n  add\n  0x746f6b656e000000000000000000000000000000000000000000000000000000\n  dup2\n  mstore\n  pop\n  dup2\n  mstore\n  0x20\n  add\n  mload(0x40)\n  dup1\n  0x40\n  add\n  0x40\n  mstore\n  dup1\n  0x05\n  dup2\n  mstore\n  0x20\n  add\n  0x6d696e6572000000000000000000000000000000000000000000000000000000\n  dup2\n  mstore\n  pop\n  dup2\n  mstore\n  0x20\n  add\n  mload(0x40)\n  dup1\n  0x40\n  add\n  0x40\n  mstore\n  dup1\n  0x05\n  dup2\n  mstore\n  0x20\n  add\n  0x6775657373000000000000000000000000000000000000000000000000000000\n  dup2\n  mstore\n  pop\n  dup2\n  mstore\n  0x20\n  add\n  mload(0x40)\n  dup1\n  0x40\n  add\n  0x40\n  mstore\n  dup1\n  0x05\n  dup2\n  mstore\n  0x20\n  add\n  0x736f6c7665000000000000000000000000000000000000000000000000000000\n  dup2\n  mstore\n  pop\n  dup2\n  mstore\n  0x20\n  add\n  mload(0x40)\n  dup1\n  0x40\n  add\n  0x40\n  mstore\n  dup1\n  0x06\n  dup2\n  mstore\n  0x20\n  add\n  0x77616c6c65740000000000000000000000000000000000000000000000000000\n  dup2\n  mstore\n  pop\n  dup2\n  mstore\n  0x20\n  add\n  mload(0x40)\n  dup1\n  0x40\n  add\n  0x40\n  mstore\n  dup1\n  0x06\n  dup2\n  mstore\n  0x20\n  add\n  0x6c65646765720000000000000000000000000000000000000000000000000000\n  dup2\n  mstore\n  pop\n  dup2\n  mstore\n  0x20\n  add\n  mload(0x40)\n  dup1\n  0x40\n  add\n  0x40\n  mstore\n  dup1\n  0x06\n  dup2\n  mstore\n  0x20\n  add\n  0x63727970746f0000000000000000000000000000000000000000000000000000\n  dup2\n  mstore\n  pop\n  dup2\n  mstore\n  0x20\n  add\n  mload(0x40)\n  dup1\n  0x40\n  add\n  0x40\n  mstore\n  dup1\n  0x05\n  dup2\n  mstore\n  0x20\n  add\n  0x6e6f6e6365000000000000000000000000000000000000000000000000000000\n  dup2\n  mstore\n  pop\n  dup2\n  mstore\n  0x20\n  add\n  mload(0x40)\n  dup1\n  0x40\n  add\n  0x40\n  mstore\n  dup1\n  0x06\n  dup2\n  mstore\n  0x20\n  add\n  0x73656e6465720000000000000000000000000000000000000000000000000000\n  dup2\n  mstore\n  pop\n  dup2\n  mstore\n  0x20\n  add\n  mload(0x40)\n  dup1\n  0x40\n  add\n  0x40\n  mstore\n  dup1\n  0x06\n  dup2\n  mstore\n  0x20\n  add\n  0x7665726966790000000000000000000000000000000000000000000000000000\n  dup2\n  mstore\n  pop\n  dup2\n  mstore\n  0x20\n  add\n  mload(0x40)\n  dup1\n  0x40\n  add\n  0x40\n  mstore\n  dup1\n  0x07\n  dup2\n  mstore\n  0x20\n  add\n  0x6163636f756e7400000000000000000000000000000000000000000000000000\n  dup2\n  mstore\n  pop\n  dup2\n  mstore\n  0x20\n  add\n  mload(0x40)\n  dup1\n  0x40\n  add\n  0x40\n  mstore\n  dup1\n  0x07\n  dup2\n  mstore\n  0x20\n  add\n  0x62616c616e636500000000000000000000000000000000000000000000000000\n  dup2\n  mstore\n  pop\n  dup2\n  mstore\n  0x20\n  add\n  mload(0x40)\n  dup1\n  0x40\n  add\n  0x40\n  mstore\n  dup1\n  0x07\n  dup2\n  mstore\n  0x20\n  add\n  0x73746f7261676500000000000000000000000000000000000000000000000000\n  dup2\n  mstore\n  pop\n  dup2\n  mstore\n  0x20\n  add\n  mload(0x40)\n  dup1\n  0x40\n  add\n  0x40\n  mstore\n  dup1\n  0x07\n  dup2\n  mstore\n  0x20\n  add\n  0x636f6d70696c6500000000000000000000000000000000000000000000000000\n  dup2\n  mstore\n  pop\n  dup2\n  mstore\n  0x20\n  add\n  mload(0x40)\n  dup1\n  0x40\n  add\n  0x40\n  mstore\n  dup1\n  0x07\n  dup2\n  mstore\n  0x20\n  add\n  0x6578656375746500000000000000000000000000000000000000000000000000\n  dup2\n  mstore\n  pop\n  dup2\n  mstore\n  0x20\n  add\n  mload(0x40)\n  dup1\n  0x40\n  add\n  0x40\n  mstore\n  dup1\n  0x07\n  dup2\n  mstore\n  0x20\n  add\n  0x6e6574776f726b00000000000000000000000000000000000000000000000000\n  dup2\n  mstore\n  pop\n  dup2\n  mstore\n  0x20\n  add\n  mload(0x40)\n  dup1\n  0x40\n  add\n  0x40\n  mstore\n  dup1\n  0x08\n  dup2\n  mstore\n  0x20\n  add\n  0x636f6e7472616374000000000000000000000000000000000000000000000000\n  dup2\n  mstore\n  pop\n  dup2\n  mstore\n  0x20\n  add\n  mload(0x40)\n  dup1\n  0x40\n  add\n  0x40\n  mstore\n  dup1\n  0x08\n  dup2\n  mstore\n  0x20\n  add\n  0x66756e6374696f6e000000000000000000000000000000000000000000000000\n  dup2\n  mstore\n  pop\n  dup2\n  mstore\n  0x20\n  add\n  mload(0x40)\n  dup1\n  0x40\n  add\n  0x40\n  mstore\n  dup1\n  0x08\n  dup2\n  mstore\n  0x20\n  add\n  0x7661726961626c65000000000000000000000000000000000000000000000000\n  dup2\n  mstore\n  pop\n  dup2\n  mstore\n  0x20\n  add\n  mload(0x40)\n  dup1\n  0x40\n  add\n  0x40\n  mstore\n  dup1\n  0x08\n  dup2\n  mstore\n  0x20\n  add\n  0x6d6f646966696572000000000000000000000000000000000000000000000000\n  dup2\n  mstore\n  pop\n  dup2\n  mstore\n  0x20\n  add\n  mload(0x40)\n  dup1\n  0x40\n  add\n  0x40\n  mstore\n  dup1\n  0x08\n  dup2\n  mstore\n  0x20\n  add\n  0x6f766572666c6f77000000000000000000000000000000000000000000000000\n  dup2\n  mstore\n  pop\n  dup2\n  mstore\n  0x20\n  add\n  mload(0x40)\n  dup1\n  0x40\n  add\n  0x40\n  mstore\n  dup1\n  0x08\n  dup2\n  mstore\n  0x20\n  add\n  0x6761736c696d6974000000000000000000000000000000000000000000000000\n  dup2\n  mstore\n  pop\n  dup2\n  mstore\n  0x20\n  add\n  mload(0x40)\n  dup1\n  0x40\n  add\n  0x40\n  mstore\n  dup1\n  0x09\n  dup2\n  mstore\n  0x20\n  add\n  0x696d6d757461626c650000000000000000000000000000000000000000000000\n  dup2\n  mstore\n  pop\n  dup2\n  mstore\n  0x20\n  add\n  mload(0x40)\n  dup1\n  0x40\n  add\n  0x40\n  mstore\n  dup1\n  0x09\n  dup2\n  mstore\n  0x20\n  add\n  0x636f6e73656e7375730000000000000000000000000000000000000000000000\n  dup2\n  mstore\n  pop\n  dup2\n  mstore\n  0x20\n  add\n  mload(0x40)\n  dup1\n  0x40\n  add\n  0x40\n  mstore\n  dup1\n  0x09\n  dup2\n  mstore\n  0x20\n  add\n  0x626c6f636b74696d650000000000000000000000000000000000000000000000\n  dup2\n  mstore\n  pop\n  dup2\n  mstore\n  0x20\n  add\n  mload(0x40)\n  dup1\n  0x40\n  add\n  0x40\n  mstore\n  dup1\n  0x09\n  dup2\n  mstore\n  0x20\n  add\n  0x7369676e61747572650000000000000000000000000000000000000000000000\n  dup2\n  mstore\n  pop\n  dup2\n  mstore\n  0x20\n  add\n  mload(0x40)\n  dup1\n  0x40\n  add\n  0x40\n  mstore\n  dup1\n  0x0a\n  dup2\n  mstore\n  0x20\n  add\n  0x6465706c6f796d656e7400000000000000000000000000000000000000000000\n  dup2\n  mstore\n  pop\n  dup2\n  mstore\n  0x20\n  add\n  mload(0x40)\n  dup1\n  0x40\n  add\n  0x40\n  mstore\n  dup1\n  0x09\n  dup2\n  mstore\n  0x20\n  add\n  0x696e746572666163650000000000000000000000000000000000000000000000\n  dup2\n  mstore\n  pop\n  dup2\n  mstore\n  0x20\n  add\n  mload(0x40)\n  dup1\n  0x40\n  add\n  0x40\n  mstore\n  dup1\n  0x0b\n  dup2\n  mstore\n  0x20\n  add\n  0x7472616e73616374696f6e000000000000000000000000000000000000000000\n  dup2\n  mstore\n  pop\n  dup2\n  mstore\n  0x20\n  add\n  mload(0x40)\n  dup1\n  0x40\n  add\n  0x40\n  mstore\n  dup1\n  0x0b\n  dup2\n  mstore\n  0x20\n  add\n  0x636f6e73747261696e7473000000000000000000000000000000000000000000\n  dup2\n  mstore\n  pop\n  dup2\n  mstore\n  0x20\n  add\n  mload(0x40)\n  dup1\n  0x40\n  add\n  0x40\n  mstore\n  dup1\n  0x0a\n  dup2\n  mstore\n  0x20\n  add\n  0x70726f6772616d6d657200000000000000000000000000000000000000000000\n  dup2\n  mstore\n  pop\n  dup2\n  mstore\n  0x20\n  add\n  mload(0x40)\n  dup1\n  0x40\n  add\n  0x40\n  mstore\n  dup1\n  0x0a\n  dup2\n  mstore\n  0x20\n  add\n  0x76616c69646174696f6e00000000000000000000000000000000000000000000\n  dup2\n  mstore\n  pop\n  dup2\n  mstore\n  0x20\n  add\n  mload(0x40)\n  dup1\n  0x40\n  add\n  0x40\n  mstore\n  dup1\n  0x09\n  dup2\n  mstore\n  0x20\n  add\n  0x63616c6c64617461780000000000000000000000000000000000000000000000\n  dup2\n  mstore\n  pop\n  dup2\n  mstore\n  0x20\n  add\n  mload(0x40)\n  dup1\n  0x40\n  add\n  0x40\n  mstore\n  dup1\n  0x0a\n  dup2\n  mstore\n  0x20\n  add\n  0x6576656e746c6f67676700000000000000000000000000000000000000000000\n  dup2\n  mstore\n  pop\n  dup2\n  mstore\n  pop\n  0x01\n  swap1\n  0x2a\n  tag_1\n  swap3\n  swap2\n  swap1\n  tag_2\n  jump\t// in\ntag_1:\n  pop\n    /* \"contracts/Hangman.sol\":61:7043  contract Hangman {... */\n  callvalue\n  dup1\n  iszero\n  tag_3\n  jumpi\n  0x00\n  dup1\n  revert\ntag_3:\n  pop\n  jump(tag_4)\ntag_2:\n  dup3\n  dup1\n  sload\n  dup3\n  dup3\n  sstore\n  swap1\n  0x00\n  mstore\n  keccak256(0x00, 0x20)\n  swap1\n  dup2\n  add\n  swap3\n  dup3\n  iszero\n  tag_5\n  jumpi\n  swap2\n  0x20\n  mul\n  dup3\n  add\ntag_6:\n  dup3\n  dup2\n  gt\n  iszero\n  tag_7\n  jumpi\n  dup3\n  mload\n  dup3\n  swap1\n  dup2\n  tag_8\n  swap2\n  swap1\n  tag_9\n  jump\t// in\ntag_8:\n  pop\n  swap2\n  0x20\n  add\n  swap2\n  swap1\n  0x01\n  add\n  swap1\n  jump(tag_6)\ntag_7:\ntag_5:\n  pop\n  swap1\n  pop\n  tag_10\n  swap2\n  swap1\n  tag_11\n  jump\t// in\ntag_10:\n  pop\n  swap1\n  jump\t// out\ntag_11:\ntag_12:\n  dup1\n  dup3\n  gt\n  iszero\n  tag_13\n  jumpi\n  0x00\n  dup2\n  dup2\n  tag_14\n  swap2\n  swap1\n  tag_15\n  jump\t// in\ntag_14:\n  pop\n  0x01\n  add\n  jump(tag_12)\ntag_13:\n  pop\n  swap1\n  jump\t// out\ntag_15:\n  pop\n  dup1\n  sload\n  tag_16\n  swap1\n  tag_17\n  jump\t// in\ntag_16:\n  0x00\n  dup3\n  sstore\n  dup1\n  0x1f\n  lt\n  tag_19\n  jumpi\n  pop\n  jump(tag_18)\ntag_19:\n  0x1f\n  add\n  0x20\n  swap1\n  div\n  swap1\n  0x00\n  mstore\n  keccak256(0x00, 0x20)\n  swap1\n  dup2\n  add\n  swap1\n  tag_20\n  swap2\n  swap1\n  tag_21\n  jump\t// in\ntag_20:\ntag_18:\n  pop\n  jump\t// out\ntag_21:\ntag_22:\n  dup1\n  dup3\n  gt\n  iszero\n  tag_23\n  jumpi\n  0x00\n  dup2\n  0x00\n  swap1\n  sstore\n  pop\n  0x01\n  add\n  jump(tag_22)\ntag_23:\n  pop\n  swap1\n  jump\t// out\n    /* \"#utility.yul\":7:106   */\ntag_24:\n    /* \"#utility.yul\":59:65   */\n  0x00\n    /* \"#utility.yul\":93:98   */\n  dup2\n    /* \"#utility.yul\":87:99   */\n  mload\n    /* \"#utility.yul\":77:99   */\n  swap1\n  pop\n    /* \"#utility.yul\":7:106   */\n  swap2\n  swap1\n  pop\n  jump\t// out\n    /* \"#utility.yul\":112:292   */\ntag_25:\n    /* \"#utility.yul\":160:237   */\n  0x4e487b7100000000000000000000000000000000000000000000000000000000\n    /* \"#utility.yul\":157:158   */\n  0x00\n    /* \"#utility.yul\":150:238   */\n  mstore\n    /* \"#utility.yul\":257:261   */\n  0x41\n    /* \"#utility.yul\":254:255   */\n  0x04\n    /* \"#utility.yul\":247:262   */\n  mstore\n    /* \"#utility.yul\":281:285   */\n  0x24\n    /* \"#utility.yul\":278:279   */\n  0x00\n    /* \"#utility.yul\":271:286   */\n  revert\n    /* \"#utility.yul\":298:478   */\ntag_26:\n    /* \"#utility.yul\":346:423   */\n  0x4e487b7100000000000000000000000000000000000000000000000000000000\n    /* \"#utility.yul\":343:344   */\n  0x00\n    /* \"#utility.yul\":336:424   */\n  mstore\n    /* \"#utility.yul\":443:447   */\n  0x22\n    /* \"#utility.yul\":440:441   */\n  0x04\n    /* \"#utility.yul\":433:448   */\n  mstore\n    /* \"#utility.yul\":467:471   */\n  0x24\n    /* \"#utility.yul\":464:465   */\n  0x00\n    /* \"#utility.yul\":457:472   */\n  revert\n    /* \"#utility.yul\":484:804   */\ntag_17:\n    /* \"#utility.yul\":528:534   */\n  0x00\n    /* \"#utility.yul\":565:566   */\n  0x02\n    /* \"#utility.yul\":559:563   */\n  dup3\n    /* \"#utility.yul\":555:567   */\n  div\n    /* \"#utility.yul\":545:567   */\n  swap1\n  pop\n    /* \"#utility.yul\":612:613   */\n  0x01\n    /* \"#utility.yul\":606:610   */\n  dup3\n    /* \"#utility.yul\":602:614   */\n  and\n    /* \"#utility.yul\":633:651   */\n  dup1\n    /* \"#utility.yul\":623:704   */\n  tag_48\n  jumpi\n    /* \"#utility.yul\":689:693   */\n  0x7f\n    /* \"#utility.yul\":681:687   */\n  dup3\n    /* \"#utility.yul\":677:694   */\n  and\n    /* \"#utility.yul\":667:694   */\n  swap2\n  pop\n    /* \"#utility.yul\":623:704   */\ntag_48:\n    /* \"#utility.yul\":751:753   */\n  0x20\n    /* \"#utility.yul\":743:749   */\n  dup3\n    /* \"#utility.yul\":740:754   */\n  lt\n    /* \"#utility.yul\":720:738   */\n  dup2\n    /* \"#utility.yul\":717:755   */\n  sub\n    /* \"#utility.yul\":714:798   */\n  tag_49\n  jumpi\n    /* \"#utility.yul\":770:788   */\n  tag_50\n  tag_26\n  jump\t// in\ntag_50:\n    /* \"#utility.yul\":714:798   */\ntag_49:\n    /* \"#utility.yul\":535:804   */\n  pop\n    /* \"#utility.yul\":484:804   */\n  swap2\n  swap1\n  pop\n  jump\t// out\n    /* \"#utility.yul\":810:951   */\ntag_27:\n    /* \"#utility.yul\":859:863   */\n  0x00\n    /* \"#utility.yul\":882:885   */\n  dup2\n    /* \"#utility.yul\":874:885   */\n  swap1\n  pop\n    /* \"#utility.yul\":905:908   */\n  dup2\n    /* \"#utility.yul\":902:903   */\n  0x00\n    /* \"#utility.yul\":895:909   */\n  mstore\n    /* \"#utility.yul\":939:943   */\n  0x20\n    /* \"#utility.yul\":936:937   */\n  0x00\n    /* \"#utility.yul\":926:944   */\n  keccak256\n    /* \"#utility.yul\":918:944   */\n  swap1\n  pop\n    /* \"#utility.yul\":810:951   */\n  swap2\n  swap1\n  pop\n  jump\t// out\n    /* \"#utility.yul\":957:1050   */\ntag_28:\n    /* \"#utility.yul\":994:1000   */\n  0x00\n    /* \"#utility.yul\":1041:1043   */\n  0x20\n    /* \"#utility.yul\":1036:1038   */\n  0x1f\n    /* \"#utility.yul\":1029:1034   */\n  dup4\n    /* \"#utility.yul\":1025:1039   */\n  add\n    /* \"#utility.yul\":1021:1044   */\n  div\n    /* \"#utility.yul\":1011:1044   */\n  swap1\n  pop\n    /* \"#utility.yul\":957:1050   */\n  swap2\n  swap1\n  pop\n  jump\t// out\n    /* \"#utility.yul\":1056:1163   */\ntag_29:\n    /* \"#utility.yul\":1100:1108   */\n  0x00\n    /* \"#utility.yul\":1150:1155   */\n  dup3\n    /* \"#utility.yul\":1144:1148   */\n  dup3\n    /* \"#utility.yul\":1140:1156   */\n  shl\n    /* \"#utility.yul\":1119:1156   */\n  swap1\n  pop\n    /* \"#utility.yul\":1056:1163   */\n  swap3\n  swap2\n  pop\n  pop\n  jump\t// out\n    /* \"#utility.yul\":1169:1562   */\ntag_30:\n    /* \"#utility.yul\":1238:1244   */\n  0x00\n    /* \"#utility.yul\":1288:1289   */\n  0x08\n    /* \"#utility.yul\":1276:1286   */\n  dup4\n    /* \"#utility.yul\":1272:1290   */\n  mul\n    /* \"#utility.yul\":1311:1408   */\n  tag_55\n    /* \"#utility.yul\":1341:1407   */\n  0xffffffffffffffffffffffffffffffffffffffffffffffffffffffffffffffff\n    /* \"#utility.yul\":1330:1339   */\n  dup3\n    /* \"#utility.yul\":1311:1408   */\n  tag_29\n  jump\t// in\ntag_55:\n    /* \"#utility.yul\":1429:1468   */\n  tag_56\n    /* \"#utility.yul\":1459:1467   */\n  dup7\n    /* \"#utility.yul\":1448:1457   */\n  dup4\n    /* \"#utility.yul\":1429:1468   */\n  tag_29\n  jump\t// in\ntag_56:\n    /* \"#utility.yul\":1417:1468   */\n  swap6\n  pop\n    /* \"#utility.yul\":1501:1505   */\n  dup1\n    /* \"#utility.yul\":1497:1506   */\n  not\n    /* \"#utility.yul\":1490:1495   */\n  dup5\n    /* \"#utility.yul\":1486:1507   */\n  and\n    /* \"#utility.yul\":1477:1507   */\n  swap4\n  pop\n    /* \"#utility.yul\":1550:1554   */\n  dup1\n    /* \"#utility.yul\":1540:1548   */\n  dup7\n    /* \"#utility.yul\":1536:1555   */\n  and\n    /* \"#utility.yul\":1529:1534   */\n  dup5\n    /* \"#utility.yul\":1526:1556   */\n  or\n    /* \"#utility.yul\":1516:1556   */\n  swap3\n  pop\n    /* \"#utility.yul\":1245:1562   */\n  pop\n  pop\n    /* \"#utility.yul\":1169:1562   */\n  swap4\n  swap3\n  pop\n  pop\n  pop\n  jump\t// out\n    /* \"#utility.yul\":1568:1645   */\ntag_31:\n    /* \"#utility.yul\":1605:1612   */\n  0x00\n    /* \"#utility.yul\":1634:1639   */\n  dup2\n    /* \"#utility.yul\":1623:1639   */\n  swap1\n  pop\n    /* \"#utility.yul\":1568:1645   */\n  swap2\n  swap1\n  pop\n  jump\t// out\n    /* \"#utility.yul\":1651:1711   */\ntag_32:\n    /* \"#utility.yul\":1679:1682   */\n  0x00\n    /* \"#utility.yul\":1700:1705   */\n  dup2\n    /* \"#utility.yul\":1693:1705   */\n  swap1\n  pop\n    /* \"#utility.yul\":1651:1711   */\n  swap2\n  swap1\n  pop\n  jump\t// out\n    /* \"#utility.yul\":1717:1859   */\ntag_33:\n    /* \"#utility.yul\":1767:1776   */\n  0x00\n    /* \"#utility.yul\":1800:1853   */\n  tag_60\n    /* \"#utility.yul\":1818:1852   */\n  tag_61\n    /* \"#utility.yul\":1827:1851   */\n  tag_62\n    /* \"#utility.yul\":1845:1850   */\n  dup5\n    /* \"#utility.yul\":1827:1851   */\n  tag_31\n  jump\t// in\ntag_62:\n    /* \"#utility.yul\":1818:1852   */\n  tag_32\n  jump\t// in\ntag_61:\n    /* \"#utility.yul\":1800:1853   */\n  tag_31\n  jump\t// in\ntag_60:\n    /* \"#utility.yul\":1787:1853   */\n  swap1\n  pop\n    /* \"#utility.yul\":1717:1859   */\n  swap2\n  swap1\n  pop\n  jump\t// out\n    /* \"#utility.yul\":1865:1940   */\ntag_34:\n    /* \"#utility.yul\":1908:1911   */\n  0x00\n    /* \"#utility.yul\":1929:1934   */\n  dup2\n    /* \"#utility.yul\":1922:1934   */\n  swap1\n  pop\n    /* \"#utility.yul\":1865:1940   */\n  swap2\n  swap1\n  pop\n  jump\t// out\n    /* \"#utility.yul\":1946:2215   */\ntag_35:\n    /* \"#utility.yul\":2056:2095   */\n  tag_65\n    /* \"#utility.yul\":2087:2094   */\n  dup4\n    /* \"#utility.yul\":2056:2095   */\n  tag_33\n  jump\t// in\ntag_65:\n    /* \"#utility.yul\":2117:2208   */\n  tag_66\n    /* \"#utility.yul\":2166:2207   */\n  tag_67\n    /* \"#utility.yul\":2190:2206   */\n  dup3\n    /* \"#utility.yul\":2166:2207   */\n  tag_34\n  jump\t// in\ntag_67:\n    /* \"#utility.yul\":2158:2164   */\n  dup5\n    /* \"#utility.yul\":2151:2155   */\n  dup5\n    /* \"#utility.yul\":2145:2156   */\n  sload\n    /* \"#utility.yul\":2117:2208   */\n  tag_30\n  jump\t// in\ntag_66:\n    /* \"#utility.yul\":2111:2115   */\n  dup3\n    /* \"#utility.yul\":2104:2209   */\n  sstore\n    /* \"#utility.yul\":2022:2215   */\n  pop\n    /* \"#utility.yul\":1946:2215   */\n  pop\n  pop\n  pop\n  jump\t// out\n    /* \"#utility.yul\":2221:2294   */\ntag_36:\n    /* \"#utility.yul\":2266:2269   */\n  0x00\n    /* \"#utility.yul\":2221:2294   */\n  swap1\n  jump\t// out\n    /* \"#utility.yul\":2300:2489   */\ntag_37:\n    /* \"#utility.yul\":2377:2409   */\n  tag_70\n  tag_36\n  jump\t// in\ntag_70:\n    /* \"#utility.yul\":2418:2483   */\n  tag_71\n    /* \"#utility.yul\":2476:2482   */\n  dup2\n    /* \"#utility.yul\":2468:2474   */\n  dup5\n    /* \"#utility.yul\":2462:2466   */\n  dup5\n    /* \"#utility.yul\":2418:2483   */\n  tag_35\n  jump\t// in\ntag_71:\n    /* \"#utility.yul\":2353:2489   */\n  pop\n    /* \"#utility.yul\":2300:2489   */\n  pop\n  pop\n  jump\t// out\n    /* \"#utility.yul\":2495:2681   */\ntag_38:\n    /* \"#utility.yul\":2555:2675   */\ntag_73:\n    /* \"#utility.yul\":2572:2575   */\n  dup2\n    /* \"#utility.yul\":2565:2570   */\n  dup2\n    /* \"#utility.yul\":2562:2576   */\n  lt\n    /* \"#utility.yul\":2555:2675   */\n  iszero\n  tag_75\n  jumpi\n    /* \"#utility.yul\":2626:2665   */\n  tag_76\n    /* \"#utility.yul\":2663:2664   */\n  0x00\n    /* \"#utility.yul\":2656:2661   */\n  dup3\n    /* \"#utility.yul\":2626:2665   */\n  tag_37\n  jump\t// in\ntag_76:\n    /* \"#utility.yul\":2599:2600   */\n  0x01\n    /* \"#utility.yul\":2592:2597   */\n  dup2\n    /* \"#utility.yul\":2588:2601   */\n  add\n    /* \"#utility.yul\":2579:2601   */\n  swap1\n  pop\n    /* \"#utility.yul\":2555:2675   */\n  jump(tag_73)\ntag_75:\n    /* \"#utility.yul\":2495:2681   */\n  pop\n  pop\n  jump\t// out\n    /* \"#utility.yul\":2687:3230   */\ntag_39:\n    /* \"#utility.yul\":2788:2790   */\n  0x1f\n    /* \"#utility.yul\":2783:2786   */\n  dup3\n    /* \"#utility.yul\":2780:2791   */\n  gt\n    /* \"#utility.yul\":2777:3223   */\n  iszero\n  tag_78\n  jumpi\n    /* \"#utility.yul\":2822:2860   */\n  tag_79\n    /* \"#utility.yul\":2854:2859   */\n  dup2\n    /* \"#utility.yul\":2822:2860   */\n  tag_27\n  jump\t// in\ntag_79:\n    /* \"#utility.yul\":2906:2935   */\n  tag_80\n    /* \"#utility.yul\":2924:2934   */\n  dup5\n    /* \"#utility.yul\":2906:2935   */\n  tag_28\n  jump\t// in\ntag_80:\n    /* \"#utility.yul\":2896:2904   */\n  dup2\n    /* \"#utility.yul\":2892:2936   */\n  add\n    /* \"#utility.yul\":3089:3091   */\n  0x20\n    /* \"#utility.yul\":3077:3087   */\n  dup6\n    /* \"#utility.yul\":3074:3092   */\n  lt\n    /* \"#utility.yul\":3071:3120   */\n  iszero\n  tag_81\n  jumpi\n    /* \"#utility.yul\":3110:3118   */\n  dup2\n    /* \"#utility.yul\":3095:3118   */\n  swap1\n  pop\n    /* \"#utility.yul\":3071:3120   */\ntag_81:\n    /* \"#utility.yul\":3133:3213   */\n  tag_82\n    /* \"#utility.yul\":3189:3211   */\n  tag_83\n    /* \"#utility.yul\":3207:3210   */\n  dup6\n    /* \"#utility.yul\":3189:3211   */\n  tag_28\n  jump\t// in\ntag_83:\n    /* \"#utility.yul\":3179:3187   */\n  dup4\n    /* \"#utility.yul\":3175:3212   */\n  add\n    /* \"#utility.yul\":3162:3173   */\n  dup3\n    /* \"#utility.yul\":3133:3213   */\n  tag_38\n  jump\t// in\ntag_82:\n    /* \"#utility.yul\":2792:3223   */\n  pop\n  pop\n    /* \"#utility.yul\":2777:3223   */\ntag_78:\n    /* \"#utility.yul\":2687:3230   */\n  pop\n  pop\n  pop\n  jump\t// out\n    /* \"#utility.yul\":3236:3353   */\ntag_40:\n    /* \"#utility.yul\":3290:3298   */\n  0x00\n    /* \"#utility.yul\":3340:3345   */\n  dup3\n    /* \"#utility.yul\":3334:3338   */\n  dup3\n    /* \"#utility.yul\":3330:3346   */\n  shr\n    /* \"#utility.yul\":3309:3346   */\n  swap1\n  pop\n    /* \"#utility.yul\":3236:3353   */\n  swap3\n  swap2\n  pop\n  pop\n  jump\t// out\n    /* \"#utility.yul\":3359:3528   */\ntag_41:\n    /* \"#utility.yul\":3403:3409   */\n  0x00\n    /* \"#utility.yul\":3436:3487   */\n  tag_86\n    /* \"#utility.yul\":3484:3485   */\n  0x00\n    /* \"#utility.yul\":3480:3486   */\n  not\n    /* \"#utility.yul\":3472:3477   */\n  dup5\n    /* \"#utility.yul\":3469:3470   */\n  0x08\n    /* \"#utility.yul\":3465:3478   */\n  mul\n    /* \"#utility.yul\":3436:3487   */\n  tag_40\n  jump\t// in\ntag_86:\n    /* \"#utility.yul\":3432:3488   */\n  not\n    /* \"#utility.yul\":3517:3521   */\n  dup1\n    /* \"#utility.yul\":3511:3515   */\n  dup4\n    /* \"#utility.yul\":3507:3522   */\n  and\n    /* \"#utility.yul\":3497:3522   */\n  swap2\n  pop\n    /* \"#utility.yul\":3410:3528   */\n  pop\n    /* \"#utility.yul\":3359:3528   */\n  swap3\n  swap2\n  pop\n  pop\n  jump\t// out\n    /* \"#utility.yul\":3533:3828   */\ntag_42:\n    /* \"#utility.yul\":3609:3613   */\n  0x00\n    /* \"#utility.yul\":3755:3784   */\n  tag_88\n    /* \"#utility.yul\":3780:3783   */\n  dup4\n    /* \"#utility.yul\":3774:3778   */\n  dup4\n    /* \"#utility.yul\":3755:3784   */\n  tag_41\n  jump\t// in\ntag_88:\n    /* \"#utility.yul\":3747:3784   */\n  swap2\n  pop\n    /* \"#utility.yul\":3817:3820   */\n  dup3\n    /* \"#utility.yul\":3814:3815   */\n  0x02\n    /* \"#utility.yul\":3810:3821   */\n  mul\n    /* \"#utility.yul\":3804:3808   */\n  dup3\n    /* \"#utility.yul\":3801:3822   */\n  or\n    /* \"#utility.yul\":3793:3822   */\n  swap1\n  pop\n    /* \"#utility.yul\":3533:3828   */\n  swap3\n  swap2\n  pop\n  pop\n  jump\t// out\n    /* \"#utility.yul\":3833:5228   */\ntag_9:\n    /* \"#utility.yul\":3950:3987   */\n  tag_90\n    /* \"#utility.yul\":3983:3986   */\n  dup3\n    /* \"#utility.yul\":3950:3987   */\n  tag_24\n  jump\t// in\ntag_90:\n    /* \"#utility.yul\":4052:4070   */\n  0xffffffffffffffff\n    /* \"#utility.yul\":4044:4050   */\n  dup2\n    /* \"#utility.yul\":4041:4071   */\n  gt\n    /* \"#utility.yul\":4038:4094   */\n  iszero\n  tag_91\n  jumpi\n    /* \"#utility.yul\":4074:4092   */\n  tag_92\n  tag_25\n  jump\t// in\ntag_92:\n    /* \"#utility.yul\":4038:4094   */\ntag_91:\n    /* \"#utility.yul\":4118:4156   */\n  tag_93\n    /* \"#utility.yul\":4150:4154   */\n  dup3\n    /* \"#utility.yul\":4144:4155   */\n  sload\n    /* \"#utility.yul\":4118:4156   */\n  tag_17\n  jump\t// in\ntag_93:\n    /* \"#utility.yul\":4203:4270   */\n  tag_94\n    /* \"#utility.yul\":4263:4269   */\n  dup3\n    /* \"#utility.yul\":4255:4261   */\n  dup3\n    /* \"#utility.yul\":4249:4253   */\n  dup6\n    /* \"#utility.yul\":4203:4270   */\n  tag_39\n  jump\t// in\ntag_94:\n    /* \"#utility.yul\":4297:4298   */\n  0x00\n    /* \"#utility.yul\":4321:4325   */\n  0x20\n    /* \"#utility.yul\":4308:4325   */\n  swap1\n  pop\n    /* \"#utility.yul\":4353:4355   */\n  0x1f\n    /* \"#utility.yul\":4345:4351   */\n  dup4\n    /* \"#utility.yul\":4342:4356   */\n  gt\n    /* \"#utility.yul\":4370:4371   */\n  0x01\n    /* \"#utility.yul\":4365:4983   */\n  dup2\n  eq\n  tag_96\n  jumpi\n    /* \"#utility.yul\":5027:5028   */\n  0x00\n    /* \"#utility.yul\":5044:5050   */\n  dup5\n    /* \"#utility.yul\":5041:5118   */\n  iszero\n  tag_97\n  jumpi\n    /* \"#utility.yul\":5093:5102   */\n  dup3\n    /* \"#utility.yul\":5088:5091   */\n  dup8\n    /* \"#utility.yul\":5084:5103   */\n  add\n    /* \"#utility.yul\":5078:5104   */\n  mload\n    /* \"#utility.yul\":5069:5104   */\n  swap1\n  pop\n    /* \"#utility.yul\":5041:5118   */\ntag_97:\n    /* \"#utility.yul\":5144:5211   */\n  tag_98\n    /* \"#utility.yul\":5204:5210   */\n  dup6\n    /* \"#utility.yul\":5197:5202   */\n  dup3\n    /* \"#utility.yul\":5144:5211   */\n  tag_42\n  jump\t// in\ntag_98:\n    /* \"#utility.yul\":5138:5142   */\n  dup7\n    /* \"#utility.yul\":5131:5212   */\n  sstore\n    /* \"#utility.yul\":5000:5222   */\n  pop\n    /* \"#utility.yul\":4335:5222   */\n  jump(tag_95)\n    /* \"#utility.yul\":4365:4983   */\ntag_96:\n    /* \"#utility.yul\":4417:4421   */\n  0x1f\n    /* \"#utility.yul\":4413:4422   */\n  not\n    /* \"#utility.yul\":4405:4411   */\n  dup5\n    /* \"#utility.yul\":4401:4423   */\n  and\n    /* \"#utility.yul\":4451:4488   */\n  tag_99\n    /* \"#utility.yul\":4483:4487   */\n  dup7\n    /* \"#utility.yul\":4451:4488   */\n  tag_27\n  jump\t// in\ntag_99:\n    /* \"#utility.yul\":4510:4511   */\n  0x00\n    /* \"#utility.yul\":4524:4732   */\ntag_100:\n    /* \"#utility.yul\":4538:4545   */\n  dup3\n    /* \"#utility.yul\":4535:4536   */\n  dup2\n    /* \"#utility.yul\":4532:4546   */\n  lt\n    /* \"#utility.yul\":4524:4732   */\n  iszero\n  tag_102\n  jumpi\n    /* \"#utility.yul\":4617:4626   */\n  dup5\n    /* \"#utility.yul\":4612:4615   */\n  dup10\n    /* \"#utility.yul\":4608:4627   */\n  add\n    /* \"#utility.yul\":4602:4628   */\n  mload\n    /* \"#utility.yul\":4594:4600   */\n  dup3\n    /* \"#utility.yul\":4587:4629   */\n  sstore\n    /* \"#utility.yul\":4668:4669   */\n  0x01\n    /* \"#utility.yul\":4660:4666   */\n  dup3\n    /* \"#utility.yul\":4656:4670   */\n  add\n    /* \"#utility.yul\":4646:4670   */\n  swap2\n  pop\n    /* \"#utility.yul\":4715:4717   */\n  0x20\n    /* \"#utility.yul\":4704:4713   */\n  dup6\n    /* \"#utility.yul\":4700:4718   */\n  add\n    /* \"#utility.yul\":4687:4718   */\n  swap5\n  pop\n    /* \"#utility.yul\":4561:4565   */\n  0x20\n    /* \"#utility.yul\":4558:4559   */\n  dup2\n    /* \"#utility.yul\":4554:4566   */\n  add\n    /* \"#utility.yul\":4549:4566   */\n  swap1\n  pop\n    /* \"#utility.yul\":4524:4732   */\n  jump(tag_100)\ntag_102:\n    /* \"#utility.yul\":4760:4766   */\n  dup7\n    /* \"#utility.yul\":4751:4758   */\n  dup4\n    /* \"#utility.yul\":4748:4767   */\n  lt\n    /* \"#utility.yul\":4745:4924   */\n  iszero\n  tag_103\n  jumpi\n    /* \"#utility.yul\":4818:4827   */\n  dup5\n    /* \"#utility.yul\":4813:4816   */\n  dup10\n    /* \"#utility.yul\":4809:4828   */\n  add\n    /* \"#utility.yul\":4803:4829   */\n  mload\n    /* \"#utility.yul\":4861:4909   */\n  tag_104\n    /* \"#utility.yul\":4903:4907   */\n  0x1f\n    /* \"#utility.yul\":4895:4901   */\n  dup10\n    /* \"#utility.yul\":4891:4908   */\n  and\n    /* \"#utility.yul\":4880:4889   */\n  dup3\n    /* \"#utility.yul\":4861:4909   */\n  tag_41\n  jump\t// in\ntag_104:\n    /* \"#utility.yul\":4853:4859   */\n  dup4\n    /* \"#utility.yul\":4846:4910   */\n  sstore\n    /* \"#utility.yul\":4768:4924   */\n  pop\n    /* \"#utility.yul\":4745:4924   */\ntag_103:\n    /* \"#utility.yul\":4970:4971   */\n  0x01\n    /* \"#utility.yul\":4966:4967   */\n  0x02\n    /* \"#utility.yul\":4958:4964   */\n  dup9\n    /* \"#utility.yul\":4954:4968   */\n  mul\n    /* \"#utility.yul\":4950:4972   */\n  add\n    /* \"#utility.yul\":4944:4948   */\n  dup9\n    /* \"#utility.yul\":4937:4973   */\n  sstore\n    /* \"#utility.yul\":4372:4983   */\n  pop\n  pop\n  pop\n    /* \"#utility.yul\":4335:5222   */\ntag_95:\n  pop\n    /* \"#utility.yul\":3925:5228   */\n  pop\n  pop\n  pop\n    /* \"#utility.yul\":3833:5228   */\n  pop\n  pop\n  jump\t// out\n    /* \"contracts/Hangman.sol\":61:7043  contract Hangman {... */\ntag_4:\n  dataSize(sub_0)\n  dup1\n  dataOffset(sub_0)\n  0x00\n  codecopy\n  0x00\n  return\nstop\n\nsub_0: assembly {\n        /* \"contracts/Hangman.sol\":61:7043  contract Hangman {... */\n      mstore(0x40, 0x80)\n      callvalue\n      dup1\n      iszero\n      tag_1\n      jumpi\n      0x00\n      dup1\n      revert\n    tag_1:\n      pop\n      jumpi(tag_2, lt(calldatasize, 0x04))\n      shr(0xe0, calldataload(0x00))\n      dup1\n      0x02056c8b\n      eq\n      tag_3\n      jumpi\n      dup1\n      0x5d0797c0\n      eq\n      tag_4\n      jumpi\n      dup1\n      0x81196481\n      eq\n      tag_5\n      jumpi\n      dup1\n      0x922d572c\n      eq\n      tag_6\n      jumpi\n      dup1\n      0xd65ab5f2\n      eq\n      tag_7\n      jumpi\n      dup1\n      0xf77ea683\n      eq\n      tag_8\n      jumpi\n    tag_2:\n      0x00\n      dup1\n      revert\n        /* \"contracts/Hangman.sol\":4140:4639  function getMyGame() external view returns(... */\n    tag_3:\n      tag_9\n      tag_10\n      jump\t// in\n    tag_9:\n      mload(0x40)\n      tag_11\n      swap8\n      swap7\n      swap6\n      swap5\n      swap4\n      swap3\n      swap2\n      swap1\n      tag_12\n      jump\t// in\n    tag_11:\n      mload(0x40)\n      dup1\n      swap2\n      sub\n      swap1\n      return\n        /* \"contracts/Hangman.sol\":511:545  uint8 public constant MAX_LEN = 10 */\n    tag_4:\n      tag_13\n      tag_14\n      jump\t// in\n    tag_13:\n      mload(0x40)\n      tag_15\n      swap2\n      swap1\n      tag_16\n      jump\t// in\n    tag_15:\n      mload(0x40)\n      dup1\n      swap2\n      sub\n      swap1\n      return\n        /* \"contracts/Hangman.sol\":471:504  uint8 public constant MIN_LEN = 4 */\n    tag_5:\n      tag_17\n      tag_18\n      jump\t// in\n    tag_17:\n      mload(0x40)\n      tag_19\n      swap2\n      swap1\n      tag_16\n      jump\t// in\n    tag_19:\n      mload(0x40)\n      dup1\n      swap2\n      sub\n      swap1\n      return\n        /* \"contracts/Hangman.sol\":2789:4132  function guessLetter(bytes1 letter) external {... */\n    tag_6:\n      tag_20\n      0x04\n      dup1\n      calldatasize\n      sub\n      dup2\n      add\n      swap1\n      tag_21\n      swap2\n      swap1\n      tag_22\n      jump\t// in\n    tag_21:\n      tag_23\n      jump\t// in\n    tag_20:\n      stop\n        /* \"contracts/Hangman.sol\":2178:2781  function startGame() external {... */\n    tag_7:\n      tag_24\n      tag_25\n      jump\t// in\n    tag_24:\n      stop\n        /* \"contracts/Hangman.sol\":552:595  uint8 public constant MAX_WRONG_GUESSES = 6 */\n    tag_8:\n      tag_26\n      tag_27\n      jump\t// in\n    tag_26:\n      mload(0x40)\n      tag_28\n      swap2\n      swap1\n      tag_16\n      jump\t// in\n    tag_28:\n      mload(0x40)\n      dup1\n      swap2\n      sub\n      swap1\n      return\n        /* \"contracts/Hangman.sol\":4140:4639  function getMyGame() external view returns(... */\n    tag_10:\n        /* \"contracts/Hangman.sol\":4193:4206  Status status */\n      0x00\n        /* \"contracts/Hangman.sol\":4217:4229  uint8 length */\n      dup1\n        /* \"contracts/Hangman.sol\":4240:4258  uint8 wrongGuesses */\n      0x00\n        /* \"contracts/Hangman.sol\":4269:4286  bytes memory mask */\n      0x60\n        /* \"contracts/Hangman.sol\":4297:4315  uint32 guessedMask */\n      0x00\n        /* \"contracts/Hangman.sol\":4326:4344  uint32 correctMask */\n      dup1\n        /* \"contracts/Hangman.sol\":4355:4371  uint32 wrongMask */\n      0x00\n        /* \"contracts/Hangman.sol\":4390:4404  Game storage g */\n      dup1\n        /* \"contracts/Hangman.sol\":4407:4412  games */\n      0x00\n        /* \"contracts/Hangman.sol\":4407:4424  games[msg.sender] */\n      dup1\n        /* \"contracts/Hangman.sol\":4413:4423  msg.sender */\n      caller\n        /* \"contracts/Hangman.sol\":4407:4424  games[msg.sender] */\n      0xffffffffffffffffffffffffffffffffffffffff\n      and\n      0xffffffffffffffffffffffffffffffffffffffff\n      and\n      dup2\n      mstore\n      0x20\n      add\n      swap1\n      dup2\n      mstore\n      0x20\n      add\n      0x00\n      keccak256\n        /* \"contracts/Hangman.sol\":4390:4424  Game storage g = games[msg.sender] */\n      swap1\n      pop\n        /* \"contracts/Hangman.sol\":4457:4458  g */\n      dup1\n        /* \"contracts/Hangman.sol\":4457:4465  g.status */\n      0x00\n      add\n      0x00\n      swap1\n      sload\n      swap1\n      0x0100\n      exp\n      swap1\n      div\n      0xff\n      and\n        /* \"contracts/Hangman.sol\":4480:4481  g */\n      dup2\n        /* \"contracts/Hangman.sol\":4480:4488  g.length */\n      0x00\n      add\n      0x01\n      swap1\n      sload\n      swap1\n      0x0100\n      exp\n      swap1\n      div\n      0xff\n      and\n        /* \"contracts/Hangman.sol\":4503:4504  g */\n      dup3\n        /* \"contracts/Hangman.sol\":4503:4517  g.wrongGuesses */\n      0x00\n      add\n      0x02\n      swap1\n      sload\n      swap1\n      0x0100\n      exp\n      swap1\n      div\n      0xff\n      and\n        /* \"contracts/Hangman.sol\":4532:4533  g */\n      dup4\n        /* \"contracts/Hangman.sol\":4532:4538  g.mask */\n      0x01\n      add\n        /* \"contracts/Hangman.sol\":4553:4554  g */\n      dup5\n        /* \"contracts/Hangman.sol\":4553:4566  g.guessedMask */\n      0x02\n      add\n      0x00\n      swap1\n      sload\n      swap1\n      0x0100\n      exp\n      swap1\n      div\n      0xffffffff\n      and\n        /* \"contracts/Hangman.sol\":4581:4582  g */\n      dup6\n        /* \"contracts/Hangman.sol\":4581:4594  g.correctMask */\n      0x02\n      add\n      0x04\n      swap1\n      sload\n      swap1\n      0x0100\n      exp\n      swap1\n      div\n      0xffffffff\n      and\n        /* \"contracts/Hangman.sol\":4609:4610  g */\n      dup7\n        /* \"contracts/Hangman.sol\":4609:4620  g.wrongMask */\n      0x02\n      add\n      0x08\n      swap1\n      sload\n      swap1\n      0x0100\n      exp\n      swap1\n      div\n      0xffffffff\n      and\n        /* \"contracts/Hangman.sol\":4435:4631  return (... */\n      dup4\n      dup1\n      sload\n      tag_30\n      swap1\n      tag_31\n      jump\t// in\n    tag_30:\n      dup1\n      0x1f\n      add\n      0x20\n      dup1\n      swap2\n      div\n      mul\n      0x20\n      add\n      mload(0x40)\n      swap1\n      dup2\n      add\n      0x40\n      mstore\n      dup1\n      swap3\n      swap2\n      swap1\n      dup2\n      dup2\n      mstore\n      0x20\n      add\n      dup3\n      dup1\n      sload\n      tag_32\n      swap1\n      tag_31\n      jump\t// in\n    tag_32:\n      dup1\n      iszero\n      tag_33\n      jumpi\n      dup1\n      0x1f\n      lt\n      tag_34\n      jumpi\n      0x0100\n      dup1\n      dup4\n      sload\n      div\n      mul\n      dup4\n      mstore\n      swap2\n      0x20\n      add\n      swap2\n      jump(tag_33)\n    tag_34:\n      dup3\n      add\n      swap2\n      swap1\n      0x00\n      mstore\n      keccak256(0x00, 0x20)\n      swap1\n    tag_35:\n      dup2\n      sload\n      dup2\n      mstore\n      swap1\n      0x01\n      add\n      swap1\n      0x20\n      add\n      dup1\n      dup4\n      gt\n      tag_35\n      jumpi\n      dup3\n      swap1\n      sub\n      0x1f\n      and\n      dup3\n      add\n      swap2\n    tag_33:\n      pop\n      pop\n      pop\n      pop\n      pop\n      swap4\n      pop\n      swap8\n      pop\n      swap8\n      pop\n      swap8\n      pop\n      swap8\n      pop\n      swap8\n      pop\n      swap8\n      pop\n      swap8\n      pop\n      pop\n        /* \"contracts/Hangman.sol\":4140:4639  function getMyGame() external view returns(... */\n      swap1\n      swap2\n      swap3\n      swap4\n      swap5\n      swap6\n      swap7\n      jump\t// out\n        /* \"contracts/Hangman.sol\":511:545  uint8 public constant MAX_LEN = 10 */\n    tag_14:\n        /* \"contracts/Hangman.sol\":543:545  10 */\n      0x0a\n        /* \"contracts/Hangman.sol\":511:545  uint8 public constant MAX_LEN = 10 */\n      dup2\n      jump\t// out\n        /* \"contracts/Hangman.sol\":471:504  uint8 public constant MIN_LEN = 4 */\n    tag_18:\n        /* \"contracts/Hangman.sol\":503:504  4 */\n      0x04\n        /* \"contracts/Hangman.sol\":471:504  uint8 public constant MIN_LEN = 4 */\n      dup2\n      jump\t// out\n        /* \"contracts/Hangman.sol\":2789:4132  function guessLetter(bytes1 letter) external {... */\n    tag_23:\n        /* \"contracts/Hangman.sol\":2845:2859  Game storage g */\n      0x00\n        /* \"contracts/Hangman.sol\":2862:2867  games */\n      dup1\n        /* \"contracts/Hangman.sol\":2862:2879  games[msg.sender] */\n      0x00\n        /* \"contracts/Hangman.sol\":2868:2878  msg.sender */\n      caller\n        /* \"contracts/Hangman.sol\":2862:2879  games[msg.sender] */\n      0xffffffffffffffffffffffffffffffffffffffff\n      and\n      0xffffffffffffffffffffffffffffffffffffffff\n      and\n      dup2\n      mstore\n      0x20\n      add\n      swap1\n      dup2\n      mstore\n      0x20\n      add\n      0x00\n      keccak256\n        /* \"contracts/Hangman.sol\":2845:2879  Game storage g = games[msg.sender] */\n      swap1\n      pop\n        /* \"contracts/Hangman.sol\":2910:2923  Status.Active */\n      0x01\n        /* \"contracts/Hangman.sol\":2898:2923  g.status == Status.Active */\n      0x03\n      dup2\n      gt\n      iszero\n      tag_37\n      jumpi\n      tag_38\n      tag_39\n      jump\t// in\n    tag_38:\n    tag_37:\n        /* \"contracts/Hangman.sol\":2898:2899  g */\n      dup2\n        /* \"contracts/Hangman.sol\":2898:2906  g.status */\n      0x00\n      add\n      0x00\n      swap1\n      sload\n      swap1\n      0x0100\n      exp\n      swap1\n      div\n      0xff\n      and\n        /* \"contracts/Hangman.sol\":2898:2923  g.status == Status.Active */\n      0x03\n      dup2\n      gt\n      iszero\n      tag_40\n      jumpi\n      tag_41\n      tag_39\n      jump\t// in\n    tag_41:\n    tag_40:\n      eq\n        /* \"contracts/Hangman.sol\":2890:2942  require(g.status == Status.Active, \"no active game\") */\n      tag_42\n      jumpi\n      mload(0x40)\n      0x08c379a000000000000000000000000000000000000000000000000000000000\n      dup2\n      mstore\n      0x04\n      add\n      tag_43\n      swap1\n      tag_44\n      jump\t// in\n    tag_43:\n      mload(0x40)\n      dup1\n      swap2\n      sub\n      swap1\n      revert\n    tag_42:\n        /* \"contracts/Hangman.sol\":2955:2964  uint8 idx */\n      0x00\n        /* \"contracts/Hangman.sol\":2967:2987  _letterIndex(letter) */\n      tag_45\n        /* \"contracts/Hangman.sol\":2980:2986  letter */\n      dup4\n        /* \"contracts/Hangman.sol\":2967:2979  _letterIndex */\n      tag_46\n        /* \"contracts/Hangman.sol\":2967:2987  _letterIndex(letter) */\n      jump\t// in\n    tag_45:\n        /* \"contracts/Hangman.sol\":2955:2987  uint8 idx = _letterIndex(letter) */\n      swap1\n      pop\n        /* \"contracts/Hangman.sol\":2998:3008  uint32 bit */\n      0x00\n        /* \"contracts/Hangman.sol\":3024:3027  idx */\n      dup2\n        /* \"contracts/Hangman.sol\":3011:3027  uint32(1) << idx */\n      0xff\n      and\n        /* \"contracts/Hangman.sol\":3018:3019  1 */\n      0x01\n        /* \"contracts/Hangman.sol\":3011:3027  uint32(1) << idx */\n      0xffffffff\n      and\n      swap1\n      shl\n        /* \"contracts/Hangman.sol\":2998:3027  uint32 bit = uint32(1) << idx */\n      swap1\n      pop\n        /* \"contracts/Hangman.sol\":3073:3074  0 */\n      0x00\n        /* \"contracts/Hangman.sol\":3065:3068  bit */\n      dup2\n        /* \"contracts/Hangman.sol\":3049:3050  g */\n      dup5\n        /* \"contracts/Hangman.sol\":3049:3062  g.guessedMask */\n      0x02\n      add\n      0x00\n      swap1\n      sload\n      swap1\n      0x0100\n      exp\n      swap1\n      div\n      0xffffffff\n      and\n        /* \"contracts/Hangman.sol\":3049:3068  g.guessedMask & bit */\n      and\n        /* \"contracts/Hangman.sol\":3048:3074  (g.guessedMask & bit) == 0 */\n      0xffffffff\n      and\n      eq\n        /* \"contracts/Hangman.sol\":3040:3101  require((g.guessedMask & bit) == 0, \"letter already guessed\") */\n      tag_47\n      jumpi\n      mload(0x40)\n      0x08c379a000000000000000000000000000000000000000000000000000000000\n      dup2\n      mstore\n      0x04\n      add\n      tag_48\n      swap1\n      tag_49\n      jump\t// in\n    tag_48:\n      mload(0x40)\n      dup1\n      swap2\n      sub\n      swap1\n      revert\n    tag_47:\n        /* \"contracts/Hangman.sol\":3129:3132  bit */\n      dup1\n        /* \"contracts/Hangman.sol\":3112:3113  g */\n      dup4\n        /* \"contracts/Hangman.sol\":3112:3125  g.guessedMask */\n      0x02\n      add\n      0x00\n        /* \"contracts/Hangman.sol\":3112:3132  g.guessedMask |= bit */\n      dup3\n      dup3\n      dup3\n      swap1\n      sload\n      swap1\n      0x0100\n      exp\n      swap1\n      div\n      0xffffffff\n      and\n      or\n      swap3\n      pop\n      0x0100\n      exp\n      dup2\n      sload\n      dup2\n      0xffffffff\n      mul\n      not\n      and\n      swap1\n      dup4\n      0xffffffff\n      and\n      mul\n      or\n      swap1\n      sstore\n      pop\n        /* \"contracts/Hangman.sol\":3146:3160  bytes memory w */\n      0x00\n        /* \"contracts/Hangman.sol\":3162:3172  bool found */\n      dup1\n        /* \"contracts/Hangman.sol\":3176:3193  _findCandidate(g) */\n      tag_50\n        /* \"contracts/Hangman.sol\":3191:3192  g */\n      dup6\n        /* \"contracts/Hangman.sol\":3176:3190  _findCandidate */\n      tag_51\n        /* \"contracts/Hangman.sol\":3176:3193  _findCandidate(g) */\n      jump\t// in\n    tag_50:\n        /* \"contracts/Hangman.sol\":3145:3193  (bytes memory w, bool found) = _findCandidate(g) */\n      swap2\n      pop\n      swap2\n      pop\n        /* \"contracts/Hangman.sol\":3212:3217  found */\n      dup1\n        /* \"contracts/Hangman.sol\":3204:3236  require(found, \"no valid words\") */\n      tag_52\n      jumpi\n      mload(0x40)\n      0x08c379a000000000000000000000000000000000000000000000000000000000\n      dup2\n      mstore\n      0x04\n      add\n      tag_53\n      swap1\n      tag_54\n      jump\t// in\n    tag_53:\n      mload(0x40)\n      dup1\n      swap2\n      sub\n      swap1\n      revert\n    tag_52:\n        /* \"contracts/Hangman.sol\":3249:3263  bool isCorrect */\n      0x00\n        /* \"contracts/Hangman.sol\":3266:3286  _contains(w, letter) */\n      tag_55\n        /* \"contracts/Hangman.sol\":3276:3277  w */\n      dup4\n        /* \"contracts/Hangman.sol\":3279:3285  letter */\n      dup9\n        /* \"contracts/Hangman.sol\":3266:3275  _contains */\n      tag_56\n        /* \"contracts/Hangman.sol\":3266:3286  _contains(w, letter) */\n      jump\t// in\n    tag_55:\n        /* \"contracts/Hangman.sol\":3249:3286  bool isCorrect = _contains(w, letter) */\n      swap1\n      pop\n        /* \"contracts/Hangman.sol\":3303:3312  isCorrect */\n      dup1\n        /* \"contracts/Hangman.sol\":3299:3938  if (isCorrect) {... */\n      iszero\n      tag_57\n      jumpi\n        /* \"contracts/Hangman.sol\":3346:3349  bit */\n      dup4\n        /* \"contracts/Hangman.sol\":3329:3330  g */\n      dup7\n        /* \"contracts/Hangman.sol\":3329:3342  g.correctMask */\n      0x02\n      add\n      0x04\n        /* \"contracts/Hangman.sol\":3329:3349  g.correctMask |= bit */\n      dup3\n      dup3\n      dup3\n      swap1\n      sload\n      swap1\n      0x0100\n      exp\n      swap1\n      div\n      0xffffffff\n      and\n      or\n      swap3\n      pop\n      0x0100\n      exp\n      dup2\n      sload\n      dup2\n      0xffffffff\n      mul\n      not\n      and\n      swap1\n      dup4\n      0xffffffff\n      and\n      mul\n      or\n      swap1\n      sstore\n      pop\n        /* \"contracts/Hangman.sol\":3369:3378  uint256 i */\n      0x00\n        /* \"contracts/Hangman.sol\":3364:3627  for (uint256 i = 0; i < g.length; i++) {... */\n    tag_58:\n        /* \"contracts/Hangman.sol\":3388:3389  g */\n      dup7\n        /* \"contracts/Hangman.sol\":3388:3396  g.length */\n      0x00\n      add\n      0x01\n      swap1\n      sload\n      swap1\n      0x0100\n      exp\n      swap1\n      div\n      0xff\n      and\n        /* \"contracts/Hangman.sol\":3384:3396  i < g.length */\n      0xff\n      and\n        /* \"contracts/Hangman.sol\":3384:3385  i */\n      dup2\n        /* \"contracts/Hangman.sol\":3384:3396  i < g.length */\n      lt\n        /* \"contracts/Hangman.sol\":3364:3627  for (uint256 i = 0; i < g.length; i++) {... */\n      iszero\n      tag_59\n      jumpi\n        /* \"contracts/Hangman.sol\":3422:3430  bytes1 c */\n      0x00\n        /* \"contracts/Hangman.sol\":3433:3434  w */\n      dup5\n        /* \"contracts/Hangman.sol\":3435:3436  i */\n      dup3\n        /* \"contracts/Hangman.sol\":3433:3437  w[i] */\n      dup2\n      mload\n      dup2\n      lt\n      tag_61\n      jumpi\n      tag_62\n      tag_63\n      jump\t// in\n    tag_62:\n    tag_61:\n      0x20\n      add\n      add\n      mload\n      0xf8\n      shr\n      0xf8\n      shl\n        /* \"contracts/Hangman.sol\":3422:3437  bytes1 c = w[i] */\n      swap1\n      pop\n        /* \"contracts/Hangman.sol\":3460:3482  _isCorrectLetter(g, c) */\n      tag_64\n        /* \"contracts/Hangman.sol\":3477:3478  g */\n      dup9\n        /* \"contracts/Hangman.sol\":3480:3481  c */\n      dup3\n        /* \"contracts/Hangman.sol\":3460:3476  _isCorrectLetter */\n      tag_65\n        /* \"contracts/Hangman.sol\":3460:3482  _isCorrectLetter(g, c) */\n      jump\t// in\n    tag_64:\n        /* \"contracts/Hangman.sol\":3456:3612  if (_isCorrectLetter(g, c)) {... */\n      iszero\n      tag_66\n      jumpi\n        /* \"contracts/Hangman.sol\":3519:3520  c */\n      dup1\n        /* \"contracts/Hangman.sol\":3507:3508  g */\n      dup9\n        /* \"contracts/Hangman.sol\":3507:3513  g.mask */\n      0x01\n      add\n        /* \"contracts/Hangman.sol\":3514:3515  i */\n      dup4\n        /* \"contracts/Hangman.sol\":3507:3516  g.mask[i] */\n      dup2\n      sload\n      tag_67\n      swap1\n      tag_31\n      jump\t// in\n    tag_67:\n      dup2\n      lt\n      tag_68\n      jumpi\n      tag_69\n      tag_63\n      jump\t// in\n    tag_69:\n    tag_68:\n      dup2\n      sload\n      0x01\n      and\n      iszero\n      tag_70\n      jumpi\n      swap1\n      0x00\n      mstore\n      keccak256(0x00, 0x20)\n      swap1\n      0x20\n      swap2\n      dup3\n      dup3\n      div\n      add\n      swap2\n      swap1\n      mod\n    tag_70:\n        /* \"contracts/Hangman.sol\":3507:3520  g.mask[i] = c */\n      0x1f\n      sub\n      0x0100\n      exp\n      dup2\n      sload\n      dup2\n      0xff\n      mul\n      not\n      and\n      swap1\n      0x0100000000000000000000000000000000000000000000000000000000000000\n      dup5\n      div\n      mul\n      or\n      swap1\n      sstore\n      pop\n        /* \"contracts/Hangman.sol\":3456:3612  if (_isCorrectLetter(g, c)) {... */\n      jump(tag_71)\n    tag_66:\n        /* \"contracts/Hangman.sol\":3581:3592  bytes1(\"_\") */\n      0x5f00000000000000000000000000000000000000000000000000000000000000\n        /* \"contracts/Hangman.sol\":3569:3570  g */\n      dup9\n        /* \"contracts/Hangman.sol\":3569:3575  g.mask */\n      0x01\n      add\n        /* \"contracts/Hangman.sol\":3576:3577  i */\n      dup4\n        /* \"contracts/Hangman.sol\":3569:3578  g.mask[i] */\n      dup2\n      sload\n      tag_72\n      swap1\n      tag_31\n      jump\t// in\n    tag_72:\n      dup2\n      lt\n      tag_73\n      jumpi\n      tag_74\n      tag_63\n      jump\t// in\n    tag_74:\n    tag_73:\n      dup2\n      sload\n      0x01\n      and\n      iszero\n      tag_75\n      jumpi\n      swap1\n      0x00\n      mstore\n      keccak256(0x00, 0x20)\n      swap1\n      0x20\n      swap2\n      dup3\n      dup3\n      div\n      add\n      swap2\n      swap1\n      mod\n    tag_75:\n        /* \"contracts/Hangman.sol\":3569:3592  g.mask[i] = bytes1(\"_\") */\n      0x1f\n      sub\n      0x0100\n      exp\n      dup2\n      sload\n      dup2\n      0xff\n      mul\n      not\n      and\n      swap1\n      0x0100000000000000000000000000000000000000000000000000000000000000\n      dup5\n      div\n      mul\n      or\n      swap1\n      sstore\n      pop\n        /* \"contracts/Hangman.sol\":3456:3612  if (_isCorrectLetter(g, c)) {... */\n    tag_71:\n        /* \"contracts/Hangman.sol\":3403:3627  {... */\n      pop\n        /* \"contracts/Hangman.sol\":3398:3401  i++ */\n      dup1\n      dup1\n      tag_76\n      swap1\n      tag_77\n      jump\t// in\n    tag_76:\n      swap2\n      pop\n      pop\n        /* \"contracts/Hangman.sol\":3364:3627  for (uint256 i = 0; i < g.length; i++) {... */\n      jump(tag_58)\n    tag_59:\n      pop\n        /* \"contracts/Hangman.sol\":3648:3670  _hasUnrevealed(g.mask) */\n      tag_78\n        /* \"contracts/Hangman.sol\":3663:3664  g */\n      dup7\n        /* \"contracts/Hangman.sol\":3663:3669  g.mask */\n      0x01\n      add\n        /* \"contracts/Hangman.sol\":3648:3670  _hasUnrevealed(g.mask) */\n      dup1\n      sload\n      tag_79\n      swap1\n      tag_31\n      jump\t// in\n    tag_79:\n      dup1\n      0x1f\n      add\n      0x20\n      dup1\n      swap2\n      div\n      mul\n      0x20\n      add\n      mload(0x40)\n      swap1\n      dup2\n      add\n      0x40\n      mstore\n      dup1\n      swap3\n      swap2\n      swap1\n      dup2\n      dup2\n      mstore\n      0x20\n      add\n      dup3\n      dup1\n      sload\n      tag_80\n      swap1\n      tag_31\n      jump\t// in\n    tag_80:\n      dup1\n      iszero\n      tag_81\n      jumpi\n      dup1\n      0x1f\n      lt\n      tag_82\n      jumpi\n      0x0100\n      dup1\n      dup4\n      sload\n      div\n      mul\n      dup4\n      mstore\n      swap2\n      0x20\n      add\n      swap2\n      jump(tag_81)\n    tag_82:\n      dup3\n      add\n      swap2\n      swap1\n      0x00\n      mstore\n      keccak256(0x00, 0x20)\n      swap1\n    tag_83:\n      dup2\n      sload\n      dup2\n      mstore\n      swap1\n      0x01\n      add\n      swap1\n      0x20\n      add\n      dup1\n      dup4\n      gt\n      tag_83\n      jumpi\n      dup3\n      swap1\n      sub\n      0x1f\n      and\n      dup3\n      add\n      swap2\n    tag_81:\n      pop\n      pop\n      pop\n      pop\n      pop\n        /* \"contracts/Hangman.sol\":3648:3662  _hasUnrevealed */\n      tag_84\n        /* \"contracts/Hangman.sol\":3648:3670  _hasUnrevealed(g.mask) */\n      jump\t// in\n    tag_78:\n        /* \"contracts/Hangman.sol\":3643:3728  if (!_hasUnrevealed(g.mask)) {... */\n      tag_85\n      jumpi\n        /* \"contracts/Hangman.sol\":3702:3712  Status.Won */\n      0x02\n        /* \"contracts/Hangman.sol\":3691:3692  g */\n      dup7\n        /* \"contracts/Hangman.sol\":3691:3699  g.status */\n      0x00\n      add\n      0x00\n        /* \"contracts/Hangman.sol\":3691:3712  g.status = Status.Won */\n      0x0100\n      exp\n      dup2\n      sload\n      dup2\n      0xff\n      mul\n      not\n      and\n      swap1\n      dup4\n      0x03\n      dup2\n      gt\n      iszero\n      tag_86\n      jumpi\n      tag_87\n      tag_39\n      jump\t// in\n    tag_87:\n    tag_86:\n      mul\n      or\n      swap1\n      sstore\n      pop\n        /* \"contracts/Hangman.sol\":3643:3728  if (!_hasUnrevealed(g.mask)) {... */\n    tag_85:\n        /* \"contracts/Hangman.sol\":3299:3938  if (isCorrect) {... */\n      jump(tag_88)\n    tag_57:\n        /* \"contracts/Hangman.sol\":3775:3778  bit */\n      dup4\n        /* \"contracts/Hangman.sol\":3760:3761  g */\n      dup7\n        /* \"contracts/Hangman.sol\":3760:3771  g.wrongMask */\n      0x02\n      add\n      0x08\n        /* \"contracts/Hangman.sol\":3760:3778  g.wrongMask |= bit */\n      dup3\n      dup3\n      dup3\n      swap1\n      sload\n      swap1\n      0x0100\n      exp\n      swap1\n      div\n      0xffffffff\n      and\n      or\n      swap3\n      pop\n      0x0100\n      exp\n      dup2\n      sload\n      dup2\n      0xffffffff\n      mul\n      not\n      and\n      swap1\n      dup4\n      0xffffffff\n      and\n      mul\n      or\n      swap1\n      sstore\n      pop\n        /* \"contracts/Hangman.sol\":3811:3812  1 */\n      0x01\n        /* \"contracts/Hangman.sol\":3793:3794  g */\n      dup7\n        /* \"contracts/Hangman.sol\":3793:3807  g.wrongGuesses */\n      0x00\n      add\n      0x02\n        /* \"contracts/Hangman.sol\":3793:3812  g.wrongGuesses += 1 */\n      dup3\n      dup3\n      dup3\n      swap1\n      sload\n      swap1\n      0x0100\n      exp\n      swap1\n      div\n      0xff\n      and\n      tag_89\n      swap2\n      swap1\n      tag_90\n      jump\t// in\n    tag_89:\n      swap3\n      pop\n      0x0100\n      exp\n      dup2\n      sload\n      dup2\n      0xff\n      mul\n      not\n      and\n      swap1\n      dup4\n      0xff\n      and\n      mul\n      or\n      swap1\n      sstore\n      pop\n        /* \"contracts/Hangman.sol\":594:595  6 */\n      0x06\n        /* \"contracts/Hangman.sol\":3833:3868  g.wrongGuesses >= MAX_WRONG_GUESSES */\n      0xff\n      and\n        /* \"contracts/Hangman.sol\":3833:3834  g */\n      dup7\n        /* \"contracts/Hangman.sol\":3833:3847  g.wrongGuesses */\n      0x00\n      add\n      0x02\n      swap1\n      sload\n      swap1\n      0x0100\n      exp\n      swap1\n      div\n      0xff\n      and\n        /* \"contracts/Hangman.sol\":3833:3868  g.wrongGuesses >= MAX_WRONG_GUESSES */\n      0xff\n      and\n      lt\n        /* \"contracts/Hangman.sol\":3829:3927  if (g.wrongGuesses >= MAX_WRONG_GUESSES) {... */\n      tag_91\n      jumpi\n        /* \"contracts/Hangman.sol\":3900:3911  Status.Lost */\n      0x03\n        /* \"contracts/Hangman.sol\":3889:3890  g */\n      dup7\n        /* \"contracts/Hangman.sol\":3889:3897  g.status */\n      0x00\n      add\n      0x00\n        /* \"contracts/Hangman.sol\":3889:3911  g.status = Status.Lost */\n      0x0100\n      exp\n      dup2\n      sload\n      dup2\n      0xff\n      mul\n      not\n      and\n      swap1\n      dup4\n      0x03\n      dup2\n      gt\n      iszero\n      tag_92\n      jumpi\n      tag_93\n      tag_39\n      jump\t// in\n    tag_93:\n    tag_92:\n      mul\n      or\n      swap1\n      sstore\n      pop\n        /* \"contracts/Hangman.sol\":3829:3927  if (g.wrongGuesses >= MAX_WRONG_GUESSES) {... */\n    tag_91:\n        /* \"contracts/Hangman.sol\":3299:3938  if (isCorrect) {... */\n    tag_88:\n        /* \"contracts/Hangman.sol\":3983:3993  msg.sender */\n      caller\n        /* \"contracts/Hangman.sol\":3955:4122  LetterGuessed(... */\n      0xffffffffffffffffffffffffffffffffffffffff\n      and\n      0x158e50b6c009c05279b63369ee0914aac86906246da69b271f2e77f49fdd082a\n        /* \"contracts/Hangman.sol\":4008:4014  letter */\n      dup9\n        /* \"contracts/Hangman.sol\":4029:4038  isCorrect */\n      dup4\n        /* \"contracts/Hangman.sol\":4053:4054  g */\n      dup10\n        /* \"contracts/Hangman.sol\":4053:4059  g.mask */\n      0x01\n      add\n        /* \"contracts/Hangman.sol\":4074:4075  g */\n      dup11\n        /* \"contracts/Hangman.sol\":4074:4088  g.wrongGuesses */\n      0x00\n      add\n      0x02\n      swap1\n      sload\n      swap1\n      0x0100\n      exp\n      swap1\n      div\n      0xff\n      and\n        /* \"contracts/Hangman.sol\":4103:4104  g */\n      dup12\n        /* \"contracts/Hangman.sol\":4103:4111  g.status */\n      0x00\n      add\n      0x00\n      swap1\n      sload\n      swap1\n      0x0100\n      exp\n      swap1\n      div\n      0xff\n      and\n        /* \"contracts/Hangman.sol\":3955:4122  LetterGuessed(... */\n      mload(0x40)\n      tag_94\n      swap6\n      swap5\n      swap4\n      swap3\n      swap2\n      swap1\n      tag_95\n      jump\t// in\n    tag_94:\n      mload(0x40)\n      dup1\n      swap2\n      sub\n      swap1\n      log2\n        /* \"contracts/Hangman.sol\":2834:4132  {... */\n      pop\n      pop\n      pop\n      pop\n      pop\n      pop\n        /* \"contracts/Hangman.sol\":2789:4132  function guessLetter(bytes1 letter) external {... */\n      pop\n      jump\t// out\n        /* \"contracts/Hangman.sol\":2178:2781  function startGame() external {... */\n    tag_25:\n        /* \"contracts/Hangman.sol\":2219:2233  Game storage g */\n      0x00\n        /* \"contracts/Hangman.sol\":2236:2241  games */\n      dup1\n        /* \"contracts/Hangman.sol\":2236:2253  games[msg.sender] */\n      0x00\n        /* \"contracts/Hangman.sol\":2242:2252  msg.sender */\n      caller\n        /* \"contracts/Hangman.sol\":2236:2253  games[msg.sender] */\n      0xffffffffffffffffffffffffffffffffffffffff\n      and\n      0xffffffffffffffffffffffffffffffffffffffff\n      and\n      dup2\n      mstore\n      0x20\n      add\n      swap1\n      dup2\n      mstore\n      0x20\n      add\n      0x00\n      keccak256\n        /* \"contracts/Hangman.sol\":2219:2253  Game storage g = games[msg.sender] */\n      swap1\n      pop\n        /* \"contracts/Hangman.sol\":2286:2299  Status.Active */\n      0x01\n        /* \"contracts/Hangman.sol\":2274:2299  g.status != Status.Active */\n      0x03\n      dup2\n      gt\n      iszero\n      tag_97\n      jumpi\n      tag_98\n      tag_39\n      jump\t// in\n    tag_98:\n    tag_97:\n        /* \"contracts/Hangman.sol\":2274:2275  g */\n      dup2\n        /* \"contracts/Hangman.sol\":2274:2282  g.status */\n      0x00\n      add\n      0x00\n      swap1\n      sload\n      swap1\n      0x0100\n      exp\n      swap1\n      div\n      0xff\n      and\n        /* \"contracts/Hangman.sol\":2274:2299  g.status != Status.Active */\n      0x03\n      dup2\n      gt\n      iszero\n      tag_99\n      jumpi\n      tag_100\n      tag_39\n      jump\t// in\n    tag_100:\n    tag_99:\n      sub\n        /* \"contracts/Hangman.sol\":2266:2323  require(g.status != Status.Active, \"game already active\") */\n      tag_101\n      jumpi\n      mload(0x40)\n      0x08c379a000000000000000000000000000000000000000000000000000000000\n      dup2\n      mstore\n      0x04\n      add\n      tag_102\n      swap1\n      tag_103\n      jump\t// in\n    tag_102:\n      mload(0x40)\n      dup1\n      swap2\n      sub\n      swap1\n      revert\n    tag_101:\n        /* \"contracts/Hangman.sol\":2336:2348  uint8 length */\n      0x00\n        /* \"contracts/Hangman.sol\":2351:2366  _randomLength() */\n      tag_104\n        /* \"contracts/Hangman.sol\":2351:2364  _randomLength */\n      tag_105\n        /* \"contracts/Hangman.sol\":2351:2366  _randomLength() */\n      jump\t// in\n    tag_104:\n        /* \"contracts/Hangman.sol\":2336:2366  uint8 length = _randomLength() */\n      swap1\n      pop\n        /* \"contracts/Hangman.sol\":2398:2411  Status.Active */\n      0x01\n        /* \"contracts/Hangman.sol\":2387:2388  g */\n      dup3\n        /* \"contracts/Hangman.sol\":2387:2395  g.status */\n      0x00\n      add\n      0x00\n        /* \"contracts/Hangman.sol\":2387:2411  g.status = Status.Active */\n      0x0100\n      exp\n      dup2\n      sload\n      dup2\n      0xff\n      mul\n      not\n      and\n      swap1\n      dup4\n      0x03\n      dup2\n      gt\n      iszero\n      tag_106\n      jumpi\n      tag_107\n      tag_39\n      jump\t// in\n    tag_107:\n    tag_106:\n      mul\n      or\n      swap1\n      sstore\n      pop\n        /* \"contracts/Hangman.sol\":2433:2439  length */\n      dup1\n        /* \"contracts/Hangman.sol\":2422:2423  g */\n      dup3\n        /* \"contracts/Hangman.sol\":2422:2430  g.length */\n      0x00\n      add\n      0x01\n        /* \"contracts/Hangman.sol\":2422:2439  g.length = length */\n      0x0100\n      exp\n      dup2\n      sload\n      dup2\n      0xff\n      mul\n      not\n      and\n      swap1\n      dup4\n      0xff\n      and\n      mul\n      or\n      swap1\n      sstore\n      pop\n        /* \"contracts/Hangman.sol\":2467:2468  0 */\n      0x00\n        /* \"contracts/Hangman.sol\":2450:2451  g */\n      dup3\n        /* \"contracts/Hangman.sol\":2450:2464  g.wrongGuesses */\n      0x00\n      add\n      0x02\n        /* \"contracts/Hangman.sol\":2450:2468  g.wrongGuesses = 0 */\n      0x0100\n      exp\n      dup2\n      sload\n      dup2\n      0xff\n      mul\n      not\n      and\n      swap1\n      dup4\n      0xff\n      and\n      mul\n      or\n      swap1\n      sstore\n      pop\n        /* \"contracts/Hangman.sol\":2495:2496  0 */\n      0x00\n        /* \"contracts/Hangman.sol\":2479:2480  g */\n      dup3\n        /* \"contracts/Hangman.sol\":2479:2492  g.guessedMask */\n      0x02\n      add\n      0x00\n        /* \"contracts/Hangman.sol\":2479:2496  g.guessedMask = 0 */\n      0x0100\n      exp\n      dup2\n      sload\n      dup2\n      0xffffffff\n      mul\n      not\n      and\n      swap1\n      dup4\n      0xffffffff\n      and\n      mul\n      or\n      swap1\n      sstore\n      pop\n        /* \"contracts/Hangman.sol\":2523:2524  0 */\n      0x00\n        /* \"contracts/Hangman.sol\":2507:2508  g */\n      dup3\n        /* \"contracts/Hangman.sol\":2507:2520  g.correctMask */\n      0x02\n      add\n      0x04\n        /* \"contracts/Hangman.sol\":2507:2524  g.correctMask = 0 */\n      0x0100\n      exp\n      dup2\n      sload\n      dup2\n      0xffffffff\n      mul\n      not\n      and\n      swap1\n      dup4\n      0xffffffff\n      and\n      mul\n      or\n      swap1\n      sstore\n      pop\n        /* \"contracts/Hangman.sol\":2549:2550  0 */\n      0x00\n        /* \"contracts/Hangman.sol\":2535:2536  g */\n      dup3\n        /* \"contracts/Hangman.sol\":2535:2546  g.wrongMask */\n      0x02\n      add\n      0x08\n        /* \"contracts/Hangman.sol\":2535:2550  g.wrongMask = 0 */\n      0x0100\n      exp\n      dup2\n      sload\n      dup2\n      0xffffffff\n      mul\n      not\n      and\n      swap1\n      dup4\n      0xffffffff\n      and\n      mul\n      or\n      swap1\n      sstore\n      pop\n        /* \"contracts/Hangman.sol\":2582:2588  length */\n      dup1\n        /* \"contracts/Hangman.sol\":2572:2589  new bytes(length) */\n      0xff\n      and\n      0xffffffffffffffff\n      dup2\n      gt\n      iszero\n      tag_108\n      jumpi\n      tag_109\n      tag_110\n      jump\t// in\n    tag_109:\n    tag_108:\n      mload(0x40)\n      swap1\n      dup1\n      dup3\n      mstore\n      dup1\n      0x1f\n      add\n      not(0x1f)\n      and\n      0x20\n      add\n      dup3\n      add\n      0x40\n      mstore\n      dup1\n      iszero\n      tag_111\n      jumpi\n      dup2\n      0x20\n      add\n      0x01\n      dup3\n      mul\n      dup1\n      calldatasize\n      dup4\n      calldatacopy\n      dup1\n      dup3\n      add\n      swap2\n      pop\n      pop\n      swap1\n      pop\n    tag_111:\n      pop\n        /* \"contracts/Hangman.sol\":2563:2564  g */\n      dup3\n        /* \"contracts/Hangman.sol\":2563:2569  g.mask */\n      0x01\n      add\n        /* \"contracts/Hangman.sol\":2563:2589  g.mask = new bytes(length) */\n      swap1\n      dup2\n      tag_112\n      swap2\n      swap1\n      tag_113\n      jump\t// in\n    tag_112:\n      pop\n        /* \"contracts/Hangman.sol\":2605:2614  uint256 i */\n      0x00\n        /* \"contracts/Hangman.sol\":2600:2687  for (uint256 i = 0; i < length; i++) {... */\n    tag_114:\n        /* \"contracts/Hangman.sol\":2624:2630  length */\n      dup2\n        /* \"contracts/Hangman.sol\":2620:2630  i < length */\n      0xff\n      and\n        /* \"contracts/Hangman.sol\":2620:2621  i */\n      dup2\n        /* \"contracts/Hangman.sol\":2620:2630  i < length */\n      lt\n        /* \"contracts/Hangman.sol\":2600:2687  for (uint256 i = 0; i < length; i++) {... */\n      iszero\n      tag_115\n      jumpi\n        /* \"contracts/Hangman.sol\":2664:2675  bytes1(\"_\") */\n      0x5f00000000000000000000000000000000000000000000000000000000000000\n        /* \"contracts/Hangman.sol\":2652:2653  g */\n      dup4\n        /* \"contracts/Hangman.sol\":2652:2658  g.mask */\n      0x01\n      add\n        /* \"contracts/Hangman.sol\":2659:2660  i */\n      dup3\n        /* \"contracts/Hangman.sol\":2652:2661  g.mask[i] */\n      dup2\n      sload\n      tag_117\n      swap1\n      tag_31\n      jump\t// in\n    tag_117:\n      dup2\n      lt\n      tag_118\n      jumpi\n      tag_119\n      tag_63\n      jump\t// in\n    tag_119:\n    tag_118:\n      dup2\n      sload\n      0x01\n      and\n      iszero\n      tag_120\n      jumpi\n      swap1\n      0x00\n      mstore\n      keccak256(0x00, 0x20)\n      swap1\n      0x20\n      swap2\n      dup3\n      dup3\n      div\n      add\n      swap2\n      swap1\n      mod\n    tag_120:\n        /* \"contracts/Hangman.sol\":2652:2675  g.mask[i] = bytes1(\"_\") */\n      0x1f\n      sub\n      0x0100\n      exp\n      dup2\n      sload\n      dup2\n      0xff\n      mul\n      not\n      and\n      swap1\n      0x0100000000000000000000000000000000000000000000000000000000000000\n      dup5\n      div\n      mul\n      or\n      swap1\n      sstore\n      pop\n        /* \"contracts/Hangman.sol\":2632:2635  i++ */\n      dup1\n      dup1\n      tag_121\n      swap1\n      tag_77\n      jump\t// in\n    tag_121:\n      swap2\n      pop\n      pop\n        /* \"contracts/Hangman.sol\":2600:2687  for (uint256 i = 0; i < length; i++) {... */\n      jump(tag_114)\n    tag_115:\n      pop\n        /* \"contracts/Hangman.sol\":2726:2736  msg.sender */\n      caller\n        /* \"contracts/Hangman.sol\":2704:2773  GameStarted... */\n      0xffffffffffffffffffffffffffffffffffffffff\n      and\n      0x362a5ee0744680df9f8bd7848062c7608e392410201575266042218106f40596\n        /* \"contracts/Hangman.sol\":2748:2754  length */\n      dup3\n        /* \"contracts/Hangman.sol\":2766:2767  g */\n      dup5\n        /* \"contracts/Hangman.sol\":2766:2772  g.mask */\n      0x01\n      add\n        /* \"contracts/Hangman.sol\":2704:2773  GameStarted... */\n      mload(0x40)\n      tag_122\n      swap3\n      swap2\n      swap1\n      tag_123\n      jump\t// in\n    tag_122:\n      mload(0x40)\n      dup1\n      swap2\n      sub\n      swap1\n      log2\n        /* \"contracts/Hangman.sol\":2208:2781  {... */\n      pop\n      pop\n        /* \"contracts/Hangman.sol\":2178:2781  function startGame() external {... */\n      jump\t// out\n        /* \"contracts/Hangman.sol\":552:595  uint8 public constant MAX_WRONG_GUESSES = 6 */\n    tag_27:\n        /* \"contracts/Hangman.sol\":594:595  6 */\n      0x06\n        /* \"contracts/Hangman.sol\":552:595  uint8 public constant MAX_WRONG_GUESSES = 6 */\n      dup2\n      jump\t// out\n        /* \"contracts/Hangman.sol\":5939:6141  function _letterIndex(bytes1 letter) internal pure returns (uint8) {... */\n    tag_46:\n        /* \"contracts/Hangman.sol\":5999:6004  uint8 */\n      0x00\n        /* \"contracts/Hangman.sol\":6017:6024  uint8 c */\n      dup1\n        /* \"contracts/Hangman.sol\":6033:6039  letter */\n      dup3\n        /* \"contracts/Hangman.sol\":6027:6040  uint8(letter) */\n      0xf8\n      shr\n        /* \"contracts/Hangman.sol\":6017:6040  uint8 c = uint8(letter) */\n      swap1\n      pop\n        /* \"contracts/Hangman.sol\":6064:6066  97 */\n      0x61\n        /* \"contracts/Hangman.sol\":6059:6060  c */\n      dup2\n        /* \"contracts/Hangman.sol\":6059:6066  c >= 97 */\n      0xff\n      and\n      lt\n      iszero\n        /* \"contracts/Hangman.sol\":6059:6078  c >= 97 && c <= 122 */\n      dup1\n      iszero\n      tag_125\n      jumpi\n      pop\n        /* \"contracts/Hangman.sol\":6075:6078  122 */\n      0x7a\n        /* \"contracts/Hangman.sol\":6070:6071  c */\n      dup2\n        /* \"contracts/Hangman.sol\":6070:6078  c <= 122 */\n      0xff\n      and\n      gt\n      iszero\n        /* \"contracts/Hangman.sol\":6059:6078  c >= 97 && c <= 122 */\n    tag_125:\n        /* \"contracts/Hangman.sol\":6051:6109  require(c >= 97 && c <= 122, \"input must be a letter a-z\") */\n      tag_126\n      jumpi\n      mload(0x40)\n      0x08c379a000000000000000000000000000000000000000000000000000000000\n      dup2\n      mstore\n      0x04\n      add\n      tag_127\n      swap1\n      tag_128\n      jump\t// in\n    tag_127:\n      mload(0x40)\n      dup1\n      swap2\n      sub\n      swap1\n      revert\n    tag_126:\n        /* \"contracts/Hangman.sol\":6131:6133  97 */\n      0x61\n        /* \"contracts/Hangman.sol\":6127:6128  c */\n      dup2\n        /* \"contracts/Hangman.sol\":6127:6133  c - 97 */\n      tag_129\n      swap2\n      swap1\n      tag_130\n      jump\t// in\n    tag_129:\n        /* \"contracts/Hangman.sol\":6120:6133  return c - 97 */\n      swap2\n      pop\n      pop\n        /* \"contracts/Hangman.sol\":5939:6141  function _letterIndex(bytes1 letter) internal pure returns (uint8) {... */\n      swap2\n      swap1\n      pop\n      jump\t// out\n        /* \"contracts/Hangman.sol\":4697:5109  function _findCandidate(Game storage g) internal view returns (... */\n    tag_51:\n        /* \"contracts/Hangman.sol\":4770:4787  bytes memory word */\n      0x60\n        /* \"contracts/Hangman.sol\":4798:4808  bool found */\n      0x00\n        /* \"contracts/Hangman.sol\":4832:4841  uint256 i */\n      dup1\n        /* \"contracts/Hangman.sol\":4844:4845  0 */\n      0x00\n        /* \"contracts/Hangman.sol\":4832:4845  uint256 i = 0 */\n      swap1\n      pop\n        /* \"contracts/Hangman.sol\":4827:5073  for (uint256 i = 0; i < DICT.length; i++) {... */\n    tag_132:\n        /* \"contracts/Hangman.sol\":4851:4855  DICT */\n      0x01\n        /* \"contracts/Hangman.sol\":4851:4862  DICT.length */\n      dup1\n      sload\n      swap1\n      pop\n        /* \"contracts/Hangman.sol\":4847:4848  i */\n      dup2\n        /* \"contracts/Hangman.sol\":4847:4862  i < DICT.length */\n      lt\n        /* \"contracts/Hangman.sol\":4827:5073  for (uint256 i = 0; i < DICT.length; i++) {... */\n      iszero\n      tag_133\n      jumpi\n        /* \"contracts/Hangman.sol\":4884:4898  bytes memory w */\n      0x00\n        /* \"contracts/Hangman.sol\":4907:4911  DICT */\n      0x01\n        /* \"contracts/Hangman.sol\":4912:4913  i */\n      dup3\n        /* \"contracts/Hangman.sol\":4907:4914  DICT[i] */\n      dup2\n      sload\n      dup2\n      lt\n      tag_135\n      jumpi\n      tag_136\n      tag_63\n      jump\t// in\n    tag_136:\n    tag_135:\n      swap1\n      0x00\n      mstore\n      keccak256(0x00, 0x20)\n      add\n        /* \"contracts/Hangman.sol\":4884:4915  bytes memory w = bytes(DICT[i]) */\n      dup1\n      sload\n      tag_138\n      swap1\n      tag_31\n      jump\t// in\n    tag_138:\n      dup1\n      0x1f\n      add\n      0x20\n      dup1\n      swap2\n      div\n      mul\n      0x20\n      add\n      mload(0x40)\n      swap1\n      dup2\n      add\n      0x40\n      mstore\n      dup1\n      swap3\n      swap2\n      swap1\n      dup2\n      dup2\n      mstore\n      0x20\n      add\n      dup3\n      dup1\n      sload\n      tag_139\n      swap1\n      tag_31\n      jump\t// in\n    tag_139:\n      dup1\n      iszero\n      tag_140\n      jumpi\n      dup1\n      0x1f\n      lt\n      tag_141\n      jumpi\n      0x0100\n      dup1\n      dup4\n      sload\n      div\n      mul\n      dup4\n      mstore\n      swap2\n      0x20\n      add\n      swap2\n      jump(tag_140)\n    tag_141:\n      dup3\n      add\n      swap2\n      swap1\n      0x00\n      mstore\n      keccak256(0x00, 0x20)\n      swap1\n    tag_142:\n      dup2\n      sload\n      dup2\n      mstore\n      swap1\n      0x01\n      add\n      swap1\n      0x20\n      add\n      dup1\n      dup4\n      gt\n      tag_142\n      jumpi\n      dup3\n      swap1\n      sub\n      0x1f\n      and\n      dup3\n      add\n      swap2\n    tag_140:\n      pop\n      pop\n      pop\n      pop\n      pop\n      swap1\n      pop\n        /* \"contracts/Hangman.sol\":4946:4947  g */\n      dup5\n        /* \"contracts/Hangman.sol\":4946:4954  g.length */\n      0x00\n      add\n      0x01\n      swap1\n      sload\n      swap1\n      0x0100\n      exp\n      swap1\n      div\n      0xff\n      and\n        /* \"contracts/Hangman.sol\":4934:4954  w.length != g.length */\n      0xff\n      and\n        /* \"contracts/Hangman.sol\":4934:4935  w */\n      dup2\n        /* \"contracts/Hangman.sol\":4934:4942  w.length */\n      mload\n        /* \"contracts/Hangman.sol\":4934:4954  w.length != g.length */\n      eq\n        /* \"contracts/Hangman.sol\":4930:4964  if (w.length != g.length) continue */\n      tag_143\n      jumpi\n        /* \"contracts/Hangman.sol\":4956:4964  continue */\n      pop\n      jump(tag_134)\n        /* \"contracts/Hangman.sol\":4930:4964  if (w.length != g.length) continue */\n    tag_143:\n        /* \"contracts/Hangman.sol\":4985:5010  _matchesConstraints(g, w) */\n      tag_144\n        /* \"contracts/Hangman.sol\":5005:5006  g */\n      dup6\n        /* \"contracts/Hangman.sol\":5008:5009  w */\n      dup3\n        /* \"contracts/Hangman.sol\":4985:5004  _matchesConstraints */\n      tag_145\n        /* \"contracts/Hangman.sol\":4985:5010  _matchesConstraints(g, w) */\n      jump\t// in\n    tag_144:\n        /* \"contracts/Hangman.sol\":4981:5062  if (_matchesConstraints(g, w)){... */\n      iszero\n      tag_146\n      jumpi\n        /* \"contracts/Hangman.sol\":5038:5039  w */\n      dup1\n        /* \"contracts/Hangman.sol\":5041:5045  true */\n      0x01\n        /* \"contracts/Hangman.sol\":5030:5046  return (w, true) */\n      swap4\n      pop\n      swap4\n      pop\n      pop\n      pop\n      jump(tag_131)\n        /* \"contracts/Hangman.sol\":4981:5062  if (_matchesConstraints(g, w)){... */\n    tag_146:\n        /* \"contracts/Hangman.sol\":4869:5073  {... */\n      pop\n        /* \"contracts/Hangman.sol\":4827:5073  for (uint256 i = 0; i < DICT.length; i++) {... */\n    tag_134:\n        /* \"contracts/Hangman.sol\":4864:4867  i++ */\n      dup1\n      dup1\n      tag_147\n      swap1\n      tag_77\n      jump\t// in\n    tag_147:\n      swap2\n      pop\n      pop\n        /* \"contracts/Hangman.sol\":4827:5073  for (uint256 i = 0; i < DICT.length; i++) {... */\n      jump(tag_132)\n    tag_133:\n      pop\n        /* \"contracts/Hangman.sol\":5095:5100  false */\n      0x00\n        /* \"contracts/Hangman.sol\":5083:5101  return (\"\", false) */\n      mload(0x40)\n      dup1\n      0x20\n      add\n      0x40\n      mstore\n      dup1\n      0x00\n      dup2\n      mstore\n      pop\n      swap1\n      swap2\n      pop\n      swap2\n      pop\n        /* \"contracts/Hangman.sol\":4697:5109  function _findCandidate(Game storage g) internal view returns (... */\n    tag_131:\n      swap2\n      pop\n      swap2\n      jump\t// out\n        /* \"contracts/Hangman.sol\":6603:6820  function _contains(bytes memory w, bytes1 letter) internal pure returns (bool) {... */\n    tag_56:\n        /* \"contracts/Hangman.sol\":6676:6680  bool */\n      0x00\n        /* \"contracts/Hangman.sol\":6698:6707  uint256 i */\n      dup1\n        /* \"contracts/Hangman.sol\":6710:6711  0 */\n      0x00\n        /* \"contracts/Hangman.sol\":6698:6711  uint256 i = 0 */\n      swap1\n      pop\n        /* \"contracts/Hangman.sol\":6693:6790  for (uint256 i = 0; i < w.length; i++) {... */\n    tag_149:\n        /* \"contracts/Hangman.sol\":6717:6718  w */\n      dup4\n        /* \"contracts/Hangman.sol\":6717:6725  w.length */\n      mload\n        /* \"contracts/Hangman.sol\":6713:6714  i */\n      dup2\n        /* \"contracts/Hangman.sol\":6713:6725  i < w.length */\n      lt\n        /* \"contracts/Hangman.sol\":6693:6790  for (uint256 i = 0; i < w.length; i++) {... */\n      iszero\n      tag_150\n      jumpi\n        /* \"contracts/Hangman.sol\":6759:6765  letter */\n      dup3\n        /* \"contracts/Hangman.sol\":6751:6765  w[i] == letter */\n      not(0xffffffffffffffffffffffffffffffffffffffffffffffffffffffffffffff)\n      and\n        /* \"contracts/Hangman.sol\":6751:6752  w */\n      dup5\n        /* \"contracts/Hangman.sol\":6753:6754  i */\n      dup3\n        /* \"contracts/Hangman.sol\":6751:6755  w[i] */\n      dup2\n      mload\n      dup2\n      lt\n      tag_152\n      jumpi\n      tag_153\n      tag_63\n      jump\t// in\n    tag_153:\n    tag_152:\n      0x20\n      add\n      add\n      mload\n      0xf8\n      shr\n      0xf8\n      shl\n        /* \"contracts/Hangman.sol\":6751:6765  w[i] == letter */\n      not(0xffffffffffffffffffffffffffffffffffffffffffffffffffffffffffffff)\n      and\n      sub\n        /* \"contracts/Hangman.sol\":6747:6778  if (w[i] == letter) return true */\n      tag_154\n      jumpi\n        /* \"contracts/Hangman.sol\":6774:6778  true */\n      0x01\n        /* \"contracts/Hangman.sol\":6767:6778  return true */\n      swap2\n      pop\n      pop\n      jump(tag_148)\n        /* \"contracts/Hangman.sol\":6747:6778  if (w[i] == letter) return true */\n    tag_154:\n        /* \"contracts/Hangman.sol\":6727:6730  i++ */\n      dup1\n      dup1\n      tag_155\n      swap1\n      tag_77\n      jump\t// in\n    tag_155:\n      swap2\n      pop\n      pop\n        /* \"contracts/Hangman.sol\":6693:6790  for (uint256 i = 0; i < w.length; i++) {... */\n      jump(tag_149)\n    tag_150:\n      pop\n        /* \"contracts/Hangman.sol\":6807:6812  false */\n      0x00\n        /* \"contracts/Hangman.sol\":6800:6812  return false */\n      swap1\n      pop\n        /* \"contracts/Hangman.sol\":6603:6820  function _contains(bytes memory w, bytes1 letter) internal pure returns (bool) {... */\n    tag_148:\n      swap3\n      swap2\n      pop\n      pop\n      jump\t// out\n        /* \"contracts/Hangman.sol\":6149:6370  function _isCorrectLetter(Game storage g, bytes1 c) internal view returns (bool) {... */\n    tag_65:\n        /* \"contracts/Hangman.sol\":6224:6228  bool */\n      0x00\n        /* \"contracts/Hangman.sol\":6241:6250  uint8 idx */\n      dup1\n        /* \"contracts/Hangman.sol\":6264:6266  97 */\n      0x61\n        /* \"contracts/Hangman.sol\":6259:6260  c */\n      dup4\n        /* \"contracts/Hangman.sol\":6253:6261  uint8(c) */\n      0xf8\n      shr\n        /* \"contracts/Hangman.sol\":6253:6266  uint8(c) - 97 */\n      tag_157\n      swap2\n      swap1\n      tag_130\n      jump\t// in\n    tag_157:\n        /* \"contracts/Hangman.sol\":6241:6266  uint8 idx = uint8(c) - 97 */\n      swap1\n      pop\n        /* \"contracts/Hangman.sol\":6287:6289  25 */\n      0x19\n        /* \"contracts/Hangman.sol\":6281:6284  idx */\n      dup2\n        /* \"contracts/Hangman.sol\":6281:6289  idx > 25 */\n      0xff\n      and\n      gt\n        /* \"contracts/Hangman.sol\":6277:6303  if (idx > 25) return false */\n      iszero\n      tag_158\n      jumpi\n        /* \"contracts/Hangman.sol\":6298:6303  false */\n      0x00\n        /* \"contracts/Hangman.sol\":6291:6303  return false */\n      swap2\n      pop\n      pop\n      jump(tag_156)\n        /* \"contracts/Hangman.sol\":6277:6303  if (idx > 25) return false */\n    tag_158:\n        /* \"contracts/Hangman.sol\":6361:6362  0 */\n      0x00\n        /* \"contracts/Hangman.sol\":6352:6355  idx */\n      dup2\n        /* \"contracts/Hangman.sol\":6339:6355  uint32(1) << idx */\n      0xff\n      and\n        /* \"contracts/Hangman.sol\":6346:6347  1 */\n      0x01\n        /* \"contracts/Hangman.sol\":6339:6355  uint32(1) << idx */\n      0xffffffff\n      and\n      swap1\n      shl\n        /* \"contracts/Hangman.sol\":6322:6323  g */\n      dup6\n        /* \"contracts/Hangman.sol\":6322:6335  g.correctMask */\n      0x02\n      add\n      0x04\n      swap1\n      sload\n      swap1\n      0x0100\n      exp\n      swap1\n      div\n      0xffffffff\n      and\n        /* \"contracts/Hangman.sol\":6322:6356  g.correctMask & (uint32(1) << idx) */\n      and\n        /* \"contracts/Hangman.sol\":6321:6362  (g.correctMask & (uint32(1) << idx)) != 0 */\n      0xffffffff\n      and\n      eq\n      iszero\n        /* \"contracts/Hangman.sol\":6314:6362  return (g.correctMask & (uint32(1) << idx)) != 0 */\n      swap2\n      pop\n      pop\n        /* \"contracts/Hangman.sol\":6149:6370  function _isCorrectLetter(Game storage g, bytes1 c) internal view returns (bool) {... */\n    tag_156:\n      swap3\n      swap2\n      pop\n      pop\n      jump\t// out\n        /* \"contracts/Hangman.sol\":6828:7040  function _hasUnrevealed(bytes memory m) internal pure returns (bool) {... */\n    tag_84:\n        /* \"contracts/Hangman.sol\":6891:6895  bool */\n      0x00\n        /* \"contracts/Hangman.sol\":6913:6922  uint256 i */\n      dup1\n        /* \"contracts/Hangman.sol\":6925:6926  0 */\n      0x00\n        /* \"contracts/Hangman.sol\":6913:6926  uint256 i = 0 */\n      swap1\n      pop\n        /* \"contracts/Hangman.sol\":6908:7010  for (uint256 i = 0; i < m.length; i++) {... */\n    tag_160:\n        /* \"contracts/Hangman.sol\":6932:6933  m */\n      dup3\n        /* \"contracts/Hangman.sol\":6932:6940  m.length */\n      mload\n        /* \"contracts/Hangman.sol\":6928:6929  i */\n      dup2\n        /* \"contracts/Hangman.sol\":6928:6940  i < m.length */\n      lt\n        /* \"contracts/Hangman.sol\":6908:7010  for (uint256 i = 0; i < m.length; i++) {... */\n      iszero\n      tag_161\n      jumpi\n        /* \"contracts/Hangman.sol\":6974:6985  bytes1(\"_\") */\n      0x5f00000000000000000000000000000000000000000000000000000000000000\n        /* \"contracts/Hangman.sol\":6966:6985  m[i] == bytes1(\"_\") */\n      not(0xffffffffffffffffffffffffffffffffffffffffffffffffffffffffffffff)\n      and\n        /* \"contracts/Hangman.sol\":6966:6967  m */\n      dup4\n        /* \"contracts/Hangman.sol\":6968:6969  i */\n      dup3\n        /* \"contracts/Hangman.sol\":6966:6970  m[i] */\n      dup2\n      mload\n      dup2\n      lt\n      tag_163\n      jumpi\n      tag_164\n      tag_63\n      jump\t// in\n    tag_164:\n    tag_163:\n      0x20\n      add\n      add\n      mload\n      0xf8\n      shr\n      0xf8\n      shl\n        /* \"contracts/Hangman.sol\":6966:6985  m[i] == bytes1(\"_\") */\n      not(0xffffffffffffffffffffffffffffffffffffffffffffffffffffffffffffff)\n      and\n      sub\n        /* \"contracts/Hangman.sol\":6962:6998  if (m[i] == bytes1(\"_\")) return true */\n      tag_165\n      jumpi\n        /* \"contracts/Hangman.sol\":6994:6998  true */\n      0x01\n        /* \"contracts/Hangman.sol\":6987:6998  return true */\n      swap2\n      pop\n      pop\n      jump(tag_159)\n        /* \"contracts/Hangman.sol\":6962:6998  if (m[i] == bytes1(\"_\")) return true */\n    tag_165:\n        /* \"contracts/Hangman.sol\":6942:6945  i++ */\n      dup1\n      dup1\n      tag_166\n      swap1\n      tag_77\n      jump\t// in\n    tag_166:\n      swap2\n      pop\n      pop\n        /* \"contracts/Hangman.sol\":6908:7010  for (uint256 i = 0; i < m.length; i++) {... */\n      jump(tag_160)\n    tag_161:\n      pop\n        /* \"contracts/Hangman.sol\":7027:7032  false */\n      0x00\n        /* \"contracts/Hangman.sol\":7020:7032  return false */\n      swap1\n      pop\n        /* \"contracts/Hangman.sol\":6828:7040  function _hasUnrevealed(bytes memory m) internal pure returns (bool) {... */\n    tag_159:\n      swap2\n      swap1\n      pop\n      jump\t// out\n        /* \"contracts/Hangman.sol\":5650:5931  function _randomLength() internal view returns (uint8) {... */\n    tag_105:\n        /* \"contracts/Hangman.sol\":5698:5703  uint8 */\n      0x00\n        /* \"contracts/Hangman.sol\":5716:5728  uint256 span */\n      dup1\n        /* \"contracts/Hangman.sol\":5759:5760  1 */\n      0x01\n        /* \"contracts/Hangman.sol\":503:504  4 */\n      0x04\n        /* \"contracts/Hangman.sol\":543:545  10 */\n      0x0a\n        /* \"contracts/Hangman.sol\":5739:5756  MAX_LEN - MIN_LEN */\n      tag_168\n      swap2\n      swap1\n      tag_130\n      jump\t// in\n    tag_168:\n        /* \"contracts/Hangman.sol\":5739:5760  MAX_LEN - MIN_LEN + 1 */\n      tag_169\n      swap2\n      swap1\n      tag_90\n      jump\t// in\n    tag_169:\n        /* \"contracts/Hangman.sol\":5731:5761  uint256(MAX_LEN - MIN_LEN + 1) */\n      0xff\n      and\n        /* \"contracts/Hangman.sol\":5716:5761  uint256 span = uint256(MAX_LEN - MIN_LEN + 1) */\n      swap1\n      pop\n        /* \"contracts/Hangman.sol\":5772:5781  uint256 r */\n      0x00\n        /* \"contracts/Hangman.sol\":5844:5845  1 */\n      0x01\n        /* \"contracts/Hangman.sol\":5829:5841  block.number */\n      number\n        /* \"contracts/Hangman.sol\":5829:5845  block.number - 1 */\n      tag_170\n      swap2\n      swap1\n      tag_171\n      jump\t// in\n    tag_170:\n        /* \"contracts/Hangman.sol\":5819:5846  blockhash(block.number - 1) */\n      blockhash\n        /* \"contracts/Hangman.sol\":5848:5863  block.timestamp */\n      timestamp\n        /* \"contracts/Hangman.sol\":5865:5875  msg.sender */\n      caller\n        /* \"contracts/Hangman.sol\":5802:5876  abi.encodePacked(blockhash(block.number - 1), block.timestamp, msg.sender) */\n      add(0x20, mload(0x40))\n      tag_172\n      swap4\n      swap3\n      swap2\n      swap1\n      tag_173\n      jump\t// in\n    tag_172:\n      mload(0x40)\n      0x20\n      dup2\n      dup4\n      sub\n      sub\n      dup2\n      mstore\n      swap1\n      0x40\n      mstore\n        /* \"contracts/Hangman.sol\":5792:5877  keccak256(abi.encodePacked(blockhash(block.number - 1), block.timestamp, msg.sender)) */\n      dup1\n      mload\n      swap1\n      0x20\n      add\n      keccak256\n        /* \"contracts/Hangman.sol\":5784:5878  uint256(keccak256(abi.encodePacked(blockhash(block.number - 1), block.timestamp, msg.sender))) */\n      0x00\n      shr\n        /* \"contracts/Hangman.sol\":5772:5878  uint256 r = uint256(keccak256(abi.encodePacked(blockhash(block.number - 1), block.timestamp, msg.sender))) */\n      swap1\n      pop\n        /* \"contracts/Hangman.sol\":5917:5921  span */\n      dup2\n        /* \"contracts/Hangman.sol\":5913:5914  r */\n      dup2\n        /* \"contracts/Hangman.sol\":5913:5921  r % span */\n      tag_174\n      swap2\n      swap1\n      tag_175\n      jump\t// in\n    tag_174:\n        /* \"contracts/Hangman.sol\":503:504  4 */\n      0x04\n        /* \"contracts/Hangman.sol\":5902:5922  MIN_LEN + (r % span) */\n      0xff\n      and\n      tag_176\n      swap2\n      swap1\n      tag_177\n      jump\t// in\n    tag_176:\n        /* \"contracts/Hangman.sol\":5889:5923  return uint8(MIN_LEN + (r % span)) */\n      swap3\n      pop\n      pop\n      pop\n        /* \"contracts/Hangman.sol\":5650:5931  function _randomLength() internal view returns (uint8) {... */\n      swap1\n      jump\t// out\n        /* \"contracts/Hangman.sol\":5117:5602  function _matchesConstraints(Game storage g, bytes memory w) internal view returns (bool) {... */\n    tag_145:\n        /* \"contracts/Hangman.sol\":5201:5205  bool */\n      0x00\n        /* \"contracts/Hangman.sol\":5223:5232  uint256 i */\n      dup1\n        /* \"contracts/Hangman.sol\":5235:5236  0 */\n      0x00\n        /* \"contracts/Hangman.sol\":5223:5236  uint256 i = 0 */\n      swap1\n      pop\n        /* \"contracts/Hangman.sol\":5218:5573  for (uint256 i = 0; i < g.length; i++) {... */\n    tag_179:\n        /* \"contracts/Hangman.sol\":5242:5243  g */\n      dup4\n        /* \"contracts/Hangman.sol\":5242:5250  g.length */\n      0x00\n      add\n      0x01\n      swap1\n      sload\n      swap1\n      0x0100\n      exp\n      swap1\n      div\n      0xff\n      and\n        /* \"contracts/Hangman.sol\":5238:5250  i < g.length */\n      0xff\n      and\n        /* \"contracts/Hangman.sol\":5238:5239  i */\n      dup2\n        /* \"contracts/Hangman.sol\":5238:5250  i < g.length */\n      lt\n        /* \"contracts/Hangman.sol\":5218:5573  for (uint256 i = 0; i < g.length; i++) {... */\n      iszero\n      tag_180\n      jumpi\n        /* \"contracts/Hangman.sol\":5272:5281  bytes1 wc */\n      0x00\n        /* \"contracts/Hangman.sol\":5284:5285  w */\n      dup4\n        /* \"contracts/Hangman.sol\":5286:5287  i */\n      dup3\n        /* \"contracts/Hangman.sol\":5284:5288  w[i] */\n      dup2\n      mload\n      dup2\n      lt\n      tag_182\n      jumpi\n      tag_183\n      tag_63\n      jump\t// in\n    tag_183:\n    tag_182:\n      0x20\n      add\n      add\n      mload\n      0xf8\n      shr\n      0xf8\n      shl\n        /* \"contracts/Hangman.sol\":5272:5288  bytes1 wc = w[i] */\n      swap1\n      pop\n        /* \"contracts/Hangman.sol\":5303:5312  bytes1 mc */\n      0x00\n        /* \"contracts/Hangman.sol\":5315:5316  g */\n      dup6\n        /* \"contracts/Hangman.sol\":5315:5321  g.mask */\n      0x01\n      add\n        /* \"contracts/Hangman.sol\":5322:5323  i */\n      dup4\n        /* \"contracts/Hangman.sol\":5315:5324  g.mask[i] */\n      dup2\n      sload\n      tag_184\n      swap1\n      tag_31\n      jump\t// in\n    tag_184:\n      dup2\n      lt\n      tag_185\n      jumpi\n      tag_186\n      tag_63\n      jump\t// in\n    tag_186:\n    tag_185:\n      dup2\n      sload\n      0x01\n      and\n      iszero\n      tag_187\n      jumpi\n      swap1\n      0x00\n      mstore\n      keccak256(0x00, 0x20)\n      swap1\n      0x20\n      swap2\n      dup3\n      dup3\n      div\n      add\n      swap2\n      swap1\n      mod\n    tag_187:\n      swap1\n      sload\n      swap1\n      byte\n      0x0100000000000000000000000000000000000000000000000000000000000000\n      mul\n        /* \"contracts/Hangman.sol\":5303:5324  bytes1 mc = g.mask[i] */\n      swap1\n      pop\n        /* \"contracts/Hangman.sol\":5351:5362  bytes1(\"_\") */\n      0x5f00000000000000000000000000000000000000000000000000000000000000\n        /* \"contracts/Hangman.sol\":5345:5362  mc != bytes1(\"_\") */\n      not(0xffffffffffffffffffffffffffffffffffffffffffffffffffffffffffffff)\n      and\n        /* \"contracts/Hangman.sol\":5345:5347  mc */\n      dup2\n        /* \"contracts/Hangman.sol\":5345:5362  mc != bytes1(\"_\") */\n      not(0xffffffffffffffffffffffffffffffffffffffffffffffffffffffffffffff)\n      and\n      eq\n        /* \"contracts/Hangman.sol\":5341:5506  if (mc != bytes1(\"_\")){... */\n      tag_188\n      jumpi\n        /* \"contracts/Hangman.sol\":5392:5394  mc */\n      dup1\n        /* \"contracts/Hangman.sol\":5386:5394  wc != mc */\n      not(0xffffffffffffffffffffffffffffffffffffffffffffffffffffffffffffff)\n      and\n        /* \"contracts/Hangman.sol\":5386:5388  wc */\n      dup3\n        /* \"contracts/Hangman.sol\":5386:5394  wc != mc */\n      not(0xffffffffffffffffffffffffffffffffffffffffffffffffffffffffffffff)\n      and\n      eq\n        /* \"contracts/Hangman.sol\":5382:5408  if (wc != mc) return false */\n      tag_189\n      jumpi\n        /* \"contracts/Hangman.sol\":5403:5408  false */\n      0x00\n        /* \"contracts/Hangman.sol\":5396:5408  return false */\n      swap4\n      pop\n      pop\n      pop\n      pop\n      jump(tag_178)\n        /* \"contracts/Hangman.sol\":5382:5408  if (wc != mc) return false */\n    tag_189:\n        /* \"contracts/Hangman.sol\":5341:5506  if (mc != bytes1(\"_\")){... */\n      jump(tag_190)\n    tag_188:\n        /* \"contracts/Hangman.sol\":5453:5476  _isCorrectLetter(g, wc) */\n      tag_191\n        /* \"contracts/Hangman.sol\":5470:5471  g */\n      dup7\n        /* \"contracts/Hangman.sol\":5473:5475  wc */\n      dup4\n        /* \"contracts/Hangman.sol\":5453:5469  _isCorrectLetter */\n      tag_65\n        /* \"contracts/Hangman.sol\":5453:5476  _isCorrectLetter(g, wc) */\n      jump\t// in\n    tag_191:\n        /* \"contracts/Hangman.sol\":5449:5490  if (_isCorrectLetter(g, wc)) return false */\n      iszero\n      tag_192\n      jumpi\n        /* \"contracts/Hangman.sol\":5485:5490  false */\n      0x00\n        /* \"contracts/Hangman.sol\":5478:5490  return false */\n      swap4\n      pop\n      pop\n      pop\n      pop\n      jump(tag_178)\n        /* \"contracts/Hangman.sol\":5449:5490  if (_isCorrectLetter(g, wc)) return false */\n    tag_192:\n        /* \"contracts/Hangman.sol\":5341:5506  if (mc != bytes1(\"_\")){... */\n    tag_190:\n        /* \"contracts/Hangman.sol\":5526:5547  _isWrongLetter(g, wc) */\n      tag_193\n        /* \"contracts/Hangman.sol\":5541:5542  g */\n      dup7\n        /* \"contracts/Hangman.sol\":5544:5546  wc */\n      dup4\n        /* \"contracts/Hangman.sol\":5526:5540  _isWrongLetter */\n      tag_194\n        /* \"contracts/Hangman.sol\":5526:5547  _isWrongLetter(g, wc) */\n      jump\t// in\n    tag_193:\n        /* \"contracts/Hangman.sol\":5522:5561  if (_isWrongLetter(g, wc)) return false */\n      iszero\n      tag_195\n      jumpi\n        /* \"contracts/Hangman.sol\":5556:5561  false */\n      0x00\n        /* \"contracts/Hangman.sol\":5549:5561  return false */\n      swap4\n      pop\n      pop\n      pop\n      pop\n      jump(tag_178)\n        /* \"contracts/Hangman.sol\":5522:5561  if (_isWrongLetter(g, wc)) return false */\n    tag_195:\n        /* \"contracts/Hangman.sol\":5257:5573  {... */\n      pop\n      pop\n        /* \"contracts/Hangman.sol\":5252:5255  i++ */\n      dup1\n      dup1\n      tag_196\n      swap1\n      tag_77\n      jump\t// in\n    tag_196:\n      swap2\n      pop\n      pop\n        /* \"contracts/Hangman.sol\":5218:5573  for (uint256 i = 0; i < g.length; i++) {... */\n      jump(tag_179)\n    tag_180:\n      pop\n        /* \"contracts/Hangman.sol\":5590:5594  true */\n      0x01\n        /* \"contracts/Hangman.sol\":5583:5594  return true */\n      swap1\n      pop\n        /* \"contracts/Hangman.sol\":5117:5602  function _matchesConstraints(Game storage g, bytes memory w) internal view returns (bool) {... */\n    tag_178:\n      swap3\n      swap2\n      pop\n      pop\n      jump\t// out\n        /* \"contracts/Hangman.sol\":6378:6595  function _isWrongLetter(Game storage g, bytes1 c) internal view returns (bool) {... */\n    tag_194:\n        /* \"contracts/Hangman.sol\":6451:6455  bool */\n      0x00\n        /* \"contracts/Hangman.sol\":6468:6477  uint8 idx */\n      dup1\n        /* \"contracts/Hangman.sol\":6491:6493  97 */\n      0x61\n        /* \"contracts/Hangman.sol\":6486:6487  c */\n      dup4\n        /* \"contracts/Hangman.sol\":6480:6488  uint8(c) */\n      0xf8\n      shr\n        /* \"contracts/Hangman.sol\":6480:6493  uint8(c) - 97 */\n      tag_198\n      swap2\n      swap1\n      tag_130\n      jump\t// in\n    tag_198:\n        /* \"contracts/Hangman.sol\":6468:6493  uint8 idx = uint8(c) - 97 */\n      swap1\n      pop\n        /* \"contracts/Hangman.sol\":6514:6516  25 */\n      0x19\n        /* \"contracts/Hangman.sol\":6508:6511  idx */\n      dup2\n        /* \"contracts/Hangman.sol\":6508:6516  idx > 25 */\n      0xff\n      and\n      gt\n        /* \"contracts/Hangman.sol\":6504:6530  if (idx > 25) return false */\n      iszero\n      tag_199\n      jumpi\n        /* \"contracts/Hangman.sol\":6525:6530  false */\n      0x00\n        /* \"contracts/Hangman.sol\":6518:6530  return false */\n      swap2\n      pop\n      pop\n      jump(tag_197)\n        /* \"contracts/Hangman.sol\":6504:6530  if (idx > 25) return false */\n    tag_199:\n        /* \"contracts/Hangman.sol\":6586:6587  0 */\n      0x00\n        /* \"contracts/Hangman.sol\":6577:6580  idx */\n      dup2\n        /* \"contracts/Hangman.sol\":6564:6580  uint32(1) << idx */\n      0xff\n      and\n        /* \"contracts/Hangman.sol\":6571:6572  1 */\n      0x01\n        /* \"contracts/Hangman.sol\":6564:6580  uint32(1) << idx */\n      0xffffffff\n      and\n      swap1\n      shl\n        /* \"contracts/Hangman.sol\":6549:6550  g */\n      dup6\n        /* \"contracts/Hangman.sol\":6549:6560  g.wrongMask */\n      0x02\n      add\n      0x08\n      swap1\n      sload\n      swap1\n      0x0100\n      exp\n      swap1\n      div\n      0xffffffff\n      and\n        /* \"contracts/Hangman.sol\":6549:6581  g.wrongMask & (uint32(1) << idx) */\n      and\n        /* \"contracts/Hangman.sol\":6548:6587  (g.wrongMask & (uint32(1) << idx)) != 0 */\n      0xffffffff\n      and\n      eq\n      iszero\n        /* \"contracts/Hangman.sol\":6541:6587  return (g.wrongMask & (uint32(1) << idx)) != 0 */\n      swap2\n      pop\n      pop\n        /* \"contracts/Hangman.sol\":6378:6595  function _isWrongLetter(Game storage g, bytes1 c) internal view returns (bool) {... */\n    tag_197:\n      swap3\n      swap2\n      pop\n      pop\n      jump\t// out\n        /* \"#utility.yul\":7:187   */\n    tag_39:\n        /* \"#utility.yul\":55:132   */\n      0x4e487b7100000000000000000000000000000000000000000000000000000000\n        /* \"#utility.yul\":52:53   */\n      0x00\n        /* \"#utility.yul\":45:133   */\n      mstore\n        /* \"#utility.yul\":152:156   */\n      0x21\n        /* \"#utility.yul\":149:150   */\n      0x04\n        /* \"#utility.yul\":142:157   */\n      mstore\n        /* \"#utility.yul\":176:180   */\n      0x24\n        /* \"#utility.yul\":173:174   */\n      0x00\n        /* \"#utility.yul\":166:181   */\n      revert\n        /* \"#utility.yul\":193:306   */\n    tag_200:\n        /* \"#utility.yul\":274:275   */\n      0x04\n        /* \"#utility.yul\":267:272   */\n      dup2\n        /* \"#utility.yul\":264:276   */\n      lt\n        /* \"#utility.yul\":254:300   */\n      tag_267\n      jumpi\n        /* \"#utility.yul\":280:298   */\n      tag_268\n      tag_39\n      jump\t// in\n    tag_268:\n        /* \"#utility.yul\":254:300   */\n    tag_267:\n        /* \"#utility.yul\":193:306   */\n      pop\n      jump\t// out\n        /* \"#utility.yul\":312:439   */\n    tag_201:\n        /* \"#utility.yul\":357:364   */\n      0x00\n        /* \"#utility.yul\":386:391   */\n      dup2\n        /* \"#utility.yul\":375:391   */\n      swap1\n      pop\n        /* \"#utility.yul\":392:433   */\n      tag_270\n        /* \"#utility.yul\":427:432   */\n      dup3\n        /* \"#utility.yul\":392:433   */\n      tag_200\n      jump\t// in\n    tag_270:\n        /* \"#utility.yul\":312:439   */\n      swap2\n      swap1\n      pop\n      jump\t// out\n        /* \"#utility.yul\":445:572   */\n    tag_202:\n        /* \"#utility.yul\":501:510   */\n      0x00\n        /* \"#utility.yul\":534:566   */\n      tag_272\n        /* \"#utility.yul\":560:565   */\n      dup3\n        /* \"#utility.yul\":534:566   */\n      tag_201\n      jump\t// in\n    tag_272:\n        /* \"#utility.yul\":521:566   */\n      swap1\n      pop\n        /* \"#utility.yul\":445:572   */\n      swap2\n      swap1\n      pop\n      jump\t// out\n        /* \"#utility.yul\":578:721   */\n    tag_203:\n        /* \"#utility.yul\":671:714   */\n      tag_274\n        /* \"#utility.yul\":708:713   */\n      dup2\n        /* \"#utility.yul\":671:714   */\n      tag_202\n      jump\t// in\n    tag_274:\n        /* \"#utility.yul\":666:669   */\n      dup3\n        /* \"#utility.yul\":659:715   */\n      mstore\n        /* \"#utility.yul\":578:721   */\n      pop\n      pop\n      jump\t// out\n        /* \"#utility.yul\":727:813   */\n    tag_204:\n        /* \"#utility.yul\":762:769   */\n      0x00\n        /* \"#utility.yul\":802:806   */\n      0xff\n        /* \"#utility.yul\":795:800   */\n      dup3\n        /* \"#utility.yul\":791:807   */\n      and\n        /* \"#utility.yul\":780:807   */\n      swap1\n      pop\n        /* \"#utility.yul\":727:813   */\n      swap2\n      swap1\n      pop\n      jump\t// out\n        /* \"#utility.yul\":819:931   */\n    tag_205:\n        /* \"#utility.yul\":902:924   */\n      tag_277\n        /* \"#utility.yul\":918:923   */\n      dup2\n        /* \"#utility.yul\":902:924   */\n      tag_204\n      jump\t// in\n    tag_277:\n        /* \"#utility.yul\":897:900   */\n      dup3\n        /* \"#utility.yul\":890:925   */\n      mstore\n        /* \"#utility.yul\":819:931   */\n      pop\n      pop\n      jump\t// out\n        /* \"#utility.yul\":937:1035   */\n    tag_206:\n        /* \"#utility.yul\":988:994   */\n      0x00\n        /* \"#utility.yul\":1022:1027   */\n      dup2\n        /* \"#utility.yul\":1016:1028   */\n      mload\n        /* \"#utility.yul\":1006:1028   */\n      swap1\n      pop\n        /* \"#utility.yul\":937:1035   */\n      swap2\n      swap1\n      pop\n      jump\t// out\n        /* \"#utility.yul\":1041:1209   */\n    tag_207:\n        /* \"#utility.yul\":1124:1135   */\n      0x00\n        /* \"#utility.yul\":1158:1164   */\n      dup3\n        /* \"#utility.yul\":1153:1156   */\n      dup3\n        /* \"#utility.yul\":1146:1165   */\n      mstore\n        /* \"#utility.yul\":1198:1202   */\n      0x20\n        /* \"#utility.yul\":1193:1196   */\n      dup3\n        /* \"#utility.yul\":1189:1203   */\n      add\n        /* \"#utility.yul\":1174:1203   */\n      swap1\n      pop\n        /* \"#utility.yul\":1041:1209   */\n      swap3\n      swap2\n      pop\n      pop\n      jump\t// out\n        /* \"#utility.yul\":1215:1461   */\n    tag_208:\n        /* \"#utility.yul\":1296:1297   */\n      0x00\n        /* \"#utility.yul\":1306:1419   */\n    tag_281:\n        /* \"#utility.yul\":1320:1326   */\n      dup4\n        /* \"#utility.yul\":1317:1318   */\n      dup2\n        /* \"#utility.yul\":1314:1327   */\n      lt\n        /* \"#utility.yul\":1306:1419   */\n      iszero\n      tag_283\n      jumpi\n        /* \"#utility.yul\":1405:1406   */\n      dup1\n        /* \"#utility.yul\":1400:1403   */\n      dup3\n        /* \"#utility.yul\":1396:1407   */\n      add\n        /* \"#utility.yul\":1390:1408   */\n      mload\n        /* \"#utility.yul\":1386:1387   */\n      dup2\n        /* \"#utility.yul\":1381:1384   */\n      dup5\n        /* \"#utility.yul\":1377:1388   */\n      add\n        /* \"#utility.yul\":1370:1409   */\n      mstore\n        /* \"#utility.yul\":1342:1344   */\n      0x20\n        /* \"#utility.yul\":1339:1340   */\n      dup2\n        /* \"#utility.yul\":1335:1345   */\n      add\n        /* \"#utility.yul\":1330:1345   */\n      swap1\n      pop\n        /* \"#utility.yul\":1306:1419   */\n      jump(tag_281)\n    tag_283:\n        /* \"#utility.yul\":1453:1454   */\n      0x00\n        /* \"#utility.yul\":1444:1450   */\n      dup5\n        /* \"#utility.yul\":1439:1442   */\n      dup5\n        /* \"#utility.yul\":1435:1451   */\n      add\n        /* \"#utility.yul\":1428:1455   */\n      mstore\n        /* \"#utility.yul\":1277:1461   */\n      pop\n        /* \"#utility.yul\":1215:1461   */\n      pop\n      pop\n      pop\n      jump\t// out\n        /* \"#utility.yul\":1467:1569   */\n    tag_209:\n        /* \"#utility.yul\":1508:1514   */\n      0x00\n        /* \"#utility.yul\":1559:1561   */\n      0x1f\n        /* \"#utility.yul\":1555:1562   */\n      not\n        /* \"#utility.yul\":1550:1552   */\n      0x1f\n        /* \"#utility.yul\":1543:1548   */\n      dup4\n        /* \"#utility.yul\":1539:1553   */\n      add\n        /* \"#utility.yul\":1535:1563   */\n      and\n        /* \"#utility.yul\":1525:1563   */\n      swap1\n      pop\n        /* \"#utility.yul\":1467:1569   */\n      swap2\n      swap1\n      pop\n      jump\t// out\n        /* \"#utility.yul\":1575:1948   */\n    tag_210:\n        /* \"#utility.yul\":1661:1664   */\n      0x00\n        /* \"#utility.yul\":1689:1727   */\n      tag_286\n        /* \"#utility.yul\":1721:1726   */\n      dup3\n        /* \"#utility.yul\":1689:1727   */\n      tag_206\n      jump\t// in\n    tag_286:\n        /* \"#utility.yul\":1743:1813   */\n      tag_287\n        /* \"#utility.yul\":1806:1812   */\n      dup2\n        /* \"#utility.yul\":1801:1804   */\n      dup6\n        /* \"#utility.yul\":1743:1813   */\n      tag_207\n      jump\t// in\n    tag_287:\n        /* \"#utility.yul\":1736:1813   */\n      swap4\n      pop\n        /* \"#utility.yul\":1822:1887   */\n      tag_288\n        /* \"#utility.yul\":1880:1886   */\n      dup2\n        /* \"#utility.yul\":1875:1878   */\n      dup6\n        /* \"#utility.yul\":1868:1872   */\n      0x20\n        /* \"#utility.yul\":1861:1866   */\n      dup7\n        /* \"#utility.yul\":1857:1873   */\n      add\n        /* \"#utility.yul\":1822:1887   */\n      tag_208\n      jump\t// in\n    tag_288:\n        /* \"#utility.yul\":1912:1941   */\n      tag_289\n        /* \"#utility.yul\":1934:1940   */\n      dup2\n        /* \"#utility.yul\":1912:1941   */\n      tag_209\n      jump\t// in\n    tag_289:\n        /* \"#utility.yul\":1907:1910   */\n      dup5\n        /* \"#utility.yul\":1903:1942   */\n      add\n        /* \"#utility.yul\":1896:1942   */\n      swap2\n      pop\n        /* \"#utility.yul\":1665:1948   */\n      pop\n        /* \"#utility.yul\":1575:1948   */\n      swap3\n      swap2\n      pop\n      pop\n      jump\t// out\n        /* \"#utility.yul\":1954:2047   */\n    tag_211:\n        /* \"#utility.yul\":1990:1997   */\n      0x00\n        /* \"#utility.yul\":2030:2040   */\n      0xffffffff\n        /* \"#utility.yul\":2023:2028   */\n      dup3\n        /* \"#utility.yul\":2019:2041   */\n      and\n        /* \"#utility.yul\":2008:2041   */\n      swap1\n      pop\n        /* \"#utility.yul\":1954:2047   */\n      swap2\n      swap1\n      pop\n      jump\t// out\n        /* \"#utility.yul\":2053:2168   */\n    tag_212:\n        /* \"#utility.yul\":2138:2161   */\n      tag_292\n        /* \"#utility.yul\":2155:2160   */\n      dup2\n        /* \"#utility.yul\":2138:2161   */\n      tag_211\n      jump\t// in\n    tag_292:\n        /* \"#utility.yul\":2133:2136   */\n      dup3\n        /* \"#utility.yul\":2126:2162   */\n      mstore\n        /* \"#utility.yul\":2053:2168   */\n      pop\n      pop\n      jump\t// out\n        /* \"#utility.yul\":2174:3131   */\n    tag_12:\n        /* \"#utility.yul\":2445:2449   */\n      0x00\n        /* \"#utility.yul\":2483:2486   */\n      0xe0\n        /* \"#utility.yul\":2472:2481   */\n      dup3\n        /* \"#utility.yul\":2468:2487   */\n      add\n        /* \"#utility.yul\":2460:2487   */\n      swap1\n      pop\n        /* \"#utility.yul\":2497:2574   */\n      tag_294\n        /* \"#utility.yul\":2571:2572   */\n      0x00\n        /* \"#utility.yul\":2560:2569   */\n      dup4\n        /* \"#utility.yul\":2556:2573   */\n      add\n        /* \"#utility.yul\":2547:2553   */\n      dup11\n        /* \"#utility.yul\":2497:2574   */\n      tag_203\n      jump\t// in\n    tag_294:\n        /* \"#utility.yul\":2584:2652   */\n      tag_295\n        /* \"#utility.yul\":2648:2650   */\n      0x20\n        /* \"#utility.yul\":2637:2646   */\n      dup4\n        /* \"#utility.yul\":2633:2651   */\n      add\n        /* \"#utility.yul\":2624:2630   */\n      dup10\n        /* \"#utility.yul\":2584:2652   */\n      tag_205\n      jump\t// in\n    tag_295:\n        /* \"#utility.yul\":2662:2730   */\n      tag_296\n        /* \"#utility.yul\":2726:2728   */\n      0x40\n        /* \"#utility.yul\":2715:2724   */\n      dup4\n        /* \"#utility.yul\":2711:2729   */\n      add\n        /* \"#utility.yul\":2702:2708   */\n      dup9\n        /* \"#utility.yul\":2662:2730   */\n      tag_205\n      jump\t// in\n    tag_296:\n        /* \"#utility.yul\":2777:2786   */\n      dup2\n        /* \"#utility.yul\":2771:2775   */\n      dup2\n        /* \"#utility.yul\":2767:2787   */\n      sub\n        /* \"#utility.yul\":2762:2764   */\n      0x60\n        /* \"#utility.yul\":2751:2760   */\n      dup4\n        /* \"#utility.yul\":2747:2765   */\n      add\n        /* \"#utility.yul\":2740:2788   */\n      mstore\n        /* \"#utility.yul\":2805:2881   */\n      tag_297\n        /* \"#utility.yul\":2876:2880   */\n      dup2\n        /* \"#utility.yul\":2867:2873   */\n      dup8\n        /* \"#utility.yul\":2805:2881   */\n      tag_210\n      jump\t// in\n    tag_297:\n        /* \"#utility.yul\":2797:2881   */\n      swap1\n      pop\n        /* \"#utility.yul\":2891:2962   */\n      tag_298\n        /* \"#utility.yul\":2957:2960   */\n      0x80\n        /* \"#utility.yul\":2946:2955   */\n      dup4\n        /* \"#utility.yul\":2942:2961   */\n      add\n        /* \"#utility.yul\":2933:2939   */\n      dup7\n        /* \"#utility.yul\":2891:2962   */\n      tag_212\n      jump\t// in\n    tag_298:\n        /* \"#utility.yul\":2972:3043   */\n      tag_299\n        /* \"#utility.yul\":3038:3041   */\n      0xa0\n        /* \"#utility.yul\":3027:3036   */\n      dup4\n        /* \"#utility.yul\":3023:3042   */\n      add\n        /* \"#utility.yul\":3014:3020   */\n      dup6\n        /* \"#utility.yul\":2972:3043   */\n      tag_212\n      jump\t// in\n    tag_299:\n        /* \"#utility.yul\":3053:3124   */\n      tag_300\n        /* \"#utility.yul\":3119:3122   */\n      0xc0\n        /* \"#utility.yul\":3108:3117   */\n      dup4\n        /* \"#utility.yul\":3104:3123   */\n      add\n        /* \"#utility.yul\":3095:3101   */\n      dup5\n        /* \"#utility.yul\":3053:3124   */\n      tag_212\n      jump\t// in\n    tag_300:\n        /* \"#utility.yul\":2174:3131   */\n      swap9\n      swap8\n      pop\n      pop\n      pop\n      pop\n      pop\n      pop\n      pop\n      pop\n      jump\t// out\n        /* \"#utility.yul\":3137:3351   */\n    tag_16:\n        /* \"#utility.yul\":3226:3230   */\n      0x00\n        /* \"#utility.yul\":3264:3266   */\n      0x20\n        /* \"#utility.yul\":3253:3262   */\n      dup3\n        /* \"#utility.yul\":3249:3267   */\n      add\n        /* \"#utility.yul\":3241:3267   */\n      swap1\n      pop\n        /* \"#utility.yul\":3277:3344   */\n      tag_302\n        /* \"#utility.yul\":3341:3342   */\n      0x00\n        /* \"#utility.yul\":3330:3339   */\n      dup4\n        /* \"#utility.yul\":3326:3343   */\n      add\n        /* \"#utility.yul\":3317:3323   */\n      dup5\n        /* \"#utility.yul\":3277:3344   */\n      tag_205\n      jump\t// in\n    tag_302:\n        /* \"#utility.yul\":3137:3351   */\n      swap3\n      swap2\n      pop\n      pop\n      jump\t// out\n        /* \"#utility.yul\":3438:3555   */\n    tag_214:\n        /* \"#utility.yul\":3547:3548   */\n      0x00\n        /* \"#utility.yul\":3544:3545   */\n      dup1\n        /* \"#utility.yul\":3537:3549   */\n      revert\n        /* \"#utility.yul\":3684:3833   */\n    tag_216:\n        /* \"#utility.yul\":3720:3727   */\n      0x00\n        /* \"#utility.yul\":3760:3826   */\n      0xff00000000000000000000000000000000000000000000000000000000000000\n        /* \"#utility.yul\":3753:3758   */\n      dup3\n        /* \"#utility.yul\":3749:3827   */\n      and\n        /* \"#utility.yul\":3738:3827   */\n      swap1\n      pop\n        /* \"#utility.yul\":3684:3833   */\n      swap2\n      swap1\n      pop\n      jump\t// out\n        /* \"#utility.yul\":3839:3959   */\n    tag_217:\n        /* \"#utility.yul\":3911:3934   */\n      tag_308\n        /* \"#utility.yul\":3928:3933   */\n      dup2\n        /* \"#utility.yul\":3911:3934   */\n      tag_216\n      jump\t// in\n    tag_308:\n        /* \"#utility.yul\":3904:3909   */\n      dup2\n        /* \"#utility.yul\":3901:3935   */\n      eq\n        /* \"#utility.yul\":3891:3953   */\n      tag_309\n      jumpi\n        /* \"#utility.yul\":3949:3950   */\n      0x00\n        /* \"#utility.yul\":3946:3947   */\n      dup1\n        /* \"#utility.yul\":3939:3951   */\n      revert\n        /* \"#utility.yul\":3891:3953   */\n    tag_309:\n        /* \"#utility.yul\":3839:3959   */\n      pop\n      jump\t// out\n        /* \"#utility.yul\":3965:4102   */\n    tag_218:\n        /* \"#utility.yul\":4010:4015   */\n      0x00\n        /* \"#utility.yul\":4048:4054   */\n      dup2\n        /* \"#utility.yul\":4035:4055   */\n      calldataload\n        /* \"#utility.yul\":4026:4055   */\n      swap1\n      pop\n        /* \"#utility.yul\":4064:4096   */\n      tag_311\n        /* \"#utility.yul\":4090:4095   */\n      dup2\n        /* \"#utility.yul\":4064:4096   */\n      tag_217\n      jump\t// in\n    tag_311:\n        /* \"#utility.yul\":3965:4102   */\n      swap3\n      swap2\n      pop\n      pop\n      jump\t// out\n        /* \"#utility.yul\":4108:4435   */\n    tag_22:\n        /* \"#utility.yul\":4166:4172   */\n      0x00\n        /* \"#utility.yul\":4215:4217   */\n      0x20\n        /* \"#utility.yul\":4203:4212   */\n      dup3\n        /* \"#utility.yul\":4194:4201   */\n      dup5\n        /* \"#utility.yul\":4190:4213   */\n      sub\n        /* \"#utility.yul\":4186:4218   */\n      slt\n        /* \"#utility.yul\":4183:4302   */\n      iszero\n      tag_313\n      jumpi\n        /* \"#utility.yul\":4221:4300   */\n      tag_314\n      tag_214\n      jump\t// in\n    tag_314:\n        /* \"#utility.yul\":4183:4302   */\n    tag_313:\n        /* \"#utility.yul\":4341:4342   */\n      0x00\n        /* \"#utility.yul\":4366:4418   */\n      tag_315\n        /* \"#utility.yul\":4410:4417   */\n      dup5\n        /* \"#utility.yul\":4401:4407   */\n      dup3\n        /* \"#utility.yul\":4390:4399   */\n      dup6\n        /* \"#utility.yul\":4386:4408   */\n      add\n        /* \"#utility.yul\":4366:4418   */\n      tag_218\n      jump\t// in\n    tag_315:\n        /* \"#utility.yul\":4356:4418   */\n      swap2\n      pop\n        /* \"#utility.yul\":4312:4428   */\n      pop\n        /* \"#utility.yul\":4108:4435   */\n      swap3\n      swap2\n      pop\n      pop\n      jump\t// out\n        /* \"#utility.yul\":4441:4621   */\n    tag_219:\n        /* \"#utility.yul\":4489:4566   */\n      0x4e487b7100000000000000000000000000000000000000000000000000000000\n        /* \"#utility.yul\":4486:4487   */\n      0x00\n        /* \"#utility.yul\":4479:4567   */\n      mstore\n        /* \"#utility.yul\":4586:4590   */\n      0x22\n        /* \"#utility.yul\":4583:4584   */\n      0x04\n        /* \"#utility.yul\":4576:4591   */\n      mstore\n        /* \"#utility.yul\":4610:4614   */\n      0x24\n        /* \"#utility.yul\":4607:4608   */\n      0x00\n        /* \"#utility.yul\":4600:4615   */\n      revert\n        /* \"#utility.yul\":4627:4947   */\n    tag_31:\n        /* \"#utility.yul\":4671:4677   */\n      0x00\n        /* \"#utility.yul\":4708:4709   */\n      0x02\n        /* \"#utility.yul\":4702:4706   */\n      dup3\n        /* \"#utility.yul\":4698:4710   */\n      div\n        /* \"#utility.yul\":4688:4710   */\n      swap1\n      pop\n        /* \"#utility.yul\":4755:4756   */\n      0x01\n        /* \"#utility.yul\":4749:4753   */\n      dup3\n        /* \"#utility.yul\":4745:4757   */\n      and\n        /* \"#utility.yul\":4776:4794   */\n      dup1\n        /* \"#utility.yul\":4766:4847   */\n      tag_318\n      jumpi\n        /* \"#utility.yul\":4832:4836   */\n      0x7f\n        /* \"#utility.yul\":4824:4830   */\n      dup3\n        /* \"#utility.yul\":4820:4837   */\n      and\n        /* \"#utility.yul\":4810:4837   */\n      swap2\n      pop\n        /* \"#utility.yul\":4766:4847   */\n    tag_318:\n        /* \"#utility.yul\":4894:4896   */\n      0x20\n        /* \"#utility.yul\":4886:4892   */\n      dup3\n        /* \"#utility.yul\":4883:4897   */\n      lt\n        /* \"#utility.yul\":4863:4881   */\n      dup2\n        /* \"#utility.yul\":4860:4898   */\n      sub\n        /* \"#utility.yul\":4857:4941   */\n      tag_319\n      jumpi\n        /* \"#utility.yul\":4913:4931   */\n      tag_320\n      tag_219\n      jump\t// in\n    tag_320:\n        /* \"#utility.yul\":4857:4941   */\n    tag_319:\n        /* \"#utility.yul\":4678:4947   */\n      pop\n        /* \"#utility.yul\":4627:4947   */\n      swap2\n      swap1\n      pop\n      jump\t// out\n        /* \"#utility.yul\":4953:5122   */\n    tag_220:\n        /* \"#utility.yul\":5037:5048   */\n      0x00\n        /* \"#utility.yul\":5071:5077   */\n      dup3\n        /* \"#utility.yul\":5066:5069   */\n      dup3\n        /* \"#utility.yul\":5059:5078   */\n      mstore\n        /* \"#utility.yul\":5111:5115   */\n      0x20\n        /* \"#utility.yul\":5106:5109   */\n      dup3\n        /* \"#utility.yul\":5102:5116   */\n      add\n        /* \"#utility.yul\":5087:5116   */\n      swap1\n      pop\n        /* \"#utility.yul\":4953:5122   */\n      swap3\n      swap2\n      pop\n      pop\n      jump\t// out\n        /* \"#utility.yul\":5128:5292   */\n    tag_221:\n        /* \"#utility.yul\":5268:5284   */\n      0x6e6f206163746976652067616d65000000000000000000000000000000000000\n        /* \"#utility.yul\":5264:5265   */\n      0x00\n        /* \"#utility.yul\":5256:5262   */\n      dup3\n        /* \"#utility.yul\":5252:5266   */\n      add\n        /* \"#utility.yul\":5245:5285   */\n      mstore\n        /* \"#utility.yul\":5128:5292   */\n      pop\n      jump\t// out\n        /* \"#utility.yul\":5298:5664   */\n    tag_222:\n        /* \"#utility.yul\":5440:5443   */\n      0x00\n        /* \"#utility.yul\":5461:5528   */\n      tag_324\n        /* \"#utility.yul\":5525:5527   */\n      0x0e\n        /* \"#utility.yul\":5520:5523   */\n      dup4\n        /* \"#utility.yul\":5461:5528   */\n      tag_220\n      jump\t// in\n    tag_324:\n        /* \"#utility.yul\":5454:5528   */\n      swap2\n      pop\n        /* \"#utility.yul\":5537:5630   */\n      tag_325\n        /* \"#utility.yul\":5626:5629   */\n      dup3\n        /* \"#utility.yul\":5537:5630   */\n      tag_221\n      jump\t// in\n    tag_325:\n        /* \"#utility.yul\":5655:5657   */\n      0x20\n        /* \"#utility.yul\":5650:5653   */\n      dup3\n        /* \"#utility.yul\":5646:5658   */\n      add\n        /* \"#utility.yul\":5639:5658   */\n      swap1\n      pop\n        /* \"#utility.yul\":5298:5664   */\n      swap2\n      swap1\n      pop\n      jump\t// out\n        /* \"#utility.yul\":5670:6089   */\n    tag_44:\n        /* \"#utility.yul\":5836:5840   */\n      0x00\n        /* \"#utility.yul\":5874:5876   */\n      0x20\n        /* \"#utility.yul\":5863:5872   */\n      dup3\n        /* \"#utility.yul\":5859:5877   */\n      add\n        /* \"#utility.yul\":5851:5877   */\n      swap1\n      pop\n        /* \"#utility.yul\":5923:5932   */\n      dup2\n        /* \"#utility.yul\":5917:5921   */\n      dup2\n        /* \"#utility.yul\":5913:5933   */\n      sub\n        /* \"#utility.yul\":5909:5910   */\n      0x00\n        /* \"#utility.yul\":5898:5907   */\n      dup4\n        /* \"#utility.yul\":5894:5911   */\n      add\n        /* \"#utility.yul\":5887:5934   */\n      mstore\n        /* \"#utility.yul\":5951:6082   */\n      tag_327\n        /* \"#utility.yul\":6077:6081   */\n      dup2\n        /* \"#utility.yul\":5951:6082   */\n      tag_222\n      jump\t// in\n    tag_327:\n        /* \"#utility.yul\":5943:6082   */\n      swap1\n      pop\n        /* \"#utility.yul\":5670:6089   */\n      swap2\n      swap1\n      pop\n      jump\t// out\n        /* \"#utility.yul\":6095:6267   */\n    tag_223:\n        /* \"#utility.yul\":6235:6259   */\n      0x6c657474657220616c7265616479206775657373656400000000000000000000\n        /* \"#utility.yul\":6231:6232   */\n      0x00\n        /* \"#utility.yul\":6223:6229   */\n      dup3\n        /* \"#utility.yul\":6219:6233   */\n      add\n        /* \"#utility.yul\":6212:6260   */\n      mstore\n        /* \"#utility.yul\":6095:6267   */\n      pop\n      jump\t// out\n        /* \"#utility.yul\":6273:6639   */\n    tag_224:\n        /* \"#utility.yul\":6415:6418   */\n      0x00\n        /* \"#utility.yul\":6436:6503   */\n      tag_330\n        /* \"#utility.yul\":6500:6502   */\n      0x16\n        /* \"#utility.yul\":6495:6498   */\n      dup4\n        /* \"#utility.yul\":6436:6503   */\n      tag_220\n      jump\t// in\n    tag_330:\n        /* \"#utility.yul\":6429:6503   */\n      swap2\n      pop\n        /* \"#utility.yul\":6512:6605   */\n      tag_331\n        /* \"#utility.yul\":6601:6604   */\n      dup3\n        /* \"#utility.yul\":6512:6605   */\n      tag_223\n      jump\t// in\n    tag_331:\n        /* \"#utility.yul\":6630:6632   */\n      0x20\n        /* \"#utility.yul\":6625:6628   */\n      dup3\n        /* \"#utility.yul\":6621:6633   */\n      add\n        /* \"#utility.yul\":6614:6633   */\n      swap1\n      pop\n        /* \"#utility.yul\":6273:6639   */\n      swap2\n      swap1\n      pop\n      jump\t// out\n        /* \"#utility.yul\":6645:7064   */\n    tag_49:\n        /* \"#utility.yul\":6811:6815   */\n      0x00\n        /* \"#utility.yul\":6849:6851   */\n      0x20\n        /* \"#utility.yul\":6838:6847   */\n      dup3\n        /* \"#utility.yul\":6834:6852   */\n      add\n        /* \"#utility.yul\":6826:6852   */\n      swap1\n      pop\n        /* \"#utility.yul\":6898:6907   */\n      dup2\n        /* \"#utility.yul\":6892:6896   */\n      dup2\n        /* \"#utility.yul\":6888:6908   */\n      sub\n        /* \"#utility.yul\":6884:6885   */\n      0x00\n        /* \"#utility.yul\":6873:6882   */\n      dup4\n        /* \"#utility.yul\":6869:6886   */\n      add\n        /* \"#utility.yul\":6862:6909   */\n      mstore\n        /* \"#utility.yul\":6926:7057   */\n      tag_333\n        /* \"#utility.yul\":7052:7056   */\n      dup2\n        /* \"#utility.yul\":6926:7057   */\n      tag_224\n      jump\t// in\n    tag_333:\n        /* \"#utility.yul\":6918:7057   */\n      swap1\n      pop\n        /* \"#utility.yul\":6645:7064   */\n      swap2\n      swap1\n      pop\n      jump\t// out\n        /* \"#utility.yul\":7070:7234   */\n    tag_225:\n        /* \"#utility.yul\":7210:7226   */\n      0x6e6f2076616c696420776f726473000000000000000000000000000000000000\n        /* \"#utility.yul\":7206:7207   */\n      0x00\n        /* \"#utility.yul\":7198:7204   */\n      dup3\n        /* \"#utility.yul\":7194:7208   */\n      add\n        /* \"#utility.yul\":7187:7227   */\n      mstore\n        /* \"#utility.yul\":7070:7234   */\n      pop\n      jump\t// out\n        /* \"#utility.yul\":7240:7606   */\n    tag_226:\n        /* \"#utility.yul\":7382:7385   */\n      0x00\n        /* \"#utility.yul\":7403:7470   */\n      tag_336\n        /* \"#utility.yul\":7467:7469   */\n      0x0e\n        /* \"#utility.yul\":7462:7465   */\n      dup4\n        /* \"#utility.yul\":7403:7470   */\n      tag_220\n      jump\t// in\n    tag_336:\n        /* \"#utility.yul\":7396:7470   */\n      swap2\n      pop\n        /* \"#utility.yul\":7479:7572   */\n      tag_337\n        /* \"#utility.yul\":7568:7571   */\n      dup3\n        /* \"#utility.yul\":7479:7572   */\n      tag_225\n      jump\t// in\n    tag_337:\n        /* \"#utility.yul\":7597:7599   */\n      0x20\n        /* \"#utility.yul\":7592:7595   */\n      dup3\n        /* \"#utility.yul\":7588:7600   */\n      add\n        /* \"#utility.yul\":7581:7600   */\n      swap1\n      pop\n        /* \"#utility.yul\":7240:7606   */\n      swap2\n      swap1\n      pop\n      jump\t// out\n        /* \"#utility.yul\":7612:8031   */\n    tag_54:\n        /* \"#utility.yul\":7778:7782   */\n      0x00\n        /* \"#utility.yul\":7816:7818   */\n      0x20\n        /* \"#utility.yul\":7805:7814   */\n      dup3\n        /* \"#utility.yul\":7801:7819   */\n      add\n        /* \"#utility.yul\":7793:7819   */\n      swap1\n      pop\n        /* \"#utility.yul\":7865:7874   */\n      dup2\n        /* \"#utility.yul\":7859:7863   */\n      dup2\n        /* \"#utility.yul\":7855:7875   */\n      sub\n        /* \"#utility.yul\":7851:7852   */\n      0x00\n        /* \"#utility.yul\":7840:7849   */\n      dup4\n        /* \"#utility.yul\":7836:7853   */\n      add\n        /* \"#utility.yul\":7829:7876   */\n      mstore\n        /* \"#utility.yul\":7893:8024   */\n      tag_339\n        /* \"#utility.yul\":8019:8023   */\n      dup2\n        /* \"#utility.yul\":7893:8024   */\n      tag_226\n      jump\t// in\n    tag_339:\n        /* \"#utility.yul\":7885:8024   */\n      swap1\n      pop\n        /* \"#utility.yul\":7612:8031   */\n      swap2\n      swap1\n      pop\n      jump\t// out\n        /* \"#utility.yul\":8037:8217   */\n    tag_63:\n        /* \"#utility.yul\":8085:8162   */\n      0x4e487b7100000000000000000000000000000000000000000000000000000000\n        /* \"#utility.yul\":8082:8083   */\n      0x00\n        /* \"#utility.yul\":8075:8163   */\n      mstore\n        /* \"#utility.yul\":8182:8186   */\n      0x32\n        /* \"#utility.yul\":8179:8180   */\n      0x04\n        /* \"#utility.yul\":8172:8187   */\n      mstore\n        /* \"#utility.yul\":8206:8210   */\n      0x24\n        /* \"#utility.yul\":8203:8204   */\n      0x00\n        /* \"#utility.yul\":8196:8211   */\n      revert\n        /* \"#utility.yul\":8223:8403   */\n    tag_227:\n        /* \"#utility.yul\":8271:8348   */\n      0x4e487b7100000000000000000000000000000000000000000000000000000000\n        /* \"#utility.yul\":8268:8269   */\n      0x00\n        /* \"#utility.yul\":8261:8349   */\n      mstore\n        /* \"#utility.yul\":8368:8372   */\n      0x11\n        /* \"#utility.yul\":8365:8366   */\n      0x04\n        /* \"#utility.yul\":8358:8373   */\n      mstore\n        /* \"#utility.yul\":8392:8396   */\n      0x24\n        /* \"#utility.yul\":8389:8390   */\n      0x00\n        /* \"#utility.yul\":8382:8397   */\n      revert\n        /* \"#utility.yul\":8409:8486   */\n    tag_228:\n        /* \"#utility.yul\":8446:8453   */\n      0x00\n        /* \"#utility.yul\":8475:8480   */\n      dup2\n        /* \"#utility.yul\":8464:8480   */\n      swap1\n      pop\n        /* \"#utility.yul\":8409:8486   */\n      swap2\n      swap1\n      pop\n      jump\t// out\n        /* \"#utility.yul\":8492:8725   */\n    tag_77:\n        /* \"#utility.yul\":8531:8534   */\n      0x00\n        /* \"#utility.yul\":8554:8578   */\n      tag_344\n        /* \"#utility.yul\":8572:8577   */\n      dup3\n        /* \"#utility.yul\":8554:8578   */\n      tag_228\n      jump\t// in\n    tag_344:\n        /* \"#utility.yul\":8545:8578   */\n      swap2\n      pop\n        /* \"#utility.yul\":8600:8666   */\n      0xffffffffffffffffffffffffffffffffffffffffffffffffffffffffffffffff\n        /* \"#utility.yul\":8593:8598   */\n      dup3\n        /* \"#utility.yul\":8590:8667   */\n      sub\n        /* \"#utility.yul\":8587:8690   */\n      tag_345\n      jumpi\n        /* \"#utility.yul\":8670:8688   */\n      tag_346\n      tag_227\n      jump\t// in\n    tag_346:\n        /* \"#utility.yul\":8587:8690   */\n    tag_345:\n        /* \"#utility.yul\":8717:8718   */\n      0x01\n        /* \"#utility.yul\":8710:8715   */\n      dup3\n        /* \"#utility.yul\":8706:8719   */\n      add\n        /* \"#utility.yul\":8699:8719   */\n      swap1\n      pop\n        /* \"#utility.yul\":8492:8725   */\n      swap2\n      swap1\n      pop\n      jump\t// out\n        /* \"#utility.yul\":8731:8919   */\n    tag_90:\n        /* \"#utility.yul\":8769:8772   */\n      0x00\n        /* \"#utility.yul\":8788:8806   */\n      tag_348\n        /* \"#utility.yul\":8804:8805   */\n      dup3\n        /* \"#utility.yul\":8788:8806   */\n      tag_204\n      jump\t// in\n    tag_348:\n        /* \"#utility.yul\":8783:8806   */\n      swap2\n      pop\n        /* \"#utility.yul\":8820:8838   */\n      tag_349\n        /* \"#utility.yul\":8836:8837   */\n      dup4\n        /* \"#utility.yul\":8820:8838   */\n      tag_204\n      jump\t// in\n    tag_349:\n        /* \"#utility.yul\":8815:8838   */\n      swap3\n      pop\n        /* \"#utility.yul\":8861:8862   */\n      dup3\n        /* \"#utility.yul\":8858:8859   */\n      dup3\n        /* \"#utility.yul\":8854:8863   */\n      add\n        /* \"#utility.yul\":8847:8863   */\n      swap1\n      pop\n        /* \"#utility.yul\":8884:8888   */\n      0xff\n        /* \"#utility.yul\":8879:8882   */\n      dup2\n        /* \"#utility.yul\":8876:8889   */\n      gt\n        /* \"#utility.yul\":8873:8912   */\n      iszero\n      tag_350\n      jumpi\n        /* \"#utility.yul\":8892:8910   */\n      tag_351\n      tag_227\n      jump\t// in\n    tag_351:\n        /* \"#utility.yul\":8873:8912   */\n    tag_350:\n        /* \"#utility.yul\":8731:8919   */\n      swap3\n      swap2\n      pop\n      pop\n      jump\t// out\n        /* \"#utility.yul\":8925:9040   */\n    tag_229:\n        /* \"#utility.yul\":9010:9033   */\n      tag_353\n        /* \"#utility.yul\":9027:9032   */\n      dup2\n        /* \"#utility.yul\":9010:9033   */\n      tag_216\n      jump\t// in\n    tag_353:\n        /* \"#utility.yul\":9005:9008   */\n      dup3\n        /* \"#utility.yul\":8998:9034   */\n      mstore\n        /* \"#utility.yul\":8925:9040   */\n      pop\n      pop\n      jump\t// out\n        /* \"#utility.yul\":9046:9136   */\n    tag_230:\n        /* \"#utility.yul\":9080:9087   */\n      0x00\n        /* \"#utility.yul\":9123:9128   */\n      dup2\n        /* \"#utility.yul\":9116:9129   */\n      iszero\n        /* \"#utility.yul\":9109:9130   */\n      iszero\n        /* \"#utility.yul\":9098:9130   */\n      swap1\n      pop\n        /* \"#utility.yul\":9046:9136   */\n      swap2\n      swap1\n      pop\n      jump\t// out\n        /* \"#utility.yul\":9142:9251   */\n    tag_231:\n        /* \"#utility.yul\":9223:9244   */\n      tag_356\n        /* \"#utility.yul\":9238:9243   */\n      dup2\n        /* \"#utility.yul\":9223:9244   */\n      tag_230\n      jump\t// in\n    tag_356:\n        /* \"#utility.yul\":9218:9221   */\n      dup3\n        /* \"#utility.yul\":9211:9245   */\n      mstore\n        /* \"#utility.yul\":9142:9251   */\n      pop\n      pop\n      jump\t// out\n        /* \"#utility.yul\":9257:9397   */\n    tag_232:\n        /* \"#utility.yul\":9305:9309   */\n      0x00\n        /* \"#utility.yul\":9328:9331   */\n      dup2\n        /* \"#utility.yul\":9320:9331   */\n      swap1\n      pop\n        /* \"#utility.yul\":9351:9354   */\n      dup2\n        /* \"#utility.yul\":9348:9349   */\n      0x00\n        /* \"#utility.yul\":9341:9355   */\n      mstore\n        /* \"#utility.yul\":9385:9389   */\n      0x20\n        /* \"#utility.yul\":9382:9383   */\n      0x00\n        /* \"#utility.yul\":9372:9390   */\n      keccak256\n        /* \"#utility.yul\":9364:9390   */\n      swap1\n      pop\n        /* \"#utility.yul\":9257:9397   */\n      swap2\n      swap1\n      pop\n      jump\t// out\n        /* \"#utility.yul\":9425:10252   */\n    tag_233:\n        /* \"#utility.yul\":9508:9511   */\n      0x00\n        /* \"#utility.yul\":9545:9550   */\n      dup2\n        /* \"#utility.yul\":9539:9551   */\n      sload\n        /* \"#utility.yul\":9574:9610   */\n      tag_359\n        /* \"#utility.yul\":9600:9609   */\n      dup2\n        /* \"#utility.yul\":9574:9610   */\n      tag_31\n      jump\t// in\n    tag_359:\n        /* \"#utility.yul\":9626:9696   */\n      tag_360\n        /* \"#utility.yul\":9689:9695   */\n      dup2\n        /* \"#utility.yul\":9684:9687   */\n      dup7\n        /* \"#utility.yul\":9626:9696   */\n      tag_207\n      jump\t// in\n    tag_360:\n        /* \"#utility.yul\":9619:9696   */\n      swap5\n      pop\n        /* \"#utility.yul\":9727:9728   */\n      0x01\n        /* \"#utility.yul\":9716:9725   */\n      dup3\n        /* \"#utility.yul\":9712:9729   */\n      and\n        /* \"#utility.yul\":9743:9744   */\n      0x00\n        /* \"#utility.yul\":9738:9902   */\n      dup2\n      eq\n      tag_362\n      jumpi\n        /* \"#utility.yul\":9916:9917   */\n      0x01\n        /* \"#utility.yul\":9911:10246   */\n      dup2\n      eq\n      tag_363\n      jumpi\n        /* \"#utility.yul\":9705:10246   */\n      jump(tag_361)\n        /* \"#utility.yul\":9738:9902   */\n    tag_362:\n        /* \"#utility.yul\":9822:9826   */\n      0xff\n        /* \"#utility.yul\":9818:9827   */\n      not\n        /* \"#utility.yul\":9807:9816   */\n      dup4\n        /* \"#utility.yul\":9803:9828   */\n      and\n        /* \"#utility.yul\":9798:9801   */\n      dup7\n        /* \"#utility.yul\":9791:9829   */\n      mstore\n        /* \"#utility.yul\":9882:9888   */\n      dup2\n        /* \"#utility.yul\":9875:9889   */\n      iszero\n        /* \"#utility.yul\":9868:9890   */\n      iszero\n        /* \"#utility.yul\":9862:9866   */\n      0x20\n        /* \"#utility.yul\":9858:9891   */\n      mul\n        /* \"#utility.yul\":9853:9856   */\n      dup7\n        /* \"#utility.yul\":9849:9892   */\n      add\n        /* \"#utility.yul\":9842:9892   */\n      swap4\n      pop\n        /* \"#utility.yul\":9738:9902   */\n      jump(tag_361)\n        /* \"#utility.yul\":9911:10246   */\n    tag_363:\n        /* \"#utility.yul\":9978:10015   */\n      tag_364\n        /* \"#utility.yul\":10009:10014   */\n      dup6\n        /* \"#utility.yul\":9978:10015   */\n      tag_232\n      jump\t// in\n    tag_364:\n        /* \"#utility.yul\":10037:10038   */\n      0x00\n        /* \"#utility.yul\":10051:10205   */\n    tag_365:\n        /* \"#utility.yul\":10065:10071   */\n      dup4\n        /* \"#utility.yul\":10062:10063   */\n      dup2\n        /* \"#utility.yul\":10059:10072   */\n      lt\n        /* \"#utility.yul\":10051:10205   */\n      iszero\n      tag_367\n      jumpi\n        /* \"#utility.yul\":10139:10146   */\n      dup2\n        /* \"#utility.yul\":10133:10147   */\n      sload\n        /* \"#utility.yul\":10129:10130   */\n      dup2\n        /* \"#utility.yul\":10124:10127   */\n      dup10\n        /* \"#utility.yul\":10120:10131   */\n      add\n        /* \"#utility.yul\":10113:10148   */\n      mstore\n        /* \"#utility.yul\":10189:10190   */\n      0x01\n        /* \"#utility.yul\":10180:10187   */\n      dup3\n        /* \"#utility.yul\":10176:10191   */\n      add\n        /* \"#utility.yul\":10165:10191   */\n      swap2\n      pop\n        /* \"#utility.yul\":10087:10091   */\n      0x20\n        /* \"#utility.yul\":10084:10085   */\n      dup2\n        /* \"#utility.yul\":10080:10092   */\n      add\n        /* \"#utility.yul\":10075:10092   */\n      swap1\n      pop\n        /* \"#utility.yul\":10051:10205   */\n      jump(tag_365)\n    tag_367:\n        /* \"#utility.yul\":10234:10235   */\n      dup1\n        /* \"#utility.yul\":10229:10232   */\n      dup9\n        /* \"#utility.yul\":10225:10236   */\n      add\n        /* \"#utility.yul\":10218:10236   */\n      swap6\n      pop\n        /* \"#utility.yul\":9918:10246   */\n      pop\n      pop\n        /* \"#utility.yul\":9705:10246   */\n    tag_361:\n      pop\n        /* \"#utility.yul\":9512:10252   */\n      pop\n      pop\n        /* \"#utility.yul\":9425:10252   */\n      swap3\n      swap2\n      pop\n      pop\n      jump\t// out\n        /* \"#utility.yul\":10258:10991   */\n    tag_95:\n        /* \"#utility.yul\":10472:10476   */\n      0x00\n        /* \"#utility.yul\":10510:10513   */\n      0xa0\n        /* \"#utility.yul\":10499:10508   */\n      dup3\n        /* \"#utility.yul\":10495:10514   */\n      add\n        /* \"#utility.yul\":10487:10514   */\n      swap1\n      pop\n        /* \"#utility.yul\":10524:10593   */\n      tag_369\n        /* \"#utility.yul\":10590:10591   */\n      0x00\n        /* \"#utility.yul\":10579:10588   */\n      dup4\n        /* \"#utility.yul\":10575:10592   */\n      add\n        /* \"#utility.yul\":10566:10572   */\n      dup9\n        /* \"#utility.yul\":10524:10593   */\n      tag_229\n      jump\t// in\n    tag_369:\n        /* \"#utility.yul\":10603:10669   */\n      tag_370\n        /* \"#utility.yul\":10665:10667   */\n      0x20\n        /* \"#utility.yul\":10654:10663   */\n      dup4\n        /* \"#utility.yul\":10650:10668   */\n      add\n        /* \"#utility.yul\":10641:10647   */\n      dup8\n        /* \"#utility.yul\":10603:10669   */\n      tag_231\n      jump\t// in\n    tag_370:\n        /* \"#utility.yul\":10716:10725   */\n      dup2\n        /* \"#utility.yul\":10710:10714   */\n      dup2\n        /* \"#utility.yul\":10706:10726   */\n      sub\n        /* \"#utility.yul\":10701:10703   */\n      0x40\n        /* \"#utility.yul\":10690:10699   */\n      dup4\n        /* \"#utility.yul\":10686:10704   */\n      add\n        /* \"#utility.yul\":10679:10727   */\n      mstore\n        /* \"#utility.yul\":10744:10817   */\n      tag_371\n        /* \"#utility.yul\":10812:10816   */\n      dup2\n        /* \"#utility.yul\":10803:10809   */\n      dup7\n        /* \"#utility.yul\":10744:10817   */\n      tag_233\n      jump\t// in\n    tag_371:\n        /* \"#utility.yul\":10736:10817   */\n      swap1\n      pop\n        /* \"#utility.yul\":10827:10895   */\n      tag_372\n        /* \"#utility.yul\":10891:10893   */\n      0x60\n        /* \"#utility.yul\":10880:10889   */\n      dup4\n        /* \"#utility.yul\":10876:10894   */\n      add\n        /* \"#utility.yul\":10867:10873   */\n      dup6\n        /* \"#utility.yul\":10827:10895   */\n      tag_205\n      jump\t// in\n    tag_372:\n        /* \"#utility.yul\":10905:10984   */\n      tag_373\n        /* \"#utility.yul\":10979:10982   */\n      0x80\n        /* \"#utility.yul\":10968:10977   */\n      dup4\n        /* \"#utility.yul\":10964:10983   */\n      add\n        /* \"#utility.yul\":10955:10961   */\n      dup5\n        /* \"#utility.yul\":10905:10984   */\n      tag_203\n      jump\t// in\n    tag_373:\n        /* \"#utility.yul\":10258:10991   */\n      swap7\n      swap6\n      pop\n      pop\n      pop\n      pop\n      pop\n      pop\n      jump\t// out\n        /* \"#utility.yul\":10997:11166   */\n    tag_234:\n        /* \"#utility.yul\":11137:11158   */\n      0x67616d6520616c72656164792061637469766500000000000000000000000000\n        /* \"#utility.yul\":11133:11134   */\n      0x00\n        /* \"#utility.yul\":11125:11131   */\n      dup3\n        /* \"#utility.yul\":11121:11135   */\n      add\n        /* \"#utility.yul\":11114:11159   */\n      mstore\n        /* \"#utility.yul\":10997:11166   */\n      pop\n      jump\t// out\n        /* \"#utility.yul\":11172:11538   */\n    tag_235:\n        /* \"#utility.yul\":11314:11317   */\n      0x00\n        /* \"#utility.yul\":11335:11402   */\n      tag_376\n        /* \"#utility.yul\":11399:11401   */\n      0x13\n        /* \"#utility.yul\":11394:11397   */\n      dup4\n        /* \"#utility.yul\":11335:11402   */\n      tag_220\n      jump\t// in\n    tag_376:\n        /* \"#utility.yul\":11328:11402   */\n      swap2\n      pop\n        /* \"#utility.yul\":11411:11504   */\n      tag_377\n        /* \"#utility.yul\":11500:11503   */\n      dup3\n        /* \"#utility.yul\":11411:11504   */\n      tag_234\n      jump\t// in\n    tag_377:\n        /* \"#utility.yul\":11529:11531   */\n      0x20\n        /* \"#utility.yul\":11524:11527   */\n      dup3\n        /* \"#utility.yul\":11520:11532   */\n      add\n        /* \"#utility.yul\":11513:11532   */\n      swap1\n      pop\n        /* \"#utility.yul\":11172:11538   */\n      swap2\n      swap1\n      pop\n      jump\t// out\n        /* \"#utility.yul\":11544:11963   */\n    tag_103:\n        /* \"#utility.yul\":11710:11714   */\n      0x00\n        /* \"#utility.yul\":11748:11750   */\n      0x20\n        /* \"#utility.yul\":11737:11746   */\n      dup3\n        /* \"#utility.yul\":11733:11751   */\n      add\n        /* \"#utility.yul\":11725:11751   */\n      swap1\n      pop\n        /* \"#utility.yul\":11797:11806   */\n      dup2\n        /* \"#utility.yul\":11791:11795   */\n      dup2\n        /* \"#utility.yul\":11787:11807   */\n      sub\n        /* \"#utility.yul\":11783:11784   */\n      0x00\n        /* \"#utility.yul\":11772:11781   */\n      dup4\n        /* \"#utility.yul\":11768:11785   */\n      add\n        /* \"#utility.yul\":11761:11808   */\n      mstore\n        /* \"#utility.yul\":11825:11956   */\n      tag_379\n        /* \"#utility.yul\":11951:11955   */\n      dup2\n        /* \"#utility.yul\":11825:11956   */\n      tag_235\n      jump\t// in\n    tag_379:\n        /* \"#utility.yul\":11817:11956   */\n      swap1\n      pop\n        /* \"#utility.yul\":11544:11963   */\n      swap2\n      swap1\n      pop\n      jump\t// out\n        /* \"#utility.yul\":11969:12149   */\n    tag_110:\n        /* \"#utility.yul\":12017:12094   */\n      0x4e487b7100000000000000000000000000000000000000000000000000000000\n        /* \"#utility.yul\":12014:12015   */\n      0x00\n        /* \"#utility.yul\":12007:12095   */\n      mstore\n        /* \"#utility.yul\":12114:12118   */\n      0x41\n        /* \"#utility.yul\":12111:12112   */\n      0x04\n        /* \"#utility.yul\":12104:12119   */\n      mstore\n        /* \"#utility.yul\":12138:12142   */\n      0x24\n        /* \"#utility.yul\":12135:12136   */\n      0x00\n        /* \"#utility.yul\":12128:12143   */\n      revert\n        /* \"#utility.yul\":12155:12248   */\n    tag_236:\n        /* \"#utility.yul\":12192:12198   */\n      0x00\n        /* \"#utility.yul\":12239:12241   */\n      0x20\n        /* \"#utility.yul\":12234:12236   */\n      0x1f\n        /* \"#utility.yul\":12227:12232   */\n      dup4\n        /* \"#utility.yul\":12223:12237   */\n      add\n        /* \"#utility.yul\":12219:12242   */\n      div\n        /* \"#utility.yul\":12209:12242   */\n      swap1\n      pop\n        /* \"#utility.yul\":12155:12248   */\n      swap2\n      swap1\n      pop\n      jump\t// out\n        /* \"#utility.yul\":12254:12361   */\n    tag_237:\n        /* \"#utility.yul\":12298:12306   */\n      0x00\n        /* \"#utility.yul\":12348:12353   */\n      dup3\n        /* \"#utility.yul\":12342:12346   */\n      dup3\n        /* \"#utility.yul\":12338:12354   */\n      shl\n        /* \"#utility.yul\":12317:12354   */\n      swap1\n      pop\n        /* \"#utility.yul\":12254:12361   */\n      swap3\n      swap2\n      pop\n      pop\n      jump\t// out\n        /* \"#utility.yul\":12367:12760   */\n    tag_238:\n        /* \"#utility.yul\":12436:12442   */\n      0x00\n        /* \"#utility.yul\":12486:12487   */\n      0x08\n        /* \"#utility.yul\":12474:12484   */\n      dup4\n        /* \"#utility.yul\":12470:12488   */\n      mul\n        /* \"#utility.yul\":12509:12606   */\n      tag_384\n        /* \"#utility.yul\":12539:12605   */\n      0xffffffffffffffffffffffffffffffffffffffffffffffffffffffffffffffff\n        /* \"#utility.yul\":12528:12537   */\n      dup3\n        /* \"#utility.yul\":12509:12606   */\n      tag_237\n      jump\t// in\n    tag_384:\n        /* \"#utility.yul\":12627:12666   */\n      tag_385\n        /* \"#utility.yul\":12657:12665   */\n      dup7\n        /* \"#utility.yul\":12646:12655   */\n      dup4\n        /* \"#utility.yul\":12627:12666   */\n      tag_237\n      jump\t// in\n    tag_385:\n        /* \"#utility.yul\":12615:12666   */\n      swap6\n      pop\n        /* \"#utility.yul\":12699:12703   */\n      dup1\n        /* \"#utility.yul\":12695:12704   */\n      not\n        /* \"#utility.yul\":12688:12693   */\n      dup5\n        /* \"#utility.yul\":12684:12705   */\n      and\n        /* \"#utility.yul\":12675:12705   */\n      swap4\n      pop\n        /* \"#utility.yul\":12748:12752   */\n      dup1\n        /* \"#utility.yul\":12738:12746   */\n      dup7\n        /* \"#utility.yul\":12734:12753   */\n      and\n        /* \"#utility.yul\":12727:12732   */\n      dup5\n        /* \"#utility.yul\":12724:12754   */\n      or\n        /* \"#utility.yul\":12714:12754   */\n      swap3\n      pop\n        /* \"#utility.yul\":12443:12760   */\n      pop\n      pop\n        /* \"#utility.yul\":12367:12760   */\n      swap4\n      swap3\n      pop\n      pop\n      pop\n      jump\t// out\n        /* \"#utility.yul\":12766:12826   */\n    tag_239:\n        /* \"#utility.yul\":12794:12797   */\n      0x00\n        /* \"#utility.yul\":12815:12820   */\n      dup2\n        /* \"#utility.yul\":12808:12820   */\n      swap1\n      pop\n        /* \"#utility.yul\":12766:12826   */\n      swap2\n      swap1\n      pop\n      jump\t// out\n        /* \"#utility.yul\":12832:12974   */\n    tag_240:\n        /* \"#utility.yul\":12882:12891   */\n      0x00\n        /* \"#utility.yul\":12915:12968   */\n      tag_388\n        /* \"#utility.yul\":12933:12967   */\n      tag_389\n        /* \"#utility.yul\":12942:12966   */\n      tag_390\n        /* \"#utility.yul\":12960:12965   */\n      dup5\n        /* \"#utility.yul\":12942:12966   */\n      tag_228\n      jump\t// in\n    tag_390:\n        /* \"#utility.yul\":12933:12967   */\n      tag_239\n      jump\t// in\n    tag_389:\n        /* \"#utility.yul\":12915:12968   */\n      tag_228\n      jump\t// in\n    tag_388:\n        /* \"#utility.yul\":12902:12968   */\n      swap1\n      pop\n        /* \"#utility.yul\":12832:12974   */\n      swap2\n      swap1\n      pop\n      jump\t// out\n        /* \"#utility.yul\":12980:13055   */\n    tag_241:\n        /* \"#utility.yul\":13023:13026   */\n      0x00\n        /* \"#utility.yul\":13044:13049   */\n      dup2\n        /* \"#utility.yul\":13037:13049   */\n      swap1\n      pop\n        /* \"#utility.yul\":12980:13055   */\n      swap2\n      swap1\n      pop\n      jump\t// out\n        /* \"#utility.yul\":13061:13330   */\n    tag_242:\n        /* \"#utility.yul\":13171:13210   */\n      tag_393\n        /* \"#utility.yul\":13202:13209   */\n      dup4\n        /* \"#utility.yul\":13171:13210   */\n      tag_240\n      jump\t// in\n    tag_393:\n        /* \"#utility.yul\":13232:13323   */\n      tag_394\n        /* \"#utility.yul\":13281:13322   */\n      tag_395\n        /* \"#utility.yul\":13305:13321   */\n      dup3\n        /* \"#utility.yul\":13281:13322   */\n      tag_241\n      jump\t// in\n    tag_395:\n        /* \"#utility.yul\":13273:13279   */\n      dup5\n        /* \"#utility.yul\":13266:13270   */\n      dup5\n        /* \"#utility.yul\":13260:13271   */\n      sload\n        /* \"#utility.yul\":13232:13323   */\n      tag_238\n      jump\t// in\n    tag_394:\n        /* \"#utility.yul\":13226:13230   */\n      dup3\n        /* \"#utility.yul\":13219:13324   */\n      sstore\n        /* \"#utility.yul\":13137:13330   */\n      pop\n        /* \"#utility.yul\":13061:13330   */\n      pop\n      pop\n      pop\n      jump\t// out\n        /* \"#utility.yul\":13336:13409   */\n    tag_243:\n        /* \"#utility.yul\":13381:13384   */\n      0x00\n        /* \"#utility.yul\":13336:13409   */\n      swap1\n      jump\t// out\n        /* \"#utility.yul\":13415:13604   */\n    tag_244:\n        /* \"#utility.yul\":13492:13524   */\n      tag_398\n      tag_243\n      jump\t// in\n    tag_398:\n        /* \"#utility.yul\":13533:13598   */\n      tag_399\n        /* \"#utility.yul\":13591:13597   */\n      dup2\n        /* \"#utility.yul\":13583:13589   */\n      dup5\n        /* \"#utility.yul\":13577:13581   */\n      dup5\n        /* \"#utility.yul\":13533:13598   */\n      tag_242\n      jump\t// in\n    tag_399:\n        /* \"#utility.yul\":13468:13604   */\n      pop\n        /* \"#utility.yul\":13415:13604   */\n      pop\n      pop\n      jump\t// out\n        /* \"#utility.yul\":13610:13796   */\n    tag_245:\n        /* \"#utility.yul\":13670:13790   */\n    tag_401:\n        /* \"#utility.yul\":13687:13690   */\n      dup2\n        /* \"#utility.yul\":13680:13685   */\n      dup2\n        /* \"#utility.yul\":13677:13691   */\n      lt\n        /* \"#utility.yul\":13670:13790   */\n      iszero\n      tag_403\n      jumpi\n        /* \"#utility.yul\":13741:13780   */\n      tag_404\n        /* \"#utility.yul\":13778:13779   */\n      0x00\n        /* \"#utility.yul\":13771:13776   */\n      dup3\n        /* \"#utility.yul\":13741:13780   */\n      tag_244\n      jump\t// in\n    tag_404:\n        /* \"#utility.yul\":13714:13715   */\n      0x01\n        /* \"#utility.yul\":13707:13712   */\n      dup2\n        /* \"#utility.yul\":13703:13716   */\n      add\n        /* \"#utility.yul\":13694:13716   */\n      swap1\n      pop\n        /* \"#utility.yul\":13670:13790   */\n      jump(tag_401)\n    tag_403:\n        /* \"#utility.yul\":13610:13796   */\n      pop\n      pop\n      jump\t// out\n        /* \"#utility.yul\":13802:14343   */\n    tag_246:\n        /* \"#utility.yul\":13902:13904   */\n      0x1f\n        /* \"#utility.yul\":13897:13900   */\n      dup3\n        /* \"#utility.yul\":13894:13905   */\n      gt\n        /* \"#utility.yul\":13891:14336   */\n      iszero\n      tag_406\n      jumpi\n        /* \"#utility.yul\":13936:13973   */\n      tag_407\n        /* \"#utility.yul\":13967:13972   */\n      dup2\n        /* \"#utility.yul\":13936:13973   */\n      tag_232\n      jump\t// in\n    tag_407:\n        /* \"#utility.yul\":14019:14048   */\n      tag_408\n        /* \"#utility.yul\":14037:14047   */\n      dup5\n        /* \"#utility.yul\":14019:14048   */\n      tag_236\n      jump\t// in\n    tag_408:\n        /* \"#utility.yul\":14009:14017   */\n      dup2\n        /* \"#utility.yul\":14005:14049   */\n      add\n        /* \"#utility.yul\":14202:14204   */\n      0x20\n        /* \"#utility.yul\":14190:14200   */\n      dup6\n        /* \"#utility.yul\":14187:14205   */\n      lt\n        /* \"#utility.yul\":14184:14233   */\n      iszero\n      tag_409\n      jumpi\n        /* \"#utility.yul\":14223:14231   */\n      dup2\n        /* \"#utility.yul\":14208:14231   */\n      swap1\n      pop\n        /* \"#utility.yul\":14184:14233   */\n    tag_409:\n        /* \"#utility.yul\":14246:14326   */\n      tag_410\n        /* \"#utility.yul\":14302:14324   */\n      tag_411\n        /* \"#utility.yul\":14320:14323   */\n      dup6\n        /* \"#utility.yul\":14302:14324   */\n      tag_236\n      jump\t// in\n    tag_411:\n        /* \"#utility.yul\":14292:14300   */\n      dup4\n        /* \"#utility.yul\":14288:14325   */\n      add\n        /* \"#utility.yul\":14275:14286   */\n      dup3\n        /* \"#utility.yul\":14246:14326   */\n      tag_245\n      jump\t// in\n    tag_410:\n        /* \"#utility.yul\":13906:14336   */\n      pop\n      pop\n        /* \"#utility.yul\":13891:14336   */\n    tag_406:\n        /* \"#utility.yul\":13802:14343   */\n      pop\n      pop\n      pop\n      jump\t// out\n        /* \"#utility.yul\":14349:14466   */\n    tag_247:\n        /* \"#utility.yul\":14403:14411   */\n      0x00\n        /* \"#utility.yul\":14453:14458   */\n      dup3\n        /* \"#utility.yul\":14447:14451   */\n      dup3\n        /* \"#utility.yul\":14443:14459   */\n      shr\n        /* \"#utility.yul\":14422:14459   */\n      swap1\n      pop\n        /* \"#utility.yul\":14349:14466   */\n      swap3\n      swap2\n      pop\n      pop\n      jump\t// out\n        /* \"#utility.yul\":14472:14641   */\n    tag_248:\n        /* \"#utility.yul\":14516:14522   */\n      0x00\n        /* \"#utility.yul\":14549:14600   */\n      tag_414\n        /* \"#utility.yul\":14597:14598   */\n      0x00\n        /* \"#utility.yul\":14593:14599   */\n      not\n        /* \"#utility.yul\":14585:14590   */\n      dup5\n        /* \"#utility.yul\":14582:14583   */\n      0x08\n        /* \"#utility.yul\":14578:14591   */\n      mul\n        /* \"#utility.yul\":14549:14600   */\n      tag_247\n      jump\t// in\n    tag_414:\n        /* \"#utility.yul\":14545:14601   */\n      not\n        /* \"#utility.yul\":14630:14634   */\n      dup1\n        /* \"#utility.yul\":14624:14628   */\n      dup4\n        /* \"#utility.yul\":14620:14635   */\n      and\n        /* \"#utility.yul\":14610:14635   */\n      swap2\n      pop\n        /* \"#utility.yul\":14523:14641   */\n      pop\n        /* \"#utility.yul\":14472:14641   */\n      swap3\n      swap2\n      pop\n      pop\n      jump\t// out\n        /* \"#utility.yul\":14646:14941   */\n    tag_249:\n        /* \"#utility.yul\":14722:14726   */\n      0x00\n        /* \"#utility.yul\":14868:14897   */\n      tag_416\n        /* \"#utility.yul\":14893:14896   */\n      dup4\n        /* \"#utility.yul\":14887:14891   */\n      dup4\n        /* \"#utility.yul\":14868:14897   */\n      tag_248\n      jump\t// in\n    tag_416:\n        /* \"#utility.yul\":14860:14897   */\n      swap2\n      pop\n        /* \"#utility.yul\":14930:14933   */\n      dup3\n        /* \"#utility.yul\":14927:14928   */\n      0x02\n        /* \"#utility.yul\":14923:14934   */\n      mul\n        /* \"#utility.yul\":14917:14921   */\n      dup3\n        /* \"#utility.yul\":14914:14935   */\n      or\n        /* \"#utility.yul\":14906:14935   */\n      swap1\n      pop\n        /* \"#utility.yul\":14646:14941   */\n      swap3\n      swap2\n      pop\n      pop\n      jump\t// out\n        /* \"#utility.yul\":14946:16336   */\n    tag_113:\n        /* \"#utility.yul\":15061:15097   */\n      tag_418\n        /* \"#utility.yul\":15093:15096   */\n      dup3\n        /* \"#utility.yul\":15061:15097   */\n      tag_206\n      jump\t// in\n    tag_418:\n        /* \"#utility.yul\":15162:15180   */\n      0xffffffffffffffff\n        /* \"#utility.yul\":15154:15160   */\n      dup2\n        /* \"#utility.yul\":15151:15181   */\n      gt\n        /* \"#utility.yul\":15148:15204   */\n      iszero\n      tag_419\n      jumpi\n        /* \"#utility.yul\":15184:15202   */\n      tag_420\n      tag_110\n      jump\t// in\n    tag_420:\n        /* \"#utility.yul\":15148:15204   */\n    tag_419:\n        /* \"#utility.yul\":15228:15266   */\n      tag_421\n        /* \"#utility.yul\":15260:15264   */\n      dup3\n        /* \"#utility.yul\":15254:15265   */\n      sload\n        /* \"#utility.yul\":15228:15266   */\n      tag_31\n      jump\t// in\n    tag_421:\n        /* \"#utility.yul\":15313:15379   */\n      tag_422\n        /* \"#utility.yul\":15372:15378   */\n      dup3\n        /* \"#utility.yul\":15364:15370   */\n      dup3\n        /* \"#utility.yul\":15358:15362   */\n      dup6\n        /* \"#utility.yul\":15313:15379   */\n      tag_246\n      jump\t// in\n    tag_422:\n        /* \"#utility.yul\":15406:15407   */\n      0x00\n        /* \"#utility.yul\":15430:15434   */\n      0x20\n        /* \"#utility.yul\":15417:15434   */\n      swap1\n      pop\n        /* \"#utility.yul\":15462:15464   */\n      0x1f\n        /* \"#utility.yul\":15454:15460   */\n      dup4\n        /* \"#utility.yul\":15451:15465   */\n      gt\n        /* \"#utility.yul\":15479:15480   */\n      0x01\n        /* \"#utility.yul\":15474:16091   */\n      dup2\n      eq\n      tag_424\n      jumpi\n        /* \"#utility.yul\":16135:16136   */\n      0x00\n        /* \"#utility.yul\":16152:16158   */\n      dup5\n        /* \"#utility.yul\":16149:16226   */\n      iszero\n      tag_425\n      jumpi\n        /* \"#utility.yul\":16201:16210   */\n      dup3\n        /* \"#utility.yul\":16196:16199   */\n      dup8\n        /* \"#utility.yul\":16192:16211   */\n      add\n        /* \"#utility.yul\":16186:16212   */\n      mload\n        /* \"#utility.yul\":16177:16212   */\n      swap1\n      pop\n        /* \"#utility.yul\":16149:16226   */\n    tag_425:\n        /* \"#utility.yul\":16252:16319   */\n      tag_426\n        /* \"#utility.yul\":16312:16318   */\n      dup6\n        /* \"#utility.yul\":16305:16310   */\n      dup3\n        /* \"#utility.yul\":16252:16319   */\n      tag_249\n      jump\t// in\n    tag_426:\n        /* \"#utility.yul\":16246:16250   */\n      dup7\n        /* \"#utility.yul\":16239:16320   */\n      sstore\n        /* \"#utility.yul\":16108:16330   */\n      pop\n        /* \"#utility.yul\":15444:16330   */\n      jump(tag_423)\n        /* \"#utility.yul\":15474:16091   */\n    tag_424:\n        /* \"#utility.yul\":15526:15530   */\n      0x1f\n        /* \"#utility.yul\":15522:15531   */\n      not\n        /* \"#utility.yul\":15514:15520   */\n      dup5\n        /* \"#utility.yul\":15510:15532   */\n      and\n        /* \"#utility.yul\":15560:15596   */\n      tag_427\n        /* \"#utility.yul\":15591:15595   */\n      dup7\n        /* \"#utility.yul\":15560:15596   */\n      tag_232\n      jump\t// in\n    tag_427:\n        /* \"#utility.yul\":15618:15619   */\n      0x00\n        /* \"#utility.yul\":15632:15840   */\n    tag_428:\n        /* \"#utility.yul\":15646:15653   */\n      dup3\n        /* \"#utility.yul\":15643:15644   */\n      dup2\n        /* \"#utility.yul\":15640:15654   */\n      lt\n        /* \"#utility.yul\":15632:15840   */\n      iszero\n      tag_430\n      jumpi\n        /* \"#utility.yul\":15725:15734   */\n      dup5\n        /* \"#utility.yul\":15720:15723   */\n      dup10\n        /* \"#utility.yul\":15716:15735   */\n      add\n        /* \"#utility.yul\":15710:15736   */\n      mload\n        /* \"#utility.yul\":15702:15708   */\n      dup3\n        /* \"#utility.yul\":15695:15737   */\n      sstore\n        /* \"#utility.yul\":15776:15777   */\n      0x01\n        /* \"#utility.yul\":15768:15774   */\n      dup3\n        /* \"#utility.yul\":15764:15778   */\n      add\n        /* \"#utility.yul\":15754:15778   */\n      swap2\n      pop\n        /* \"#utility.yul\":15823:15825   */\n      0x20\n        /* \"#utility.yul\":15812:15821   */\n      dup6\n        /* \"#utility.yul\":15808:15826   */\n      add\n        /* \"#utility.yul\":15795:15826   */\n      swap5\n      pop\n        /* \"#utility.yul\":15669:15673   */\n      0x20\n        /* \"#utility.yul\":15666:15667   */\n      dup2\n        /* \"#utility.yul\":15662:15674   */\n      add\n        /* \"#utility.yul\":15657:15674   */\n      swap1\n      pop\n        /* \"#utility.yul\":15632:15840   */\n      jump(tag_428)\n    tag_430:\n        /* \"#utility.yul\":15868:15874   */\n      dup7\n        /* \"#utility.yul\":15859:15866   */\n      dup4\n        /* \"#utility.yul\":15856:15875   */\n      lt\n        /* \"#utility.yul\":15853:16032   */\n      iszero\n      tag_431\n      jumpi\n        /* \"#utility.yul\":15926:15935   */\n      dup5\n        /* \"#utility.yul\":15921:15924   */\n      dup10\n        /* \"#utility.yul\":15917:15936   */\n      add\n        /* \"#utility.yul\":15911:15937   */\n      mload\n        /* \"#utility.yul\":15969:16017   */\n      tag_432\n        /* \"#utility.yul\":16011:16015   */\n      0x1f\n        /* \"#utility.yul\":16003:16009   */\n      dup10\n        /* \"#utility.yul\":15999:16016   */\n      and\n        /* \"#utility.yul\":15988:15997   */\n      dup3\n        /* \"#utility.yul\":15969:16017   */\n      tag_248\n      jump\t// in\n    tag_432:\n        /* \"#utility.yul\":15961:15967   */\n      dup4\n        /* \"#utility.yul\":15954:16018   */\n      sstore\n        /* \"#utility.yul\":15876:16032   */\n      pop\n        /* \"#utility.yul\":15853:16032   */\n    tag_431:\n        /* \"#utility.yul\":16078:16079   */\n      0x01\n        /* \"#utility.yul\":16074:16075   */\n      0x02\n        /* \"#utility.yul\":16066:16072   */\n      dup9\n        /* \"#utility.yul\":16062:16076   */\n      mul\n        /* \"#utility.yul\":16058:16080   */\n      add\n        /* \"#utility.yul\":16052:16056   */\n      dup9\n        /* \"#utility.yul\":16045:16081   */\n      sstore\n        /* \"#utility.yul\":15481:16091   */\n      pop\n      pop\n      pop\n        /* \"#utility.yul\":15444:16330   */\n    tag_423:\n      pop\n        /* \"#utility.yul\":15036:16336   */\n      pop\n      pop\n      pop\n        /* \"#utility.yul\":14946:16336   */\n      pop\n      pop\n      jump\t// out\n        /* \"#utility.yul\":16342:16747   */\n    tag_123:\n        /* \"#utility.yul\":16474:16478   */\n      0x00\n        /* \"#utility.yul\":16512:16514   */\n      0x40\n        /* \"#utility.yul\":16501:16510   */\n      dup3\n        /* \"#utility.yul\":16497:16515   */\n      add\n        /* \"#utility.yul\":16489:16515   */\n      swap1\n      pop\n        /* \"#utility.yul\":16525:16592   */\n      tag_434\n        /* \"#utility.yul\":16589:16590   */\n      0x00\n        /* \"#utility.yul\":16578:16587   */\n      dup4\n        /* \"#utility.yul\":16574:16591   */\n      add\n        /* \"#utility.yul\":16565:16571   */\n      dup6\n        /* \"#utility.yul\":16525:16592   */\n      tag_205\n      jump\t// in\n    tag_434:\n        /* \"#utility.yul\":16639:16648   */\n      dup2\n        /* \"#utility.yul\":16633:16637   */\n      dup2\n        /* \"#utility.yul\":16629:16649   */\n      sub\n        /* \"#utility.yul\":16624:16626   */\n      0x20\n        /* \"#utility.yul\":16613:16622   */\n      dup4\n        /* \"#utility.yul\":16609:16627   */\n      add\n        /* \"#utility.yul\":16602:16650   */\n      mstore\n        /* \"#utility.yul\":16667:16740   */\n      tag_435\n        /* \"#utility.yul\":16735:16739   */\n      dup2\n        /* \"#utility.yul\":16726:16732   */\n      dup5\n        /* \"#utility.yul\":16667:16740   */\n      tag_233\n      jump\t// in\n    tag_435:\n        /* \"#utility.yul\":16659:16740   */\n      swap1\n      pop\n        /* \"#utility.yul\":16342:16747   */\n      swap4\n      swap3\n      pop\n      pop\n      pop\n      jump\t// out\n        /* \"#utility.yul\":16753:16929   */\n    tag_250:\n        /* \"#utility.yul\":16893:16921   */\n      0x696e707574206d7573742062652061206c657474657220612d7a000000000000\n        /* \"#utility.yul\":16889:16890   */\n      0x00\n        /* \"#utility.yul\":16881:16887   */\n      dup3\n        /* \"#utility.yul\":16877:16891   */\n      add\n        /* \"#utility.yul\":16870:16922   */\n      mstore\n        /* \"#utility.yul\":16753:16929   */\n      pop\n      jump\t// out\n        /* \"#utility.yul\":16935:17301   */\n    tag_251:\n        /* \"#utility.yul\":17077:17080   */\n      0x00\n        /* \"#utility.yul\":17098:17165   */\n      tag_438\n        /* \"#utility.yul\":17162:17164   */\n      0x1a\n        /* \"#utility.yul\":17157:17160   */\n      dup4\n        /* \"#utility.yul\":17098:17165   */\n      tag_220\n      jump\t// in\n    tag_438:\n        /* \"#utility.yul\":17091:17165   */\n      swap2\n      pop\n        /* \"#utility.yul\":17174:17267   */\n      tag_439\n        /* \"#utility.yul\":17263:17266   */\n      dup3\n        /* \"#utility.yul\":17174:17267   */\n      tag_250\n      jump\t// in\n    tag_439:\n        /* \"#utility.yul\":17292:17294   */\n      0x20\n        /* \"#utility.yul\":17287:17290   */\n      dup3\n        /* \"#utility.yul\":17283:17295   */\n      add\n        /* \"#utility.yul\":17276:17295   */\n      swap1\n      pop\n        /* \"#utility.yul\":16935:17301   */\n      swap2\n      swap1\n      pop\n      jump\t// out\n        /* \"#utility.yul\":17307:17726   */\n    tag_128:\n        /* \"#utility.yul\":17473:17477   */\n      0x00\n        /* \"#utility.yul\":17511:17513   */\n      0x20\n        /* \"#utility.yul\":17500:17509   */\n      dup3\n        /* \"#utility.yul\":17496:17514   */\n      add\n        /* \"#utility.yul\":17488:17514   */\n      swap1\n      pop\n        /* \"#utility.yul\":17560:17569   */\n      dup2\n        /* \"#utility.yul\":17554:17558   */\n      dup2\n        /* \"#utility.yul\":17550:17570   */\n      sub\n        /* \"#utility.yul\":17546:17547   */\n      0x00\n        /* \"#utility.yul\":17535:17544   */\n      dup4\n        /* \"#utility.yul\":17531:17548   */\n      add\n        /* \"#utility.yul\":17524:17571   */\n      mstore\n        /* \"#utility.yul\":17588:17719   */\n      tag_441\n        /* \"#utility.yul\":17714:17718   */\n      dup2\n        /* \"#utility.yul\":17588:17719   */\n      tag_251\n      jump\t// in\n    tag_441:\n        /* \"#utility.yul\":17580:17719   */\n      swap1\n      pop\n        /* \"#utility.yul\":17307:17726   */\n      swap2\n      swap1\n      pop\n      jump\t// out\n        /* \"#utility.yul\":17732:17923   */\n    tag_130:\n        /* \"#utility.yul\":17770:17774   */\n      0x00\n        /* \"#utility.yul\":17790:17808   */\n      tag_443\n        /* \"#utility.yul\":17806:17807   */\n      dup3\n        /* \"#utility.yul\":17790:17808   */\n      tag_204\n      jump\t// in\n    tag_443:\n        /* \"#utility.yul\":17785:17808   */\n      swap2\n      pop\n        /* \"#utility.yul\":17822:17840   */\n      tag_444\n        /* \"#utility.yul\":17838:17839   */\n      dup4\n        /* \"#utility.yul\":17822:17840   */\n      tag_204\n      jump\t// in\n    tag_444:\n        /* \"#utility.yul\":17817:17840   */\n      swap3\n      pop\n        /* \"#utility.yul\":17864:17865   */\n      dup3\n        /* \"#utility.yul\":17861:17862   */\n      dup3\n        /* \"#utility.yul\":17857:17866   */\n      sub\n        /* \"#utility.yul\":17849:17866   */\n      swap1\n      pop\n        /* \"#utility.yul\":17888:17892   */\n      0xff\n        /* \"#utility.yul\":17882:17886   */\n      dup2\n        /* \"#utility.yul\":17879:17893   */\n      gt\n        /* \"#utility.yul\":17876:17916   */\n      iszero\n      tag_445\n      jumpi\n        /* \"#utility.yul\":17896:17914   */\n      tag_446\n      tag_227\n      jump\t// in\n    tag_446:\n        /* \"#utility.yul\":17876:17916   */\n    tag_445:\n        /* \"#utility.yul\":17732:17923   */\n      swap3\n      swap2\n      pop\n      pop\n      jump\t// out\n        /* \"#utility.yul\":17929:18123   */\n    tag_171:\n        /* \"#utility.yul\":17969:17973   */\n      0x00\n        /* \"#utility.yul\":17989:18009   */\n      tag_448\n        /* \"#utility.yul\":18007:18008   */\n      dup3\n        /* \"#utility.yul\":17989:18009   */\n      tag_228\n      jump\t// in\n    tag_448:\n        /* \"#utility.yul\":17984:18009   */\n      swap2\n      pop\n        /* \"#utility.yul\":18023:18043   */\n      tag_449\n        /* \"#utility.yul\":18041:18042   */\n      dup4\n        /* \"#utility.yul\":18023:18043   */\n      tag_228\n      jump\t// in\n    tag_449:\n        /* \"#utility.yul\":18018:18043   */\n      swap3\n      pop\n        /* \"#utility.yul\":18067:18068   */\n      dup3\n        /* \"#utility.yul\":18064:18065   */\n      dup3\n        /* \"#utility.yul\":18060:18069   */\n      sub\n        /* \"#utility.yul\":18052:18069   */\n      swap1\n      pop\n        /* \"#utility.yul\":18091:18092   */\n      dup2\n        /* \"#utility.yul\":18085:18089   */\n      dup2\n        /* \"#utility.yul\":18082:18093   */\n      gt\n        /* \"#utility.yul\":18079:18116   */\n      iszero\n      tag_450\n      jumpi\n        /* \"#utility.yul\":18096:18114   */\n      tag_451\n      tag_227\n      jump\t// in\n    tag_451:\n        /* \"#utility.yul\":18079:18116   */\n    tag_450:\n        /* \"#utility.yul\":17929:18123   */\n      swap3\n      swap2\n      pop\n      pop\n      jump\t// out\n        /* \"#utility.yul\":18129:18206   */\n    tag_252:\n        /* \"#utility.yul\":18166:18173   */\n      0x00\n        /* \"#utility.yul\":18195:18200   */\n      dup2\n        /* \"#utility.yul\":18184:18200   */\n      swap1\n      pop\n        /* \"#utility.yul\":18129:18206   */\n      swap2\n      swap1\n      pop\n      jump\t// out\n        /* \"#utility.yul\":18212:18291   */\n    tag_253:\n        /* \"#utility.yul\":18251:18258   */\n      0x00\n        /* \"#utility.yul\":18280:18285   */\n      dup2\n        /* \"#utility.yul\":18269:18285   */\n      swap1\n      pop\n        /* \"#utility.yul\":18212:18291   */\n      swap2\n      swap1\n      pop\n      jump\t// out\n        /* \"#utility.yul\":18297:18454   */\n    tag_254:\n        /* \"#utility.yul\":18402:18447   */\n      tag_455\n        /* \"#utility.yul\":18422:18446   */\n      tag_456\n        /* \"#utility.yul\":18440:18445   */\n      dup3\n        /* \"#utility.yul\":18422:18446   */\n      tag_252\n      jump\t// in\n    tag_456:\n        /* \"#utility.yul\":18402:18447   */\n      tag_253\n      jump\t// in\n    tag_455:\n        /* \"#utility.yul\":18397:18400   */\n      dup3\n        /* \"#utility.yul\":18390:18448   */\n      mstore\n        /* \"#utility.yul\":18297:18454   */\n      pop\n      pop\n      jump\t// out\n        /* \"#utility.yul\":18460:18539   */\n    tag_255:\n        /* \"#utility.yul\":18499:18506   */\n      0x00\n        /* \"#utility.yul\":18528:18533   */\n      dup2\n        /* \"#utility.yul\":18517:18533   */\n      swap1\n      pop\n        /* \"#utility.yul\":18460:18539   */\n      swap2\n      swap1\n      pop\n      jump\t// out\n        /* \"#utility.yul\":18545:18702   */\n    tag_256:\n        /* \"#utility.yul\":18650:18695   */\n      tag_459\n        /* \"#utility.yul\":18670:18694   */\n      tag_460\n        /* \"#utility.yul\":18688:18693   */\n      dup3\n        /* \"#utility.yul\":18670:18694   */\n      tag_228\n      jump\t// in\n    tag_460:\n        /* \"#utility.yul\":18650:18695   */\n      tag_255\n      jump\t// in\n    tag_459:\n        /* \"#utility.yul\":18645:18648   */\n      dup3\n        /* \"#utility.yul\":18638:18696   */\n      mstore\n        /* \"#utility.yul\":18545:18702   */\n      pop\n      pop\n      jump\t// out\n        /* \"#utility.yul\":18708:18834   */\n    tag_257:\n        /* \"#utility.yul\":18745:18752   */\n      0x00\n        /* \"#utility.yul\":18785:18827   */\n      0xffffffffffffffffffffffffffffffffffffffff\n        /* \"#utility.yul\":18778:18783   */\n      dup3\n        /* \"#utility.yul\":18774:18828   */\n      and\n        /* \"#utility.yul\":18763:18828   */\n      swap1\n      pop\n        /* \"#utility.yul\":18708:18834   */\n      swap2\n      swap1\n      pop\n      jump\t// out\n        /* \"#utility.yul\":18840:18936   */\n    tag_258:\n        /* \"#utility.yul\":18877:18884   */\n      0x00\n        /* \"#utility.yul\":18906:18930   */\n      tag_463\n        /* \"#utility.yul\":18924:18929   */\n      dup3\n        /* \"#utility.yul\":18906:18930   */\n      tag_257\n      jump\t// in\n    tag_463:\n        /* \"#utility.yul\":18895:18930   */\n      swap1\n      pop\n        /* \"#utility.yul\":18840:18936   */\n      swap2\n      swap1\n      pop\n      jump\t// out\n        /* \"#utility.yul\":18942:19036   */\n    tag_259:\n        /* \"#utility.yul\":18975:18983   */\n      0x00\n        /* \"#utility.yul\":19023:19028   */\n      dup2\n        /* \"#utility.yul\":19019:19021   */\n      0x60\n        /* \"#utility.yul\":19015:19029   */\n      shl\n        /* \"#utility.yul\":18994:19029   */\n      swap1\n      pop\n        /* \"#utility.yul\":18942:19036   */\n      swap2\n      swap1\n      pop\n      jump\t// out\n        /* \"#utility.yul\":19042:19136   */\n    tag_260:\n        /* \"#utility.yul\":19081:19088   */\n      0x00\n        /* \"#utility.yul\":19110:19130   */\n      tag_466\n        /* \"#utility.yul\":19124:19129   */\n      dup3\n        /* \"#utility.yul\":19110:19130   */\n      tag_259\n      jump\t// in\n    tag_466:\n        /* \"#utility.yul\":19099:19130   */\n      swap1\n      pop\n        /* \"#utility.yul\":19042:19136   */\n      swap2\n      swap1\n      pop\n      jump\t// out\n        /* \"#utility.yul\":19142:19242   */\n    tag_261:\n        /* \"#utility.yul\":19181:19188   */\n      0x00\n        /* \"#utility.yul\":19210:19236   */\n      tag_468\n        /* \"#utility.yul\":19230:19235   */\n      dup3\n        /* \"#utility.yul\":19210:19236   */\n      tag_260\n      jump\t// in\n    tag_468:\n        /* \"#utility.yul\":19199:19236   */\n      swap1\n      pop\n        /* \"#utility.yul\":19142:19242   */\n      swap2\n      swap1\n      pop\n      jump\t// out\n        /* \"#utility.yul\":19248:19405   */\n    tag_262:\n        /* \"#utility.yul\":19353:19398   */\n      tag_470\n        /* \"#utility.yul\":19373:19397   */\n      tag_471\n        /* \"#utility.yul\":19391:19396   */\n      dup3\n        /* \"#utility.yul\":19373:19397   */\n      tag_258\n      jump\t// in\n    tag_471:\n        /* \"#utility.yul\":19353:19398   */\n      tag_261\n      jump\t// in\n    tag_470:\n        /* \"#utility.yul\":19348:19351   */\n      dup3\n        /* \"#utility.yul\":19341:19399   */\n      mstore\n        /* \"#utility.yul\":19248:19405   */\n      pop\n      pop\n      jump\t// out\n        /* \"#utility.yul\":19411:19949   */\n    tag_173:\n        /* \"#utility.yul\":19579:19582   */\n      0x00\n        /* \"#utility.yul\":19594:19669   */\n      tag_473\n        /* \"#utility.yul\":19665:19668   */\n      dup3\n        /* \"#utility.yul\":19656:19662   */\n      dup7\n        /* \"#utility.yul\":19594:19669   */\n      tag_254\n      jump\t// in\n    tag_473:\n        /* \"#utility.yul\":19694:19696   */\n      0x20\n        /* \"#utility.yul\":19689:19692   */\n      dup3\n        /* \"#utility.yul\":19685:19697   */\n      add\n        /* \"#utility.yul\":19678:19697   */\n      swap2\n      pop\n        /* \"#utility.yul\":19707:19782   */\n      tag_474\n        /* \"#utility.yul\":19778:19781   */\n      dup3\n        /* \"#utility.yul\":19769:19775   */\n      dup6\n        /* \"#utility.yul\":19707:19782   */\n      tag_256\n      jump\t// in\n    tag_474:\n        /* \"#utility.yul\":19807:19809   */\n      0x20\n        /* \"#utility.yul\":19802:19805   */\n      dup3\n        /* \"#utility.yul\":19798:19810   */\n      add\n        /* \"#utility.yul\":19791:19810   */\n      swap2\n      pop\n        /* \"#utility.yul\":19820:19895   */\n      tag_475\n        /* \"#utility.yul\":19891:19894   */\n      dup3\n        /* \"#utility.yul\":19882:19888   */\n      dup5\n        /* \"#utility.yul\":19820:19895   */\n      tag_262\n      jump\t// in\n    tag_475:\n        /* \"#utility.yul\":19920:19922   */\n      0x14\n        /* \"#utility.yul\":19915:19918   */\n      dup3\n        /* \"#utility.yul\":19911:19923   */\n      add\n        /* \"#utility.yul\":19904:19923   */\n      swap2\n      pop\n        /* \"#utility.yul\":19940:19943   */\n      dup2\n        /* \"#utility.yul\":19933:19943   */\n      swap1\n      pop\n        /* \"#utility.yul\":19411:19949   */\n      swap5\n      swap4\n      pop\n      pop\n      pop\n      pop\n      jump\t// out\n        /* \"#utility.yul\":19955:20135   */\n    tag_263:\n        /* \"#utility.yul\":20003:20080   */\n      0x4e487b7100000000000000000000000000000000000000000000000000000000\n        /* \"#utility.yul\":20000:20001   */\n      0x00\n        /* \"#utility.yul\":19993:20081   */\n      mstore\n        /* \"#utility.yul\":20100:20104   */\n      0x12\n        /* \"#utility.yul\":20097:20098   */\n      0x04\n        /* \"#utility.yul\":20090:20105   */\n      mstore\n        /* \"#utility.yul\":20124:20128   */\n      0x24\n        /* \"#utility.yul\":20121:20122   */\n      0x00\n        /* \"#utility.yul\":20114:20129   */\n      revert\n        /* \"#utility.yul\":20141:20317   */\n    tag_175:\n        /* \"#utility.yul\":20173:20174   */\n      0x00\n        /* \"#utility.yul\":20190:20210   */\n      tag_478\n        /* \"#utility.yul\":20208:20209   */\n      dup3\n        /* \"#utility.yul\":20190:20210   */\n      tag_228\n      jump\t// in\n    tag_478:\n        /* \"#utility.yul\":20185:20210   */\n      swap2\n      pop\n        /* \"#utility.yul\":20224:20244   */\n      tag_479\n        /* \"#utility.yul\":20242:20243   */\n      dup4\n        /* \"#utility.yul\":20224:20244   */\n      tag_228\n      jump\t// in\n    tag_479:\n        /* \"#utility.yul\":20219:20244   */\n      swap3\n      pop\n        /* \"#utility.yul\":20263:20264   */\n      dup3\n        /* \"#utility.yul\":20253:20288   */\n      tag_480\n      jumpi\n        /* \"#utility.yul\":20268:20286   */\n      tag_481\n      tag_263\n      jump\t// in\n    tag_481:\n        /* \"#utility.yul\":20253:20288   */\n    tag_480:\n        /* \"#utility.yul\":20309:20310   */\n      dup3\n        /* \"#utility.yul\":20306:20307   */\n      dup3\n        /* \"#utility.yul\":20302:20311   */\n      mod\n        /* \"#utility.yul\":20297:20311   */\n      swap1\n      pop\n        /* \"#utility.yul\":20141:20317   */\n      swap3\n      swap2\n      pop\n      pop\n      jump\t// out\n        /* \"#utility.yul\":20323:20514   */\n    tag_177:\n        /* \"#utility.yul\":20363:20366   */\n      0x00\n        /* \"#utility.yul\":20382:20402   */\n      tag_483\n        /* \"#utility.yul\":20400:20401   */\n      dup3\n        /* \"#utility.yul\":20382:20402   */\n      tag_228\n      jump\t// in\n    tag_483:\n        /* \"#utility.yul\":20377:20402   */\n      swap2\n      pop\n        /* \"#utility.yul\":20416:20436   */\n      tag_484\n        /* \"#utility.yul\":20434:20435   */\n      dup4\n        /* \"#utility.yul\":20416:20436   */\n      tag_228\n      jump\t// in\n    tag_484:\n        /* \"#utility.yul\":20411:20436   */\n      swap3\n      pop\n        /* \"#utility.yul\":20459:20460   */\n      dup3\n        /* \"#utility.yul\":20456:20457   */\n      dup3\n        /* \"#utility.yul\":20452:20461   */\n      add\n        /* \"#utility.yul\":20445:20461   */\n      swap1\n      pop\n        /* \"#utility.yul\":20480:20483   */\n      dup1\n        /* \"#utility.yul\":20477:20478   */\n      dup3\n        /* \"#utility.yul\":20474:20484   */\n      gt\n        /* \"#utility.yul\":20471:20507   */\n      iszero\n      tag_485\n      jumpi\n        /* \"#utility.yul\":20487:20505   */\n      tag_486\n      tag_227\n      jump\t// in\n    tag_486:\n        /* \"#utility.yul\":20471:20507   */\n    tag_485:\n        /* \"#utility.yul\":20323:20514   */\n      swap3\n      swap2\n      pop\n      pop\n      jump\t// out\n\n    auxdata: 0xa2646970667358221220ffb729f82f9ccd86af576c5116661744ffd0089bc5b3fc8ef09c91ba19ad9b5664736f6c63430008130033\n}\n",
				"bytecode": {
					"linkReferences": {},
					"object": "60806040526040518061054001604052806040518060400160405280600481526020017f67616d650000000000000000000000000000000000000000000000000000000081525081526020016040518060400160405280600481526020017f6e6f64650000000000000000000000000000000000000000000000000000000081525081526020016040518060400160405280600481526020017f686173680000000000000000000000000000000000000000000000000000000081525081526020016040518060400160405280600481526020017f627974650000000000000000000000000000000000000000000000000000000081525081526020016040518060400160405280600481526020017f6d61736b0000000000000000000000000000000000000000000000000000000081525081526020016040518060400160405280600481526020017f636f64650000000000000000000000000000000000000000000000000000000081525081526020016040518060400160405280600581526020017f626c6f636b00000000000000000000000000000000000000000000000000000081525081526020016040518060400160405280600581526020017f636861696e00000000000000000000000000000000000000000000000000000081525081526020016040518060400160405280600581526020017f746f6b656e00000000000000000000000000000000000000000000000000000081525081526020016040518060400160405280600581526020017f6d696e657200000000000000000000000000000000000000000000000000000081525081526020016040518060400160405280600581526020017f677565737300000000000000000000000000000000000000000000000000000081525081526020016040518060400160405280600581526020017f736f6c766500000000000000000000000000000000000000000000000000000081525081526020016040518060400160405280600681526020017f77616c6c6574000000000000000000000000000000000000000000000000000081525081526020016040518060400160405280600681526020017f6c6564676572000000000000000000000000000000000000000000000000000081525081526020016040518060400160405280600681526020017f63727970746f000000000000000000000000000000000000000000000000000081525081526020016040518060400160405280600581526020017f6e6f6e636500000000000000000000000000000000000000000000000000000081525081526020016040518060400160405280600681526020017f73656e646572000000000000000000000000000000000000000000000000000081525081526020016040518060400160405280600681526020017f766572696679000000000000000000000000000000000000000000000000000081525081526020016040518060400160405280600781526020017f6163636f756e740000000000000000000000000000000000000000000000000081525081526020016040518060400160405280600781526020017f62616c616e63650000000000000000000000000000000000000000000000000081525081526020016040518060400160405280600781526020017f73746f726167650000000000000000000000000000000000000000000000000081525081526020016040518060400160405280600781526020017f636f6d70696c650000000000000000000000000000000000000000000000000081525081526020016040518060400160405280600781526020017f657865637574650000000000000000000000000000000000000000000000000081525081526020016040518060400160405280600781526020017f6e6574776f726b0000000000000000000000000000000000000000000000000081525081526020016040518060400160405280600881526020017f636f6e747261637400000000000000000000000000000000000000000000000081525081526020016040518060400160405280600881526020017f66756e6374696f6e00000000000000000000000000000000000000000000000081525081526020016040518060400160405280600881526020017f7661726961626c6500000000000000000000000000000000000000000000000081525081526020016040518060400160405280600881526020017f6d6f64696669657200000000000000000000000000000000000000000000000081525081526020016040518060400160405280600881526020017f6f766572666c6f7700000000000000000000000000000000000000000000000081525081526020016040518060400160405280600881526020017f6761736c696d697400000000000000000000000000000000000000000000000081525081526020016040518060400160405280600981526020017f696d6d757461626c65000000000000000000000000000000000000000000000081525081526020016040518060400160405280600981526020017f636f6e73656e737573000000000000000000000000000000000000000000000081525081526020016040518060400160405280600981526020017f626c6f636b74696d65000000000000000000000000000000000000000000000081525081526020016040518060400160405280600981526020017f7369676e6174757265000000000000000000000000000000000000000000000081525081526020016040518060400160405280600a81526020017f6465706c6f796d656e740000000000000000000000000000000000000000000081525081526020016040518060400160405280600981526020017f696e74657266616365000000000000000000000000000000000000000000000081525081526020016040518060400160405280600b81526020017f7472616e73616374696f6e00000000000000000000000000000000000000000081525081526020016040518060400160405280600b81526020017f636f6e73747261696e747300000000000000000000000000000000000000000081525081526020016040518060400160405280600a81526020017f70726f6772616d6d65720000000000000000000000000000000000000000000081525081526020016040518060400160405280600a81526020017f76616c69646174696f6e0000000000000000000000000000000000000000000081525081526020016040518060400160405280600981526020017f63616c6c6461746178000000000000000000000000000000000000000000000081525081526020016040518060400160405280600a81526020017f6576656e746c6f67676700000000000000000000000000000000000000000000815250815250600190602a620009ce929190620009e3565b50348015620009dc57600080fd5b5062000e31565b82805482825590600052602060002090810192821562000a30579160200282015b8281111562000a2f57825182908162000a1e919062000d4a565b509160200191906001019062000a04565b5b50905062000a3f919062000a43565b5090565b5b8082111562000a67576000818162000a5d919062000a6b565b5060010162000a44565b5090565b50805462000a799062000b39565b6000825580601f1062000a8d575062000aae565b601f01602090049060005260206000209081019062000aad919062000ab1565b5b50565b5b8082111562000acc57600081600090555060010162000ab2565b5090565b600081519050919050565b7f4e487b7100000000000000000000000000000000000000000000000000000000600052604160045260246000fd5b7f4e487b7100000000000000000000000000000000000000000000000000000000600052602260045260246000fd5b6000600282049050600182168062000b5257607f821691505b60208210810362000b685762000b6762000b0a565b5b50919050565b60008190508160005260206000209050919050565b60006020601f8301049050919050565b600082821b905092915050565b60006008830262000bd27fffffffffffffffffffffffffffffffffffffffffffffffffffffffffffffffff8262000b93565b62000bde868362000b93565b95508019841693508086168417925050509392505050565b6000819050919050565b6000819050919050565b600062000c2b62000c2562000c1f8462000bf6565b62000c00565b62000bf6565b9050919050565b6000819050919050565b62000c478362000c0a565b62000c5f62000c568262000c32565b84845462000ba0565b825550505050565b600090565b62000c7662000c67565b62000c8381848462000c3c565b505050565b5b8181101562000cab5762000c9f60008262000c6c565b60018101905062000c89565b5050565b601f82111562000cfa5762000cc48162000b6e565b62000ccf8462000b83565b8101602085101562000cdf578190505b62000cf762000cee8562000b83565b83018262000c88565b50505b505050565b600082821c905092915050565b600062000d1f6000198460080262000cff565b1980831691505092915050565b600062000d3a838362000d0c565b9150826002028217905092915050565b62000d558262000ad0565b67ffffffffffffffff81111562000d715762000d7062000adb565b5b62000d7d825462000b39565b62000d8a82828562000caf565b600060209050601f83116001811462000dc2576000841562000dad578287015190505b62000db9858262000d2c565b86555062000e29565b601f19841662000dd28662000b6e565b60005b8281101562000dfc5784890151825560018201915060208501945060208101905062000dd5565b8683101562000e1c578489015162000e18601f89168262000d0c565b8355505b6001600288020188555050505b505050505050565b611d2f8062000e416000396000f3fe608060405234801561001057600080fd5b50600436106100625760003560e01c806302056c8b146100675780635d0797c01461008b57806381196481146100a9578063922d572c146100c7578063d65ab5f2146100e3578063f77ea683146100ed575b600080fd5b61006f61010b565b6040516100829796959493929190611287565b60405180910390f35b610093610275565b6040516100a091906112fd565b60405180910390f35b6100b161027a565b6040516100be91906112fd565b60405180910390f35b6100e160048036038101906100dc9190611375565b61027f565b005b6100eb610813565b005b6100f5610b1e565b60405161010291906112fd565b60405180910390f35b600080600060606000806000806000803373ffffffffffffffffffffffffffffffffffffffff1673ffffffffffffffffffffffffffffffffffffffff16815260200190815260200160002090508060000160009054906101000a900460ff168160000160019054906101000a900460ff168260000160029054906101000a900460ff16836001018460020160009054906101000a900463ffffffff168560020160049054906101000a900463ffffffff168660020160089054906101000a900463ffffffff168380546101dd906113d1565b80601f0160208091040260200160405190810160405280929190818152602001828054610209906113d1565b80156102565780601f1061022b57610100808354040283529160200191610256565b820191906000526020600020905b81548152906001019060200180831161023957829003601f168201915b5050505050935097509750975097509750975097505090919293949596565b600a81565b600481565b60008060003373ffffffffffffffffffffffffffffffffffffffff1673ffffffffffffffffffffffffffffffffffffffff1681526020019081526020016000209050600160038111156102d5576102d4611145565b5b8160000160009054906101000a900460ff1660038111156102f9576102f8611145565b5b14610339576040517f08c379a00000000000000000000000000000000000000000000000000000000081526004016103309061145f565b60405180910390fd5b600061034483610b23565b905060008160ff16600163ffffffff16901b90506000818460020160009054906101000a900463ffffffff161663ffffffff16146103b7576040517f08c379a00000000000000000000000000000000000000000000000000000000081526004016103ae906114cb565b60405180910390fd5b808360020160008282829054906101000a900463ffffffff161792506101000a81548163ffffffff021916908363ffffffff1602179055506000806103fb85610b98565b915091508061043f576040517f08c379a000000000000000000000000000000000000000000000000000000000815260040161043690611537565b60405180910390fd5b600061044b8388610ccc565b905080156106d057838660020160048282829054906101000a900463ffffffff161792506101000a81548163ffffffff021916908363ffffffff16021790555060005b8660000160019054906101000a900460ff1660ff168110156106035760008482815181106104bf576104be611557565b5b602001015160f81c60f81b90506104d68882610d6e565b156105575780886001018381546104ec906113d1565b81106104fb576104fa611557565b5b81546001161561051a5790600052602060002090602091828204019190065b601f036101000a81548160ff021916907f0100000000000000000000000000000000000000000000000000000000000000840402179055506105ef565b7f5f0000000000000000000000000000000000000000000000000000000000000088600101838154610588906113d1565b811061059757610596611557565b5b8154600116156105b65790600052602060002090602091828204019190065b601f036101000a81548160ff021916907f0100000000000000000000000000000000000000000000000000000000000000840402179055505b5080806105fb906115bf565b91505061048e565b50610699866001018054610616906113d1565b80601f0160208091040260200160405190810160405280929190818152602001828054610642906113d1565b801561068f5780601f106106645761010080835404028352916020019161068f565b820191906000526020600020905b81548152906001019060200180831161067257829003601f168201915b5050505050610dd1565b6106cb5760028660000160006101000a81548160ff021916908360038111156106c5576106c4611145565b5b02179055505b61078f565b838660020160088282829054906101000a900463ffffffff161792506101000a81548163ffffffff021916908363ffffffff16021790555060018660000160028282829054906101000a900460ff166107299190611607565b92506101000a81548160ff021916908360ff160217905550600660ff168660000160029054906101000a900460ff1660ff161061078e5760038660000160006101000a81548160ff0219169083600381111561078857610787611145565b5b02179055505b5b3373ffffffffffffffffffffffffffffffffffffffff167f158e50b6c009c05279b63369ee0914aac86906246da69b271f2e77f49fdd082a8883896001018a60000160029054906101000a900460ff168b60000160009054906101000a900460ff166040516108029594939291906116ff565b60405180910390a250505050505050565b60008060003373ffffffffffffffffffffffffffffffffffffffff1673ffffffffffffffffffffffffffffffffffffffff16815260200190815260200160002090506001600381111561086957610868611145565b5b8160000160009054906101000a900460ff16600381111561088d5761088c611145565b5b036108cd576040517f08c379a00000000000000000000000000000000000000000000000000000000081526004016108c4906117a5565b60405180910390fd5b60006108d7610e92565b905060018260000160006101000a81548160ff0219169083600381111561090157610900611145565b5b0217905550808260000160016101000a81548160ff021916908360ff16021790555060008260000160026101000a81548160ff021916908360ff16021790555060008260020160006101000a81548163ffffffff021916908363ffffffff16021790555060008260020160046101000a81548163ffffffff021916908363ffffffff16021790555060008260020160086101000a81548163ffffffff021916908363ffffffff1602179055508060ff1667ffffffffffffffff8111156109ca576109c96117c5565b5b6040519080825280601f01601f1916602001820160405280156109fc5781602001600182028036833780820191505090505b50826001019081610a0d919061198b565b5060005b8160ff16811015610ac6577f5f0000000000000000000000000000000000000000000000000000000000000083600101828154610a4d906113d1565b8110610a5c57610a5b611557565b5b815460011615610a7b5790600052602060002090602091828204019190065b601f036101000a81548160ff021916907f0100000000000000000000000000000000000000000000000000000000000000840402179055508080610abe906115bf565b915050610a11565b503373ffffffffffffffffffffffffffffffffffffffff167f362a5ee0744680df9f8bd7848062c7608e392410201575266042218106f405968284600101604051610b12929190611a5d565b60405180910390a25050565b600681565b6000808260f81c905060618160ff1610158015610b445750607a8160ff1611155b610b83576040517f08c379a0000000000000000000000000000000000000000000000000000000008152600401610b7a90611ad9565b60405180910390fd5b606181610b909190611af9565b915050919050565b6060600080600090505b600180549050811015610cae57600060018281548110610bc557610bc4611557565b5b906000526020600020018054610bda906113d1565b80601f0160208091040260200160405190810160405280929190818152602001828054610c06906113d1565b8015610c535780601f10610c2857610100808354040283529160200191610c53565b820191906000526020600020905b815481529060010190602001808311610c3657829003601f168201915b505050505090508460000160019054906101000a900460ff1660ff16815114610c7c5750610c9b565b610c868582610f15565b15610c9957806001935093505050610cc7565b505b8080610ca6906115bf565b915050610ba2565b5060006040518060200160405280600081525090915091505b915091565b600080600090505b8351811015610d6257827effffffffffffffffffffffffffffffffffffffffffffffffffffffffffffff1916848281518110610d1357610d12611557565b5b602001015160f81c60f81b7effffffffffffffffffffffffffffffffffffffffffffffffffffffffffffff191603610d4f576001915050610d68565b8080610d5a906115bf565b915050610cd4565b50600090505b92915050565b60008060618360f81c610d819190611af9565b905060198160ff161115610d99576000915050610dcb565b60008160ff16600163ffffffff16901b8560020160049054906101000a900463ffffffff161663ffffffff1614159150505b92915050565b600080600090505b8251811015610e87577f5f000000000000000000000000000000000000000000000000000000000000007effffffffffffffffffffffffffffffffffffffffffffffffffffffffffffff1916838281518110610e3857610e37611557565b5b602001015160f81c60f81b7effffffffffffffffffffffffffffffffffffffffffffffffffffffffffffff191603610e74576001915050610e8d565b8080610e7f906115bf565b915050610dd9565b50600090505b919050565b60008060016004600a610ea59190611af9565b610eaf9190611607565b60ff1690506000600143610ec39190611b2e565b404233604051602001610ed893929190611c28565b6040516020818303038152906040528051906020012060001c90508181610eff9190611c94565b600460ff16610f0e9190611cc5565b9250505090565b600080600090505b8360000160019054906101000a900460ff1660ff168110156110d6576000838281518110610f4e57610f4d611557565b5b602001015160f81c60f81b9050600085600101838154610f6d906113d1565b8110610f7c57610f7b611557565b5b815460011615610f9b5790600052602060002090602091828204019190065b9054901a7f01000000000000000000000000000000000000000000000000000000000000000290507f5f000000000000000000000000000000000000000000000000000000000000007effffffffffffffffffffffffffffffffffffffffffffffffffffffffffffff1916817effffffffffffffffffffffffffffffffffffffffffffffffffffffffffffff19161461108a57807effffffffffffffffffffffffffffffffffffffffffffffffffffffffffffff1916827effffffffffffffffffffffffffffffffffffffffffffffffffffffffffffff19161461108557600093505050506110dc565b6110a6565b6110948683610d6e565b156110a557600093505050506110dc565b5b6110b086836110e2565b156110c157600093505050506110dc565b505080806110ce906115bf565b915050610f1d565b50600190505b92915050565b60008060618360f81c6110f59190611af9565b905060198160ff16111561110d57600091505061113f565b60008160ff16600163ffffffff16901b8560020160089054906101000a900463ffffffff161663ffffffff1614159150505b92915050565b7f4e487b7100000000000000000000000000000000000000000000000000000000600052602160045260246000fd5b6004811061118557611184611145565b5b50565b600081905061119682611174565b919050565b60006111a682611188565b9050919050565b6111b68161119b565b82525050565b600060ff82169050919050565b6111d2816111bc565b82525050565b600081519050919050565b600082825260208201905092915050565b60005b838110156112125780820151818401526020810190506111f7565b60008484015250505050565b6000601f19601f8301169050919050565b600061123a826111d8565b61124481856111e3565b93506112548185602086016111f4565b61125d8161121e565b840191505092915050565b600063ffffffff82169050919050565b61128181611268565b82525050565b600060e08201905061129c600083018a6111ad565b6112a960208301896111c9565b6112b660408301886111c9565b81810360608301526112c8818761122f565b90506112d76080830186611278565b6112e460a0830185611278565b6112f160c0830184611278565b98975050505050505050565b600060208201905061131260008301846111c9565b92915050565b600080fd5b60007fff0000000000000000000000000000000000000000000000000000000000000082169050919050565b6113528161131d565b811461135d57600080fd5b50565b60008135905061136f81611349565b92915050565b60006020828403121561138b5761138a611318565b5b600061139984828501611360565b91505092915050565b7f4e487b7100000000000000000000000000000000000000000000000000000000600052602260045260246000fd5b600060028204905060018216806113e957607f821691505b6020821081036113fc576113fb6113a2565b5b50919050565b600082825260208201905092915050565b7f6e6f206163746976652067616d65000000000000000000000000000000000000600082015250565b6000611449600e83611402565b915061145482611413565b602082019050919050565b600060208201905081810360008301526114788161143c565b9050919050565b7f6c657474657220616c7265616479206775657373656400000000000000000000600082015250565b60006114b5601683611402565b91506114c08261147f565b602082019050919050565b600060208201905081810360008301526114e4816114a8565b9050919050565b7f6e6f2076616c696420776f726473000000000000000000000000000000000000600082015250565b6000611521600e83611402565b915061152c826114eb565b602082019050919050565b6000602082019050818103600083015261155081611514565b9050919050565b7f4e487b7100000000000000000000000000000000000000000000000000000000600052603260045260246000fd5b7f4e487b7100000000000000000000000000000000000000000000000000000000600052601160045260246000fd5b6000819050919050565b60006115ca826115b5565b91507fffffffffffffffffffffffffffffffffffffffffffffffffffffffffffffffff82036115fc576115fb611586565b5b600182019050919050565b6000611612826111bc565b915061161d836111bc565b9250828201905060ff81111561163657611635611586565b5b92915050565b6116458161131d565b82525050565b60008115159050919050565b6116608161164b565b82525050565b60008190508160005260206000209050919050565b60008154611688816113d1565b61169281866111e3565b945060018216600081146116ad57600181146116c3576116f6565b60ff1983168652811515602002860193506116f6565b6116cc85611666565b60005b838110156116ee578154818901526001820191506020810190506116cf565b808801955050505b50505092915050565b600060a082019050611714600083018861163c565b6117216020830187611657565b8181036040830152611733818661167b565b905061174260608301856111c9565b61174f60808301846111ad565b9695505050505050565b7f67616d6520616c72656164792061637469766500000000000000000000000000600082015250565b600061178f601383611402565b915061179a82611759565b602082019050919050565b600060208201905081810360008301526117be81611782565b9050919050565b7f4e487b7100000000000000000000000000000000000000000000000000000000600052604160045260246000fd5b60006020601f8301049050919050565b600082821b905092915050565b6000600883026118417fffffffffffffffffffffffffffffffffffffffffffffffffffffffffffffffff82611804565b61184b8683611804565b95508019841693508086168417925050509392505050565b6000819050919050565b600061188861188361187e846115b5565b611863565b6115b5565b9050919050565b6000819050919050565b6118a28361186d565b6118b66118ae8261188f565b848454611811565b825550505050565b600090565b6118cb6118be565b6118d6818484611899565b505050565b5b818110156118fa576118ef6000826118c3565b6001810190506118dc565b5050565b601f82111561193f5761191081611666565b611919846117f4565b81016020851015611928578190505b61193c611934856117f4565b8301826118db565b50505b505050565b600082821c905092915050565b600061196260001984600802611944565b1980831691505092915050565b600061197b8383611951565b9150826002028217905092915050565b611994826111d8565b67ffffffffffffffff8111156119ad576119ac6117c5565b5b6119b782546113d1565b6119c28282856118fe565b600060209050601f8311600181146119f557600084156119e3578287015190505b6119ed858261196f565b865550611a55565b601f198416611a0386611666565b60005b82811015611a2b57848901518255600182019150602085019450602081019050611a06565b86831015611a485784890151611a44601f891682611951565b8355505b6001600288020188555050505b505050505050565b6000604082019050611a7260008301856111c9565b8181036020830152611a84818461167b565b90509392505050565b7f696e707574206d7573742062652061206c657474657220612d7a000000000000600082015250565b6000611ac3601a83611402565b9150611ace82611a8d565b602082019050919050565b60006020820190508181036000830152611af281611ab6565b9050919050565b6000611b04826111bc565b9150611b0f836111bc565b9250828203905060ff811115611b2857611b27611586565b5b92915050565b6000611b39826115b5565b9150611b44836115b5565b9250828203905081811115611b5c57611b5b611586565b5b92915050565b6000819050919050565b6000819050919050565b611b87611b8282611b62565b611b6c565b82525050565b6000819050919050565b611ba8611ba3826115b5565b611b8d565b82525050565b600073ffffffffffffffffffffffffffffffffffffffff82169050919050565b6000611bd982611bae565b9050919050565b60008160601b9050919050565b6000611bf882611be0565b9050919050565b6000611c0a82611bed565b9050919050565b611c22611c1d82611bce565b611bff565b82525050565b6000611c348286611b76565b602082019150611c448285611b97565b602082019150611c548284611c11565b601482019150819050949350505050565b7f4e487b7100000000000000000000000000000000000000000000000000000000600052601260045260246000fd5b6000611c9f826115b5565b9150611caa836115b5565b925082611cba57611cb9611c65565b5b828206905092915050565b6000611cd0826115b5565b9150611cdb836115b5565b9250828201905080821115611cf357611cf2611586565b5b9291505056fea2646970667358221220ffb729f82f9ccd86af576c5116661744ffd0089bc5b3fc8ef09c91ba19ad9b5664736f6c63430008130033",
					"opcodes": "PUSH1 0x80 PUSH1 0x40 MSTORE PUSH1 0x40 MLOAD DUP1 PUSH2 0x540 ADD PUSH1 0x40 MSTORE DUP1 PUSH1 0x40 MLOAD DUP1 PUSH1 0x40 ADD PUSH1 0x40 MSTORE DUP1 PUSH1 0x4 DUP2 MSTORE PUSH1 0x20 ADD PUSH32 0x67616D6500000000000000000000000000000000000000000000000000000000 DUP2 MSTORE POP DUP2 MSTORE PUSH1 0x20 ADD PUSH1 0x40 MLOAD DUP1 PUSH1 0x40 ADD PUSH1 0x40 MSTORE DUP1 PUSH1 0x4 DUP2 MSTORE PUSH1 0x20 ADD PUSH32 0x6E6F646500000000000000000000000000000000000000000000000000000000 DUP2 MSTORE POP DUP2 MSTORE PUSH1 0x20 ADD PUSH1 0x40 MLOAD DUP1 PUSH1 0x40 ADD PUSH1 0x40 MSTORE DUP1 PUSH1 0x4 DUP2 MSTORE PUSH1 0x20 ADD PUSH32 0x6861736800000000000000000000000000000000000000000000000000000000 DUP2 MSTORE POP DUP2 MSTORE PUSH1 0x20 ADD PUSH1 0x40 MLOAD DUP1 PUSH1 0x40 ADD PUSH1 0x40 MSTORE DUP1 PUSH1 0x4 DUP2 MSTORE PUSH1 0x20 ADD PUSH32 0x6279746500000000000000000000000000000000000000000000000000000000 DUP2 MSTORE POP DUP2 MSTORE PUSH1 0x20 ADD PUSH1 0x40 MLOAD DUP1 PUSH1 0x40 ADD PUSH1 0x40 MSTORE DUP1 PUSH1 0x4 DUP2 MSTORE PUSH1 0x20 ADD PUSH32 0x6D61736B00000000000000000000000000000000000000000000000000000000 DUP2 MSTORE POP DUP2 MSTORE PUSH1 0x20 ADD PUSH1 0x40 MLOAD DUP1 PUSH1 0x40 ADD PUSH1 0x40 MSTORE DUP1 PUSH1 0x4 DUP2 MSTORE PUSH1 0x20 ADD PUSH32 0x636F646500000000000000000000000000000000000000000000000000000000 DUP2 MSTORE POP DUP2 MSTORE PUSH1 0x20 ADD PUSH1 0x40 MLOAD DUP1 PUSH1 0x40 ADD PUSH1 0x40 MSTORE DUP1 PUSH1 0x5 DUP2 MSTORE PUSH1 0x20 ADD PUSH32 0x626C6F636B000000000000000000000000000000000000000000000000000000 DUP2 MSTORE POP DUP2 MSTORE PUSH1 0x20 ADD PUSH1 0x40 MLOAD DUP1 PUSH1 0x40 ADD PUSH1 0x40 MSTORE DUP1 PUSH1 0x5 DUP2 MSTORE PUSH1 0x20 ADD PUSH32 0x636861696E000000000000000000000000000000000000000000000000000000 DUP2 MSTORE POP DUP2 MSTORE PUSH1 0x20 ADD PUSH1 0x40 MLOAD DUP1 PUSH1 0x40 ADD PUSH1 0x40 MSTORE DUP1 PUSH1 0x5 DUP2 MSTORE PUSH1 0x20 ADD PUSH32 0x746F6B656E000000000000000000000000000000000000000000000000000000 DUP2 MSTORE POP DUP2 MSTORE PUSH1 0x20 ADD PUSH1 0x40 MLOAD DUP1 PUSH1 0x40 ADD PUSH1 0x40 MSTORE DUP1 PUSH1 0x5 DUP2 MSTORE PUSH1 0x20 ADD PUSH32 0x6D696E6572000000000000000000000000000000000000000000000000000000 DUP2 MSTORE POP DUP2 MSTORE PUSH1 0x20 ADD PUSH1 0x40 MLOAD DUP1 PUSH1 0x40 ADD PUSH1 0x40 MSTORE DUP1 PUSH1 0x5 DUP2 MSTORE PUSH1 0x20 ADD PUSH32 0x6775657373000000000000000000000000000000000000000000000000000000 DUP2 MSTORE POP DUP2 MSTORE PUSH1 0x20 ADD PUSH1 0x40 MLOAD DUP1 PUSH1 0x40 ADD PUSH1 0x40 MSTORE DUP1 PUSH1 0x5 DUP2 MSTORE PUSH1 0x20 ADD PUSH32 0x736F6C7665000000000000000000000000000000000000000000000000000000 DUP2 MSTORE POP DUP2 MSTORE PUSH1 0x20 ADD PUSH1 0x40 MLOAD DUP1 PUSH1 0x40 ADD PUSH1 0x40 MSTORE DUP1 PUSH1 0x6 DUP2 MSTORE PUSH1 0x20 ADD PUSH32 0x77616C6C65740000000000000000000000000000000000000000000000000000 DUP2 MSTORE POP DUP2 MSTORE PUSH1 0x20 ADD PUSH1 0x40 MLOAD DUP1 PUSH1 0x40 ADD PUSH1 0x40 MSTORE DUP1 PUSH1 0x6 DUP2 MSTORE PUSH1 0x20 ADD PUSH32 0x6C65646765720000000000000000000000000000000000000000000000000000 DUP2 MSTORE POP DUP2 MSTORE PUSH1 0x20 ADD PUSH1 0x40 MLOAD DUP1 PUSH1 0x40 ADD PUSH1 0x40 MSTORE DUP1 PUSH1 0x6 DUP2 MSTORE PUSH1 0x20 ADD PUSH32 0x63727970746F0000000000000000000000000000000000000000000000000000 DUP2 MSTORE POP DUP2 MSTORE PUSH1 0x20 ADD PUSH1 0x40 MLOAD DUP1 PUSH1 0x40 ADD PUSH1 0x40 MSTORE DUP1 PUSH1 0x5 DUP2 MSTORE PUSH1 0x20 ADD PUSH32 0x6E6F6E6365000000000000000000000000000000000000000000000000000000 DUP2 MSTORE POP DUP2 MSTORE PUSH1 0x20 ADD PUSH1 0x40 MLOAD DUP1 PUSH1 0x40 ADD PUSH1 0x40 MSTORE DUP1 PUSH1 0x6 DUP2 MSTORE PUSH1 0x20 ADD PUSH32 0x73656E6465720000000000000000000000000000000000000000000000000000 DUP2 MSTORE POP DUP2 MSTORE PUSH1 0x20 ADD PUSH1 0x40 MLOAD DUP1 PUSH1 0x40 ADD PUSH1 0x40 MSTORE DUP1 PUSH1 0x6 DUP2 MSTORE PUSH1 0x20 ADD PUSH32 0x7665726966790000000000000000000000000000000000000000000000000000 DUP2 MSTORE POP DUP2 MSTORE PUSH1 0x20 ADD PUSH1 0x40 MLOAD DUP1 PUSH1 0x40 ADD PUSH1 0x40 MSTORE DUP1 PUSH1 0x7 DUP2 MSTORE PUSH1 0x20 ADD PUSH32 0x6163636F756E7400000000000000000000000000000000000000000000000000 DUP2 MSTORE POP DUP2 MSTORE PUSH1 0x20 ADD PUSH1 0x40 MLOAD DUP1 PUSH1 0x40 ADD PUSH1 0x40 MSTORE DUP1 PUSH1 0x7 DUP2 MSTORE PUSH1 0x20 ADD PUSH32 0x62616C616E636500000000000000000000000000000000000000000000000000 DUP2 MSTORE POP DUP2 MSTORE PUSH1 0x20 ADD PUSH1 0x40 MLOAD DUP1 PUSH1 0x40 ADD PUSH1 0x40 MSTORE DUP1 PUSH1 0x7 DUP2 MSTORE PUSH1 0x20 ADD PUSH32 0x73746F7261676500000000000000000000000000000000000000000000000000 DUP2 MSTORE POP DUP2 MSTORE PUSH1 0x20 ADD PUSH1 0x40 MLOAD DUP1 PUSH1 0x40 ADD PUSH1 0x40 MSTORE DUP1 PUSH1 0x7 DUP2 MSTORE PUSH1 0x20 ADD PUSH32 0x636F6D70696C6500000000000000000000000000000000000000000000000000 DUP2 MSTORE POP DUP2 MSTORE PUSH1 0x20 ADD PUSH1 0x40 MLOAD DUP1 PUSH1 0x40 ADD PUSH1 0x40 MSTORE DUP1 PUSH1 0x7 DUP2 MSTORE PUSH1 0x20 ADD PUSH32 0x6578656375746500000000000000000000000000000000000000000000000000 DUP2 MSTORE POP DUP2 MSTORE PUSH1 0x20 ADD PUSH1 0x40 MLOAD DUP1 PUSH1 0x40 ADD PUSH1 0x40 MSTORE DUP1 PUSH1 0x7 DUP2 MSTORE PUSH1 0x20 ADD PUSH32 0x6E6574776F726B00000000000000000000000000000000000000000000000000 DUP2 MSTORE POP DUP2 MSTORE PUSH1 0x20 ADD PUSH1 0x40 MLOAD DUP1 PUSH1 0x40 ADD PUSH1 0x40 MSTORE DUP1 PUSH1 0x8 DUP2 MSTORE PUSH1 0x20 ADD PUSH32 0x636F6E7472616374000000000000000000000000000000000000000000000000 DUP2 MSTORE POP DUP2 MSTORE PUSH1 0x20 ADD PUSH1 0x40 MLOAD DUP1 PUSH1 0x40 ADD PUSH1 0x40 MSTORE DUP1 PUSH1 0x8 DUP2 MSTORE PUSH1 0x20 ADD PUSH32 0x66756E6374696F6E000000000000000000000000000000000000000000000000 DUP2 MSTORE POP DUP2 MSTORE PUSH1 0x20 ADD PUSH1 0x40 MLOAD DUP1 PUSH1 0x40 ADD PUSH1 0x40 MSTORE DUP1 PUSH1 0x8 DUP2 MSTORE PUSH1 0x20 ADD PUSH32 0x7661726961626C65000000000000000000000000000000000000000000000000 DUP2 MSTORE POP DUP2 MSTORE PUSH1 0x20 ADD PUSH1 0x40 MLOAD DUP1 PUSH1 0x40 ADD PUSH1 0x40 MSTORE DUP1 PUSH1 0x8 DUP2 MSTORE PUSH1 0x20 ADD PUSH32 0x6D6F646966696572000000000000000000000000000000000000000000000000 DUP2 MSTORE POP DUP2 MSTORE PUSH1 0x20 ADD PUSH1 0x40 MLOAD DUP1 PUSH1 0x40 ADD PUSH1 0x40 MSTORE DUP1 PUSH1 0x8 DUP2 MSTORE PUSH1 0x20 ADD PUSH32 0x6F766572666C6F77000000000000000000000000000000000000000000000000 DUP2 MSTORE POP DUP2 MSTORE PUSH1 0x20 ADD PUSH1 0x40 MLOAD DUP1 PUSH1 0x40 ADD PUSH1 0x40 MSTORE DUP1 PUSH1 0x8 DUP2 MSTORE PUSH1 0x20 ADD PUSH32 0x6761736C696D6974000000000000000000000000000000000000000000000000 DUP2 MSTORE POP DUP2 MSTORE PUSH1 0x20 ADD PUSH1 0x40 MLOAD DUP1 PUSH1 0x40 ADD PUSH1 0x40 MSTORE DUP1 PUSH1 0x9 DUP2 MSTORE PUSH1 0x20 ADD PUSH32 0x696D6D757461626C650000000000000000000000000000000000000000000000 DUP2 MSTORE POP DUP2 MSTORE PUSH1 0x20 ADD PUSH1 0x40 MLOAD DUP1 PUSH1 0x40 ADD PUSH1 0x40 MSTORE DUP1 PUSH1 0x9 DUP2 MSTORE PUSH1 0x20 ADD PUSH32 0x636F6E73656E7375730000000000000000000000000000000000000000000000 DUP2 MSTORE POP DUP2 MSTORE PUSH1 0x20 ADD PUSH1 0x40 MLOAD DUP1 PUSH1 0x40 ADD PUSH1 0x40 MSTORE DUP1 PUSH1 0x9 DUP2 MSTORE PUSH1 0x20 ADD PUSH32 0x626C6F636B74696D650000000000000000000000000000000000000000000000 DUP2 MSTORE POP DUP2 MSTORE PUSH1 0x20 ADD PUSH1 0x40 MLOAD DUP1 PUSH1 0x40 ADD PUSH1 0x40 MSTORE DUP1 PUSH1 0x9 DUP2 MSTORE PUSH1 0x20 ADD PUSH32 0x7369676E61747572650000000000000000000000000000000000000000000000 DUP2 MSTORE POP DUP2 MSTORE PUSH1 0x20 ADD PUSH1 0x40 MLOAD DUP1 PUSH1 0x40 ADD PUSH1 0x40 MSTORE DUP1 PUSH1 0xA DUP2 MSTORE PUSH1 0x20 ADD PUSH32 0x6465706C6F796D656E7400000000000000000000000000000000000000000000 DUP2 MSTORE POP DUP2 MSTORE PUSH1 0x20 ADD PUSH1 0x40 MLOAD DUP1 PUSH1 0x40 ADD PUSH1 0x40 MSTORE DUP1 PUSH1 0x9 DUP2 MSTORE PUSH1 0x20 ADD PUSH32 0x696E746572666163650000000000000000000000000000000000000000000000 DUP2 MSTORE POP DUP2 MSTORE PUSH1 0x20 ADD PUSH1 0x40 MLOAD DUP1 PUSH1 0x40 ADD PUSH1 0x40 MSTORE DUP1 PUSH1 0xB DUP2 MSTORE PUSH1 0x20 ADD PUSH32 0x7472616E73616374696F6E000000000000000000000000000000000000000000 DUP2 MSTORE POP DUP2 MSTORE PUSH1 0x20 ADD PUSH1 0x40 MLOAD DUP1 PUSH1 0x40 ADD PUSH1 0x40 MSTORE DUP1 PUSH1 0xB DUP2 MSTORE PUSH1 0x20 ADD PUSH32 0x636F6E73747261696E7473000000000000000000000000000000000000000000 DUP2 MSTORE POP DUP2 MSTORE PUSH1 0x20 ADD PUSH1 0x40 MLOAD DUP1 PUSH1 0x40 ADD PUSH1 0x40 MSTORE DUP1 PUSH1 0xA DUP2 MSTORE PUSH1 0x20 ADD PUSH32 0x70726F6772616D6D657200000000000000000000000000000000000000000000 DUP2 MSTORE POP DUP2 MSTORE PUSH1 0x20 ADD PUSH1 0x40 MLOAD DUP1 PUSH1 0x40 ADD PUSH1 0x40 MSTORE DUP1 PUSH1 0xA DUP2 MSTORE PUSH1 0x20 ADD PUSH32 0x76616C69646174696F6E00000000000000000000000000000000000000000000 DUP2 MSTORE POP DUP2 MSTORE PUSH1 0x20 ADD PUSH1 0x40 MLOAD DUP1 PUSH1 0x40 ADD PUSH1 0x40 MSTORE DUP1 PUSH1 0x9 DUP2 MSTORE PUSH1 0x20 ADD PUSH32 0x63616C6C64617461780000000000000000000000000000000000000000000000 DUP2 MSTORE POP DUP2 MSTORE PUSH1 0x20 ADD PUSH1 0x40 MLOAD DUP1 PUSH1 0x40 ADD PUSH1 0x40 MSTORE DUP1 PUSH1 0xA DUP2 MSTORE PUSH1 0x20 ADD PUSH32 0x6576656E746C6F67676700000000000000000000000000000000000000000000 DUP2 MSTORE POP DUP2 MSTORE POP PUSH1 0x1 SWAP1 PUSH1 0x2A PUSH3 0x9CE SWAP3 SWAP2 SWAP1 PUSH3 0x9E3 JUMP JUMPDEST POP CALLVALUE DUP1 ISZERO PUSH3 0x9DC JUMPI PUSH1 0x0 DUP1 REVERT JUMPDEST POP PUSH3 0xE31 JUMP JUMPDEST DUP3 DUP1 SLOAD DUP3 DUP3 SSTORE SWAP1 PUSH1 0x0 MSTORE PUSH1 0x20 PUSH1 0x0 KECCAK256 SWAP1 DUP2 ADD SWAP3 DUP3 ISZERO PUSH3 0xA30 JUMPI SWAP2 PUSH1 0x20 MUL DUP3 ADD JUMPDEST DUP3 DUP2 GT ISZERO PUSH3 0xA2F JUMPI DUP3 MLOAD DUP3 SWAP1 DUP2 PUSH3 0xA1E SWAP2 SWAP1 PUSH3 0xD4A JUMP JUMPDEST POP SWAP2 PUSH1 0x20 ADD SWAP2 SWAP1 PUSH1 0x1 ADD SWAP1 PUSH3 0xA04 JUMP JUMPDEST JUMPDEST POP SWAP1 POP PUSH3 0xA3F SWAP2 SWAP1 PUSH3 0xA43 JUMP JUMPDEST POP SWAP1 JUMP JUMPDEST JUMPDEST DUP1 DUP3 GT ISZERO PUSH3 0xA67 JUMPI PUSH1 0x0 DUP2 DUP2 PUSH3 0xA5D SWAP2 SWAP1 PUSH3 0xA6B JUMP JUMPDEST POP PUSH1 0x1 ADD PUSH3 0xA44 JUMP JUMPDEST POP SWAP1 JUMP JUMPDEST POP DUP1 SLOAD PUSH3 0xA79 SWAP1 PUSH3 0xB39 JUMP JUMPDEST PUSH1 0x0 DUP3 SSTORE DUP1 PUSH1 0x1F LT PUSH3 0xA8D JUMPI POP PUSH3 0xAAE JUMP JUMPDEST PUSH1 0x1F ADD PUSH1 0x20 SWAP1 DIV SWAP1 PUSH1 0x0 MSTORE PUSH1 0x20 PUSH1 0x0 KECCAK256 SWAP1 DUP2 ADD SWAP1 PUSH3 0xAAD SWAP2 SWAP1 PUSH3 0xAB1 JUMP JUMPDEST JUMPDEST POP JUMP JUMPDEST JUMPDEST DUP1 DUP3 GT ISZERO PUSH3 0xACC JUMPI PUSH1 0x0 DUP2 PUSH1 0x0 SWAP1 SSTORE POP PUSH1 0x1 ADD PUSH3 0xAB2 JUMP JUMPDEST POP SWAP1 JUMP JUMPDEST PUSH1 0x0 DUP2 MLOAD SWAP1 POP SWAP2 SWAP1 POP JUMP JUMPDEST PUSH32 0x4E487B7100000000000000000000000000000000000000000000000000000000 PUSH1 0x0 MSTORE PUSH1 0x41 PUSH1 0x4 MSTORE PUSH1 0x24 PUSH1 0x0 REVERT JUMPDEST PUSH32 0x4E487B7100000000000000000000000000000000000000000000000000000000 PUSH1 0x0 MSTORE PUSH1 0x22 PUSH1 0x4 MSTORE PUSH1 0x24 PUSH1 0x0 REVERT JUMPDEST PUSH1 0x0 PUSH1 0x2 DUP3 DIV SWAP1 POP PUSH1 0x1 DUP3 AND DUP1 PUSH3 0xB52 JUMPI PUSH1 0x7F DUP3 AND SWAP2 POP JUMPDEST PUSH1 0x20 DUP3 LT DUP2 SUB PUSH3 0xB68 JUMPI PUSH3 0xB67 PUSH3 0xB0A JUMP JUMPDEST JUMPDEST POP SWAP2 SWAP1 POP JUMP JUMPDEST PUSH1 0x0 DUP2 SWAP1 POP DUP2 PUSH1 0x0 MSTORE PUSH1 0x20 PUSH1 0x0 KECCAK256 SWAP1 POP SWAP2 SWAP1 POP JUMP JUMPDEST PUSH1 0x0 PUSH1 0x20 PUSH1 0x1F DUP4 ADD DIV SWAP1 POP SWAP2 SWAP1 POP JUMP JUMPDEST PUSH1 0x0 DUP3 DUP3 SHL SWAP1 POP SWAP3 SWAP2 POP POP JUMP JUMPDEST PUSH1 0x0 PUSH1 0x8 DUP4 MUL PUSH3 0xBD2 PUSH32 0xFFFFFFFFFFFFFFFFFFFFFFFFFFFFFFFFFFFFFFFFFFFFFFFFFFFFFFFFFFFFFFFF DUP3 PUSH3 0xB93 JUMP JUMPDEST PUSH3 0xBDE DUP7 DUP4 PUSH3 0xB93 JUMP JUMPDEST SWAP6 POP DUP1 NOT DUP5 AND SWAP4 POP DUP1 DUP7 AND DUP5 OR SWAP3 POP POP POP SWAP4 SWAP3 POP POP POP JUMP JUMPDEST PUSH1 0x0 DUP2 SWAP1 POP SWAP2 SWAP1 POP JUMP JUMPDEST PUSH1 0x0 DUP2 SWAP1 POP SWAP2 SWAP1 POP JUMP JUMPDEST PUSH1 0x0 PUSH3 0xC2B PUSH3 0xC25 PUSH3 0xC1F DUP5 PUSH3 0xBF6 JUMP JUMPDEST PUSH3 0xC00 JUMP JUMPDEST PUSH3 0xBF6 JUMP JUMPDEST SWAP1 POP SWAP2 SWAP1 POP JUMP JUMPDEST PUSH1 0x0 DUP2 SWAP1 POP SWAP2 SWAP1 POP JUMP JUMPDEST PUSH3 0xC47 DUP4 PUSH3 0xC0A JUMP JUMPDEST PUSH3 0xC5F PUSH3 0xC56 DUP3 PUSH3 0xC32 JUMP JUMPDEST DUP5 DUP5 SLOAD PUSH3 0xBA0 JUMP JUMPDEST DUP3 SSTORE POP POP POP POP JUMP JUMPDEST PUSH1 0x0 SWAP1 JUMP JUMPDEST PUSH3 0xC76 PUSH3 0xC67 JUMP JUMPDEST PUSH3 0xC83 DUP2 DUP5 DUP5 PUSH3 0xC3C JUMP JUMPDEST POP POP POP JUMP JUMPDEST JUMPDEST DUP2 DUP2 LT ISZERO PUSH3 0xCAB JUMPI PUSH3 0xC9F PUSH1 0x0 DUP3 PUSH3 0xC6C JUMP JUMPDEST PUSH1 0x1 DUP2 ADD SWAP1 POP PUSH3 0xC89 JUMP JUMPDEST POP POP JUMP JUMPDEST PUSH1 0x1F DUP3 GT ISZERO PUSH3 0xCFA JUMPI PUSH3 0xCC4 DUP2 PUSH3 0xB6E JUMP JUMPDEST PUSH3 0xCCF DUP5 PUSH3 0xB83 JUMP JUMPDEST DUP2 ADD PUSH1 0x20 DUP6 LT ISZERO PUSH3 0xCDF JUMPI DUP2 SWAP1 POP JUMPDEST PUSH3 0xCF7 PUSH3 0xCEE DUP6 PUSH3 0xB83 JUMP JUMPDEST DUP4 ADD DUP3 PUSH3 0xC88 JUMP JUMPDEST POP POP JUMPDEST POP POP POP JUMP JUMPDEST PUSH1 0x0 DUP3 DUP3 SHR SWAP1 POP SWAP3 SWAP2 POP POP JUMP JUMPDEST PUSH1 0x0 PUSH3 0xD1F PUSH1 0x0 NOT DUP5 PUSH1 0x8 MUL PUSH3 0xCFF JUMP JUMPDEST NOT DUP1 DUP4 AND SWAP2 POP POP SWAP3 SWAP2 POP POP JUMP JUMPDEST PUSH1 0x0 PUSH3 0xD3A DUP4 DUP4 PUSH3 0xD0C JUMP JUMPDEST SWAP2 POP DUP3 PUSH1 0x2 MUL DUP3 OR SWAP1 POP SWAP3 SWAP2 POP POP JUMP JUMPDEST PUSH3 0xD55 DUP3 PUSH3 0xAD0 JUMP JUMPDEST PUSH8 0xFFFFFFFFFFFFFFFF DUP2 GT ISZERO PUSH3 0xD71 JUMPI PUSH3 0xD70 PUSH3 0xADB JUMP JUMPDEST JUMPDEST PUSH3 0xD7D DUP3 SLOAD PUSH3 0xB39 JUMP JUMPDEST PUSH3 0xD8A DUP3 DUP3 DUP6 PUSH3 0xCAF JUMP JUMPDEST PUSH1 0x0 PUSH1 0x20 SWAP1 POP PUSH1 0x1F DUP4 GT PUSH1 0x1 DUP2 EQ PUSH3 0xDC2 JUMPI PUSH1 0x0 DUP5 ISZERO PUSH3 0xDAD JUMPI DUP3 DUP8 ADD MLOAD SWAP1 POP JUMPDEST PUSH3 0xDB9 DUP6 DUP3 PUSH3 0xD2C JUMP JUMPDEST DUP7 SSTORE POP PUSH3 0xE29 JUMP JUMPDEST PUSH1 0x1F NOT DUP5 AND PUSH3 0xDD2 DUP7 PUSH3 0xB6E JUMP JUMPDEST PUSH1 0x0 JUMPDEST DUP3 DUP2 LT ISZERO PUSH3 0xDFC JUMPI DUP5 DUP10 ADD MLOAD DUP3 SSTORE PUSH1 0x1 DUP3 ADD SWAP2 POP PUSH1 0x20 DUP6 ADD SWAP5 POP PUSH1 0x20 DUP2 ADD SWAP1 POP PUSH3 0xDD5 JUMP JUMPDEST DUP7 DUP4 LT ISZERO PUSH3 0xE1C JUMPI DUP5 DUP10 ADD MLOAD PUSH3 0xE18 PUSH1 0x1F DUP10 AND DUP3 PUSH3 0xD0C JUMP JUMPDEST DUP4 SSTORE POP JUMPDEST PUSH1 0x1 PUSH1 0x2 DUP9 MUL ADD DUP9 SSTORE POP POP POP JUMPDEST POP POP POP POP POP POP JUMP JUMPDEST PUSH2 0x1D2F DUP1 PUSH3 0xE41 PUSH1 0x0 CODECOPY PUSH1 0x0 RETURN INVALID PUSH1 0x80 PUSH1 0x40 MSTORE CALLVALUE DUP1 ISZERO PUSH2 0x10 JUMPI PUSH1 0x0 DUP1 REVERT JUMPDEST POP PUSH1 0x4 CALLDATASIZE LT PUSH2 0x62 JUMPI PUSH1 0x0 CALLDATALOAD PUSH1 0xE0 SHR DUP1 PUSH4 0x2056C8B EQ PUSH2 0x67 JUMPI DUP1 PUSH4 0x5D0797C0 EQ PUSH2 0x8B JUMPI DUP1 PUSH4 0x81196481 EQ PUSH2 0xA9 JUMPI DUP1 PUSH4 0x922D572C EQ PUSH2 0xC7 JUMPI DUP1 PUSH4 0xD65AB5F2 EQ PUSH2 0xE3 JUMPI DUP1 PUSH4 0xF77EA683 EQ PUSH2 0xED JUMPI JUMPDEST PUSH1 0x0 DUP1 REVERT JUMPDEST PUSH2 0x6F PUSH2 0x10B JUMP JUMPDEST PUSH1 0x40 MLOAD PUSH2 0x82 SWAP8 SWAP7 SWAP6 SWAP5 SWAP4 SWAP3 SWAP2 SWAP1 PUSH2 0x1287 JUMP JUMPDEST PUSH1 0x40 MLOAD DUP1 SWAP2 SUB SWAP1 RETURN JUMPDEST PUSH2 0x93 PUSH2 0x275 JUMP JUMPDEST PUSH1 0x40 MLOAD PUSH2 0xA0 SWAP2 SWAP1 PUSH2 0x12FD JUMP JUMPDEST PUSH1 0x40 MLOAD DUP1 SWAP2 SUB SWAP1 RETURN JUMPDEST PUSH2 0xB1 PUSH2 0x27A JUMP JUMPDEST PUSH1 0x40 MLOAD PUSH2 0xBE SWAP2 SWAP1 PUSH2 0x12FD JUMP JUMPDEST PUSH1 0x40 MLOAD DUP1 SWAP2 SUB SWAP1 RETURN JUMPDEST PUSH2 0xE1 PUSH1 0x4 DUP1 CALLDATASIZE SUB DUP2 ADD SWAP1 PUSH2 0xDC SWAP2 SWAP1 PUSH2 0x1375 JUMP JUMPDEST PUSH2 0x27F JUMP JUMPDEST STOP JUMPDEST PUSH2 0xEB PUSH2 0x813 JUMP JUMPDEST STOP JUMPDEST PUSH2 0xF5 PUSH2 0xB1E JUMP JUMPDEST PUSH1 0x40 MLOAD PUSH2 0x102 SWAP2 SWAP1 PUSH2 0x12FD JUMP JUMPDEST PUSH1 0x40 MLOAD DUP1 SWAP2 SUB SWAP1 RETURN JUMPDEST PUSH1 0x0 DUP1 PUSH1 0x0 PUSH1 0x60 PUSH1 0x0 DUP1 PUSH1 0x0 DUP1 PUSH1 0x0 DUP1 CALLER PUSH20 0xFFFFFFFFFFFFFFFFFFFFFFFFFFFFFFFFFFFFFFFF AND PUSH20 0xFFFFFFFFFFFFFFFFFFFFFFFFFFFFFFFFFFFFFFFF AND DUP2 MSTORE PUSH1 0x20 ADD SWAP1 DUP2 MSTORE PUSH1 0x20 ADD PUSH1 0x0 KECCAK256 SWAP1 POP DUP1 PUSH1 0x0 ADD PUSH1 0x0 SWAP1 SLOAD SWAP1 PUSH2 0x100 EXP SWAP1 DIV PUSH1 0xFF AND DUP2 PUSH1 0x0 ADD PUSH1 0x1 SWAP1 SLOAD SWAP1 PUSH2 0x100 EXP SWAP1 DIV PUSH1 0xFF AND DUP3 PUSH1 0x0 ADD PUSH1 0x2 SWAP1 SLOAD SWAP1 PUSH2 0x100 EXP SWAP1 DIV PUSH1 0xFF AND DUP4 PUSH1 0x1 ADD DUP5 PUSH1 0x2 ADD PUSH1 0x0 SWAP1 SLOAD SWAP1 PUSH2 0x100 EXP SWAP1 DIV PUSH4 0xFFFFFFFF AND DUP6 PUSH1 0x2 ADD PUSH1 0x4 SWAP1 SLOAD SWAP1 PUSH2 0x100 EXP SWAP1 DIV PUSH4 0xFFFFFFFF AND DUP7 PUSH1 0x2 ADD PUSH1 0x8 SWAP1 SLOAD SWAP1 PUSH2 0x100 EXP SWAP1 DIV PUSH4 0xFFFFFFFF AND DUP4 DUP1 SLOAD PUSH2 0x1DD SWAP1 PUSH2 0x13D1 JUMP JUMPDEST DUP1 PUSH1 0x1F ADD PUSH1 0x20 DUP1 SWAP2 DIV MUL PUSH1 0x20 ADD PUSH1 0x40 MLOAD SWAP1 DUP2 ADD PUSH1 0x40 MSTORE DUP1 SWAP3 SWAP2 SWAP1 DUP2 DUP2 MSTORE PUSH1 0x20 ADD DUP3 DUP1 SLOAD PUSH2 0x209 SWAP1 PUSH2 0x13D1 JUMP JUMPDEST DUP1 ISZERO PUSH2 0x256 JUMPI DUP1 PUSH1 0x1F LT PUSH2 0x22B JUMPI PUSH2 0x100 DUP1 DUP4 SLOAD DIV MUL DUP4 MSTORE SWAP2 PUSH1 0x20 ADD SWAP2 PUSH2 0x256 JUMP JUMPDEST DUP3 ADD SWAP2 SWAP1 PUSH1 0x0 MSTORE PUSH1 0x20 PUSH1 0x0 KECCAK256 SWAP1 JUMPDEST DUP2 SLOAD DUP2 MSTORE SWAP1 PUSH1 0x1 ADD SWAP1 PUSH1 0x20 ADD DUP1 DUP4 GT PUSH2 0x239 JUMPI DUP3 SWAP1 SUB PUSH1 0x1F AND DUP3 ADD SWAP2 JUMPDEST POP POP POP POP POP SWAP4 POP SWAP8 POP SWAP8 POP SWAP8 POP SWAP8 POP SWAP8 POP SWAP8 POP SWAP8 POP POP SWAP1 SWAP2 SWAP3 SWAP4 SWAP5 SWAP6 SWAP7 JUMP JUMPDEST PUSH1 0xA DUP2 JUMP JUMPDEST PUSH1 0x4 DUP2 JUMP JUMPDEST PUSH1 0x0 DUP1 PUSH1 0x0 CALLER PUSH20 0xFFFFFFFFFFFFFFFFFFFFFFFFFFFFFFFFFFFFFFFF AND PUSH20 0xFFFFFFFFFFFFFFFFFFFFFFFFFFFFFFFFFFFFFFFF AND DUP2 MSTORE PUSH1 0x20 ADD SWAP1 DUP2 MSTORE PUSH1 0x20 ADD PUSH1 0x0 KECCAK256 SWAP1 POP PUSH1 0x1 PUSH1 0x3 DUP2 GT ISZERO PUSH2 0x2D5 JUMPI PUSH2 0x2D4 PUSH2 0x1145 JUMP JUMPDEST JUMPDEST DUP2 PUSH1 0x0 ADD PUSH1 0x0 SWAP1 SLOAD SWAP1 PUSH2 0x100 EXP SWAP1 DIV PUSH1 0xFF AND PUSH1 0x3 DUP2 GT ISZERO PUSH2 0x2F9 JUMPI PUSH2 0x2F8 PUSH2 0x1145 JUMP JUMPDEST JUMPDEST EQ PUSH2 0x339 JUMPI PUSH1 0x40 MLOAD PUSH32 0x8C379A000000000000000000000000000000000000000000000000000000000 DUP2 MSTORE PUSH1 0x4 ADD PUSH2 0x330 SWAP1 PUSH2 0x145F JUMP JUMPDEST PUSH1 0x40 MLOAD DUP1 SWAP2 SUB SWAP1 REVERT JUMPDEST PUSH1 0x0 PUSH2 0x344 DUP4 PUSH2 0xB23 JUMP JUMPDEST SWAP1 POP PUSH1 0x0 DUP2 PUSH1 0xFF AND PUSH1 0x1 PUSH4 0xFFFFFFFF AND SWAP1 SHL SWAP1 POP PUSH1 0x0 DUP2 DUP5 PUSH1 0x2 ADD PUSH1 0x0 SWAP1 SLOAD SWAP1 PUSH2 0x100 EXP SWAP1 DIV PUSH4 0xFFFFFFFF AND AND PUSH4 0xFFFFFFFF AND EQ PUSH2 0x3B7 JUMPI PUSH1 0x40 MLOAD PUSH32 0x8C379A000000000000000000000000000000000000000000000000000000000 DUP2 MSTORE PUSH1 0x4 ADD PUSH2 0x3AE SWAP1 PUSH2 0x14CB JUMP JUMPDEST PUSH1 0x40 MLOAD DUP1 SWAP2 SUB SWAP1 REVERT JUMPDEST DUP1 DUP4 PUSH1 0x2 ADD PUSH1 0x0 DUP3 DUP3 DUP3 SWAP1 SLOAD SWAP1 PUSH2 0x100 EXP SWAP1 DIV PUSH4 0xFFFFFFFF AND OR SWAP3 POP PUSH2 0x100 EXP DUP2 SLOAD DUP2 PUSH4 0xFFFFFFFF MUL NOT AND SWAP1 DUP4 PUSH4 0xFFFFFFFF AND MUL OR SWAP1 SSTORE POP PUSH1 0x0 DUP1 PUSH2 0x3FB DUP6 PUSH2 0xB98 JUMP JUMPDEST SWAP2 POP SWAP2 POP DUP1 PUSH2 0x43F JUMPI PUSH1 0x40 MLOAD PUSH32 0x8C379A000000000000000000000000000000000000000000000000000000000 DUP2 MSTORE PUSH1 0x4 ADD PUSH2 0x436 SWAP1 PUSH2 0x1537 JUMP JUMPDEST PUSH1 0x40 MLOAD DUP1 SWAP2 SUB SWAP1 REVERT JUMPDEST PUSH1 0x0 PUSH2 0x44B DUP4 DUP9 PUSH2 0xCCC JUMP JUMPDEST SWAP1 POP DUP1 ISZERO PUSH2 0x6D0 JUMPI DUP4 DUP7 PUSH1 0x2 ADD PUSH1 0x4 DUP3 DUP3 DUP3 SWAP1 SLOAD SWAP1 PUSH2 0x100 EXP SWAP1 DIV PUSH4 0xFFFFFFFF AND OR SWAP3 POP PUSH2 0x100 EXP DUP2 SLOAD DUP2 PUSH4 0xFFFFFFFF MUL NOT AND SWAP1 DUP4 PUSH4 0xFFFFFFFF AND MUL OR SWAP1 SSTORE POP PUSH1 0x0 JUMPDEST DUP7 PUSH1 0x0 ADD PUSH1 0x1 SWAP1 SLOAD SWAP1 PUSH2 0x100 EXP SWAP1 DIV PUSH1 0xFF AND PUSH1 0xFF AND DUP2 LT ISZERO PUSH2 0x603 JUMPI PUSH1 0x0 DUP5 DUP3 DUP2 MLOAD DUP2 LT PUSH2 0x4BF JUMPI PUSH2 0x4BE PUSH2 0x1557 JUMP JUMPDEST JUMPDEST PUSH1 0x20 ADD ADD MLOAD PUSH1 0xF8 SHR PUSH1 0xF8 SHL SWAP1 POP PUSH2 0x4D6 DUP9 DUP3 PUSH2 0xD6E JUMP JUMPDEST ISZERO PUSH2 0x557 JUMPI DUP1 DUP9 PUSH1 0x1 ADD DUP4 DUP2 SLOAD PUSH2 0x4EC SWAP1 PUSH2 0x13D1 JUMP JUMPDEST DUP2 LT PUSH2 0x4FB JUMPI PUSH2 0x4FA PUSH2 0x1557 JUMP JUMPDEST JUMPDEST DUP2 SLOAD PUSH1 0x1 AND ISZERO PUSH2 0x51A JUMPI SWAP1 PUSH1 0x0 MSTORE PUSH1 0x20 PUSH1 0x0 KECCAK256 SWAP1 PUSH1 0x20 SWAP2 DUP3 DUP3 DIV ADD SWAP2 SWAP1 MOD JUMPDEST PUSH1 0x1F SUB PUSH2 0x100 EXP DUP2 SLOAD DUP2 PUSH1 0xFF MUL NOT AND SWAP1 PUSH32 0x100000000000000000000000000000000000000000000000000000000000000 DUP5 DIV MUL OR SWAP1 SSTORE POP PUSH2 0x5EF JUMP JUMPDEST PUSH32 0x5F00000000000000000000000000000000000000000000000000000000000000 DUP9 PUSH1 0x1 ADD DUP4 DUP2 SLOAD PUSH2 0x588 SWAP1 PUSH2 0x13D1 JUMP JUMPDEST DUP2 LT PUSH2 0x597 JUMPI PUSH2 0x596 PUSH2 0x1557 JUMP JUMPDEST JUMPDEST DUP2 SLOAD PUSH1 0x1 AND ISZERO PUSH2 0x5B6 JUMPI SWAP1 PUSH1 0x0 MSTORE PUSH1 0x20 PUSH1 0x0 KECCAK256 SWAP1 PUSH1 0x20 SWAP2 DUP3 DUP3 DIV ADD SWAP2 SWAP1 MOD JUMPDEST PUSH1 0x1F SUB PUSH2 0x100 EXP DUP2 SLOAD DUP2 PUSH1 0xFF MUL NOT AND SWAP1 PUSH32 0x100000000000000000000000000000000000000000000000000000000000000 DUP5 DIV MUL OR SWAP1 SSTORE POP JUMPDEST POP DUP1 DUP1 PUSH2 0x5FB SWAP1 PUSH2 0x15BF JUMP JUMPDEST SWAP2 POP POP PUSH2 0x48E JUMP JUMPDEST POP PUSH2 0x699 DUP7 PUSH1 0x1 ADD DUP1 SLOAD PUSH2 0x616 SWAP1 PUSH2 0x13D1 JUMP JUMPDEST DUP1 PUSH1 0x1F ADD PUSH1 0x20 DUP1 SWAP2 DIV MUL PUSH1 0x20 ADD PUSH1 0x40 MLOAD SWAP1 DUP2 ADD PUSH1 0x40 MSTORE DUP1 SWAP3 SWAP2 SWAP1 DUP2 DUP2 MSTORE PUSH1 0x20 ADD DUP3 DUP1 SLOAD PUSH2 0x642 SWAP1 PUSH2 0x13D1 JUMP JUMPDEST DUP1 ISZERO PUSH2 0x68F JUMPI DUP1 PUSH1 0x1F LT PUSH2 0x664 JUMPI PUSH2 0x100 DUP1 DUP4 SLOAD DIV MUL DUP4 MSTORE SWAP2 PUSH1 0x20 ADD SWAP2 PUSH2 0x68F JUMP JUMPDEST DUP3 ADD SWAP2 SWAP1 PUSH1 0x0 MSTORE PUSH1 0x20 PUSH1 0x0 KECCAK256 SWAP1 JUMPDEST DUP2 SLOAD DUP2 MSTORE SWAP1 PUSH1 0x1 ADD SWAP1 PUSH1 0x20 ADD DUP1 DUP4 GT PUSH2 0x672 JUMPI DUP3 SWAP1 SUB PUSH1 0x1F AND DUP3 ADD SWAP2 JUMPDEST POP POP POP POP POP PUSH2 0xDD1 JUMP JUMPDEST PUSH2 0x6CB JUMPI PUSH1 0x2 DUP7 PUSH1 0x0 ADD PUSH1 0x0 PUSH2 0x100 EXP DUP2 SLOAD DUP2 PUSH1 0xFF MUL NOT AND SWAP1 DUP4 PUSH1 0x3 DUP2 GT ISZERO PUSH2 0x6C5 JUMPI PUSH2 0x6C4 PUSH2 0x1145 JUMP JUMPDEST JUMPDEST MUL OR SWAP1 SSTORE POP JUMPDEST PUSH2 0x78F JUMP JUMPDEST DUP4 DUP7 PUSH1 0x2 ADD PUSH1 0x8 DUP3 DUP3 DUP3 SWAP1 SLOAD SWAP1 PUSH2 0x100 EXP SWAP1 DIV PUSH4 0xFFFFFFFF AND OR SWAP3 POP PUSH2 0x100 EXP DUP2 SLOAD DUP2 PUSH4 0xFFFFFFFF MUL NOT AND SWAP1 DUP4 PUSH4 0xFFFFFFFF AND MUL OR SWAP1 SSTORE POP PUSH1 0x1 DUP7 PUSH1 0x0 ADD PUSH1 0x2 DUP3 DUP3 DUP3 SWAP1 SLOAD SWAP1 PUSH2 0x100 EXP SWAP1 DIV PUSH1 0xFF AND PUSH2 0x729 SWAP2 SWAP1 PUSH2 0x1607 JUMP JUMPDEST SWAP3 POP PUSH2 0x100 EXP DUP2 SLOAD DUP2 PUSH1 0xFF MUL NOT AND SWAP1 DUP4 PUSH1 0xFF AND MUL OR SWAP1 SSTORE POP PUSH1 0x6 PUSH1 0xFF AND DUP7 PUSH1 0x0 ADD PUSH1 0x2 SWAP1 SLOAD SWAP1 PUSH2 0x100 EXP SWAP1 DIV PUSH1 0xFF AND PUSH1 0xFF AND LT PUSH2 0x78E JUMPI PUSH1 0x3 DUP7 PUSH1 0x0 ADD PUSH1 0x0 PUSH2 0x100 EXP DUP2 SLOAD DUP2 PUSH1 0xFF MUL NOT AND SWAP1 DUP4 PUSH1 0x3 DUP2 GT ISZERO PUSH2 0x788 JUMPI PUSH2 0x787 PUSH2 0x1145 JUMP JUMPDEST JUMPDEST MUL OR SWAP1 SSTORE POP JUMPDEST JUMPDEST CALLER PUSH20 0xFFFFFFFFFFFFFFFFFFFFFFFFFFFFFFFFFFFFFFFF AND PUSH32 0x158E50B6C009C05279B63369EE0914AAC86906246DA69B271F2E77F49FDD082A DUP9 DUP4 DUP10 PUSH1 0x1 ADD DUP11 PUSH1 0x0 ADD PUSH1 0x2 SWAP1 SLOAD SWAP1 PUSH2 0x100 EXP SWAP1 DIV PUSH1 0xFF AND DUP12 PUSH1 0x0 ADD PUSH1 0x0 SWAP1 SLOAD SWAP1 PUSH2 0x100 EXP SWAP1 DIV PUSH1 0xFF AND PUSH1 0x40 MLOAD PUSH2 0x802 SWAP6 SWAP5 SWAP4 SWAP3 SWAP2 SWAP1 PUSH2 0x16FF JUMP JUMPDEST PUSH1 0x40 MLOAD DUP1 SWAP2 SUB SWAP1 LOG2 POP POP POP POP POP POP POP JUMP JUMPDEST PUSH1 0x0 DUP1 PUSH1 0x0 CALLER PUSH20 0xFFFFFFFFFFFFFFFFFFFFFFFFFFFFFFFFFFFFFFFF AND PUSH20 0xFFFFFFFFFFFFFFFFFFFFFFFFFFFFFFFFFFFFFFFF AND DUP2 MSTORE PUSH1 0x20 ADD SWAP1 DUP2 MSTORE PUSH1 0x20 ADD PUSH1 0x0 KECCAK256 SWAP1 POP PUSH1 0x1 PUSH1 0x3 DUP2 GT ISZERO PUSH2 0x869 JUMPI PUSH2 0x868 PUSH2 0x1145 JUMP JUMPDEST JUMPDEST DUP2 PUSH1 0x0 ADD PUSH1 0x0 SWAP1 SLOAD SWAP1 PUSH2 0x100 EXP SWAP1 DIV PUSH1 0xFF AND PUSH1 0x3 DUP2 GT ISZERO PUSH2 0x88D JUMPI PUSH2 0x88C PUSH2 0x1145 JUMP JUMPDEST JUMPDEST SUB PUSH2 0x8CD JUMPI PUSH1 0x40 MLOAD PUSH32 0x8C379A000000000000000000000000000000000000000000000000000000000 DUP2 MSTORE PUSH1 0x4 ADD PUSH2 0x8C4 SWAP1 PUSH2 0x17A5 JUMP JUMPDEST PUSH1 0x40 MLOAD DUP1 SWAP2 SUB SWAP1 REVERT JUMPDEST PUSH1 0x0 PUSH2 0x8D7 PUSH2 0xE92 JUMP JUMPDEST SWAP1 POP PUSH1 0x1 DUP3 PUSH1 0x0 ADD PUSH1 0x0 PUSH2 0x100 EXP DUP2 SLOAD DUP2 PUSH1 0xFF MUL NOT AND SWAP1 DUP4 PUSH1 0x3 DUP2 GT ISZERO PUSH2 0x901 JUMPI PUSH2 0x900 PUSH2 0x1145 JUMP JUMPDEST JUMPDEST MUL OR SWAP1 SSTORE POP DUP1 DUP3 PUSH1 0x0 ADD PUSH1 0x1 PUSH2 0x100 EXP DUP2 SLOAD DUP2 PUSH1 0xFF MUL NOT AND SWAP1 DUP4 PUSH1 0xFF AND MUL OR SWAP1 SSTORE POP PUSH1 0x0 DUP3 PUSH1 0x0 ADD PUSH1 0x2 PUSH2 0x100 EXP DUP2 SLOAD DUP2 PUSH1 0xFF MUL NOT AND SWAP1 DUP4 PUSH1 0xFF AND MUL OR SWAP1 SSTORE POP PUSH1 0x0 DUP3 PUSH1 0x2 ADD PUSH1 0x0 PUSH2 0x100 EXP DUP2 SLOAD DUP2 PUSH4 0xFFFFFFFF MUL NOT AND SWAP1 DUP4 PUSH4 0xFFFFFFFF AND MUL OR SWAP1 SSTORE POP PUSH1 0x0 DUP3 PUSH1 0x2 ADD PUSH1 0x4 PUSH2 0x100 EXP DUP2 SLOAD DUP2 PUSH4 0xFFFFFFFF MUL NOT AND SWAP1 DUP4 PUSH4 0xFFFFFFFF AND MUL OR SWAP1 SSTORE POP PUSH1 0x0 DUP3 PUSH1 0x2 ADD PUSH1 0x8 PUSH2 0x100 EXP DUP2 SLOAD DUP2 PUSH4 0xFFFFFFFF MUL NOT AND SWAP1 DUP4 PUSH4 0xFFFFFFFF AND MUL OR SWAP1 SSTORE POP DUP1 PUSH1 0xFF AND PUSH8 0xFFFFFFFFFFFFFFFF DUP2 GT ISZERO PUSH2 0x9CA JUMPI PUSH2 0x9C9 PUSH2 0x17C5 JUMP JUMPDEST JUMPDEST PUSH1 0x40 MLOAD SWAP1 DUP1 DUP3 MSTORE DUP1 PUSH1 0x1F ADD PUSH1 0x1F NOT AND PUSH1 0x20 ADD DUP3 ADD PUSH1 0x40 MSTORE DUP1 ISZERO PUSH2 0x9FC JUMPI DUP2 PUSH1 0x20 ADD PUSH1 0x1 DUP3 MUL DUP1 CALLDATASIZE DUP4 CALLDATACOPY DUP1 DUP3 ADD SWAP2 POP POP SWAP1 POP JUMPDEST POP DUP3 PUSH1 0x1 ADD SWAP1 DUP2 PUSH2 0xA0D SWAP2 SWAP1 PUSH2 0x198B JUMP JUMPDEST POP PUSH1 0x0 JUMPDEST DUP2 PUSH1 0xFF AND DUP2 LT ISZERO PUSH2 0xAC6 JUMPI PUSH32 0x5F00000000000000000000000000000000000000000000000000000000000000 DUP4 PUSH1 0x1 ADD DUP3 DUP2 SLOAD PUSH2 0xA4D SWAP1 PUSH2 0x13D1 JUMP JUMPDEST DUP2 LT PUSH2 0xA5C JUMPI PUSH2 0xA5B PUSH2 0x1557 JUMP JUMPDEST JUMPDEST DUP2 SLOAD PUSH1 0x1 AND ISZERO PUSH2 0xA7B JUMPI SWAP1 PUSH1 0x0 MSTORE PUSH1 0x20 PUSH1 0x0 KECCAK256 SWAP1 PUSH1 0x20 SWAP2 DUP3 DUP3 DIV ADD SWAP2 SWAP1 MOD JUMPDEST PUSH1 0x1F SUB PUSH2 0x100 EXP DUP2 SLOAD DUP2 PUSH1 0xFF MUL NOT AND SWAP1 PUSH32 0x100000000000000000000000000000000000000000000000000000000000000 DUP5 DIV MUL OR SWAP1 SSTORE POP DUP1 DUP1 PUSH2 0xABE SWAP1 PUSH2 0x15BF JUMP JUMPDEST SWAP2 POP POP PUSH2 0xA11 JUMP JUMPDEST POP CALLER PUSH20 0xFFFFFFFFFFFFFFFFFFFFFFFFFFFFFFFFFFFFFFFF AND PUSH32 0x362A5EE0744680DF9F8BD7848062C7608E392410201575266042218106F40596 DUP3 DUP5 PUSH1 0x1 ADD PUSH1 0x40 MLOAD PUSH2 0xB12 SWAP3 SWAP2 SWAP1 PUSH2 0x1A5D JUMP JUMPDEST PUSH1 0x40 MLOAD DUP1 SWAP2 SUB SWAP1 LOG2 POP POP JUMP JUMPDEST PUSH1 0x6 DUP2 JUMP JUMPDEST PUSH1 0x0 DUP1 DUP3 PUSH1 0xF8 SHR SWAP1 POP PUSH1 0x61 DUP2 PUSH1 0xFF AND LT ISZERO DUP1 ISZERO PUSH2 0xB44 JUMPI POP PUSH1 0x7A DUP2 PUSH1 0xFF AND GT ISZERO JUMPDEST PUSH2 0xB83 JUMPI PUSH1 0x40 MLOAD PUSH32 0x8C379A000000000000000000000000000000000000000000000000000000000 DUP2 MSTORE PUSH1 0x4 ADD PUSH2 0xB7A SWAP1 PUSH2 0x1AD9 JUMP JUMPDEST PUSH1 0x40 MLOAD DUP1 SWAP2 SUB SWAP1 REVERT JUMPDEST PUSH1 0x61 DUP2 PUSH2 0xB90 SWAP2 SWAP1 PUSH2 0x1AF9 JUMP JUMPDEST SWAP2 POP POP SWAP2 SWAP1 POP JUMP JUMPDEST PUSH1 0x60 PUSH1 0x0 DUP1 PUSH1 0x0 SWAP1 POP JUMPDEST PUSH1 0x1 DUP1 SLOAD SWAP1 POP DUP2 LT ISZERO PUSH2 0xCAE JUMPI PUSH1 0x0 PUSH1 0x1 DUP3 DUP2 SLOAD DUP2 LT PUSH2 0xBC5 JUMPI PUSH2 0xBC4 PUSH2 0x1557 JUMP JUMPDEST JUMPDEST SWAP1 PUSH1 0x0 MSTORE PUSH1 0x20 PUSH1 0x0 KECCAK256 ADD DUP1 SLOAD PUSH2 0xBDA SWAP1 PUSH2 0x13D1 JUMP JUMPDEST DUP1 PUSH1 0x1F ADD PUSH1 0x20 DUP1 SWAP2 DIV MUL PUSH1 0x20 ADD PUSH1 0x40 MLOAD SWAP1 DUP2 ADD PUSH1 0x40 MSTORE DUP1 SWAP3 SWAP2 SWAP1 DUP2 DUP2 MSTORE PUSH1 0x20 ADD DUP3 DUP1 SLOAD PUSH2 0xC06 SWAP1 PUSH2 0x13D1 JUMP JUMPDEST DUP1 ISZERO PUSH2 0xC53 JUMPI DUP1 PUSH1 0x1F LT PUSH2 0xC28 JUMPI PUSH2 0x100 DUP1 DUP4 SLOAD DIV MUL DUP4 MSTORE SWAP2 PUSH1 0x20 ADD SWAP2 PUSH2 0xC53 JUMP JUMPDEST DUP3 ADD SWAP2 SWAP1 PUSH1 0x0 MSTORE PUSH1 0x20 PUSH1 0x0 KECCAK256 SWAP1 JUMPDEST DUP2 SLOAD DUP2 MSTORE SWAP1 PUSH1 0x1 ADD SWAP1 PUSH1 0x20 ADD DUP1 DUP4 GT PUSH2 0xC36 JUMPI DUP3 SWAP1 SUB PUSH1 0x1F AND DUP3 ADD SWAP2 JUMPDEST POP POP POP POP POP SWAP1 POP DUP5 PUSH1 0x0 ADD PUSH1 0x1 SWAP1 SLOAD SWAP1 PUSH2 0x100 EXP SWAP1 DIV PUSH1 0xFF AND PUSH1 0xFF AND DUP2 MLOAD EQ PUSH2 0xC7C JUMPI POP PUSH2 0xC9B JUMP JUMPDEST PUSH2 0xC86 DUP6 DUP3 PUSH2 0xF15 JUMP JUMPDEST ISZERO PUSH2 0xC99 JUMPI DUP1 PUSH1 0x1 SWAP4 POP SWAP4 POP POP POP PUSH2 0xCC7 JUMP JUMPDEST POP JUMPDEST DUP1 DUP1 PUSH2 0xCA6 SWAP1 PUSH2 0x15BF JUMP JUMPDEST SWAP2 POP POP PUSH2 0xBA2 JUMP JUMPDEST POP PUSH1 0x0 PUSH1 0x40 MLOAD DUP1 PUSH1 0x20 ADD PUSH1 0x40 MSTORE DUP1 PUSH1 0x0 DUP2 MSTORE POP SWAP1 SWAP2 POP SWAP2 POP JUMPDEST SWAP2 POP SWAP2 JUMP JUMPDEST PUSH1 0x0 DUP1 PUSH1 0x0 SWAP1 POP JUMPDEST DUP4 MLOAD DUP2 LT ISZERO PUSH2 0xD62 JUMPI DUP3 PUSH31 0xFFFFFFFFFFFFFFFFFFFFFFFFFFFFFFFFFFFFFFFFFFFFFFFFFFFFFFFFFFFFFF NOT AND DUP5 DUP3 DUP2 MLOAD DUP2 LT PUSH2 0xD13 JUMPI PUSH2 0xD12 PUSH2 0x1557 JUMP JUMPDEST JUMPDEST PUSH1 0x20 ADD ADD MLOAD PUSH1 0xF8 SHR PUSH1 0xF8 SHL PUSH31 0xFFFFFFFFFFFFFFFFFFFFFFFFFFFFFFFFFFFFFFFFFFFFFFFFFFFFFFFFFFFFFF NOT AND SUB PUSH2 0xD4F JUMPI PUSH1 0x1 SWAP2 POP POP PUSH2 0xD68 JUMP JUMPDEST DUP1 DUP1 PUSH2 0xD5A SWAP1 PUSH2 0x15BF JUMP JUMPDEST SWAP2 POP POP PUSH2 0xCD4 JUMP JUMPDEST POP PUSH1 0x0 SWAP1 POP JUMPDEST SWAP3 SWAP2 POP POP JUMP JUMPDEST PUSH1 0x0 DUP1 PUSH1 0x61 DUP4 PUSH1 0xF8 SHR PUSH2 0xD81 SWAP2 SWAP1 PUSH2 0x1AF9 JUMP JUMPDEST SWAP1 POP PUSH1 0x19 DUP2 PUSH1 0xFF AND GT ISZERO PUSH2 0xD99 JUMPI PUSH1 0x0 SWAP2 POP POP PUSH2 0xDCB JUMP JUMPDEST PUSH1 0x0 DUP2 PUSH1 0xFF AND PUSH1 0x1 PUSH4 0xFFFFFFFF AND SWAP1 SHL DUP6 PUSH1 0x2 ADD PUSH1 0x4 SWAP1 SLOAD SWAP1 PUSH2 0x100 EXP SWAP1 DIV PUSH4 0xFFFFFFFF AND AND PUSH4 0xFFFFFFFF AND EQ ISZERO SWAP2 POP POP JUMPDEST SWAP3 SWAP2 POP POP JUMP JUMPDEST PUSH1 0x0 DUP1 PUSH1 0x0 SWAP1 POP JUMPDEST DUP3 MLOAD DUP2 LT ISZERO PUSH2 0xE87 JUMPI PUSH32 0x5F00000000000000000000000000000000000000000000000000000000000000 PUSH31 0xFFFFFFFFFFFFFFFFFFFFFFFFFFFFFFFFFFFFFFFFFFFFFFFFFFFFFFFFFFFFFF NOT AND DUP4 DUP3 DUP2 MLOAD DUP2 LT PUSH2 0xE38 JUMPI PUSH2 0xE37 PUSH2 0x1557 JUMP JUMPDEST JUMPDEST PUSH1 0x20 ADD ADD MLOAD PUSH1 0xF8 SHR PUSH1 0xF8 SHL PUSH31 0xFFFFFFFFFFFFFFFFFFFFFFFFFFFFFFFFFFFFFFFFFFFFFFFFFFFFFFFFFFFFFF NOT AND SUB PUSH2 0xE74 JUMPI PUSH1 0x1 SWAP2 POP POP PUSH2 0xE8D JUMP JUMPDEST DUP1 DUP1 PUSH2 0xE7F SWAP1 PUSH2 0x15BF JUMP JUMPDEST SWAP2 POP POP PUSH2 0xDD9 JUMP JUMPDEST POP PUSH1 0x0 SWAP1 POP JUMPDEST SWAP2 SWAP1 POP JUMP JUMPDEST PUSH1 0x0 DUP1 PUSH1 0x1 PUSH1 0x4 PUSH1 0xA PUSH2 0xEA5 SWAP2 SWAP1 PUSH2 0x1AF9 JUMP JUMPDEST PUSH2 0xEAF SWAP2 SWAP1 PUSH2 0x1607 JUMP JUMPDEST PUSH1 0xFF AND SWAP1 POP PUSH1 0x0 PUSH1 0x1 NUMBER PUSH2 0xEC3 SWAP2 SWAP1 PUSH2 0x1B2E JUMP JUMPDEST BLOCKHASH TIMESTAMP CALLER PUSH1 0x40 MLOAD PUSH1 0x20 ADD PUSH2 0xED8 SWAP4 SWAP3 SWAP2 SWAP1 PUSH2 0x1C28 JUMP JUMPDEST PUSH1 0x40 MLOAD PUSH1 0x20 DUP2 DUP4 SUB SUB DUP2 MSTORE SWAP1 PUSH1 0x40 MSTORE DUP1 MLOAD SWAP1 PUSH1 0x20 ADD KECCAK256 PUSH1 0x0 SHR SWAP1 POP DUP2 DUP2 PUSH2 0xEFF SWAP2 SWAP1 PUSH2 0x1C94 JUMP JUMPDEST PUSH1 0x4 PUSH1 0xFF AND PUSH2 0xF0E SWAP2 SWAP1 PUSH2 0x1CC5 JUMP JUMPDEST SWAP3 POP POP POP SWAP1 JUMP JUMPDEST PUSH1 0x0 DUP1 PUSH1 0x0 SWAP1 POP JUMPDEST DUP4 PUSH1 0x0 ADD PUSH1 0x1 SWAP1 SLOAD SWAP1 PUSH2 0x100 EXP SWAP1 DIV PUSH1 0xFF AND PUSH1 0xFF AND DUP2 LT ISZERO PUSH2 0x10D6 JUMPI PUSH1 0x0 DUP4 DUP3 DUP2 MLOAD DUP2 LT PUSH2 0xF4E JUMPI PUSH2 0xF4D PUSH2 0x1557 JUMP JUMPDEST JUMPDEST PUSH1 0x20 ADD ADD MLOAD PUSH1 0xF8 SHR PUSH1 0xF8 SHL SWAP1 POP PUSH1 0x0 DUP6 PUSH1 0x1 ADD DUP4 DUP2 SLOAD PUSH2 0xF6D SWAP1 PUSH2 0x13D1 JUMP JUMPDEST DUP2 LT PUSH2 0xF7C JUMPI PUSH2 0xF7B PUSH2 0x1557 JUMP JUMPDEST JUMPDEST DUP2 SLOAD PUSH1 0x1 AND ISZERO PUSH2 0xF9B JUMPI SWAP1 PUSH1 0x0 MSTORE PUSH1 0x20 PUSH1 0x0 KECCAK256 SWAP1 PUSH1 0x20 SWAP2 DUP3 DUP3 DIV ADD SWAP2 SWAP1 MOD JUMPDEST SWAP1 SLOAD SWAP1 BYTE PUSH32 0x100000000000000000000000000000000000000000000000000000000000000 MUL SWAP1 POP PUSH32 0x5F00000000000000000000000000000000000000000000000000000000000000 PUSH31 0xFFFFFFFFFFFFFFFFFFFFFFFFFFFFFFFFFFFFFFFFFFFFFFFFFFFFFFFFFFFFFF NOT AND DUP2 PUSH31 0xFFFFFFFFFFFFFFFFFFFFFFFFFFFFFFFFFFFFFFFFFFFFFFFFFFFFFFFFFFFFFF NOT AND EQ PUSH2 0x108A JUMPI DUP1 PUSH31 0xFFFFFFFFFFFFFFFFFFFFFFFFFFFFFFFFFFFFFFFFFFFFFFFFFFFFFFFFFFFFFF NOT AND DUP3 PUSH31 0xFFFFFFFFFFFFFFFFFFFFFFFFFFFFFFFFFFFFFFFFFFFFFFFFFFFFFFFFFFFFFF NOT AND EQ PUSH2 0x1085 JUMPI PUSH1 0x0 SWAP4 POP POP POP POP PUSH2 0x10DC JUMP JUMPDEST PUSH2 0x10A6 JUMP JUMPDEST PUSH2 0x1094 DUP7 DUP4 PUSH2 0xD6E JUMP JUMPDEST ISZERO PUSH2 0x10A5 JUMPI PUSH1 0x0 SWAP4 POP POP POP POP PUSH2 0x10DC JUMP JUMPDEST JUMPDEST PUSH2 0x10B0 DUP7 DUP4 PUSH2 0x10E2 JUMP JUMPDEST ISZERO PUSH2 0x10C1 JUMPI PUSH1 0x0 SWAP4 POP POP POP POP PUSH2 0x10DC JUMP JUMPDEST POP POP DUP1 DUP1 PUSH2 0x10CE SWAP1 PUSH2 0x15BF JUMP JUMPDEST SWAP2 POP POP PUSH2 0xF1D JUMP JUMPDEST POP PUSH1 0x1 SWAP1 POP JUMPDEST SWAP3 SWAP2 POP POP JUMP JUMPDEST PUSH1 0x0 DUP1 PUSH1 0x61 DUP4 PUSH1 0xF8 SHR PUSH2 0x10F5 SWAP2 SWAP1 PUSH2 0x1AF9 JUMP JUMPDEST SWAP1 POP PUSH1 0x19 DUP2 PUSH1 0xFF AND GT ISZERO PUSH2 0x110D JUMPI PUSH1 0x0 SWAP2 POP POP PUSH2 0x113F JUMP JUMPDEST PUSH1 0x0 DUP2 PUSH1 0xFF AND PUSH1 0x1 PUSH4 0xFFFFFFFF AND SWAP1 SHL DUP6 PUSH1 0x2 ADD PUSH1 0x8 SWAP1 SLOAD SWAP1 PUSH2 0x100 EXP SWAP1 DIV PUSH4 0xFFFFFFFF AND AND PUSH4 0xFFFFFFFF AND EQ ISZERO SWAP2 POP POP JUMPDEST SWAP3 SWAP2 POP POP JUMP JUMPDEST PUSH32 0x4E487B7100000000000000000000000000000000000000000000000000000000 PUSH1 0x0 MSTORE PUSH1 0x21 PUSH1 0x4 MSTORE PUSH1 0x24 PUSH1 0x0 REVERT JUMPDEST PUSH1 0x4 DUP2 LT PUSH2 0x1185 JUMPI PUSH2 0x1184 PUSH2 0x1145 JUMP JUMPDEST JUMPDEST POP JUMP JUMPDEST PUSH1 0x0 DUP2 SWAP1 POP PUSH2 0x1196 DUP3 PUSH2 0x1174 JUMP JUMPDEST SWAP2 SWAP1 POP JUMP JUMPDEST PUSH1 0x0 PUSH2 0x11A6 DUP3 PUSH2 0x1188 JUMP JUMPDEST SWAP1 POP SWAP2 SWAP1 POP JUMP JUMPDEST PUSH2 0x11B6 DUP2 PUSH2 0x119B JUMP JUMPDEST DUP3 MSTORE POP POP JUMP JUMPDEST PUSH1 0x0 PUSH1 0xFF DUP3 AND SWAP1 POP SWAP2 SWAP1 POP JUMP JUMPDEST PUSH2 0x11D2 DUP2 PUSH2 0x11BC JUMP JUMPDEST DUP3 MSTORE POP POP JUMP JUMPDEST PUSH1 0x0 DUP2 MLOAD SWAP1 POP SWAP2 SWAP1 POP JUMP JUMPDEST PUSH1 0x0 DUP3 DUP3 MSTORE PUSH1 0x20 DUP3 ADD SWAP1 POP SWAP3 SWAP2 POP POP JUMP JUMPDEST PUSH1 0x0 JUMPDEST DUP4 DUP2 LT ISZERO PUSH2 0x1212 JUMPI DUP1 DUP3 ADD MLOAD DUP2 DUP5 ADD MSTORE PUSH1 0x20 DUP2 ADD SWAP1 POP PUSH2 0x11F7 JUMP JUMPDEST PUSH1 0x0 DUP5 DUP5 ADD MSTORE POP POP POP POP JUMP JUMPDEST PUSH1 0x0 PUSH1 0x1F NOT PUSH1 0x1F DUP4 ADD AND SWAP1 POP SWAP2 SWAP1 POP JUMP JUMPDEST PUSH1 0x0 PUSH2 0x123A DUP3 PUSH2 0x11D8 JUMP JUMPDEST PUSH2 0x1244 DUP2 DUP6 PUSH2 0x11E3 JUMP JUMPDEST SWAP4 POP PUSH2 0x1254 DUP2 DUP6 PUSH1 0x20 DUP7 ADD PUSH2 0x11F4 JUMP JUMPDEST PUSH2 0x125D DUP2 PUSH2 0x121E JUMP JUMPDEST DUP5 ADD SWAP2 POP POP SWAP3 SWAP2 POP POP JUMP JUMPDEST PUSH1 0x0 PUSH4 0xFFFFFFFF DUP3 AND SWAP1 POP SWAP2 SWAP1 POP JUMP JUMPDEST PUSH2 0x1281 DUP2 PUSH2 0x1268 JUMP JUMPDEST DUP3 MSTORE POP POP JUMP JUMPDEST PUSH1 0x0 PUSH1 0xE0 DUP3 ADD SWAP1 POP PUSH2 0x129C PUSH1 0x0 DUP4 ADD DUP11 PUSH2 0x11AD JUMP JUMPDEST PUSH2 0x12A9 PUSH1 0x20 DUP4 ADD DUP10 PUSH2 0x11C9 JUMP JUMPDEST PUSH2 0x12B6 PUSH1 0x40 DUP4 ADD DUP9 PUSH2 0x11C9 JUMP JUMPDEST DUP2 DUP2 SUB PUSH1 0x60 DUP4 ADD MSTORE PUSH2 0x12C8 DUP2 DUP8 PUSH2 0x122F JUMP JUMPDEST SWAP1 POP PUSH2 0x12D7 PUSH1 0x80 DUP4 ADD DUP7 PUSH2 0x1278 JUMP JUMPDEST PUSH2 0x12E4 PUSH1 0xA0 DUP4 ADD DUP6 PUSH2 0x1278 JUMP JUMPDEST PUSH2 0x12F1 PUSH1 0xC0 DUP4 ADD DUP5 PUSH2 0x1278 JUMP JUMPDEST SWAP9 SWAP8 POP POP POP POP POP POP POP POP JUMP JUMPDEST PUSH1 0x0 PUSH1 0x20 DUP3 ADD SWAP1 POP PUSH2 0x1312 PUSH1 0x0 DUP4 ADD DUP5 PUSH2 0x11C9 JUMP JUMPDEST SWAP3 SWAP2 POP POP JUMP JUMPDEST PUSH1 0x0 DUP1 REVERT JUMPDEST PUSH1 0x0 PUSH32 0xFF00000000000000000000000000000000000000000000000000000000000000 DUP3 AND SWAP1 POP SWAP2 SWAP1 POP JUMP JUMPDEST PUSH2 0x1352 DUP2 PUSH2 0x131D JUMP JUMPDEST DUP2 EQ PUSH2 0x135D JUMPI PUSH1 0x0 DUP1 REVERT JUMPDEST POP JUMP JUMPDEST PUSH1 0x0 DUP2 CALLDATALOAD SWAP1 POP PUSH2 0x136F DUP2 PUSH2 0x1349 JUMP JUMPDEST SWAP3 SWAP2 POP POP JUMP JUMPDEST PUSH1 0x0 PUSH1 0x20 DUP3 DUP5 SUB SLT ISZERO PUSH2 0x138B JUMPI PUSH2 0x138A PUSH2 0x1318 JUMP JUMPDEST JUMPDEST PUSH1 0x0 PUSH2 0x1399 DUP5 DUP3 DUP6 ADD PUSH2 0x1360 JUMP JUMPDEST SWAP2 POP POP SWAP3 SWAP2 POP POP JUMP JUMPDEST PUSH32 0x4E487B7100000000000000000000000000000000000000000000000000000000 PUSH1 0x0 MSTORE PUSH1 0x22 PUSH1 0x4 MSTORE PUSH1 0x24 PUSH1 0x0 REVERT JUMPDEST PUSH1 0x0 PUSH1 0x2 DUP3 DIV SWAP1 POP PUSH1 0x1 DUP3 AND DUP1 PUSH2 0x13E9 JUMPI PUSH1 0x7F DUP3 AND SWAP2 POP JUMPDEST PUSH1 0x20 DUP3 LT DUP2 SUB PUSH2 0x13FC JUMPI PUSH2 0x13FB PUSH2 0x13A2 JUMP JUMPDEST JUMPDEST POP SWAP2 SWAP1 POP JUMP JUMPDEST PUSH1 0x0 DUP3 DUP3 MSTORE PUSH1 0x20 DUP3 ADD SWAP1 POP SWAP3 SWAP2 POP POP JUMP JUMPDEST PUSH32 0x6E6F206163746976652067616D65000000000000000000000000000000000000 PUSH1 0x0 DUP3 ADD MSTORE POP JUMP JUMPDEST PUSH1 0x0 PUSH2 0x1449 PUSH1 0xE DUP4 PUSH2 0x1402 JUMP JUMPDEST SWAP2 POP PUSH2 0x1454 DUP3 PUSH2 0x1413 JUMP JUMPDEST PUSH1 0x20 DUP3 ADD SWAP1 POP SWAP2 SWAP1 POP JUMP JUMPDEST PUSH1 0x0 PUSH1 0x20 DUP3 ADD SWAP1 POP DUP2 DUP2 SUB PUSH1 0x0 DUP4 ADD MSTORE PUSH2 0x1478 DUP2 PUSH2 0x143C JUMP JUMPDEST SWAP1 POP SWAP2 SWAP1 POP JUMP JUMPDEST PUSH32 0x6C657474657220616C7265616479206775657373656400000000000000000000 PUSH1 0x0 DUP3 ADD MSTORE POP JUMP JUMPDEST PUSH1 0x0 PUSH2 0x14B5 PUSH1 0x16 DUP4 PUSH2 0x1402 JUMP JUMPDEST SWAP2 POP PUSH2 0x14C0 DUP3 PUSH2 0x147F JUMP JUMPDEST PUSH1 0x20 DUP3 ADD SWAP1 POP SWAP2 SWAP1 POP JUMP JUMPDEST PUSH1 0x0 PUSH1 0x20 DUP3 ADD SWAP1 POP DUP2 DUP2 SUB PUSH1 0x0 DUP4 ADD MSTORE PUSH2 0x14E4 DUP2 PUSH2 0x14A8 JUMP JUMPDEST SWAP1 POP SWAP2 SWAP1 POP JUMP JUMPDEST PUSH32 0x6E6F2076616C696420776F726473000000000000000000000000000000000000 PUSH1 0x0 DUP3 ADD MSTORE POP JUMP JUMPDEST PUSH1 0x0 PUSH2 0x1521 PUSH1 0xE DUP4 PUSH2 0x1402 JUMP JUMPDEST SWAP2 POP PUSH2 0x152C DUP3 PUSH2 0x14EB JUMP JUMPDEST PUSH1 0x20 DUP3 ADD SWAP1 POP SWAP2 SWAP1 POP JUMP JUMPDEST PUSH1 0x0 PUSH1 0x20 DUP3 ADD SWAP1 POP DUP2 DUP2 SUB PUSH1 0x0 DUP4 ADD MSTORE PUSH2 0x1550 DUP2 PUSH2 0x1514 JUMP JUMPDEST SWAP1 POP SWAP2 SWAP1 POP JUMP JUMPDEST PUSH32 0x4E487B7100000000000000000000000000000000000000000000000000000000 PUSH1 0x0 MSTORE PUSH1 0x32 PUSH1 0x4 MSTORE PUSH1 0x24 PUSH1 0x0 REVERT JUMPDEST PUSH32 0x4E487B7100000000000000000000000000000000000000000000000000000000 PUSH1 0x0 MSTORE PUSH1 0x11 PUSH1 0x4 MSTORE PUSH1 0x24 PUSH1 0x0 REVERT JUMPDEST PUSH1 0x0 DUP2 SWAP1 POP SWAP2 SWAP1 POP JUMP JUMPDEST PUSH1 0x0 PUSH2 0x15CA DUP3 PUSH2 0x15B5 JUMP JUMPDEST SWAP2 POP PUSH32 0xFFFFFFFFFFFFFFFFFFFFFFFFFFFFFFFFFFFFFFFFFFFFFFFFFFFFFFFFFFFFFFFF DUP3 SUB PUSH2 0x15FC JUMPI PUSH2 0x15FB PUSH2 0x1586 JUMP JUMPDEST JUMPDEST PUSH1 0x1 DUP3 ADD SWAP1 POP SWAP2 SWAP1 POP JUMP JUMPDEST PUSH1 0x0 PUSH2 0x1612 DUP3 PUSH2 0x11BC JUMP JUMPDEST SWAP2 POP PUSH2 0x161D DUP4 PUSH2 0x11BC JUMP JUMPDEST SWAP3 POP DUP3 DUP3 ADD SWAP1 POP PUSH1 0xFF DUP2 GT ISZERO PUSH2 0x1636 JUMPI PUSH2 0x1635 PUSH2 0x1586 JUMP JUMPDEST JUMPDEST SWAP3 SWAP2 POP POP JUMP JUMPDEST PUSH2 0x1645 DUP2 PUSH2 0x131D JUMP JUMPDEST DUP3 MSTORE POP POP JUMP JUMPDEST PUSH1 0x0 DUP2 ISZERO ISZERO SWAP1 POP SWAP2 SWAP1 POP JUMP JUMPDEST PUSH2 0x1660 DUP2 PUSH2 0x164B JUMP JUMPDEST DUP3 MSTORE POP POP JUMP JUMPDEST PUSH1 0x0 DUP2 SWAP1 POP DUP2 PUSH1 0x0 MSTORE PUSH1 0x20 PUSH1 0x0 KECCAK256 SWAP1 POP SWAP2 SWAP1 POP JUMP JUMPDEST PUSH1 0x0 DUP2 SLOAD PUSH2 0x1688 DUP2 PUSH2 0x13D1 JUMP JUMPDEST PUSH2 0x1692 DUP2 DUP7 PUSH2 0x11E3 JUMP JUMPDEST SWAP5 POP PUSH1 0x1 DUP3 AND PUSH1 0x0 DUP2 EQ PUSH2 0x16AD JUMPI PUSH1 0x1 DUP2 EQ PUSH2 0x16C3 JUMPI PUSH2 0x16F6 JUMP JUMPDEST PUSH1 0xFF NOT DUP4 AND DUP7 MSTORE DUP2 ISZERO ISZERO PUSH1 0x20 MUL DUP7 ADD SWAP4 POP PUSH2 0x16F6 JUMP JUMPDEST PUSH2 0x16CC DUP6 PUSH2 0x1666 JUMP JUMPDEST PUSH1 0x0 JUMPDEST DUP4 DUP2 LT ISZERO PUSH2 0x16EE JUMPI DUP2 SLOAD DUP2 DUP10 ADD MSTORE PUSH1 0x1 DUP3 ADD SWAP2 POP PUSH1 0x20 DUP2 ADD SWAP1 POP PUSH2 0x16CF JUMP JUMPDEST DUP1 DUP9 ADD SWAP6 POP POP POP JUMPDEST POP POP POP SWAP3 SWAP2 POP POP JUMP JUMPDEST PUSH1 0x0 PUSH1 0xA0 DUP3 ADD SWAP1 POP PUSH2 0x1714 PUSH1 0x0 DUP4 ADD DUP9 PUSH2 0x163C JUMP JUMPDEST PUSH2 0x1721 PUSH1 0x20 DUP4 ADD DUP8 PUSH2 0x1657 JUMP JUMPDEST DUP2 DUP2 SUB PUSH1 0x40 DUP4 ADD MSTORE PUSH2 0x1733 DUP2 DUP7 PUSH2 0x167B JUMP JUMPDEST SWAP1 POP PUSH2 0x1742 PUSH1 0x60 DUP4 ADD DUP6 PUSH2 0x11C9 JUMP JUMPDEST PUSH2 0x174F PUSH1 0x80 DUP4 ADD DUP5 PUSH2 0x11AD JUMP JUMPDEST SWAP7 SWAP6 POP POP POP POP POP POP JUMP JUMPDEST PUSH32 0x67616D6520616C72656164792061637469766500000000000000000000000000 PUSH1 0x0 DUP3 ADD MSTORE POP JUMP JUMPDEST PUSH1 0x0 PUSH2 0x178F PUSH1 0x13 DUP4 PUSH2 0x1402 JUMP JUMPDEST SWAP2 POP PUSH2 0x179A DUP3 PUSH2 0x1759 JUMP JUMPDEST PUSH1 0x20 DUP3 ADD SWAP1 POP SWAP2 SWAP1 POP JUMP JUMPDEST PUSH1 0x0 PUSH1 0x20 DUP3 ADD SWAP1 POP DUP2 DUP2 SUB PUSH1 0x0 DUP4 ADD MSTORE PUSH2 0x17BE DUP2 PUSH2 0x1782 JUMP JUMPDEST SWAP1 POP SWAP2 SWAP1 POP JUMP JUMPDEST PUSH32 0x4E487B7100000000000000000000000000000000000000000000000000000000 PUSH1 0x0 MSTORE PUSH1 0x41 PUSH1 0x4 MSTORE PUSH1 0x24 PUSH1 0x0 REVERT JUMPDEST PUSH1 0x0 PUSH1 0x20 PUSH1 0x1F DUP4 ADD DIV SWAP1 POP SWAP2 SWAP1 POP JUMP JUMPDEST PUSH1 0x0 DUP3 DUP3 SHL SWAP1 POP SWAP3 SWAP2 POP POP JUMP JUMPDEST PUSH1 0x0 PUSH1 0x8 DUP4 MUL PUSH2 0x1841 PUSH32 0xFFFFFFFFFFFFFFFFFFFFFFFFFFFFFFFFFFFFFFFFFFFFFFFFFFFFFFFFFFFFFFFF DUP3 PUSH2 0x1804 JUMP JUMPDEST PUSH2 0x184B DUP7 DUP4 PUSH2 0x1804 JUMP JUMPDEST SWAP6 POP DUP1 NOT DUP5 AND SWAP4 POP DUP1 DUP7 AND DUP5 OR SWAP3 POP POP POP SWAP4 SWAP3 POP POP POP JUMP JUMPDEST PUSH1 0x0 DUP2 SWAP1 POP SWAP2 SWAP1 POP JUMP JUMPDEST PUSH1 0x0 PUSH2 0x1888 PUSH2 0x1883 PUSH2 0x187E DUP5 PUSH2 0x15B5 JUMP JUMPDEST PUSH2 0x1863 JUMP JUMPDEST PUSH2 0x15B5 JUMP JUMPDEST SWAP1 POP SWAP2 SWAP1 POP JUMP JUMPDEST PUSH1 0x0 DUP2 SWAP1 POP SWAP2 SWAP1 POP JUMP JUMPDEST PUSH2 0x18A2 DUP4 PUSH2 0x186D JUMP JUMPDEST PUSH2 0x18B6 PUSH2 0x18AE DUP3 PUSH2 0x188F JUMP JUMPDEST DUP5 DUP5 SLOAD PUSH2 0x1811 JUMP JUMPDEST DUP3 SSTORE POP POP POP POP JUMP JUMPDEST PUSH1 0x0 SWAP1 JUMP JUMPDEST PUSH2 0x18CB PUSH2 0x18BE JUMP JUMPDEST PUSH2 0x18D6 DUP2 DUP5 DUP5 PUSH2 0x1899 JUMP JUMPDEST POP POP POP JUMP JUMPDEST JUMPDEST DUP2 DUP2 LT ISZERO PUSH2 0x18FA JUMPI PUSH2 0x18EF PUSH1 0x0 DUP3 PUSH2 0x18C3 JUMP JUMPDEST PUSH1 0x1 DUP2 ADD SWAP1 POP PUSH2 0x18DC JUMP JUMPDEST POP POP JUMP JUMPDEST PUSH1 0x1F DUP3 GT ISZERO PUSH2 0x193F JUMPI PUSH2 0x1910 DUP2 PUSH2 0x1666 JUMP JUMPDEST PUSH2 0x1919 DUP5 PUSH2 0x17F4 JUMP JUMPDEST DUP2 ADD PUSH1 0x20 DUP6 LT ISZERO PUSH2 0x1928 JUMPI DUP2 SWAP1 POP JUMPDEST PUSH2 0x193C PUSH2 0x1934 DUP6 PUSH2 0x17F4 JUMP JUMPDEST DUP4 ADD DUP3 PUSH2 0x18DB JUMP JUMPDEST POP POP JUMPDEST POP POP POP JUMP JUMPDEST PUSH1 0x0 DUP3 DUP3 SHR SWAP1 POP SWAP3 SWAP2 POP POP JUMP JUMPDEST PUSH1 0x0 PUSH2 0x1962 PUSH1 0x0 NOT DUP5 PUSH1 0x8 MUL PUSH2 0x1944 JUMP JUMPDEST NOT DUP1 DUP4 AND SWAP2 POP POP SWAP3 SWAP2 POP POP JUMP JUMPDEST PUSH1 0x0 PUSH2 0x197B DUP4 DUP4 PUSH2 0x1951 JUMP JUMPDEST SWAP2 POP DUP3 PUSH1 0x2 MUL DUP3 OR SWAP1 POP SWAP3 SWAP2 POP POP JUMP JUMPDEST PUSH2 0x1994 DUP3 PUSH2 0x11D8 JUMP JUMPDEST PUSH8 0xFFFFFFFFFFFFFFFF DUP2 GT ISZERO PUSH2 0x19AD JUMPI PUSH2 0x19AC PUSH2 0x17C5 JUMP JUMPDEST JUMPDEST PUSH2 0x19B7 DUP3 SLOAD PUSH2 0x13D1 JUMP JUMPDEST PUSH2 0x19C2 DUP3 DUP3 DUP6 PUSH2 0x18FE JUMP JUMPDEST PUSH1 0x0 PUSH1 0x20 SWAP1 POP PUSH1 0x1F DUP4 GT PUSH1 0x1 DUP2 EQ PUSH2 0x19F5 JUMPI PUSH1 0x0 DUP5 ISZERO PUSH2 0x19E3 JUMPI DUP3 DUP8 ADD MLOAD SWAP1 POP JUMPDEST PUSH2 0x19ED DUP6 DUP3 PUSH2 0x196F JUMP JUMPDEST DUP7 SSTORE POP PUSH2 0x1A55 JUMP JUMPDEST PUSH1 0x1F NOT DUP5 AND PUSH2 0x1A03 DUP7 PUSH2 0x1666 JUMP JUMPDEST PUSH1 0x0 JUMPDEST DUP3 DUP2 LT ISZERO PUSH2 0x1A2B JUMPI DUP5 DUP10 ADD MLOAD DUP3 SSTORE PUSH1 0x1 DUP3 ADD SWAP2 POP PUSH1 0x20 DUP6 ADD SWAP5 POP PUSH1 0x20 DUP2 ADD SWAP1 POP PUSH2 0x1A06 JUMP JUMPDEST DUP7 DUP4 LT ISZERO PUSH2 0x1A48 JUMPI DUP5 DUP10 ADD MLOAD PUSH2 0x1A44 PUSH1 0x1F DUP10 AND DUP3 PUSH2 0x1951 JUMP JUMPDEST DUP4 SSTORE POP JUMPDEST PUSH1 0x1 PUSH1 0x2 DUP9 MUL ADD DUP9 SSTORE POP POP POP JUMPDEST POP POP POP POP POP POP JUMP JUMPDEST PUSH1 0x0 PUSH1 0x40 DUP3 ADD SWAP1 POP PUSH2 0x1A72 PUSH1 0x0 DUP4 ADD DUP6 PUSH2 0x11C9 JUMP JUMPDEST DUP2 DUP2 SUB PUSH1 0x20 DUP4 ADD MSTORE PUSH2 0x1A84 DUP2 DUP5 PUSH2 0x167B JUMP JUMPDEST SWAP1 POP SWAP4 SWAP3 POP POP POP JUMP JUMPDEST PUSH32 0x696E707574206D7573742062652061206C657474657220612D7A000000000000 PUSH1 0x0 DUP3 ADD MSTORE POP JUMP JUMPDEST PUSH1 0x0 PUSH2 0x1AC3 PUSH1 0x1A DUP4 PUSH2 0x1402 JUMP JUMPDEST SWAP2 POP PUSH2 0x1ACE DUP3 PUSH2 0x1A8D JUMP JUMPDEST PUSH1 0x20 DUP3 ADD SWAP1 POP SWAP2 SWAP1 POP JUMP JUMPDEST PUSH1 0x0 PUSH1 0x20 DUP3 ADD SWAP1 POP DUP2 DUP2 SUB PUSH1 0x0 DUP4 ADD MSTORE PUSH2 0x1AF2 DUP2 PUSH2 0x1AB6 JUMP JUMPDEST SWAP1 POP SWAP2 SWAP1 POP JUMP JUMPDEST PUSH1 0x0 PUSH2 0x1B04 DUP3 PUSH2 0x11BC JUMP JUMPDEST SWAP2 POP PUSH2 0x1B0F DUP4 PUSH2 0x11BC JUMP JUMPDEST SWAP3 POP DUP3 DUP3 SUB SWAP1 POP PUSH1 0xFF DUP2 GT ISZERO PUSH2 0x1B28 JUMPI PUSH2 0x1B27 PUSH2 0x1586 JUMP JUMPDEST JUMPDEST SWAP3 SWAP2 POP POP JUMP JUMPDEST PUSH1 0x0 PUSH2 0x1B39 DUP3 PUSH2 0x15B5 JUMP JUMPDEST SWAP2 POP PUSH2 0x1B44 DUP4 PUSH2 0x15B5 JUMP JUMPDEST SWAP3 POP DUP3 DUP3 SUB SWAP1 POP DUP2 DUP2 GT ISZERO PUSH2 0x1B5C JUMPI PUSH2 0x1B5B PUSH2 0x1586 JUMP JUMPDEST JUMPDEST SWAP3 SWAP2 POP POP JUMP JUMPDEST PUSH1 0x0 DUP2 SWAP1 POP SWAP2 SWAP1 POP JUMP JUMPDEST PUSH1 0x0 DUP2 SWAP1 POP SWAP2 SWAP1 POP JUMP JUMPDEST PUSH2 0x1B87 PUSH2 0x1B82 DUP3 PUSH2 0x1B62 JUMP JUMPDEST PUSH2 0x1B6C JUMP JUMPDEST DUP3 MSTORE POP POP JUMP JUMPDEST PUSH1 0x0 DUP2 SWAP1 POP SWAP2 SWAP1 POP JUMP JUMPDEST PUSH2 0x1BA8 PUSH2 0x1BA3 DUP3 PUSH2 0x15B5 JUMP JUMPDEST PUSH2 0x1B8D JUMP JUMPDEST DUP3 MSTORE POP POP JUMP JUMPDEST PUSH1 0x0 PUSH20 0xFFFFFFFFFFFFFFFFFFFFFFFFFFFFFFFFFFFFFFFF DUP3 AND SWAP1 POP SWAP2 SWAP1 POP JUMP JUMPDEST PUSH1 0x0 PUSH2 0x1BD9 DUP3 PUSH2 0x1BAE JUMP JUMPDEST SWAP1 POP SWAP2 SWAP1 POP JUMP JUMPDEST PUSH1 0x0 DUP2 PUSH1 0x60 SHL SWAP1 POP SWAP2 SWAP1 POP JUMP JUMPDEST PUSH1 0x0 PUSH2 0x1BF8 DUP3 PUSH2 0x1BE0 JUMP JUMPDEST SWAP1 POP SWAP2 SWAP1 POP JUMP JUMPDEST PUSH1 0x0 PUSH2 0x1C0A DUP3 PUSH2 0x1BED JUMP JUMPDEST SWAP1 POP SWAP2 SWAP1 POP JUMP JUMPDEST PUSH2 0x1C22 PUSH2 0x1C1D DUP3 PUSH2 0x1BCE JUMP JUMPDEST PUSH2 0x1BFF JUMP JUMPDEST DUP3 MSTORE POP POP JUMP JUMPDEST PUSH1 0x0 PUSH2 0x1C34 DUP3 DUP7 PUSH2 0x1B76 JUMP JUMPDEST PUSH1 0x20 DUP3 ADD SWAP2 POP PUSH2 0x1C44 DUP3 DUP6 PUSH2 0x1B97 JUMP JUMPDEST PUSH1 0x20 DUP3 ADD SWAP2 POP PUSH2 0x1C54 DUP3 DUP5 PUSH2 0x1C11 JUMP JUMPDEST PUSH1 0x14 DUP3 ADD SWAP2 POP DUP2 SWAP1 POP SWAP5 SWAP4 POP POP POP POP JUMP JUMPDEST PUSH32 0x4E487B7100000000000000000000000000000000000000000000000000000000 PUSH1 0x0 MSTORE PUSH1 0x12 PUSH1 0x4 MSTORE PUSH1 0x24 PUSH1 0x0 REVERT JUMPDEST PUSH1 0x0 PUSH2 0x1C9F DUP3 PUSH2 0x15B5 JUMP JUMPDEST SWAP2 POP PUSH2 0x1CAA DUP4 PUSH2 0x15B5 JUMP JUMPDEST SWAP3 POP DUP3 PUSH2 0x1CBA JUMPI PUSH2 0x1CB9 PUSH2 0x1C65 JUMP JUMPDEST JUMPDEST DUP3 DUP3 MOD SWAP1 POP SWAP3 SWAP2 POP POP JUMP JUMPDEST PUSH1 0x0 PUSH2 0x1CD0 DUP3 PUSH2 0x15B5 JUMP JUMPDEST SWAP2 POP PUSH2 0x1CDB DUP4 PUSH2 0x15B5 JUMP JUMPDEST SWAP3 POP DUP3 DUP3 ADD SWAP1 POP DUP1 DUP3 GT ISZERO PUSH2 0x1CF3 JUMPI PUSH2 0x1CF2 PUSH2 0x1586 JUMP JUMPDEST JUMPDEST SWAP3 SWAP2 POP POP JUMP INVALID LOG2 PUSH5 0x6970667358 0x22 SLT KECCAK256 SELFDESTRUCT 0xB7 0x29 0xF8 0x2F SWAP13 0xCD DUP7 0xAF JUMPI PUSH13 0x5116661744FFD0089BC5B3FC8E CREATE SWAP13 SWAP2 0xBA NOT 0xAD SWAP12 JUMP PUSH5 0x736F6C6343 STOP ADDMOD SGT STOP CALLER "
				},
				"gasEstimates": {
					"creation": {
						"codeDepositCost": "1494200",
						"executionCost": "infinite",
						"totalCost": "infinite"
					},
					"external": {
						"MAX_LEN()": "335",
						"MAX_WRONG_GUESSES()": "423",
						"MIN_LEN()": "357",
						"getMyGame()": "infinite",
						"guessLetter(bytes1)": "infinite",
						"startGame()": "infinite"
					},
					"internal": {
						"_contains(bytes memory,bytes1)": "infinite",
						"_findCandidate(struct Hangman.Game storage pointer)": "infinite",
						"_hasUnrevealed(bytes memory)": "infinite",
						"_isCorrectLetter(struct Hangman.Game storage pointer,bytes1)": "infinite",
						"_isWrongLetter(struct Hangman.Game storage pointer,bytes1)": "infinite",
						"_letterIndex(bytes1)": "infinite",
						"_matchesConstraints(struct Hangman.Game storage pointer,bytes memory)": "infinite",
						"_randomLength()": "infinite"
					}
				},
				"methodIdentifiers": {
					"MAX_LEN()": "5d0797c0",
					"MAX_WRONG_GUESSES()": "f77ea683",
					"MIN_LEN()": "81196481",
					"getMyGame()": "02056c8b",
					"guessLetter(bytes1)": "922d572c",
					"startGame()": "d65ab5f2"
				}
			},
			"storageLayout": {
				"storage": [
					{
						"astId": 27,
						"contract": "contracts/Hangman.sol:Hangman",
						"label": "games",
						"offset": 0,
						"slot": "0",
						"type": "t_mapping(t_address,t_struct(Game)22_storage)"
					},
					{
						"astId": 82,
						"contract": "contracts/Hangman.sol:Hangman",
						"label": "DICT",
						"offset": 0,
						"slot": "1",
						"type": "t_array(t_string_storage)dyn_storage"
					}
				],
				"types": {
					"t_address": {
						"encoding": "inplace",
						"label": "address",
						"numberOfBytes": "20"
					},
					"t_array(t_string_storage)dyn_storage": {
						"base": "t_string_storage",
						"encoding": "dynamic_array",
						"label": "string[]",
						"numberOfBytes": "32"
					},
					"t_bytes_storage": {
						"encoding": "bytes",
						"label": "bytes",
						"numberOfBytes": "32"
					},
					"t_enum(Status)6": {
						"encoding": "inplace",
						"label": "enum Hangman.Status",
						"numberOfBytes": "1"
					},
					"t_mapping(t_address,t_struct(Game)22_storage)": {
						"encoding": "mapping",
						"key": "t_address",
						"label": "mapping(address => struct Hangman.Game)",
						"numberOfBytes": "32",
						"value": "t_struct(Game)22_storage"
					},
					"t_string_storage": {
						"encoding": "bytes",
						"label": "string",
						"numberOfBytes": "32"
					},
					"t_struct(Game)22_storage": {
						"encoding": "inplace",
						"label": "struct Hangman.Game",
						"members": [
							{
								"astId": 9,
								"contract": "contracts/Hangman.sol:Hangman",
								"label": "status",
								"offset": 0,
								"slot": "0",
								"type": "t_enum(Status)6"
							},
							{
								"astId": 11,
								"contract": "contracts/Hangman.sol:Hangman",
								"label": "length",
								"offset": 1,
								"slot": "0",
								"type": "t_uint8"
							},
							{
								"astId": 13,
								"contract": "contracts/Hangman.sol:Hangman",
								"label": "wrongGuesses",
								"offset": 2,
								"slot": "0",
								"type": "t_uint8"
							},
							{
								"astId": 15,
								"contract": "contracts/Hangman.sol:Hangman",
								"label": "mask",
								"offset": 0,
								"slot": "1",
								"type": "t_bytes_storage"
							},
							{
								"astId": 17,
								"contract": "contracts/Hangman.sol:Hangman",
								"label": "guessedMask",
								"offset": 0,
								"slot": "2",
								"type": "t_uint32"
							},
							{
								"astId": 19,
								"contract": "contracts/Hangman.sol:Hangman",
								"label": "correctMask",
								"offset": 4,
								"slot": "2",
								"type": "t_uint32"
							},
							{
								"astId": 21,
								"contract": "contracts/Hangman.sol:Hangman",
								"label": "wrongMask",
								"offset": 8,
								"slot": "2",
								"type": "t_uint32"
							}
						],
						"numberOfBytes": "96"
					},
					"t_uint32": {
						"encoding": "inplace",
						"label": "uint32",
						"numberOfBytes": "4"
					},
					"t_uint8": {
						"encoding": "inplace",
						"label": "uint8",
						"numberOfBytes": "1"
					}
				}
			},
			"userdoc": {
				"kind": "user",
				"methods": {},
				"version": 1
			}
		}
	}
}