{
	"data": {
		"bytecode": {
			"linkReferences": {},
			"object": "60806040526040518061054001604052806040518060400160405280600481526020017f67616d650000000000000000000000000000000000000000000000000000000081525081526020016040518060400160405280600481526020017f6e6f64650000000000000000000000000000000000000000000000000000000081525081526020016040518060400160405280600481526020017f686173680000000000000000000000000000000000000000000000000000000081525081526020016040518060400160405280600481526020017f627974650000000000000000000000000000000000000000000000000000000081525081526020016040518060400160405280600481526020017f6d61736b0000000000000000000000000000000000000000000000000000000081525081526020016040518060400160405280600481526020017f636f64650000000000000000000000000000000000000000000000000000000081525081526020016040518060400160405280600581526020017f626c6f636b00000000000000000000000000000000000000000000000000000081525081526020016040518060400160405280600581526020017f636861696e00000000000000000000000000000000000000000000000000000081525081526020016040518060400160405280600581526020017f746f6b656e00000000000000000000000000000000000000000000000000000081525081526020016040518060400160405280600581526020017f6d696e657200000000000000000000000000000000000000000000000000000081525081526020016040518060400160405280600581526020017f677565737300000000000000000000000000000000000000000000000000000081525081526020016040518060400160405280600581526020017f736f6c766500000000000000000000000000000000000000000000000000000081525081526020016040518060400160405280600681526020017f77616c6c6574000000000000000000000000000000000000000000000000000081525081526020016040518060400160405280600681526020017f6c6564676572000000000000000000000000000000000000000000000000000081525081526020016040518060400160405280600681526020017f63727970746f000000000000000000000000000000000000000000000000000081525081526020016040518060400160405280600581526020017f6e6f6e636500000000000000000000000000000000000000000000000000000081525081526020016040518060400160405280600681526020017f73656e646572000000000000000000000000000000000000000000000000000081525081526020016040518060400160405280600681526020017f766572696679000000000000000000000000000000000000000000000000000081525081526020016040518060400160405280600781526020017f6163636f756e740000000000000000000000000000000000000000000000000081525081526020016040518060400160405280600781526020017f62616c616e63650000000000000000000000000000000000000000000000000081525081526020016040518060400160405280600781526020017f73746f726167650000000000000000000000000000000000000000000000000081525081526020016040518060400160405280600781526020017f636f6d70696c650000000000000000000000000000000000000000000000000081525081526020016040518060400160405280600781526020017f657865637574650000000000000000000000000000000000000000000000000081525081526020016040518060400160405280600781526020017f6e6574776f726b0000000000000000000000000000000000000000000000000081525081526020016040518060400160405280600881526020017f636f6e747261637400000000000000000000000000000000000000000000000081525081526020016040518060400160405280600881526020017f66756e6374696f6e00000000000000000000000000000000000000000000000081525081526020016040518060400160405280600881526020017f7661726961626c6500000000000000000000000000000000000000000000000081525081526020016040518060400160405280600881526020017f6d6f64696669657200000000000000000000000000000000000000000000000081525081526020016040518060400160405280600881526020017f6f766572666c6f7700000000000000000000000000000000000000000000000081525081526020016040518060400160405280600881526020017f6761736c696d697400000000000000000000000000000000000000000000000081525081526020016040518060400160405280600981526020017f696d6d757461626c65000000000000000000000000000000000000000000000081525081526020016040518060400160405280600981526020017f636f6e73656e737573000000000000000000000000000000000000000000000081525081526020016040518060400160405280600981526020017f626c6f636b74696d65000000000000000000000000000000000000000000000081525081526020016040518060400160405280600981526020017f7369676e6174757265000000000000000000000000000000000000000000000081525081526020016040518060400160405280600a81526020017f6465706c6f796d656e740000000000000000000000000000000000000000000081525081526020016040518060400160405280600981526020017f696e74657266616365000000000000000000000000000000000000000000000081525081526020016040518060400160405280600b81526020017f7472616e73616374696f6e00000000000000000000000000000000000000000081525081526020016040518060400160405280600b81526020017f636f6e73747261696e747300000000000000000000000000000000000000000081525081526020016040518060400160405280600a81526020017f70726f6772616d6d65720000000000000000000000000000000000000000000081525081526020016040518060400160405280600a81526020017f76616c69646174696f6e0000000000000000000000000000000000000000000081525081526020016040518060400160405280600981526020017f63616c6c6461746178000000000000000000000000000000000000000000000081525081526020016040518060400160405280600a81526020017f6162627265766961746500000000000000000000000000000000000000000000815250815250600190602a620009ce929190620009e3565b50348015620009dc57600080fd5b5062000e31565b82805482825590600052602060002090810192821562000a30579160200282015b8281111562000a2f57825182908162000a1e919062000d4a565b509160200191906001019062000a04565b5b50905062000a3f919062000a43565b5090565b5b8082111562000a67576000818162000a5d919062000a6b565b5060010162000a44565b5090565b50805462000a799062000b39565b6000825580601f1062000a8d575062000aae565b601f01602090049060005260206000209081019062000aad919062000ab1565b5b50565b5b8082111562000acc57600081600090555060010162000ab2565b5090565b600081519050919050565b7f4e487b7100000000000000000000000000000000000000000000000000000000600052604160045260246000fd5b7f4e487b7100000000000000000000000000000000000000000000000000000000600052602260045260246000fd5b6000600282049050600182168062000b5257607f821691505b60208210810362000b685762000b6762000b0a565b5b50919050565b60008190508160005260206000209050919050565b60006020601f8301049050919050565b600082821b905092915050565b60006008830262000bd27fffffffffffffffffffffffffffffffffffffffffffffffffffffffffffffffff8262000b93565b62000bde868362000b93565b95508019841693508086168417925050509392505050565b6000819050919050565b6000819050919050565b600062000c2b62000c2562000c1f8462000bf6565b62000c00565b62000bf6565b9050919050565b6000819050919050565b62000c478362000c0a565b62000c5f62000c568262000c32565b84845462000ba0565b825550505050565b600090565b62000c7662000c67565b62000c8381848462000c3c565b505050565b5b8181101562000cab5762000c9f60008262000c6c565b60018101905062000c89565b5050565b601f82111562000cfa5762000cc48162000b6e565b62000ccf8462000b83565b8101602085101562000cdf578190505b62000cf762000cee8562000b83565b83018262000c88565b50505b505050565b600082821c905092915050565b600062000d1f6000198460080262000cff565b1980831691505092915050565b600062000d3a838362000d0c565b9150826002028217905092915050565b62000d558262000ad0565b67ffffffffffffffff81111562000d715762000d7062000adb565b5b62000d7d825462000b39565b62000d8a82828562000caf565b600060209050601f83116001811462000dc2576000841562000dad578287015190505b62000db9858262000d2c565b86555062000e29565b601f19841662000dd28662000b6e565b60005b8281101562000dfc5784890151825560018201915060208501945060208101905062000dd5565b8683101562000e1c578489015162000e18601f89168262000d0c565b8355505b6001600288020188555050505b505050505050565b6121268062000e416000396000f3fe608060405234801561001057600080fd5b50600436106100625760003560e01c806302056c8b146100675780635d0797c01461008b578063662a6559146100a957806381196481146100c5578063d65ab5f2146100e3578063f77ea683146100ed575b600080fd5b61006f61010b565b6040516100829796959493929190611522565b60405180910390f35b610093610275565b6040516100a09190611598565b60405180910390f35b6100c360048036038101906100be9190611622565b61027a565b005b6100cd610914565b6040516100da9190611598565b60405180910390f35b6100eb610919565b005b6100f5610c24565b6040516101029190611598565b60405180910390f35b600080600060606000806000806000803373ffffffffffffffffffffffffffffffffffffffff1673ffffffffffffffffffffffffffffffffffffffff16815260200190815260200160002090508060000160009054906101000a900460ff168160000160019054906101000a900460ff168260000160029054906101000a900460ff16836001018460020160009054906101000a900463ffffffff168560020160049054906101000a900463ffffffff168660020160089054906101000a900463ffffffff168380546101dd9061169e565b80601f01602080910402602001604051908101604052809291908181526020018280546102099061169e565b80156102565780601f1061022b57610100808354040283529160200191610256565b820191906000526020600020905b81548152906001019060200180831161023957829003601f168201915b5050505050935097509750975097509750975097505090919293949596565b600a81565b60008060003373ffffffffffffffffffffffffffffffffffffffff1673ffffffffffffffffffffffffffffffffffffffff1681526020019081526020016000209050600160038111156102d0576102cf6113e0565b5b8160000160009054906101000a900460ff1660038111156102f4576102f36113e0565b5b14610334576040517f08c379a000000000000000000000000000000000000000000000000000000000815260040161032b9061172c565b60405180910390fd5b600083838080601f016020809104026020016040519081016040528093929190818152602001838380828437600081840152601f19601f82011690508083019250505050505050905060018151146103c1576040517f08c379a00000000000000000000000000000000000000000000000000000000081526004016103b890611798565b60405180910390fd5b6000816000815181106103d7576103d66117b8565b5b602001015160f81c60f81b905060008160f81c905060418160ff16101580156104045750605a8160ff1611155b1561041f576020816104169190611816565b90508060f81b91505b60618160ff16101580156104375750607a8160ff1611155b610476576040517f08c379a000000000000000000000000000000000000000000000000000000000815260040161046d906118bd565b60405180910390fd5b600060618261048591906118dd565b905060008160ff16600163ffffffff16901b90506000818760020160009054906101000a900463ffffffff161663ffffffff16146104f8576040517f08c379a00000000000000000000000000000000000000000000000000000000081526004016104ef9061195e565b60405180910390fd5b600061050387610c29565b9050818760020160008282829054906101000a900463ffffffff161792506101000a81548163ffffffff021916908363ffffffff16021790555060006105498287610dd0565b905080156107ce57828860020160048282829054906101000a900463ffffffff161792506101000a81548163ffffffff021916908363ffffffff16021790555060005b8860000160019054906101000a900460ff1660ff168110156107015760008382815181106105bd576105bc6117b8565b5b602001015160f81c60f81b90506105d48a82610e72565b1561065557808a6001018381546105ea9061169e565b81106105f9576105f86117b8565b5b8154600116156106185790600052602060002090602091828204019190065b601f036101000a81548160ff021916907f0100000000000000000000000000000000000000000000000000000000000000840402179055506106ed565b7f5f000000000000000000000000000000000000000000000000000000000000008a6001018381546106869061169e565b8110610695576106946117b8565b5b8154600116156106b45790600052602060002090602091828204019190065b601f036101000a81548160ff021916907f0100000000000000000000000000000000000000000000000000000000000000840402179055505b5080806106f990611988565b91505061058c565b506107978860010180546107149061169e565b80601f01602080910402602001604051908101604052809291908181526020018280546107409061169e565b801561078d5780601f106107625761010080835404028352916020019161078d565b820191906000526020600020905b81548152906001019060200180831161077057829003601f168201915b5050505050610ee9565b6107c95760028860000160006101000a81548160ff021916908360038111156107c3576107c26113e0565b5b02179055505b61088d565b828860020160088282829054906101000a900463ffffffff161792506101000a81548163ffffffff021916908363ffffffff16021790555060018860000160028282829054906101000a900460ff166108279190611816565b92506101000a81548160ff021916908360ff160217905550600660ff168860000160029054906101000a900460ff1660ff161061088c5760038860000160006101000a81548160ff02191690836003811115610886576108856113e0565b5b02179055505b5b3373ffffffffffffffffffffffffffffffffffffffff167f158e50b6c009c05279b63369ee0914aac86906246da69b271f2e77f49fdd082a87838b6001018c60000160029054906101000a900460ff168d60000160009054906101000a900460ff16604051610900959493929190611abf565b60405180910390a250505050505050505050565b600481565b60008060003373ffffffffffffffffffffffffffffffffffffffff1673ffffffffffffffffffffffffffffffffffffffff16815260200190815260200160002090506001600381111561096f5761096e6113e0565b5b8160000160009054906101000a900460ff166003811115610993576109926113e0565b5b036109d3576040517f08c379a00000000000000000000000000000000000000000000000000000000081526004016109ca90611b65565b60405180910390fd5b60006109dd610faa565b905060018260000160006101000a81548160ff02191690836003811115610a0757610a066113e0565b5b0217905550808260000160016101000a81548160ff021916908360ff16021790555060008260000160026101000a81548160ff021916908360ff16021790555060008260020160006101000a81548163ffffffff021916908363ffffffff16021790555060008260020160046101000a81548163ffffffff021916908363ffffffff16021790555060008260020160086101000a81548163ffffffff021916908363ffffffff1602179055508060ff1667ffffffffffffffff811115610ad057610acf611b85565b5b6040519080825280601f01601f191660200182016040528015610b025781602001600182028036833780820191505090505b50826001019081610b139190611d4b565b5060005b8160ff16811015610bcc577f5f0000000000000000000000000000000000000000000000000000000000000083600101828154610b539061169e565b8110610b6257610b616117b8565b5b815460011615610b815790600052602060002090602091828204019190065b601f036101000a81548160ff021916907f0100000000000000000000000000000000000000000000000000000000000000840402179055508080610bc490611988565b915050610b17565b503373ffffffffffffffffffffffffffffffffffffffff167f362a5ee0744680df9f8bd7848062c7608e392410201575266042218106f405968284600101604051610c18929190611e1d565b60405180910390a25050565b600681565b60606000610c368361102d565b905060008111610c7b576040517f08c379a0000000000000000000000000000000000000000000000000000000008152600401610c7290611e99565b60405180910390fd5b6000610c868261112b565b90506000805b600180549050811015610d8f57600060018281548110610caf57610cae6117b8565b5b906000526020600020018054610cc49061169e565b80601f0160208091040260200160405190810160405280929190818152602001828054610cf09061169e565b8015610d3d5780601f10610d1257610100808354040283529160200191610d3d565b820191906000526020600020905b815481529060010190602001808311610d2057829003601f168201915b50505050509050610d4e878261117a565b610d585750610d7c565b838303610d6c578095505050505050610dcb565b8280610d7790611988565b935050505b8080610d8790611988565b915050610c8c565b506040517f08c379a0000000000000000000000000000000000000000000000000000000008152600401610dc290611f05565b60405180910390fd5b919050565b600080600090505b8351811015610e6657827effffffffffffffffffffffffffffffffffffffffffffffffffffffffffffff1916848281518110610e1757610e166117b8565b5b602001015160f81c60f81b7effffffffffffffffffffffffffffffffffffffffffffffffffffffffffffff191603610e53576001915050610e6c565b8080610e5e90611988565b915050610dd8565b50600090505b92915050565b6000808260f81c905060618160ff161080610e905750607a8160ff16115b15610e9f576000915050610ee3565b6000606182610eae91906118dd565b905060008160ff16600163ffffffff16901b8660020160049054906101000a900463ffffffff161663ffffffff161415925050505b92915050565b600080600090505b8251811015610f9f577f5f000000000000000000000000000000000000000000000000000000000000007effffffffffffffffffffffffffffffffffffffffffffffffffffffffffffff1916838281518110610f5057610f4f6117b8565b5b602001015160f81c60f81b7effffffffffffffffffffffffffffffffffffffffffffffffffffffffffffff191603610f8c576001915050610fa5565b8080610f9790611988565b915050610ef1565b50600090505b919050565b60008060016004600a610fbd91906118dd565b610fc79190611816565b60ff1690506000600143610fdb9190611f25565b404233604051602001610ff09392919061201f565b6040516020818303038152906040528051906020012060001c90508181611017919061208b565b600460ff1661102691906120bc565b9250505090565b6000806000905060005b6001805490508110156111215760006001828154811061105a576110596117b8565b5b90600052602060002001805461106f9061169e565b80601f016020809104026020016040519081016040528092919081815260200182805461109b9061169e565b80156110e85780601f106110bd576101008083540402835291602001916110e8565b820191906000526020600020905b8154815290600101906020018083116110cb57829003601f168201915b505050505090506110f9858261117a565b1561110d57828061110990611988565b9350505b50808061111990611988565b915050611037565b5080915050919050565b60008160014361113b9190611f25565b4042336040516020016111509392919061201f565b6040516020818303038152906040528051906020012060001c611173919061208b565b9050919050565b60008260000160019054906101000a900460ff1660ff168251146111a15760009050611363565b60005b8360000160019054906101000a900460ff1660ff1681101561135d5760008382815181106111d5576111d46117b8565b5b602001015160f81c60f81b90506000856001018381546111f49061169e565b8110611203576112026117b8565b5b8154600116156112225790600052602060002090602091828204019190065b9054901a7f01000000000000000000000000000000000000000000000000000000000000000290506112548683611369565b156112655760009350505050611363565b7f5f000000000000000000000000000000000000000000000000000000000000007effffffffffffffffffffffffffffffffffffffffffffffffffffffffffffff1916817effffffffffffffffffffffffffffffffffffffffffffffffffffffffffffff19161461132c57807effffffffffffffffffffffffffffffffffffffffffffffffffffffffffffff1916827effffffffffffffffffffffffffffffffffffffffffffffffffffffffffffff1916146113275760009350505050611363565b611348565b6113368683610e72565b156113475760009350505050611363565b5b5050808061135590611988565b9150506111a4565b50600190505b92915050565b6000808260f81c905060618160ff1610806113875750607a8160ff16115b156113965760009150506113da565b60006061826113a591906118dd565b905060008160ff16600163ffffffff16901b8660020160089054906101000a900463ffffffff161663ffffffff161415925050505b92915050565b7f4e487b7100000000000000000000000000000000000000000000000000000000600052602160045260246000fd5b600481106114205761141f6113e0565b5b50565b60008190506114318261140f565b919050565b600061144182611423565b9050919050565b61145181611436565b82525050565b600060ff82169050919050565b61146d81611457565b82525050565b600081519050919050565b600082825260208201905092915050565b60005b838110156114ad578082015181840152602081019050611492565b60008484015250505050565b6000601f19601f8301169050919050565b60006114d582611473565b6114df818561147e565b93506114ef81856020860161148f565b6114f8816114b9565b840191505092915050565b600063ffffffff82169050919050565b61151c81611503565b82525050565b600060e082019050611537600083018a611448565b6115446020830189611464565b6115516040830188611464565b818103606083015261156381876114ca565b90506115726080830186611513565b61157f60a0830185611513565b61158c60c0830184611513565b98975050505050505050565b60006020820190506115ad6000830184611464565b92915050565b600080fd5b600080fd5b600080fd5b600080fd5b600080fd5b60008083601f8401126115e2576115e16115bd565b5b8235905067ffffffffffffffff8111156115ff576115fe6115c2565b5b60208301915083600182028301111561161b5761161a6115c7565b5b9250929050565b60008060208385031215611639576116386115b3565b5b600083013567ffffffffffffffff811115611657576116566115b8565b5b611663858286016115cc565b92509250509250929050565b7f4e487b7100000000000000000000000000000000000000000000000000000000600052602260045260246000fd5b600060028204905060018216806116b657607f821691505b6020821081036116c9576116c861166f565b5b50919050565b600082825260208201905092915050565b7f6e6f206163746976652067616d65000000000000000000000000000000000000600082015250565b6000611716600e836116cf565b9150611721826116e0565b602082019050919050565b6000602082019050818103600083015261174581611709565b9050919050565b7f656e7465722065786163746c79206f6e65206368617261637465720000000000600082015250565b6000611782601b836116cf565b915061178d8261174c565b602082019050919050565b600060208201905081810360008301526117b181611775565b9050919050565b7f4e487b7100000000000000000000000000000000000000000000000000000000600052603260045260246000fd5b7f4e487b7100000000000000000000000000000000000000000000000000000000600052601160045260246000fd5b600061182182611457565b915061182c83611457565b9250828201905060ff811115611845576118446117e7565b5b92915050565b7f696e707574206d75737420626520612073696e676c65206c657474657220612d60008201527f7a00000000000000000000000000000000000000000000000000000000000000602082015250565b60006118a76021836116cf565b91506118b28261184b565b604082019050919050565b600060208201905081810360008301526118d68161189a565b9050919050565b60006118e882611457565b91506118f383611457565b9250828203905060ff81111561190c5761190b6117e7565b5b92915050565b7f6c657474657220616c7265616479206775657373656400000000000000000000600082015250565b60006119486016836116cf565b915061195382611912565b602082019050919050565b600060208201905081810360008301526119778161193b565b9050919050565b6000819050919050565b60006119938261197e565b91507fffffffffffffffffffffffffffffffffffffffffffffffffffffffffffffffff82036119c5576119c46117e7565b5b600182019050919050565b60007fff0000000000000000000000000000000000000000000000000000000000000082169050919050565b611a05816119d0565b82525050565b60008115159050919050565b611a2081611a0b565b82525050565b60008190508160005260206000209050919050565b60008154611a488161169e565b611a52818661147e565b94506001821660008114611a6d5760018114611a8357611ab6565b60ff198316865281151560200286019350611ab6565b611a8c85611a26565b60005b83811015611aae57815481890152600182019150602081019050611a8f565b808801955050505b50505092915050565b600060a082019050611ad460008301886119fc565b611ae16020830187611a17565b8181036040830152611af38186611a3b565b9050611b026060830185611464565b611b0f6080830184611448565b9695505050505050565b7f67616d6520616c72656164792061637469766500000000000000000000000000600082015250565b6000611b4f6013836116cf565b9150611b5a82611b19565b602082019050919050565b60006020820190508181036000830152611b7e81611b42565b9050919050565b7f4e487b7100000000000000000000000000000000000000000000000000000000600052604160045260246000fd5b60006020601f8301049050919050565b600082821b905092915050565b600060088302611c017fffffffffffffffffffffffffffffffffffffffffffffffffffffffffffffffff82611bc4565b611c0b8683611bc4565b95508019841693508086168417925050509392505050565b6000819050919050565b6000611c48611c43611c3e8461197e565b611c23565b61197e565b9050919050565b6000819050919050565b611c6283611c2d565b611c76611c6e82611c4f565b848454611bd1565b825550505050565b600090565b611c8b611c7e565b611c96818484611c59565b505050565b5b81811015611cba57611caf600082611c83565b600181019050611c9c565b5050565b601f821115611cff57611cd081611a26565b611cd984611bb4565b81016020851015611ce8578190505b611cfc611cf485611bb4565b830182611c9b565b50505b505050565b600082821c905092915050565b6000611d2260001984600802611d04565b1980831691505092915050565b6000611d3b8383611d11565b9150826002028217905092915050565b611d5482611473565b67ffffffffffffffff811115611d6d57611d6c611b85565b5b611d77825461169e565b611d82828285611cbe565b600060209050601f831160018114611db55760008415611da3578287015190505b611dad8582611d2f565b865550611e15565b601f198416611dc386611a26565b60005b82811015611deb57848901518255600182019150602085019450602081019050611dc6565b86831015611e085784890151611e04601f891682611d11565b8355505b6001600288020188555050505b505050505050565b6000604082019050611e326000830185611464565b8181036020830152611e448184611a3b565b90509392505050565b7f6e6f2076616c696420776f726473000000000000000000000000000000000000600082015250565b6000611e83600e836116cf565b9150611e8e82611e4d565b602082019050919050565b60006020820190508181036000830152611eb281611e76565b9050919050565b7f63616e6469646174652073656c656374696f6e206661696c6564000000000000600082015250565b6000611eef601a836116cf565b9150611efa82611eb9565b602082019050919050565b60006020820190508181036000830152611f1e81611ee2565b9050919050565b6000611f308261197e565b9150611f3b8361197e565b9250828203905081811115611f5357611f526117e7565b5b92915050565b6000819050919050565b6000819050919050565b611f7e611f7982611f59565b611f63565b82525050565b6000819050919050565b611f9f611f9a8261197e565b611f84565b82525050565b600073ffffffffffffffffffffffffffffffffffffffff82169050919050565b6000611fd082611fa5565b9050919050565b60008160601b9050919050565b6000611fef82611fd7565b9050919050565b600061200182611fe4565b9050919050565b61201961201482611fc5565b611ff6565b82525050565b600061202b8286611f6d565b60208201915061203b8285611f8e565b60208201915061204b8284612008565b601482019150819050949350505050565b7f4e487b7100000000000000000000000000000000000000000000000000000000600052601260045260246000fd5b60006120968261197e565b91506120a18361197e565b9250826120b1576120b061205c565b5b828206905092915050565b60006120c78261197e565b91506120d28361197e565b92508282019050808211156120ea576120e96117e7565b5b9291505056fea2646970667358221220992acc3d9d2ae7fb4bd1f05599ad7be896289eda16ff7fddb530c5de512e6b0164736f6c63430008130033",
			"opcodes": "PUSH1 0x80 PUSH1 0x40 MSTORE PUSH1 0x40 MLOAD DUP1 PUSH2 0x540 ADD PUSH1 0x40 MSTORE DUP1 PUSH1 0x40 MLOAD DUP1 PUSH1 0x40 ADD PUSH1 0x40 MSTORE DUP1 PUSH1 0x4 DUP2 MSTORE PUSH1 0x20 ADD PUSH32 0x67616D6500000000000000000000000000000000000000000000000000000000 DUP2 MSTORE POP DUP2 MSTORE PUSH1 0x20 ADD PUSH1 0x40 MLOAD DUP1 PUSH1 0x40 ADD PUSH1 0x40 MSTORE DUP1 PUSH1 0x4 DUP2 MSTORE PUSH1 0x20 ADD PUSH32 0x6E6F646500000000000000000000000000000000000000000000000000000000 DUP2 MSTORE POP DUP2 MSTORE PUSH1 0x20 ADD PUSH1 0x40 MLOAD DUP1 PUSH1 0x40 ADD PUSH1 0x40 MSTORE DUP1 PUSH1 0x4 DUP2 MSTORE PUSH1 0x20 ADD PUSH32 0x6861736800000000000000000000000000000000000000000000000000000000 DUP2 MSTORE POP DUP2 MSTORE PUSH1 0x20 ADD PUSH1 0x40 MLOAD DUP1 PUSH1 0x40 ADD PUSH1 0x40 MSTORE DUP1 PUSH1 0x4 DUP2 MSTORE PUSH1 0x20 ADD PUSH32 0x6279746500000000000000000000000000000000000000000000000000000000 DUP2 MSTORE POP DUP2 MSTORE PUSH1 0x20 ADD PUSH1 0x40 MLOAD DUP1 PUSH1 0x40 ADD PUSH1 0x40 MSTORE DUP1 PUSH1 0x4 DUP2 MSTORE PUSH1 0x20 ADD PUSH32 0x6D61736B00000000000000000000000000000000000000000000000000000000 DUP2 MSTORE POP DUP2 MSTORE PUSH1 0x20 ADD PUSH1 0x40 MLOAD DUP1 PUSH1 0x40 ADD PUSH1 0x40 MSTORE DUP1 PUSH1 0x4 DUP2 MSTORE PUSH1 0x20 ADD PUSH32 0x636F646500000000000000000000000000000000000000000000000000000000 DUP2 MSTORE POP DUP2 MSTORE PUSH1 0x20 ADD PUSH1 0x40 MLOAD DUP1 PUSH1 0x40 ADD PUSH1 0x40 MSTORE DUP1 PUSH1 0x5 DUP2 MSTORE PUSH1 0x20 ADD PUSH32 0x626C6F636B000000000000000000000000000000000000000000000000000000 DUP2 MSTORE POP DUP2 MSTORE PUSH1 0x20 ADD PUSH1 0x40 MLOAD DUP1 PUSH1 0x40 ADD PUSH1 0x40 MSTORE DUP1 PUSH1 0x5 DUP2 MSTORE PUSH1 0x20 ADD PUSH32 0x636861696E000000000000000000000000000000000000000000000000000000 DUP2 MSTORE POP DUP2 MSTORE PUSH1 0x20 ADD PUSH1 0x40 MLOAD DUP1 PUSH1 0x40 ADD PUSH1 0x40 MSTORE DUP1 PUSH1 0x5 DUP2 MSTORE PUSH1 0x20 ADD PUSH32 0x746F6B656E000000000000000000000000000000000000000000000000000000 DUP2 MSTORE POP DUP2 MSTORE PUSH1 0x20 ADD PUSH1 0x40 MLOAD DUP1 PUSH1 0x40 ADD PUSH1 0x40 MSTORE DUP1 PUSH1 0x5 DUP2 MSTORE PUSH1 0x20 ADD PUSH32 0x6D696E6572000000000000000000000000000000000000000000000000000000 DUP2 MSTORE POP DUP2 MSTORE PUSH1 0x20 ADD PUSH1 0x40 MLOAD DUP1 PUSH1 0x40 ADD PUSH1 0x40 MSTORE DUP1 PUSH1 0x5 DUP2 MSTORE PUSH1 0x20 ADD PUSH32 0x6775657373000000000000000000000000000000000000000000000000000000 DUP2 MSTORE POP DUP2 MSTORE PUSH1 0x20 ADD PUSH1 0x40 MLOAD DUP1 PUSH1 0x40 ADD PUSH1 0x40 MSTORE DUP1 PUSH1 0x5 DUP2 MSTORE PUSH1 0x20 ADD PUSH32 0x736F6C7665000000000000000000000000000000000000000000000000000000 DUP2 MSTORE POP DUP2 MSTORE PUSH1 0x20 ADD PUSH1 0x40 MLOAD DUP1 PUSH1 0x40 ADD PUSH1 0x40 MSTORE DUP1 PUSH1 0x6 DUP2 MSTORE PUSH1 0x20 ADD PUSH32 0x77616C6C65740000000000000000000000000000000000000000000000000000 DUP2 MSTORE POP DUP2 MSTORE PUSH1 0x20 ADD PUSH1 0x40 MLOAD DUP1 PUSH1 0x40 ADD PUSH1 0x40 MSTORE DUP1 PUSH1 0x6 DUP2 MSTORE PUSH1 0x20 ADD PUSH32 0x6C65646765720000000000000000000000000000000000000000000000000000 DUP2 MSTORE POP DUP2 MSTORE PUSH1 0x20 ADD PUSH1 0x40 MLOAD DUP1 PUSH1 0x40 ADD PUSH1 0x40 MSTORE DUP1 PUSH1 0x6 DUP2 MSTORE PUSH1 0x20 ADD PUSH32 0x63727970746F0000000000000000000000000000000000000000000000000000 DUP2 MSTORE POP DUP2 MSTORE PUSH1 0x20 ADD PUSH1 0x40 MLOAD DUP1 PUSH1 0x40 ADD PUSH1 0x40 MSTORE DUP1 PUSH1 0x5 DUP2 MSTORE PUSH1 0x20 ADD PUSH32 0x6E6F6E6365000000000000000000000000000000000000000000000000000000 DUP2 MSTORE POP DUP2 MSTORE PUSH1 0x20 ADD PUSH1 0x40 MLOAD DUP1 PUSH1 0x40 ADD PUSH1 0x40 MSTORE DUP1 PUSH1 0x6 DUP2 MSTORE PUSH1 0x20 ADD PUSH32 0x73656E6465720000000000000000000000000000000000000000000000000000 DUP2 MSTORE POP DUP2 MSTORE PUSH1 0x20 ADD PUSH1 0x40 MLOAD DUP1 PUSH1 0x40 ADD PUSH1 0x40 MSTORE DUP1 PUSH1 0x6 DUP2 MSTORE PUSH1 0x20 ADD PUSH32 0x7665726966790000000000000000000000000000000000000000000000000000 DUP2 MSTORE POP DUP2 MSTORE PUSH1 0x20 ADD PUSH1 0x40 MLOAD DUP1 PUSH1 0x40 ADD PUSH1 0x40 MSTORE DUP1 PUSH1 0x7 DUP2 MSTORE PUSH1 0x20 ADD PUSH32 0x6163636F756E7400000000000000000000000000000000000000000000000000 DUP2 MSTORE POP DUP2 MSTORE PUSH1 0x20 ADD PUSH1 0x40 MLOAD DUP1 PUSH1 0x40 ADD PUSH1 0x40 MSTORE DUP1 PUSH1 0x7 DUP2 MSTORE PUSH1 0x20 ADD PUSH32 0x62616C616E636500000000000000000000000000000000000000000000000000 DUP2 MSTORE POP DUP2 MSTORE PUSH1 0x20 ADD PUSH1 0x40 MLOAD DUP1 PUSH1 0x40 ADD PUSH1 0x40 MSTORE DUP1 PUSH1 0x7 DUP2 MSTORE PUSH1 0x20 ADD PUSH32 0x73746F7261676500000000000000000000000000000000000000000000000000 DUP2 MSTORE POP DUP2 MSTORE PUSH1 0x20 ADD PUSH1 0x40 MLOAD DUP1 PUSH1 0x40 ADD PUSH1 0x40 MSTORE DUP1 PUSH1 0x7 DUP2 MSTORE PUSH1 0x20 ADD PUSH32 0x636F6D70696C6500000000000000000000000000000000000000000000000000 DUP2 MSTORE POP DUP2 MSTORE PUSH1 0x20 ADD PUSH1 0x40 MLOAD DUP1 PUSH1 0x40 ADD PUSH1 0x40 MSTORE DUP1 PUSH1 0x7 DUP2 MSTORE PUSH1 0x20 ADD PUSH32 0x6578656375746500000000000000000000000000000000000000000000000000 DUP2 MSTORE POP DUP2 MSTORE PUSH1 0x20 ADD PUSH1 0x40 MLOAD DUP1 PUSH1 0x40 ADD PUSH1 0x40 MSTORE DUP1 PUSH1 0x7 DUP2 MSTORE PUSH1 0x20 ADD PUSH32 0x6E6574776F726B00000000000000000000000000000000000000000000000000 DUP2 MSTORE POP DUP2 MSTORE PUSH1 0x20 ADD PUSH1 0x40 MLOAD DUP1 PUSH1 0x40 ADD PUSH1 0x40 MSTORE DUP1 PUSH1 0x8 DUP2 MSTORE PUSH1 0x20 ADD PUSH32 0x636F6E7472616374000000000000000000000000000000000000000000000000 DUP2 MSTORE POP DUP2 MSTORE PUSH1 0x20 ADD PUSH1 0x40 MLOAD DUP1 PUSH1 0x40 ADD PUSH1 0x40 MSTORE DUP1 PUSH1 0x8 DUP2 MSTORE PUSH1 0x20 ADD PUSH32 0x66756E6374696F6E000000000000000000000000000000000000000000000000 DUP2 MSTORE POP DUP2 MSTORE PUSH1 0x20 ADD PUSH1 0x40 MLOAD DUP1 PUSH1 0x40 ADD PUSH1 0x40 MSTORE DUP1 PUSH1 0x8 DUP2 MSTORE PUSH1 0x20 ADD PUSH32 0x7661726961626C65000000000000000000000000000000000000000000000000 DUP2 MSTORE POP DUP2 MSTORE PUSH1 0x20 ADD PUSH1 0x40 MLOAD DUP1 PUSH1 0x40 ADD PUSH1 0x40 MSTORE DUP1 PUSH1 0x8 DUP2 MSTORE PUSH1 0x20 ADD PUSH32 0x6D6F646966696572000000000000000000000000000000000000000000000000 DUP2 MSTORE POP DUP2 MSTORE PUSH1 0x20 ADD PUSH1 0x40 MLOAD DUP1 PUSH1 0x40 ADD PUSH1 0x40 MSTORE DUP1 PUSH1 0x8 DUP2 MSTORE PUSH1 0x20 ADD PUSH32 0x6F766572666C6F77000000000000000000000000000000000000000000000000 DUP2 MSTORE POP DUP2 MSTORE PUSH1 0x20 ADD PUSH1 0x40 MLOAD DUP1 PUSH1 0x40 ADD PUSH1 0x40 MSTORE DUP1 PUSH1 0x8 DUP2 MSTORE PUSH1 0x20 ADD PUSH32 0x6761736C696D6974000000000000000000000000000000000000000000000000 DUP2 MSTORE POP DUP2 MSTORE PUSH1 0x20 ADD PUSH1 0x40 MLOAD DUP1 PUSH1 0x40 ADD PUSH1 0x40 MSTORE DUP1 PUSH1 0x9 DUP2 MSTORE PUSH1 0x20 ADD PUSH32 0x696D6D757461626C650000000000000000000000000000000000000000000000 DUP2 MSTORE POP DUP2 MSTORE PUSH1 0x20 ADD PUSH1 0x40 MLOAD DUP1 PUSH1 0x40 ADD PUSH1 0x40 MSTORE DUP1 PUSH1 0x9 DUP2 MSTORE PUSH1 0x20 ADD PUSH32 0x636F6E73656E7375730000000000000000000000000000000000000000000000 DUP2 MSTORE POP DUP2 MSTORE PUSH1 0x20 ADD PUSH1 0x40 MLOAD DUP1 PUSH1 0x40 ADD PUSH1 0x40 MSTORE DUP1 PUSH1 0x9 DUP2 MSTORE PUSH1 0x20 ADD PUSH32 0x626C6F636B74696D650000000000000000000000000000000000000000000000 DUP2 MSTORE POP DUP2 MSTORE PUSH1 0x20 ADD PUSH1 0x40 MLOAD DUP1 PUSH1 0x40 ADD PUSH1 0x40 MSTORE DUP1 PUSH1 0x9 DUP2 MSTORE PUSH1 0x20 ADD PUSH32 0x7369676E61747572650000000000000000000000000000000000000000000000 DUP2 MSTORE POP DUP2 MSTORE PUSH1 0x20 ADD PUSH1 0x40 MLOAD DUP1 PUSH1 0x40 ADD PUSH1 0x40 MSTORE DUP1 PUSH1 0xA DUP2 MSTORE PUSH1 0x20 ADD PUSH32 0x6465706C6F796D656E7400000000000000000000000000000000000000000000 DUP2 MSTORE POP DUP2 MSTORE PUSH1 0x20 ADD PUSH1 0x40 MLOAD DUP1 PUSH1 0x40 ADD PUSH1 0x40 MSTORE DUP1 PUSH1 0x9 DUP2 MSTORE PUSH1 0x20 ADD PUSH32 0x696E746572666163650000000000000000000000000000000000000000000000 DUP2 MSTORE POP DUP2 MSTORE PUSH1 0x20 ADD PUSH1 0x40 MLOAD DUP1 PUSH1 0x40 ADD PUSH1 0x40 MSTORE DUP1 PUSH1 0xB DUP2 MSTORE PUSH1 0x20 ADD PUSH32 0x7472616E73616374696F6E000000000000000000000000000000000000000000 DUP2 MSTORE POP DUP2 MSTORE PUSH1 0x20 ADD PUSH1 0x40 MLOAD DUP1 PUSH1 0x40 ADD PUSH1 0x40 MSTORE DUP1 PUSH1 0xB DUP2 MSTORE PUSH1 0x20 ADD PUSH32 0x636F6E73747261696E7473000000000000000000000000000000000000000000 DUP2 MSTORE POP DUP2 MSTORE PUSH1 0x20 ADD PUSH1 0x40 MLOAD DUP1 PUSH1 0x40 ADD PUSH1 0x40 MSTORE DUP1 PUSH1 0xA DUP2 MSTORE PUSH1 0x20 ADD PUSH32 0x70726F6772616D6D657200000000000000000000000000000000000000000000 DUP2 MSTORE POP DUP2 MSTORE PUSH1 0x20 ADD PUSH1 0x40 MLOAD DUP1 PUSH1 0x40 ADD PUSH1 0x40 MSTORE DUP1 PUSH1 0xA DUP2 MSTORE PUSH1 0x20 ADD PUSH32 0x76616C69646174696F6E00000000000000000000000000000000000000000000 DUP2 MSTORE POP DUP2 MSTORE PUSH1 0x20 ADD PUSH1 0x40 MLOAD DUP1 PUSH1 0x40 ADD PUSH1 0x40 MSTORE DUP1 PUSH1 0x9 DUP2 MSTORE PUSH1 0x20 ADD PUSH32 0x63616C6C64617461780000000000000000000000000000000000000000000000 DUP2 MSTORE POP DUP2 MSTORE PUSH1 0x20 ADD PUSH1 0x40 MLOAD DUP1 PUSH1 0x40 ADD PUSH1 0x40 MSTORE DUP1 PUSH1 0xA DUP2 MSTORE PUSH1 0x20 ADD PUSH32 0x6162627265766961746500000000000000000000000000000000000000000000 DUP2 MSTORE POP DUP2 MSTORE POP PUSH1 0x1 SWAP1 PUSH1 0x2A PUSH3 0x9CE SWAP3 SWAP2 SWAP1 PUSH3 0x9E3 JUMP JUMPDEST POP CALLVALUE DUP1 ISZERO PUSH3 0x9DC JUMPI PUSH1 0x0 DUP1 REVERT JUMPDEST POP PUSH3 0xE31 JUMP JUMPDEST DUP3 DUP1 SLOAD DUP3 DUP3 SSTORE SWAP1 PUSH1 0x0 MSTORE PUSH1 0x20 PUSH1 0x0 KECCAK256 SWAP1 DUP2 ADD SWAP3 DUP3 ISZERO PUSH3 0xA30 JUMPI SWAP2 PUSH1 0x20 MUL DUP3 ADD JUMPDEST DUP3 DUP2 GT ISZERO PUSH3 0xA2F JUMPI DUP3 MLOAD DUP3 SWAP1 DUP2 PUSH3 0xA1E SWAP2 SWAP1 PUSH3 0xD4A JUMP JUMPDEST POP SWAP2 PUSH1 0x20 ADD SWAP2 SWAP1 PUSH1 0x1 ADD SWAP1 PUSH3 0xA04 JUMP JUMPDEST JUMPDEST POP SWAP1 POP PUSH3 0xA3F SWAP2 SWAP1 PUSH3 0xA43 JUMP JUMPDEST POP SWAP1 JUMP JUMPDEST JUMPDEST DUP1 DUP3 GT ISZERO PUSH3 0xA67 JUMPI PUSH1 0x0 DUP2 DUP2 PUSH3 0xA5D SWAP2 SWAP1 PUSH3 0xA6B JUMP JUMPDEST POP PUSH1 0x1 ADD PUSH3 0xA44 JUMP JUMPDEST POP SWAP1 JUMP JUMPDEST POP DUP1 SLOAD PUSH3 0xA79 SWAP1 PUSH3 0xB39 JUMP JUMPDEST PUSH1 0x0 DUP3 SSTORE DUP1 PUSH1 0x1F LT PUSH3 0xA8D JUMPI POP PUSH3 0xAAE JUMP JUMPDEST PUSH1 0x1F ADD PUSH1 0x20 SWAP1 DIV SWAP1 PUSH1 0x0 MSTORE PUSH1 0x20 PUSH1 0x0 KECCAK256 SWAP1 DUP2 ADD SWAP1 PUSH3 0xAAD SWAP2 SWAP1 PUSH3 0xAB1 JUMP JUMPDEST JUMPDEST POP JUMP JUMPDEST JUMPDEST DUP1 DUP3 GT ISZERO PUSH3 0xACC JUMPI PUSH1 0x0 DUP2 PUSH1 0x0 SWAP1 SSTORE POP PUSH1 0x1 ADD PUSH3 0xAB2 JUMP JUMPDEST POP SWAP1 JUMP JUMPDEST PUSH1 0x0 DUP2 MLOAD SWAP1 POP SWAP2 SWAP1 POP JUMP JUMPDEST PUSH32 0x4E487B7100000000000000000000000000000000000000000000000000000000 PUSH1 0x0 MSTORE PUSH1 0x41 PUSH1 0x4 MSTORE PUSH1 0x24 PUSH1 0x0 REVERT JUMPDEST PUSH32 0x4E487B7100000000000000000000000000000000000000000000000000000000 PUSH1 0x0 MSTORE PUSH1 0x22 PUSH1 0x4 MSTORE PUSH1 0x24 PUSH1 0x0 REVERT JUMPDEST PUSH1 0x0 PUSH1 0x2 DUP3 DIV SWAP1 POP PUSH1 0x1 DUP3 AND DUP1 PUSH3 0xB52 JUMPI PUSH1 0x7F DUP3 AND SWAP2 POP JUMPDEST PUSH1 0x20 DUP3 LT DUP2 SUB PUSH3 0xB68 JUMPI PUSH3 0xB67 PUSH3 0xB0A JUMP JUMPDEST JUMPDEST POP SWAP2 SWAP1 POP JUMP JUMPDEST PUSH1 0x0 DUP2 SWAP1 POP DUP2 PUSH1 0x0 MSTORE PUSH1 0x20 PUSH1 0x0 KECCAK256 SWAP1 POP SWAP2 SWAP1 POP JUMP JUMPDEST PUSH1 0x0 PUSH1 0x20 PUSH1 0x1F DUP4 ADD DIV SWAP1 POP SWAP2 SWAP1 POP JUMP JUMPDEST PUSH1 0x0 DUP3 DUP3 SHL SWAP1 POP SWAP3 SWAP2 POP POP JUMP JUMPDEST PUSH1 0x0 PUSH1 0x8 DUP4 MUL PUSH3 0xBD2 PUSH32 0xFFFFFFFFFFFFFFFFFFFFFFFFFFFFFFFFFFFFFFFFFFFFFFFFFFFFFFFFFFFFFFFF DUP3 PUSH3 0xB93 JUMP JUMPDEST PUSH3 0xBDE DUP7 DUP4 PUSH3 0xB93 JUMP JUMPDEST SWAP6 POP DUP1 NOT DUP5 AND SWAP4 POP DUP1 DUP7 AND DUP5 OR SWAP3 POP POP POP SWAP4 SWAP3 POP POP POP JUMP JUMPDEST PUSH1 0x0 DUP2 SWAP1 POP SWAP2 SWAP1 POP JUMP JUMPDEST PUSH1 0x0 DUP2 SWAP1 POP SWAP2 SWAP1 POP JUMP JUMPDEST PUSH1 0x0 PUSH3 0xC2B PUSH3 0xC25 PUSH3 0xC1F DUP5 PUSH3 0xBF6 JUMP JUMPDEST PUSH3 0xC00 JUMP JUMPDEST PUSH3 0xBF6 JUMP JUMPDEST SWAP1 POP SWAP2 SWAP1 POP JUMP JUMPDEST PUSH1 0x0 DUP2 SWAP1 POP SWAP2 SWAP1 POP JUMP JUMPDEST PUSH3 0xC47 DUP4 PUSH3 0xC0A JUMP JUMPDEST PUSH3 0xC5F PUSH3 0xC56 DUP3 PUSH3 0xC32 JUMP JUMPDEST DUP5 DUP5 SLOAD PUSH3 0xBA0 JUMP JUMPDEST DUP3 SSTORE POP POP POP POP JUMP JUMPDEST PUSH1 0x0 SWAP1 JUMP JUMPDEST PUSH3 0xC76 PUSH3 0xC67 JUMP JUMPDEST PUSH3 0xC83 DUP2 DUP5 DUP5 PUSH3 0xC3C JUMP JUMPDEST POP POP POP JUMP JUMPDEST JUMPDEST DUP2 DUP2 LT ISZERO PUSH3 0xCAB JUMPI PUSH3 0xC9F PUSH1 0x0 DUP3 PUSH3 0xC6C JUMP JUMPDEST PUSH1 0x1 DUP2 ADD SWAP1 POP PUSH3 0xC89 JUMP JUMPDEST POP POP JUMP JUMPDEST PUSH1 0x1F DUP3 GT ISZERO PUSH3 0xCFA JUMPI PUSH3 0xCC4 DUP2 PUSH3 0xB6E JUMP JUMPDEST PUSH3 0xCCF DUP5 PUSH3 0xB83 JUMP JUMPDEST DUP2 ADD PUSH1 0x20 DUP6 LT ISZERO PUSH3 0xCDF JUMPI DUP2 SWAP1 POP JUMPDEST PUSH3 0xCF7 PUSH3 0xCEE DUP6 PUSH3 0xB83 JUMP JUMPDEST DUP4 ADD DUP3 PUSH3 0xC88 JUMP JUMPDEST POP POP JUMPDEST POP POP POP JUMP JUMPDEST PUSH1 0x0 DUP3 DUP3 SHR SWAP1 POP SWAP3 SWAP2 POP POP JUMP JUMPDEST PUSH1 0x0 PUSH3 0xD1F PUSH1 0x0 NOT DUP5 PUSH1 0x8 MUL PUSH3 0xCFF JUMP JUMPDEST NOT DUP1 DUP4 AND SWAP2 POP POP SWAP3 SWAP2 POP POP JUMP JUMPDEST PUSH1 0x0 PUSH3 0xD3A DUP4 DUP4 PUSH3 0xD0C JUMP JUMPDEST SWAP2 POP DUP3 PUSH1 0x2 MUL DUP3 OR SWAP1 POP SWAP3 SWAP2 POP POP JUMP JUMPDEST PUSH3 0xD55 DUP3 PUSH3 0xAD0 JUMP JUMPDEST PUSH8 0xFFFFFFFFFFFFFFFF DUP2 GT ISZERO PUSH3 0xD71 JUMPI PUSH3 0xD70 PUSH3 0xADB JUMP JUMPDEST JUMPDEST PUSH3 0xD7D DUP3 SLOAD PUSH3 0xB39 JUMP JUMPDEST PUSH3 0xD8A DUP3 DUP3 DUP6 PUSH3 0xCAF JUMP JUMPDEST PUSH1 0x0 PUSH1 0x20 SWAP1 POP PUSH1 0x1F DUP4 GT PUSH1 0x1 DUP2 EQ PUSH3 0xDC2 JUMPI PUSH1 0x0 DUP5 ISZERO PUSH3 0xDAD JUMPI DUP3 DUP8 ADD MLOAD SWAP1 POP JUMPDEST PUSH3 0xDB9 DUP6 DUP3 PUSH3 0xD2C JUMP JUMPDEST DUP7 SSTORE POP PUSH3 0xE29 JUMP JUMPDEST PUSH1 0x1F NOT DUP5 AND PUSH3 0xDD2 DUP7 PUSH3 0xB6E JUMP JUMPDEST PUSH1 0x0 JUMPDEST DUP3 DUP2 LT ISZERO PUSH3 0xDFC JUMPI DUP5 DUP10 ADD MLOAD DUP3 SSTORE PUSH1 0x1 DUP3 ADD SWAP2 POP PUSH1 0x20 DUP6 ADD SWAP5 POP PUSH1 0x20 DUP2 ADD SWAP1 POP PUSH3 0xDD5 JUMP JUMPDEST DUP7 DUP4 LT ISZERO PUSH3 0xE1C JUMPI DUP5 DUP10 ADD MLOAD PUSH3 0xE18 PUSH1 0x1F DUP10 AND DUP3 PUSH3 0xD0C JUMP JUMPDEST DUP4 SSTORE POP JUMPDEST PUSH1 0x1 PUSH1 0x2 DUP9 MUL ADD DUP9 SSTORE POP POP POP JUMPDEST POP POP POP POP POP POP JUMP JUMPDEST PUSH2 0x2126 DUP1 PUSH3 0xE41 PUSH1 0x0 CODECOPY PUSH1 0x0 RETURN INVALID PUSH1 0x80 PUSH1 0x40 MSTORE CALLVALUE DUP1 ISZERO PUSH2 0x10 JUMPI PUSH1 0x0 DUP1 REVERT JUMPDEST POP PUSH1 0x4 CALLDATASIZE LT PUSH2 0x62 JUMPI PUSH1 0x0 CALLDATALOAD PUSH1 0xE0 SHR DUP1 PUSH4 0x2056C8B EQ PUSH2 0x67 JUMPI DUP1 PUSH4 0x5D0797C0 EQ PUSH2 0x8B JUMPI DUP1 PUSH4 0x662A6559 EQ PUSH2 0xA9 JUMPI DUP1 PUSH4 0x81196481 EQ PUSH2 0xC5 JUMPI DUP1 PUSH4 0xD65AB5F2 EQ PUSH2 0xE3 JUMPI DUP1 PUSH4 0xF77EA683 EQ PUSH2 0xED JUMPI JUMPDEST PUSH1 0x0 DUP1 REVERT JUMPDEST PUSH2 0x6F PUSH2 0x10B JUMP JUMPDEST PUSH1 0x40 MLOAD PUSH2 0x82 SWAP8 SWAP7 SWAP6 SWAP5 SWAP4 SWAP3 SWAP2 SWAP1 PUSH2 0x1522 JUMP JUMPDEST PUSH1 0x40 MLOAD DUP1 SWAP2 SUB SWAP1 RETURN JUMPDEST PUSH2 0x93 PUSH2 0x275 JUMP JUMPDEST PUSH1 0x40 MLOAD PUSH2 0xA0 SWAP2 SWAP1 PUSH2 0x1598 JUMP JUMPDEST PUSH1 0x40 MLOAD DUP1 SWAP2 SUB SWAP1 RETURN JUMPDEST PUSH2 0xC3 PUSH1 0x4 DUP1 CALLDATASIZE SUB DUP2 ADD SWAP1 PUSH2 0xBE SWAP2 SWAP1 PUSH2 0x1622 JUMP JUMPDEST PUSH2 0x27A JUMP JUMPDEST STOP JUMPDEST PUSH2 0xCD PUSH2 0x914 JUMP JUMPDEST PUSH1 0x40 MLOAD PUSH2 0xDA SWAP2 SWAP1 PUSH2 0x1598 JUMP JUMPDEST PUSH1 0x40 MLOAD DUP1 SWAP2 SUB SWAP1 RETURN JUMPDEST PUSH2 0xEB PUSH2 0x919 JUMP JUMPDEST STOP JUMPDEST PUSH2 0xF5 PUSH2 0xC24 JUMP JUMPDEST PUSH1 0x40 MLOAD PUSH2 0x102 SWAP2 SWAP1 PUSH2 0x1598 JUMP JUMPDEST PUSH1 0x40 MLOAD DUP1 SWAP2 SUB SWAP1 RETURN JUMPDEST PUSH1 0x0 DUP1 PUSH1 0x0 PUSH1 0x60 PUSH1 0x0 DUP1 PUSH1 0x0 DUP1 PUSH1 0x0 DUP1 CALLER PUSH20 0xFFFFFFFFFFFFFFFFFFFFFFFFFFFFFFFFFFFFFFFF AND PUSH20 0xFFFFFFFFFFFFFFFFFFFFFFFFFFFFFFFFFFFFFFFF AND DUP2 MSTORE PUSH1 0x20 ADD SWAP1 DUP2 MSTORE PUSH1 0x20 ADD PUSH1 0x0 KECCAK256 SWAP1 POP DUP1 PUSH1 0x0 ADD PUSH1 0x0 SWAP1 SLOAD SWAP1 PUSH2 0x100 EXP SWAP1 DIV PUSH1 0xFF AND DUP2 PUSH1 0x0 ADD PUSH1 0x1 SWAP1 SLOAD SWAP1 PUSH2 0x100 EXP SWAP1 DIV PUSH1 0xFF AND DUP3 PUSH1 0x0 ADD PUSH1 0x2 SWAP1 SLOAD SWAP1 PUSH2 0x100 EXP SWAP1 DIV PUSH1 0xFF AND DUP4 PUSH1 0x1 ADD DUP5 PUSH1 0x2 ADD PUSH1 0x0 SWAP1 SLOAD SWAP1 PUSH2 0x100 EXP SWAP1 DIV PUSH4 0xFFFFFFFF AND DUP6 PUSH1 0x2 ADD PUSH1 0x4 SWAP1 SLOAD SWAP1 PUSH2 0x100 EXP SWAP1 DIV PUSH4 0xFFFFFFFF AND DUP7 PUSH1 0x2 ADD PUSH1 0x8 SWAP1 SLOAD SWAP1 PUSH2 0x100 EXP SWAP1 DIV PUSH4 0xFFFFFFFF AND DUP4 DUP1 SLOAD PUSH2 0x1DD SWAP1 PUSH2 0x169E JUMP JUMPDEST DUP1 PUSH1 0x1F ADD PUSH1 0x20 DUP1 SWAP2 DIV MUL PUSH1 0x20 ADD PUSH1 0x40 MLOAD SWAP1 DUP2 ADD PUSH1 0x40 MSTORE DUP1 SWAP3 SWAP2 SWAP1 DUP2 DUP2 MSTORE PUSH1 0x20 ADD DUP3 DUP1 SLOAD PUSH2 0x209 SWAP1 PUSH2 0x169E JUMP JUMPDEST DUP1 ISZERO PUSH2 0x256 JUMPI DUP1 PUSH1 0x1F LT PUSH2 0x22B JUMPI PUSH2 0x100 DUP1 DUP4 SLOAD DIV MUL DUP4 MSTORE SWAP2 PUSH1 0x20 ADD SWAP2 PUSH2 0x256 JUMP JUMPDEST DUP3 ADD SWAP2 SWAP1 PUSH1 0x0 MSTORE PUSH1 0x20 PUSH1 0x0 KECCAK256 SWAP1 JUMPDEST DUP2 SLOAD DUP2 MSTORE SWAP1 PUSH1 0x1 ADD SWAP1 PUSH1 0x20 ADD DUP1 DUP4 GT PUSH2 0x239 JUMPI DUP3 SWAP1 SUB PUSH1 0x1F AND DUP3 ADD SWAP2 JUMPDEST POP POP POP POP POP SWAP4 POP SWAP8 POP SWAP8 POP SWAP8 POP SWAP8 POP SWAP8 POP SWAP8 POP SWAP8 POP POP SWAP1 SWAP2 SWAP3 SWAP4 SWAP5 SWAP6 SWAP7 JUMP JUMPDEST PUSH1 0xA DUP2 JUMP JUMPDEST PUSH1 0x0 DUP1 PUSH1 0x0 CALLER PUSH20 0xFFFFFFFFFFFFFFFFFFFFFFFFFFFFFFFFFFFFFFFF AND PUSH20 0xFFFFFFFFFFFFFFFFFFFFFFFFFFFFFFFFFFFFFFFF AND DUP2 MSTORE PUSH1 0x20 ADD SWAP1 DUP2 MSTORE PUSH1 0x20 ADD PUSH1 0x0 KECCAK256 SWAP1 POP PUSH1 0x1 PUSH1 0x3 DUP2 GT ISZERO PUSH2 0x2D0 JUMPI PUSH2 0x2CF PUSH2 0x13E0 JUMP JUMPDEST JUMPDEST DUP2 PUSH1 0x0 ADD PUSH1 0x0 SWAP1 SLOAD SWAP1 PUSH2 0x100 EXP SWAP1 DIV PUSH1 0xFF AND PUSH1 0x3 DUP2 GT ISZERO PUSH2 0x2F4 JUMPI PUSH2 0x2F3 PUSH2 0x13E0 JUMP JUMPDEST JUMPDEST EQ PUSH2 0x334 JUMPI PUSH1 0x40 MLOAD PUSH32 0x8C379A000000000000000000000000000000000000000000000000000000000 DUP2 MSTORE PUSH1 0x4 ADD PUSH2 0x32B SWAP1 PUSH2 0x172C JUMP JUMPDEST PUSH1 0x40 MLOAD DUP1 SWAP2 SUB SWAP1 REVERT JUMPDEST PUSH1 0x0 DUP4 DUP4 DUP1 DUP1 PUSH1 0x1F ADD PUSH1 0x20 DUP1 SWAP2 DIV MUL PUSH1 0x20 ADD PUSH1 0x40 MLOAD SWAP1 DUP2 ADD PUSH1 0x40 MSTORE DUP1 SWAP4 SWAP3 SWAP2 SWAP1 DUP2 DUP2 MSTORE PUSH1 0x20 ADD DUP4 DUP4 DUP1 DUP3 DUP5 CALLDATACOPY PUSH1 0x0 DUP2 DUP5 ADD MSTORE PUSH1 0x1F NOT PUSH1 0x1F DUP3 ADD AND SWAP1 POP DUP1 DUP4 ADD SWAP3 POP POP POP POP POP POP POP SWAP1 POP PUSH1 0x1 DUP2 MLOAD EQ PUSH2 0x3C1 JUMPI PUSH1 0x40 MLOAD PUSH32 0x8C379A000000000000000000000000000000000000000000000000000000000 DUP2 MSTORE PUSH1 0x4 ADD PUSH2 0x3B8 SWAP1 PUSH2 0x1798 JUMP JUMPDEST PUSH1 0x40 MLOAD DUP1 SWAP2 SUB SWAP1 REVERT JUMPDEST PUSH1 0x0 DUP2 PUSH1 0x0 DUP2 MLOAD DUP2 LT PUSH2 0x3D7 JUMPI PUSH2 0x3D6 PUSH2 0x17B8 JUMP JUMPDEST JUMPDEST PUSH1 0x20 ADD ADD MLOAD PUSH1 0xF8 SHR PUSH1 0xF8 SHL SWAP1 POP PUSH1 0x0 DUP2 PUSH1 0xF8 SHR SWAP1 POP PUSH1 0x41 DUP2 PUSH1 0xFF AND LT ISZERO DUP1 ISZERO PUSH2 0x404 JUMPI POP PUSH1 0x5A DUP2 PUSH1 0xFF AND GT ISZERO JUMPDEST ISZERO PUSH2 0x41F JUMPI PUSH1 0x20 DUP2 PUSH2 0x416 SWAP2 SWAP1 PUSH2 0x1816 JUMP JUMPDEST SWAP1 POP DUP1 PUSH1 0xF8 SHL SWAP2 POP JUMPDEST PUSH1 0x61 DUP2 PUSH1 0xFF AND LT ISZERO DUP1 ISZERO PUSH2 0x437 JUMPI POP PUSH1 0x7A DUP2 PUSH1 0xFF AND GT ISZERO JUMPDEST PUSH2 0x476 JUMPI PUSH1 0x40 MLOAD PUSH32 0x8C379A000000000000000000000000000000000000000000000000000000000 DUP2 MSTORE PUSH1 0x4 ADD PUSH2 0x46D SWAP1 PUSH2 0x18BD JUMP JUMPDEST PUSH1 0x40 MLOAD DUP1 SWAP2 SUB SWAP1 REVERT JUMPDEST PUSH1 0x0 PUSH1 0x61 DUP3 PUSH2 0x485 SWAP2 SWAP1 PUSH2 0x18DD JUMP JUMPDEST SWAP1 POP PUSH1 0x0 DUP2 PUSH1 0xFF AND PUSH1 0x1 PUSH4 0xFFFFFFFF AND SWAP1 SHL SWAP1 POP PUSH1 0x0 DUP2 DUP8 PUSH1 0x2 ADD PUSH1 0x0 SWAP1 SLOAD SWAP1 PUSH2 0x100 EXP SWAP1 DIV PUSH4 0xFFFFFFFF AND AND PUSH4 0xFFFFFFFF AND EQ PUSH2 0x4F8 JUMPI PUSH1 0x40 MLOAD PUSH32 0x8C379A000000000000000000000000000000000000000000000000000000000 DUP2 MSTORE PUSH1 0x4 ADD PUSH2 0x4EF SWAP1 PUSH2 0x195E JUMP JUMPDEST PUSH1 0x40 MLOAD DUP1 SWAP2 SUB SWAP1 REVERT JUMPDEST PUSH1 0x0 PUSH2 0x503 DUP8 PUSH2 0xC29 JUMP JUMPDEST SWAP1 POP DUP2 DUP8 PUSH1 0x2 ADD PUSH1 0x0 DUP3 DUP3 DUP3 SWAP1 SLOAD SWAP1 PUSH2 0x100 EXP SWAP1 DIV PUSH4 0xFFFFFFFF AND OR SWAP3 POP PUSH2 0x100 EXP DUP2 SLOAD DUP2 PUSH4 0xFFFFFFFF MUL NOT AND SWAP1 DUP4 PUSH4 0xFFFFFFFF AND MUL OR SWAP1 SSTORE POP PUSH1 0x0 PUSH2 0x549 DUP3 DUP8 PUSH2 0xDD0 JUMP JUMPDEST SWAP1 POP DUP1 ISZERO PUSH2 0x7CE JUMPI DUP3 DUP9 PUSH1 0x2 ADD PUSH1 0x4 DUP3 DUP3 DUP3 SWAP1 SLOAD SWAP1 PUSH2 0x100 EXP SWAP1 DIV PUSH4 0xFFFFFFFF AND OR SWAP3 POP PUSH2 0x100 EXP DUP2 SLOAD DUP2 PUSH4 0xFFFFFFFF MUL NOT AND SWAP1 DUP4 PUSH4 0xFFFFFFFF AND MUL OR SWAP1 SSTORE POP PUSH1 0x0 JUMPDEST DUP9 PUSH1 0x0 ADD PUSH1 0x1 SWAP1 SLOAD SWAP1 PUSH2 0x100 EXP SWAP1 DIV PUSH1 0xFF AND PUSH1 0xFF AND DUP2 LT ISZERO PUSH2 0x701 JUMPI PUSH1 0x0 DUP4 DUP3 DUP2 MLOAD DUP2 LT PUSH2 0x5BD JUMPI PUSH2 0x5BC PUSH2 0x17B8 JUMP JUMPDEST JUMPDEST PUSH1 0x20 ADD ADD MLOAD PUSH1 0xF8 SHR PUSH1 0xF8 SHL SWAP1 POP PUSH2 0x5D4 DUP11 DUP3 PUSH2 0xE72 JUMP JUMPDEST ISZERO PUSH2 0x655 JUMPI DUP1 DUP11 PUSH1 0x1 ADD DUP4 DUP2 SLOAD PUSH2 0x5EA SWAP1 PUSH2 0x169E JUMP JUMPDEST DUP2 LT PUSH2 0x5F9 JUMPI PUSH2 0x5F8 PUSH2 0x17B8 JUMP JUMPDEST JUMPDEST DUP2 SLOAD PUSH1 0x1 AND ISZERO PUSH2 0x618 JUMPI SWAP1 PUSH1 0x0 MSTORE PUSH1 0x20 PUSH1 0x0 KECCAK256 SWAP1 PUSH1 0x20 SWAP2 DUP3 DUP3 DIV ADD SWAP2 SWAP1 MOD JUMPDEST PUSH1 0x1F SUB PUSH2 0x100 EXP DUP2 SLOAD DUP2 PUSH1 0xFF MUL NOT AND SWAP1 PUSH32 0x100000000000000000000000000000000000000000000000000000000000000 DUP5 DIV MUL OR SWAP1 SSTORE POP PUSH2 0x6ED JUMP JUMPDEST PUSH32 0x5F00000000000000000000000000000000000000000000000000000000000000 DUP11 PUSH1 0x1 ADD DUP4 DUP2 SLOAD PUSH2 0x686 SWAP1 PUSH2 0x169E JUMP JUMPDEST DUP2 LT PUSH2 0x695 JUMPI PUSH2 0x694 PUSH2 0x17B8 JUMP JUMPDEST JUMPDEST DUP2 SLOAD PUSH1 0x1 AND ISZERO PUSH2 0x6B4 JUMPI SWAP1 PUSH1 0x0 MSTORE PUSH1 0x20 PUSH1 0x0 KECCAK256 SWAP1 PUSH1 0x20 SWAP2 DUP3 DUP3 DIV ADD SWAP2 SWAP1 MOD JUMPDEST PUSH1 0x1F SUB PUSH2 0x100 EXP DUP2 SLOAD DUP2 PUSH1 0xFF MUL NOT AND SWAP1 PUSH32 0x100000000000000000000000000000000000000000000000000000000000000 DUP5 DIV MUL OR SWAP1 SSTORE POP JUMPDEST POP DUP1 DUP1 PUSH2 0x6F9 SWAP1 PUSH2 0x1988 JUMP JUMPDEST SWAP2 POP POP PUSH2 0x58C JUMP JUMPDEST POP PUSH2 0x797 DUP9 PUSH1 0x1 ADD DUP1 SLOAD PUSH2 0x714 SWAP1 PUSH2 0x169E JUMP JUMPDEST DUP1 PUSH1 0x1F ADD PUSH1 0x20 DUP1 SWAP2 DIV MUL PUSH1 0x20 ADD PUSH1 0x40 MLOAD SWAP1 DUP2 ADD PUSH1 0x40 MSTORE DUP1 SWAP3 SWAP2 SWAP1 DUP2 DUP2 MSTORE PUSH1 0x20 ADD DUP3 DUP1 SLOAD PUSH2 0x740 SWAP1 PUSH2 0x169E JUMP JUMPDEST DUP1 ISZERO PUSH2 0x78D JUMPI DUP1 PUSH1 0x1F LT PUSH2 0x762 JUMPI PUSH2 0x100 DUP1 DUP4 SLOAD DIV MUL DUP4 MSTORE SWAP2 PUSH1 0x20 ADD SWAP2 PUSH2 0x78D JUMP JUMPDEST DUP3 ADD SWAP2 SWAP1 PUSH1 0x0 MSTORE PUSH1 0x20 PUSH1 0x0 KECCAK256 SWAP1 JUMPDEST DUP2 SLOAD DUP2 MSTORE SWAP1 PUSH1 0x1 ADD SWAP1 PUSH1 0x20 ADD DUP1 DUP4 GT PUSH2 0x770 JUMPI DUP3 SWAP1 SUB PUSH1 0x1F AND DUP3 ADD SWAP2 JUMPDEST POP POP POP POP POP PUSH2 0xEE9 JUMP JUMPDEST PUSH2 0x7C9 JUMPI PUSH1 0x2 DUP9 PUSH1 0x0 ADD PUSH1 0x0 PUSH2 0x100 EXP DUP2 SLOAD DUP2 PUSH1 0xFF MUL NOT AND SWAP1 DUP4 PUSH1 0x3 DUP2 GT ISZERO PUSH2 0x7C3 JUMPI PUSH2 0x7C2 PUSH2 0x13E0 JUMP JUMPDEST JUMPDEST MUL OR SWAP1 SSTORE POP JUMPDEST PUSH2 0x88D JUMP JUMPDEST DUP3 DUP9 PUSH1 0x2 ADD PUSH1 0x8 DUP3 DUP3 DUP3 SWAP1 SLOAD SWAP1 PUSH2 0x100 EXP SWAP1 DIV PUSH4 0xFFFFFFFF AND OR SWAP3 POP PUSH2 0x100 EXP DUP2 SLOAD DUP2 PUSH4 0xFFFFFFFF MUL NOT AND SWAP1 DUP4 PUSH4 0xFFFFFFFF AND MUL OR SWAP1 SSTORE POP PUSH1 0x1 DUP9 PUSH1 0x0 ADD PUSH1 0x2 DUP3 DUP3 DUP3 SWAP1 SLOAD SWAP1 PUSH2 0x100 EXP SWAP1 DIV PUSH1 0xFF AND PUSH2 0x827 SWAP2 SWAP1 PUSH2 0x1816 JUMP JUMPDEST SWAP3 POP PUSH2 0x100 EXP DUP2 SLOAD DUP2 PUSH1 0xFF MUL NOT AND SWAP1 DUP4 PUSH1 0xFF AND MUL OR SWAP1 SSTORE POP PUSH1 0x6 PUSH1 0xFF AND DUP9 PUSH1 0x0 ADD PUSH1 0x2 SWAP1 SLOAD SWAP1 PUSH2 0x100 EXP SWAP1 DIV PUSH1 0xFF AND PUSH1 0xFF AND LT PUSH2 0x88C JUMPI PUSH1 0x3 DUP9 PUSH1 0x0 ADD PUSH1 0x0 PUSH2 0x100 EXP DUP2 SLOAD DUP2 PUSH1 0xFF MUL NOT AND SWAP1 DUP4 PUSH1 0x3 DUP2 GT ISZERO PUSH2 0x886 JUMPI PUSH2 0x885 PUSH2 0x13E0 JUMP JUMPDEST JUMPDEST MUL OR SWAP1 SSTORE POP JUMPDEST JUMPDEST CALLER PUSH20 0xFFFFFFFFFFFFFFFFFFFFFFFFFFFFFFFFFFFFFFFF AND PUSH32 0x158E50B6C009C05279B63369EE0914AAC86906246DA69B271F2E77F49FDD082A DUP8 DUP4 DUP12 PUSH1 0x1 ADD DUP13 PUSH1 0x0 ADD PUSH1 0x2 SWAP1 SLOAD SWAP1 PUSH2 0x100 EXP SWAP1 DIV PUSH1 0xFF AND DUP14 PUSH1 0x0 ADD PUSH1 0x0 SWAP1 SLOAD SWAP1 PUSH2 0x100 EXP SWAP1 DIV PUSH1 0xFF AND PUSH1 0x40 MLOAD PUSH2 0x900 SWAP6 SWAP5 SWAP4 SWAP3 SWAP2 SWAP1 PUSH2 0x1ABF JUMP JUMPDEST PUSH1 0x40 MLOAD DUP1 SWAP2 SUB SWAP1 LOG2 POP POP POP POP POP POP POP POP POP POP JUMP JUMPDEST PUSH1 0x4 DUP2 JUMP JUMPDEST PUSH1 0x0 DUP1 PUSH1 0x0 CALLER PUSH20 0xFFFFFFFFFFFFFFFFFFFFFFFFFFFFFFFFFFFFFFFF AND PUSH20 0xFFFFFFFFFFFFFFFFFFFFFFFFFFFFFFFFFFFFFFFF AND DUP2 MSTORE PUSH1 0x20 ADD SWAP1 DUP2 MSTORE PUSH1 0x20 ADD PUSH1 0x0 KECCAK256 SWAP1 POP PUSH1 0x1 PUSH1 0x3 DUP2 GT ISZERO PUSH2 0x96F JUMPI PUSH2 0x96E PUSH2 0x13E0 JUMP JUMPDEST JUMPDEST DUP2 PUSH1 0x0 ADD PUSH1 0x0 SWAP1 SLOAD SWAP1 PUSH2 0x100 EXP SWAP1 DIV PUSH1 0xFF AND PUSH1 0x3 DUP2 GT ISZERO PUSH2 0x993 JUMPI PUSH2 0x992 PUSH2 0x13E0 JUMP JUMPDEST JUMPDEST SUB PUSH2 0x9D3 JUMPI PUSH1 0x40 MLOAD PUSH32 0x8C379A000000000000000000000000000000000000000000000000000000000 DUP2 MSTORE PUSH1 0x4 ADD PUSH2 0x9CA SWAP1 PUSH2 0x1B65 JUMP JUMPDEST PUSH1 0x40 MLOAD DUP1 SWAP2 SUB SWAP1 REVERT JUMPDEST PUSH1 0x0 PUSH2 0x9DD PUSH2 0xFAA JUMP JUMPDEST SWAP1 POP PUSH1 0x1 DUP3 PUSH1 0x0 ADD PUSH1 0x0 PUSH2 0x100 EXP DUP2 SLOAD DUP2 PUSH1 0xFF MUL NOT AND SWAP1 DUP4 PUSH1 0x3 DUP2 GT ISZERO PUSH2 0xA07 JUMPI PUSH2 0xA06 PUSH2 0x13E0 JUMP JUMPDEST JUMPDEST MUL OR SWAP1 SSTORE POP DUP1 DUP3 PUSH1 0x0 ADD PUSH1 0x1 PUSH2 0x100 EXP DUP2 SLOAD DUP2 PUSH1 0xFF MUL NOT AND SWAP1 DUP4 PUSH1 0xFF AND MUL OR SWAP1 SSTORE POP PUSH1 0x0 DUP3 PUSH1 0x0 ADD PUSH1 0x2 PUSH2 0x100 EXP DUP2 SLOAD DUP2 PUSH1 0xFF MUL NOT AND SWAP1 DUP4 PUSH1 0xFF AND MUL OR SWAP1 SSTORE POP PUSH1 0x0 DUP3 PUSH1 0x2 ADD PUSH1 0x0 PUSH2 0x100 EXP DUP2 SLOAD DUP2 PUSH4 0xFFFFFFFF MUL NOT AND SWAP1 DUP4 PUSH4 0xFFFFFFFF AND MUL OR SWAP1 SSTORE POP PUSH1 0x0 DUP3 PUSH1 0x2 ADD PUSH1 0x4 PUSH2 0x100 EXP DUP2 SLOAD DUP2 PUSH4 0xFFFFFFFF MUL NOT AND SWAP1 DUP4 PUSH4 0xFFFFFFFF AND MUL OR SWAP1 SSTORE POP PUSH1 0x0 DUP3 PUSH1 0x2 ADD PUSH1 0x8 PUSH2 0x100 EXP DUP2 SLOAD DUP2 PUSH4 0xFFFFFFFF MUL NOT AND SWAP1 DUP4 PUSH4 0xFFFFFFFF AND MUL OR SWAP1 SSTORE POP DUP1 PUSH1 0xFF AND PUSH8 0xFFFFFFFFFFFFFFFF DUP2 GT ISZERO PUSH2 0xAD0 JUMPI PUSH2 0xACF PUSH2 0x1B85 JUMP JUMPDEST JUMPDEST PUSH1 0x40 MLOAD SWAP1 DUP1 DUP3 MSTORE DUP1 PUSH1 0x1F ADD PUSH1 0x1F NOT AND PUSH1 0x20 ADD DUP3 ADD PUSH1 0x40 MSTORE DUP1 ISZERO PUSH2 0xB02 JUMPI DUP2 PUSH1 0x20 ADD PUSH1 0x1 DUP3 MUL DUP1 CALLDATASIZE DUP4 CALLDATACOPY DUP1 DUP3 ADD SWAP2 POP POP SWAP1 POP JUMPDEST POP DUP3 PUSH1 0x1 ADD SWAP1 DUP2 PUSH2 0xB13 SWAP2 SWAP1 PUSH2 0x1D4B JUMP JUMPDEST POP PUSH1 0x0 JUMPDEST DUP2 PUSH1 0xFF AND DUP2 LT ISZERO PUSH2 0xBCC JUMPI PUSH32 0x5F00000000000000000000000000000000000000000000000000000000000000 DUP4 PUSH1 0x1 ADD DUP3 DUP2 SLOAD PUSH2 0xB53 SWAP1 PUSH2 0x169E JUMP JUMPDEST DUP2 LT PUSH2 0xB62 JUMPI PUSH2 0xB61 PUSH2 0x17B8 JUMP JUMPDEST JUMPDEST DUP2 SLOAD PUSH1 0x1 AND ISZERO PUSH2 0xB81 JUMPI SWAP1 PUSH1 0x0 MSTORE PUSH1 0x20 PUSH1 0x0 KECCAK256 SWAP1 PUSH1 0x20 SWAP2 DUP3 DUP3 DIV ADD SWAP2 SWAP1 MOD JUMPDEST PUSH1 0x1F SUB PUSH2 0x100 EXP DUP2 SLOAD DUP2 PUSH1 0xFF MUL NOT AND SWAP1 PUSH32 0x100000000000000000000000000000000000000000000000000000000000000 DUP5 DIV MUL OR SWAP1 SSTORE POP DUP1 DUP1 PUSH2 0xBC4 SWAP1 PUSH2 0x1988 JUMP JUMPDEST SWAP2 POP POP PUSH2 0xB17 JUMP JUMPDEST POP CALLER PUSH20 0xFFFFFFFFFFFFFFFFFFFFFFFFFFFFFFFFFFFFFFFF AND PUSH32 0x362A5EE0744680DF9F8BD7848062C7608E392410201575266042218106F40596 DUP3 DUP5 PUSH1 0x1 ADD PUSH1 0x40 MLOAD PUSH2 0xC18 SWAP3 SWAP2 SWAP1 PUSH2 0x1E1D JUMP JUMPDEST PUSH1 0x40 MLOAD DUP1 SWAP2 SUB SWAP1 LOG2 POP POP JUMP JUMPDEST PUSH1 0x6 DUP2 JUMP JUMPDEST PUSH1 0x60 PUSH1 0x0 PUSH2 0xC36 DUP4 PUSH2 0x102D JUMP JUMPDEST SWAP1 POP PUSH1 0x0 DUP2 GT PUSH2 0xC7B JUMPI PUSH1 0x40 MLOAD PUSH32 0x8C379A000000000000000000000000000000000000000000000000000000000 DUP2 MSTORE PUSH1 0x4 ADD PUSH2 0xC72 SWAP1 PUSH2 0x1E99 JUMP JUMPDEST PUSH1 0x40 MLOAD DUP1 SWAP2 SUB SWAP1 REVERT JUMPDEST PUSH1 0x0 PUSH2 0xC86 DUP3 PUSH2 0x112B JUMP JUMPDEST SWAP1 POP PUSH1 0x0 DUP1 JUMPDEST PUSH1 0x1 DUP1 SLOAD SWAP1 POP DUP2 LT ISZERO PUSH2 0xD8F JUMPI PUSH1 0x0 PUSH1 0x1 DUP3 DUP2 SLOAD DUP2 LT PUSH2 0xCAF JUMPI PUSH2 0xCAE PUSH2 0x17B8 JUMP JUMPDEST JUMPDEST SWAP1 PUSH1 0x0 MSTORE PUSH1 0x20 PUSH1 0x0 KECCAK256 ADD DUP1 SLOAD PUSH2 0xCC4 SWAP1 PUSH2 0x169E JUMP JUMPDEST DUP1 PUSH1 0x1F ADD PUSH1 0x20 DUP1 SWAP2 DIV MUL PUSH1 0x20 ADD PUSH1 0x40 MLOAD SWAP1 DUP2 ADD PUSH1 0x40 MSTORE DUP1 SWAP3 SWAP2 SWAP1 DUP2 DUP2 MSTORE PUSH1 0x20 ADD DUP3 DUP1 SLOAD PUSH2 0xCF0 SWAP1 PUSH2 0x169E JUMP JUMPDEST DUP1 ISZERO PUSH2 0xD3D JUMPI DUP1 PUSH1 0x1F LT PUSH2 0xD12 JUMPI PUSH2 0x100 DUP1 DUP4 SLOAD DIV MUL DUP4 MSTORE SWAP2 PUSH1 0x20 ADD SWAP2 PUSH2 0xD3D JUMP JUMPDEST DUP3 ADD SWAP2 SWAP1 PUSH1 0x0 MSTORE PUSH1 0x20 PUSH1 0x0 KECCAK256 SWAP1 JUMPDEST DUP2 SLOAD DUP2 MSTORE SWAP1 PUSH1 0x1 ADD SWAP1 PUSH1 0x20 ADD DUP1 DUP4 GT PUSH2 0xD20 JUMPI DUP3 SWAP1 SUB PUSH1 0x1F AND DUP3 ADD SWAP2 JUMPDEST POP POP POP POP POP SWAP1 POP PUSH2 0xD4E DUP8 DUP3 PUSH2 0x117A JUMP JUMPDEST PUSH2 0xD58 JUMPI POP PUSH2 0xD7C JUMP JUMPDEST DUP4 DUP4 SUB PUSH2 0xD6C JUMPI DUP1 SWAP6 POP POP POP POP POP POP PUSH2 0xDCB JUMP JUMPDEST DUP3 DUP1 PUSH2 0xD77 SWAP1 PUSH2 0x1988 JUMP JUMPDEST SWAP4 POP POP POP JUMPDEST DUP1 DUP1 PUSH2 0xD87 SWAP1 PUSH2 0x1988 JUMP JUMPDEST SWAP2 POP POP PUSH2 0xC8C JUMP JUMPDEST POP PUSH1 0x40 MLOAD PUSH32 0x8C379A000000000000000000000000000000000000000000000000000000000 DUP2 MSTORE PUSH1 0x4 ADD PUSH2 0xDC2 SWAP1 PUSH2 0x1F05 JUMP JUMPDEST PUSH1 0x40 MLOAD DUP1 SWAP2 SUB SWAP1 REVERT JUMPDEST SWAP2 SWAP1 POP JUMP JUMPDEST PUSH1 0x0 DUP1 PUSH1 0x0 SWAP1 POP JUMPDEST DUP4 MLOAD DUP2 LT ISZERO PUSH2 0xE66 JUMPI DUP3 PUSH31 0xFFFFFFFFFFFFFFFFFFFFFFFFFFFFFFFFFFFFFFFFFFFFFFFFFFFFFFFFFFFFFF NOT AND DUP5 DUP3 DUP2 MLOAD DUP2 LT PUSH2 0xE17 JUMPI PUSH2 0xE16 PUSH2 0x17B8 JUMP JUMPDEST JUMPDEST PUSH1 0x20 ADD ADD MLOAD PUSH1 0xF8 SHR PUSH1 0xF8 SHL PUSH31 0xFFFFFFFFFFFFFFFFFFFFFFFFFFFFFFFFFFFFFFFFFFFFFFFFFFFFFFFFFFFFFF NOT AND SUB PUSH2 0xE53 JUMPI PUSH1 0x1 SWAP2 POP POP PUSH2 0xE6C JUMP JUMPDEST DUP1 DUP1 PUSH2 0xE5E SWAP1 PUSH2 0x1988 JUMP JUMPDEST SWAP2 POP POP PUSH2 0xDD8 JUMP JUMPDEST POP PUSH1 0x0 SWAP1 POP JUMPDEST SWAP3 SWAP2 POP POP JUMP JUMPDEST PUSH1 0x0 DUP1 DUP3 PUSH1 0xF8 SHR SWAP1 POP PUSH1 0x61 DUP2 PUSH1 0xFF AND LT DUP1 PUSH2 0xE90 JUMPI POP PUSH1 0x7A DUP2 PUSH1 0xFF AND GT JUMPDEST ISZERO PUSH2 0xE9F JUMPI PUSH1 0x0 SWAP2 POP POP PUSH2 0xEE3 JUMP JUMPDEST PUSH1 0x0 PUSH1 0x61 DUP3 PUSH2 0xEAE SWAP2 SWAP1 PUSH2 0x18DD JUMP JUMPDEST SWAP1 POP PUSH1 0x0 DUP2 PUSH1 0xFF AND PUSH1 0x1 PUSH4 0xFFFFFFFF AND SWAP1 SHL DUP7 PUSH1 0x2 ADD PUSH1 0x4 SWAP1 SLOAD SWAP1 PUSH2 0x100 EXP SWAP1 DIV PUSH4 0xFFFFFFFF AND AND PUSH4 0xFFFFFFFF AND EQ ISZERO SWAP3 POP POP POP JUMPDEST SWAP3 SWAP2 POP POP JUMP JUMPDEST PUSH1 0x0 DUP1 PUSH1 0x0 SWAP1 POP JUMPDEST DUP3 MLOAD DUP2 LT ISZERO PUSH2 0xF9F JUMPI PUSH32 0x5F00000000000000000000000000000000000000000000000000000000000000 PUSH31 0xFFFFFFFFFFFFFFFFFFFFFFFFFFFFFFFFFFFFFFFFFFFFFFFFFFFFFFFFFFFFFF NOT AND DUP4 DUP3 DUP2 MLOAD DUP2 LT PUSH2 0xF50 JUMPI PUSH2 0xF4F PUSH2 0x17B8 JUMP JUMPDEST JUMPDEST PUSH1 0x20 ADD ADD MLOAD PUSH1 0xF8 SHR PUSH1 0xF8 SHL PUSH31 0xFFFFFFFFFFFFFFFFFFFFFFFFFFFFFFFFFFFFFFFFFFFFFFFFFFFFFFFFFFFFFF NOT AND SUB PUSH2 0xF8C JUMPI PUSH1 0x1 SWAP2 POP POP PUSH2 0xFA5 JUMP JUMPDEST DUP1 DUP1 PUSH2 0xF97 SWAP1 PUSH2 0x1988 JUMP JUMPDEST SWAP2 POP POP PUSH2 0xEF1 JUMP JUMPDEST POP PUSH1 0x0 SWAP1 POP JUMPDEST SWAP2 SWAP1 POP JUMP JUMPDEST PUSH1 0x0 DUP1 PUSH1 0x1 PUSH1 0x4 PUSH1 0xA PUSH2 0xFBD SWAP2 SWAP1 PUSH2 0x18DD JUMP JUMPDEST PUSH2 0xFC7 SWAP2 SWAP1 PUSH2 0x1816 JUMP JUMPDEST PUSH1 0xFF AND SWAP1 POP PUSH1 0x0 PUSH1 0x1 NUMBER PUSH2 0xFDB SWAP2 SWAP1 PUSH2 0x1F25 JUMP JUMPDEST BLOCKHASH TIMESTAMP CALLER PUSH1 0x40 MLOAD PUSH1 0x20 ADD PUSH2 0xFF0 SWAP4 SWAP3 SWAP2 SWAP1 PUSH2 0x201F JUMP JUMPDEST PUSH1 0x40 MLOAD PUSH1 0x20 DUP2 DUP4 SUB SUB DUP2 MSTORE SWAP1 PUSH1 0x40 MSTORE DUP1 MLOAD SWAP1 PUSH1 0x20 ADD KECCAK256 PUSH1 0x0 SHR SWAP1 POP DUP2 DUP2 PUSH2 0x1017 SWAP2 SWAP1 PUSH2 0x208B JUMP JUMPDEST PUSH1 0x4 PUSH1 0xFF AND PUSH2 0x1026 SWAP2 SWAP1 PUSH2 0x20BC JUMP JUMPDEST SWAP3 POP POP POP SWAP1 JUMP JUMPDEST PUSH1 0x0 DUP1 PUSH1 0x0 SWAP1 POP PUSH1 0x0 JUMPDEST PUSH1 0x1 DUP1 SLOAD SWAP1 POP DUP2 LT ISZERO PUSH2 0x1121 JUMPI PUSH1 0x0 PUSH1 0x1 DUP3 DUP2 SLOAD DUP2 LT PUSH2 0x105A JUMPI PUSH2 0x1059 PUSH2 0x17B8 JUMP JUMPDEST JUMPDEST SWAP1 PUSH1 0x0 MSTORE PUSH1 0x20 PUSH1 0x0 KECCAK256 ADD DUP1 SLOAD PUSH2 0x106F SWAP1 PUSH2 0x169E JUMP JUMPDEST DUP1 PUSH1 0x1F ADD PUSH1 0x20 DUP1 SWAP2 DIV MUL PUSH1 0x20 ADD PUSH1 0x40 MLOAD SWAP1 DUP2 ADD PUSH1 0x40 MSTORE DUP1 SWAP3 SWAP2 SWAP1 DUP2 DUP2 MSTORE PUSH1 0x20 ADD DUP3 DUP1 SLOAD PUSH2 0x109B SWAP1 PUSH2 0x169E JUMP JUMPDEST DUP1 ISZERO PUSH2 0x10E8 JUMPI DUP1 PUSH1 0x1F LT PUSH2 0x10BD JUMPI PUSH2 0x100 DUP1 DUP4 SLOAD DIV MUL DUP4 MSTORE SWAP2 PUSH1 0x20 ADD SWAP2 PUSH2 0x10E8 JUMP JUMPDEST DUP3 ADD SWAP2 SWAP1 PUSH1 0x0 MSTORE PUSH1 0x20 PUSH1 0x0 KECCAK256 SWAP1 JUMPDEST DUP2 SLOAD DUP2 MSTORE SWAP1 PUSH1 0x1 ADD SWAP1 PUSH1 0x20 ADD DUP1 DUP4 GT PUSH2 0x10CB JUMPI DUP3 SWAP1 SUB PUSH1 0x1F AND DUP3 ADD SWAP2 JUMPDEST POP POP POP POP POP SWAP1 POP PUSH2 0x10F9 DUP6 DUP3 PUSH2 0x117A JUMP JUMPDEST ISZERO PUSH2 0x110D JUMPI DUP3 DUP1 PUSH2 0x1109 SWAP1 PUSH2 0x1988 JUMP JUMPDEST SWAP4 POP POP JUMPDEST POP DUP1 DUP1 PUSH2 0x1119 SWAP1 PUSH2 0x1988 JUMP JUMPDEST SWAP2 POP POP PUSH2 0x1037 JUMP JUMPDEST POP DUP1 SWAP2 POP POP SWAP2 SWAP1 POP JUMP JUMPDEST PUSH1 0x0 DUP2 PUSH1 0x1 NUMBER PUSH2 0x113B SWAP2 SWAP1 PUSH2 0x1F25 JUMP JUMPDEST BLOCKHASH TIMESTAMP CALLER PUSH1 0x40 MLOAD PUSH1 0x20 ADD PUSH2 0x1150 SWAP4 SWAP3 SWAP2 SWAP1 PUSH2 0x201F JUMP JUMPDEST PUSH1 0x40 MLOAD PUSH1 0x20 DUP2 DUP4 SUB SUB DUP2 MSTORE SWAP1 PUSH1 0x40 MSTORE DUP1 MLOAD SWAP1 PUSH1 0x20 ADD KECCAK256 PUSH1 0x0 SHR PUSH2 0x1173 SWAP2 SWAP1 PUSH2 0x208B JUMP JUMPDEST SWAP1 POP SWAP2 SWAP1 POP JUMP JUMPDEST PUSH1 0x0 DUP3 PUSH1 0x0 ADD PUSH1 0x1 SWAP1 SLOAD SWAP1 PUSH2 0x100 EXP SWAP1 DIV PUSH1 0xFF AND PUSH1 0xFF AND DUP3 MLOAD EQ PUSH2 0x11A1 JUMPI PUSH1 0x0 SWAP1 POP PUSH2 0x1363 JUMP JUMPDEST PUSH1 0x0 JUMPDEST DUP4 PUSH1 0x0 ADD PUSH1 0x1 SWAP1 SLOAD SWAP1 PUSH2 0x100 EXP SWAP1 DIV PUSH1 0xFF AND PUSH1 0xFF AND DUP2 LT ISZERO PUSH2 0x135D JUMPI PUSH1 0x0 DUP4 DUP3 DUP2 MLOAD DUP2 LT PUSH2 0x11D5 JUMPI PUSH2 0x11D4 PUSH2 0x17B8 JUMP JUMPDEST JUMPDEST PUSH1 0x20 ADD ADD MLOAD PUSH1 0xF8 SHR PUSH1 0xF8 SHL SWAP1 POP PUSH1 0x0 DUP6 PUSH1 0x1 ADD DUP4 DUP2 SLOAD PUSH2 0x11F4 SWAP1 PUSH2 0x169E JUMP JUMPDEST DUP2 LT PUSH2 0x1203 JUMPI PUSH2 0x1202 PUSH2 0x17B8 JUMP JUMPDEST JUMPDEST DUP2 SLOAD PUSH1 0x1 AND ISZERO PUSH2 0x1222 JUMPI SWAP1 PUSH1 0x0 MSTORE PUSH1 0x20 PUSH1 0x0 KECCAK256 SWAP1 PUSH1 0x20 SWAP2 DUP3 DUP3 DIV ADD SWAP2 SWAP1 MOD JUMPDEST SWAP1 SLOAD SWAP1 BYTE PUSH32 0x100000000000000000000000000000000000000000000000000000000000000 MUL SWAP1 POP PUSH2 0x1254 DUP7 DUP4 PUSH2 0x1369 JUMP JUMPDEST ISZERO PUSH2 0x1265 JUMPI PUSH1 0x0 SWAP4 POP POP POP POP PUSH2 0x1363 JUMP JUMPDEST PUSH32 0x5F00000000000000000000000000000000000000000000000000000000000000 PUSH31 0xFFFFFFFFFFFFFFFFFFFFFFFFFFFFFFFFFFFFFFFFFFFFFFFFFFFFFFFFFFFFFF NOT AND DUP2 PUSH31 0xFFFFFFFFFFFFFFFFFFFFFFFFFFFFFFFFFFFFFFFFFFFFFFFFFFFFFFFFFFFFFF NOT AND EQ PUSH2 0x132C JUMPI DUP1 PUSH31 0xFFFFFFFFFFFFFFFFFFFFFFFFFFFFFFFFFFFFFFFFFFFFFFFFFFFFFFFFFFFFFF NOT AND DUP3 PUSH31 0xFFFFFFFFFFFFFFFFFFFFFFFFFFFFFFFFFFFFFFFFFFFFFFFFFFFFFFFFFFFFFF NOT AND EQ PUSH2 0x1327 JUMPI PUSH1 0x0 SWAP4 POP POP POP POP PUSH2 0x1363 JUMP JUMPDEST PUSH2 0x1348 JUMP JUMPDEST PUSH2 0x1336 DUP7 DUP4 PUSH2 0xE72 JUMP JUMPDEST ISZERO PUSH2 0x1347 JUMPI PUSH1 0x0 SWAP4 POP POP POP POP PUSH2 0x1363 JUMP JUMPDEST JUMPDEST POP POP DUP1 DUP1 PUSH2 0x1355 SWAP1 PUSH2 0x1988 JUMP JUMPDEST SWAP2 POP POP PUSH2 0x11A4 JUMP JUMPDEST POP PUSH1 0x1 SWAP1 POP JUMPDEST SWAP3 SWAP2 POP POP JUMP JUMPDEST PUSH1 0x0 DUP1 DUP3 PUSH1 0xF8 SHR SWAP1 POP PUSH1 0x61 DUP2 PUSH1 0xFF AND LT DUP1 PUSH2 0x1387 JUMPI POP PUSH1 0x7A DUP2 PUSH1 0xFF AND GT JUMPDEST ISZERO PUSH2 0x1396 JUMPI PUSH1 0x0 SWAP2 POP POP PUSH2 0x13DA JUMP JUMPDEST PUSH1 0x0 PUSH1 0x61 DUP3 PUSH2 0x13A5 SWAP2 SWAP1 PUSH2 0x18DD JUMP JUMPDEST SWAP1 POP PUSH1 0x0 DUP2 PUSH1 0xFF AND PUSH1 0x1 PUSH4 0xFFFFFFFF AND SWAP1 SHL DUP7 PUSH1 0x2 ADD PUSH1 0x8 SWAP1 SLOAD SWAP1 PUSH2 0x100 EXP SWAP1 DIV PUSH4 0xFFFFFFFF AND AND PUSH4 0xFFFFFFFF AND EQ ISZERO SWAP3 POP POP POP JUMPDEST SWAP3 SWAP2 POP POP JUMP JUMPDEST PUSH32 0x4E487B7100000000000000000000000000000000000000000000000000000000 PUSH1 0x0 MSTORE PUSH1 0x21 PUSH1 0x4 MSTORE PUSH1 0x24 PUSH1 0x0 REVERT JUMPDEST PUSH1 0x4 DUP2 LT PUSH2 0x1420 JUMPI PUSH2 0x141F PUSH2 0x13E0 JUMP JUMPDEST JUMPDEST POP JUMP JUMPDEST PUSH1 0x0 DUP2 SWAP1 POP PUSH2 0x1431 DUP3 PUSH2 0x140F JUMP JUMPDEST SWAP2 SWAP1 POP JUMP JUMPDEST PUSH1 0x0 PUSH2 0x1441 DUP3 PUSH2 0x1423 JUMP JUMPDEST SWAP1 POP SWAP2 SWAP1 POP JUMP JUMPDEST PUSH2 0x1451 DUP2 PUSH2 0x1436 JUMP JUMPDEST DUP3 MSTORE POP POP JUMP JUMPDEST PUSH1 0x0 PUSH1 0xFF DUP3 AND SWAP1 POP SWAP2 SWAP1 POP JUMP JUMPDEST PUSH2 0x146D DUP2 PUSH2 0x1457 JUMP JUMPDEST DUP3 MSTORE POP POP JUMP JUMPDEST PUSH1 0x0 DUP2 MLOAD SWAP1 POP SWAP2 SWAP1 POP JUMP JUMPDEST PUSH1 0x0 DUP3 DUP3 MSTORE PUSH1 0x20 DUP3 ADD SWAP1 POP SWAP3 SWAP2 POP POP JUMP JUMPDEST PUSH1 0x0 JUMPDEST DUP4 DUP2 LT ISZERO PUSH2 0x14AD JUMPI DUP1 DUP3 ADD MLOAD DUP2 DUP5 ADD MSTORE PUSH1 0x20 DUP2 ADD SWAP1 POP PUSH2 0x1492 JUMP JUMPDEST PUSH1 0x0 DUP5 DUP5 ADD MSTORE POP POP POP POP JUMP JUMPDEST PUSH1 0x0 PUSH1 0x1F NOT PUSH1 0x1F DUP4 ADD AND SWAP1 POP SWAP2 SWAP1 POP JUMP JUMPDEST PUSH1 0x0 PUSH2 0x14D5 DUP3 PUSH2 0x1473 JUMP JUMPDEST PUSH2 0x14DF DUP2 DUP6 PUSH2 0x147E JUMP JUMPDEST SWAP4 POP PUSH2 0x14EF DUP2 DUP6 PUSH1 0x20 DUP7 ADD PUSH2 0x148F JUMP JUMPDEST PUSH2 0x14F8 DUP2 PUSH2 0x14B9 JUMP JUMPDEST DUP5 ADD SWAP2 POP POP SWAP3 SWAP2 POP POP JUMP JUMPDEST PUSH1 0x0 PUSH4 0xFFFFFFFF DUP3 AND SWAP1 POP SWAP2 SWAP1 POP JUMP JUMPDEST PUSH2 0x151C DUP2 PUSH2 0x1503 JUMP JUMPDEST DUP3 MSTORE POP POP JUMP JUMPDEST PUSH1 0x0 PUSH1 0xE0 DUP3 ADD SWAP1 POP PUSH2 0x1537 PUSH1 0x0 DUP4 ADD DUP11 PUSH2 0x1448 JUMP JUMPDEST PUSH2 0x1544 PUSH1 0x20 DUP4 ADD DUP10 PUSH2 0x1464 JUMP JUMPDEST PUSH2 0x1551 PUSH1 0x40 DUP4 ADD DUP9 PUSH2 0x1464 JUMP JUMPDEST DUP2 DUP2 SUB PUSH1 0x60 DUP4 ADD MSTORE PUSH2 0x1563 DUP2 DUP8 PUSH2 0x14CA JUMP JUMPDEST SWAP1 POP PUSH2 0x1572 PUSH1 0x80 DUP4 ADD DUP7 PUSH2 0x1513 JUMP JUMPDEST PUSH2 0x157F PUSH1 0xA0 DUP4 ADD DUP6 PUSH2 0x1513 JUMP JUMPDEST PUSH2 0x158C PUSH1 0xC0 DUP4 ADD DUP5 PUSH2 0x1513 JUMP JUMPDEST SWAP9 SWAP8 POP POP POP POP POP POP POP POP JUMP JUMPDEST PUSH1 0x0 PUSH1 0x20 DUP3 ADD SWAP1 POP PUSH2 0x15AD PUSH1 0x0 DUP4 ADD DUP5 PUSH2 0x1464 JUMP JUMPDEST SWAP3 SWAP2 POP POP JUMP JUMPDEST PUSH1 0x0 DUP1 REVERT JUMPDEST PUSH1 0x0 DUP1 REVERT JUMPDEST PUSH1 0x0 DUP1 REVERT JUMPDEST PUSH1 0x0 DUP1 REVERT JUMPDEST PUSH1 0x0 DUP1 REVERT JUMPDEST PUSH1 0x0 DUP1 DUP4 PUSH1 0x1F DUP5 ADD SLT PUSH2 0x15E2 JUMPI PUSH2 0x15E1 PUSH2 0x15BD JUMP JUMPDEST JUMPDEST DUP3 CALLDATALOAD SWAP1 POP PUSH8 0xFFFFFFFFFFFFFFFF DUP2 GT ISZERO PUSH2 0x15FF JUMPI PUSH2 0x15FE PUSH2 0x15C2 JUMP JUMPDEST JUMPDEST PUSH1 0x20 DUP4 ADD SWAP2 POP DUP4 PUSH1 0x1 DUP3 MUL DUP4 ADD GT ISZERO PUSH2 0x161B JUMPI PUSH2 0x161A PUSH2 0x15C7 JUMP JUMPDEST JUMPDEST SWAP3 POP SWAP3 SWAP1 POP JUMP JUMPDEST PUSH1 0x0 DUP1 PUSH1 0x20 DUP4 DUP6 SUB SLT ISZERO PUSH2 0x1639 JUMPI PUSH2 0x1638 PUSH2 0x15B3 JUMP JUMPDEST JUMPDEST PUSH1 0x0 DUP4 ADD CALLDATALOAD PUSH8 0xFFFFFFFFFFFFFFFF DUP2 GT ISZERO PUSH2 0x1657 JUMPI PUSH2 0x1656 PUSH2 0x15B8 JUMP JUMPDEST JUMPDEST PUSH2 0x1663 DUP6 DUP3 DUP7 ADD PUSH2 0x15CC JUMP JUMPDEST SWAP3 POP SWAP3 POP POP SWAP3 POP SWAP3 SWAP1 POP JUMP JUMPDEST PUSH32 0x4E487B7100000000000000000000000000000000000000000000000000000000 PUSH1 0x0 MSTORE PUSH1 0x22 PUSH1 0x4 MSTORE PUSH1 0x24 PUSH1 0x0 REVERT JUMPDEST PUSH1 0x0 PUSH1 0x2 DUP3 DIV SWAP1 POP PUSH1 0x1 DUP3 AND DUP1 PUSH2 0x16B6 JUMPI PUSH1 0x7F DUP3 AND SWAP2 POP JUMPDEST PUSH1 0x20 DUP3 LT DUP2 SUB PUSH2 0x16C9 JUMPI PUSH2 0x16C8 PUSH2 0x166F JUMP JUMPDEST JUMPDEST POP SWAP2 SWAP1 POP JUMP JUMPDEST PUSH1 0x0 DUP3 DUP3 MSTORE PUSH1 0x20 DUP3 ADD SWAP1 POP SWAP3 SWAP2 POP POP JUMP JUMPDEST PUSH32 0x6E6F206163746976652067616D65000000000000000000000000000000000000 PUSH1 0x0 DUP3 ADD MSTORE POP JUMP JUMPDEST PUSH1 0x0 PUSH2 0x1716 PUSH1 0xE DUP4 PUSH2 0x16CF JUMP JUMPDEST SWAP2 POP PUSH2 0x1721 DUP3 PUSH2 0x16E0 JUMP JUMPDEST PUSH1 0x20 DUP3 ADD SWAP1 POP SWAP2 SWAP1 POP JUMP JUMPDEST PUSH1 0x0 PUSH1 0x20 DUP3 ADD SWAP1 POP DUP2 DUP2 SUB PUSH1 0x0 DUP4 ADD MSTORE PUSH2 0x1745 DUP2 PUSH2 0x1709 JUMP JUMPDEST SWAP1 POP SWAP2 SWAP1 POP JUMP JUMPDEST PUSH32 0x656E7465722065786163746C79206F6E65206368617261637465720000000000 PUSH1 0x0 DUP3 ADD MSTORE POP JUMP JUMPDEST PUSH1 0x0 PUSH2 0x1782 PUSH1 0x1B DUP4 PUSH2 0x16CF JUMP JUMPDEST SWAP2 POP PUSH2 0x178D DUP3 PUSH2 0x174C JUMP JUMPDEST PUSH1 0x20 DUP3 ADD SWAP1 POP SWAP2 SWAP1 POP JUMP JUMPDEST PUSH1 0x0 PUSH1 0x20 DUP3 ADD SWAP1 POP DUP2 DUP2 SUB PUSH1 0x0 DUP4 ADD MSTORE PUSH2 0x17B1 DUP2 PUSH2 0x1775 JUMP JUMPDEST SWAP1 POP SWAP2 SWAP1 POP JUMP JUMPDEST PUSH32 0x4E487B7100000000000000000000000000000000000000000000000000000000 PUSH1 0x0 MSTORE PUSH1 0x32 PUSH1 0x4 MSTORE PUSH1 0x24 PUSH1 0x0 REVERT JUMPDEST PUSH32 0x4E487B7100000000000000000000000000000000000000000000000000000000 PUSH1 0x0 MSTORE PUSH1 0x11 PUSH1 0x4 MSTORE PUSH1 0x24 PUSH1 0x0 REVERT JUMPDEST PUSH1 0x0 PUSH2 0x1821 DUP3 PUSH2 0x1457 JUMP JUMPDEST SWAP2 POP PUSH2 0x182C DUP4 PUSH2 0x1457 JUMP JUMPDEST SWAP3 POP DUP3 DUP3 ADD SWAP1 POP PUSH1 0xFF DUP2 GT ISZERO PUSH2 0x1845 JUMPI PUSH2 0x1844 PUSH2 0x17E7 JUMP JUMPDEST JUMPDEST SWAP3 SWAP2 POP POP JUMP JUMPDEST PUSH32 0x696E707574206D75737420626520612073696E676C65206C657474657220612D PUSH1 0x0 DUP3 ADD MSTORE PUSH32 0x7A00000000000000000000000000000000000000000000000000000000000000 PUSH1 0x20 DUP3 ADD MSTORE POP JUMP JUMPDEST PUSH1 0x0 PUSH2 0x18A7 PUSH1 0x21 DUP4 PUSH2 0x16CF JUMP JUMPDEST SWAP2 POP PUSH2 0x18B2 DUP3 PUSH2 0x184B JUMP JUMPDEST PUSH1 0x40 DUP3 ADD SWAP1 POP SWAP2 SWAP1 POP JUMP JUMPDEST PUSH1 0x0 PUSH1 0x20 DUP3 ADD SWAP1 POP DUP2 DUP2 SUB PUSH1 0x0 DUP4 ADD MSTORE PUSH2 0x18D6 DUP2 PUSH2 0x189A JUMP JUMPDEST SWAP1 POP SWAP2 SWAP1 POP JUMP JUMPDEST PUSH1 0x0 PUSH2 0x18E8 DUP3 PUSH2 0x1457 JUMP JUMPDEST SWAP2 POP PUSH2 0x18F3 DUP4 PUSH2 0x1457 JUMP JUMPDEST SWAP3 POP DUP3 DUP3 SUB SWAP1 POP PUSH1 0xFF DUP2 GT ISZERO PUSH2 0x190C JUMPI PUSH2 0x190B PUSH2 0x17E7 JUMP JUMPDEST JUMPDEST SWAP3 SWAP2 POP POP JUMP JUMPDEST PUSH32 0x6C657474657220616C7265616479206775657373656400000000000000000000 PUSH1 0x0 DUP3 ADD MSTORE POP JUMP JUMPDEST PUSH1 0x0 PUSH2 0x1948 PUSH1 0x16 DUP4 PUSH2 0x16CF JUMP JUMPDEST SWAP2 POP PUSH2 0x1953 DUP3 PUSH2 0x1912 JUMP JUMPDEST PUSH1 0x20 DUP3 ADD SWAP1 POP SWAP2 SWAP1 POP JUMP JUMPDEST PUSH1 0x0 PUSH1 0x20 DUP3 ADD SWAP1 POP DUP2 DUP2 SUB PUSH1 0x0 DUP4 ADD MSTORE PUSH2 0x1977 DUP2 PUSH2 0x193B JUMP JUMPDEST SWAP1 POP SWAP2 SWAP1 POP JUMP JUMPDEST PUSH1 0x0 DUP2 SWAP1 POP SWAP2 SWAP1 POP JUMP JUMPDEST PUSH1 0x0 PUSH2 0x1993 DUP3 PUSH2 0x197E JUMP JUMPDEST SWAP2 POP PUSH32 0xFFFFFFFFFFFFFFFFFFFFFFFFFFFFFFFFFFFFFFFFFFFFFFFFFFFFFFFFFFFFFFFF DUP3 SUB PUSH2 0x19C5 JUMPI PUSH2 0x19C4 PUSH2 0x17E7 JUMP JUMPDEST JUMPDEST PUSH1 0x1 DUP3 ADD SWAP1 POP SWAP2 SWAP1 POP JUMP JUMPDEST PUSH1 0x0 PUSH32 0xFF00000000000000000000000000000000000000000000000000000000000000 DUP3 AND SWAP1 POP SWAP2 SWAP1 POP JUMP JUMPDEST PUSH2 0x1A05 DUP2 PUSH2 0x19D0 JUMP JUMPDEST DUP3 MSTORE POP POP JUMP JUMPDEST PUSH1 0x0 DUP2 ISZERO ISZERO SWAP1 POP SWAP2 SWAP1 POP JUMP JUMPDEST PUSH2 0x1A20 DUP2 PUSH2 0x1A0B JUMP JUMPDEST DUP3 MSTORE POP POP JUMP JUMPDEST PUSH1 0x0 DUP2 SWAP1 POP DUP2 PUSH1 0x0 MSTORE PUSH1 0x20 PUSH1 0x0 KECCAK256 SWAP1 POP SWAP2 SWAP1 POP JUMP JUMPDEST PUSH1 0x0 DUP2 SLOAD PUSH2 0x1A48 DUP2 PUSH2 0x169E JUMP JUMPDEST PUSH2 0x1A52 DUP2 DUP7 PUSH2 0x147E JUMP JUMPDEST SWAP5 POP PUSH1 0x1 DUP3 AND PUSH1 0x0 DUP2 EQ PUSH2 0x1A6D JUMPI PUSH1 0x1 DUP2 EQ PUSH2 0x1A83 JUMPI PUSH2 0x1AB6 JUMP JUMPDEST PUSH1 0xFF NOT DUP4 AND DUP7 MSTORE DUP2 ISZERO ISZERO PUSH1 0x20 MUL DUP7 ADD SWAP4 POP PUSH2 0x1AB6 JUMP JUMPDEST PUSH2 0x1A8C DUP6 PUSH2 0x1A26 JUMP JUMPDEST PUSH1 0x0 JUMPDEST DUP4 DUP2 LT ISZERO PUSH2 0x1AAE JUMPI DUP2 SLOAD DUP2 DUP10 ADD MSTORE PUSH1 0x1 DUP3 ADD SWAP2 POP PUSH1 0x20 DUP2 ADD SWAP1 POP PUSH2 0x1A8F JUMP JUMPDEST DUP1 DUP9 ADD SWAP6 POP POP POP JUMPDEST POP POP POP SWAP3 SWAP2 POP POP JUMP JUMPDEST PUSH1 0x0 PUSH1 0xA0 DUP3 ADD SWAP1 POP PUSH2 0x1AD4 PUSH1 0x0 DUP4 ADD DUP9 PUSH2 0x19FC JUMP JUMPDEST PUSH2 0x1AE1 PUSH1 0x20 DUP4 ADD DUP8 PUSH2 0x1A17 JUMP JUMPDEST DUP2 DUP2 SUB PUSH1 0x40 DUP4 ADD MSTORE PUSH2 0x1AF3 DUP2 DUP7 PUSH2 0x1A3B JUMP JUMPDEST SWAP1 POP PUSH2 0x1B02 PUSH1 0x60 DUP4 ADD DUP6 PUSH2 0x1464 JUMP JUMPDEST PUSH2 0x1B0F PUSH1 0x80 DUP4 ADD DUP5 PUSH2 0x1448 JUMP JUMPDEST SWAP7 SWAP6 POP POP POP POP POP POP JUMP JUMPDEST PUSH32 0x67616D6520616C72656164792061637469766500000000000000000000000000 PUSH1 0x0 DUP3 ADD MSTORE POP JUMP JUMPDEST PUSH1 0x0 PUSH2 0x1B4F PUSH1 0x13 DUP4 PUSH2 0x16CF JUMP JUMPDEST SWAP2 POP PUSH2 0x1B5A DUP3 PUSH2 0x1B19 JUMP JUMPDEST PUSH1 0x20 DUP3 ADD SWAP1 POP SWAP2 SWAP1 POP JUMP JUMPDEST PUSH1 0x0 PUSH1 0x20 DUP3 ADD SWAP1 POP DUP2 DUP2 SUB PUSH1 0x0 DUP4 ADD MSTORE PUSH2 0x1B7E DUP2 PUSH2 0x1B42 JUMP JUMPDEST SWAP1 POP SWAP2 SWAP1 POP JUMP JUMPDEST PUSH32 0x4E487B7100000000000000000000000000000000000000000000000000000000 PUSH1 0x0 MSTORE PUSH1 0x41 PUSH1 0x4 MSTORE PUSH1 0x24 PUSH1 0x0 REVERT JUMPDEST PUSH1 0x0 PUSH1 0x20 PUSH1 0x1F DUP4 ADD DIV SWAP1 POP SWAP2 SWAP1 POP JUMP JUMPDEST PUSH1 0x0 DUP3 DUP3 SHL SWAP1 POP SWAP3 SWAP2 POP POP JUMP JUMPDEST PUSH1 0x0 PUSH1 0x8 DUP4 MUL PUSH2 0x1C01 PUSH32 0xFFFFFFFFFFFFFFFFFFFFFFFFFFFFFFFFFFFFFFFFFFFFFFFFFFFFFFFFFFFFFFFF DUP3 PUSH2 0x1BC4 JUMP JUMPDEST PUSH2 0x1C0B DUP7 DUP4 PUSH2 0x1BC4 JUMP JUMPDEST SWAP6 POP DUP1 NOT DUP5 AND SWAP4 POP DUP1 DUP7 AND DUP5 OR SWAP3 POP POP POP SWAP4 SWAP3 POP POP POP JUMP JUMPDEST PUSH1 0x0 DUP2 SWAP1 POP SWAP2 SWAP1 POP JUMP JUMPDEST PUSH1 0x0 PUSH2 0x1C48 PUSH2 0x1C43 PUSH2 0x1C3E DUP5 PUSH2 0x197E JUMP JUMPDEST PUSH2 0x1C23 JUMP JUMPDEST PUSH2 0x197E JUMP JUMPDEST SWAP1 POP SWAP2 SWAP1 POP JUMP JUMPDEST PUSH1 0x0 DUP2 SWAP1 POP SWAP2 SWAP1 POP JUMP JUMPDEST PUSH2 0x1C62 DUP4 PUSH2 0x1C2D JUMP JUMPDEST PUSH2 0x1C76 PUSH2 0x1C6E DUP3 PUSH2 0x1C4F JUMP JUMPDEST DUP5 DUP5 SLOAD PUSH2 0x1BD1 JUMP JUMPDEST DUP3 SSTORE POP POP POP POP JUMP JUMPDEST PUSH1 0x0 SWAP1 JUMP JUMPDEST PUSH2 0x1C8B PUSH2 0x1C7E JUMP JUMPDEST PUSH2 0x1C96 DUP2 DUP5 DUP5 PUSH2 0x1C59 JUMP JUMPDEST POP POP POP JUMP JUMPDEST JUMPDEST DUP2 DUP2 LT ISZERO PUSH2 0x1CBA JUMPI PUSH2 0x1CAF PUSH1 0x0 DUP3 PUSH2 0x1C83 JUMP JUMPDEST PUSH1 0x1 DUP2 ADD SWAP1 POP PUSH2 0x1C9C JUMP JUMPDEST POP POP JUMP JUMPDEST PUSH1 0x1F DUP3 GT ISZERO PUSH2 0x1CFF JUMPI PUSH2 0x1CD0 DUP2 PUSH2 0x1A26 JUMP JUMPDEST PUSH2 0x1CD9 DUP5 PUSH2 0x1BB4 JUMP JUMPDEST DUP2 ADD PUSH1 0x20 DUP6 LT ISZERO PUSH2 0x1CE8 JUMPI DUP2 SWAP1 POP JUMPDEST PUSH2 0x1CFC PUSH2 0x1CF4 DUP6 PUSH2 0x1BB4 JUMP JUMPDEST DUP4 ADD DUP3 PUSH2 0x1C9B JUMP JUMPDEST POP POP JUMPDEST POP POP POP JUMP JUMPDEST PUSH1 0x0 DUP3 DUP3 SHR SWAP1 POP SWAP3 SWAP2 POP POP JUMP JUMPDEST PUSH1 0x0 PUSH2 0x1D22 PUSH1 0x0 NOT DUP5 PUSH1 0x8 MUL PUSH2 0x1D04 JUMP JUMPDEST NOT DUP1 DUP4 AND SWAP2 POP POP SWAP3 SWAP2 POP POP JUMP JUMPDEST PUSH1 0x0 PUSH2 0x1D3B DUP4 DUP4 PUSH2 0x1D11 JUMP JUMPDEST SWAP2 POP DUP3 PUSH1 0x2 MUL DUP3 OR SWAP1 POP SWAP3 SWAP2 POP POP JUMP JUMPDEST PUSH2 0x1D54 DUP3 PUSH2 0x1473 JUMP JUMPDEST PUSH8 0xFFFFFFFFFFFFFFFF DUP2 GT ISZERO PUSH2 0x1D6D JUMPI PUSH2 0x1D6C PUSH2 0x1B85 JUMP JUMPDEST JUMPDEST PUSH2 0x1D77 DUP3 SLOAD PUSH2 0x169E JUMP JUMPDEST PUSH2 0x1D82 DUP3 DUP3 DUP6 PUSH2 0x1CBE JUMP JUMPDEST PUSH1 0x0 PUSH1 0x20 SWAP1 POP PUSH1 0x1F DUP4 GT PUSH1 0x1 DUP2 EQ PUSH2 0x1DB5 JUMPI PUSH1 0x0 DUP5 ISZERO PUSH2 0x1DA3 JUMPI DUP3 DUP8 ADD MLOAD SWAP1 POP JUMPDEST PUSH2 0x1DAD DUP6 DUP3 PUSH2 0x1D2F JUMP JUMPDEST DUP7 SSTORE POP PUSH2 0x1E15 JUMP JUMPDEST PUSH1 0x1F NOT DUP5 AND PUSH2 0x1DC3 DUP7 PUSH2 0x1A26 JUMP JUMPDEST PUSH1 0x0 JUMPDEST DUP3 DUP2 LT ISZERO PUSH2 0x1DEB JUMPI DUP5 DUP10 ADD MLOAD DUP3 SSTORE PUSH1 0x1 DUP3 ADD SWAP2 POP PUSH1 0x20 DUP6 ADD SWAP5 POP PUSH1 0x20 DUP2 ADD SWAP1 POP PUSH2 0x1DC6 JUMP JUMPDEST DUP7 DUP4 LT ISZERO PUSH2 0x1E08 JUMPI DUP5 DUP10 ADD MLOAD PUSH2 0x1E04 PUSH1 0x1F DUP10 AND DUP3 PUSH2 0x1D11 JUMP JUMPDEST DUP4 SSTORE POP JUMPDEST PUSH1 0x1 PUSH1 0x2 DUP9 MUL ADD DUP9 SSTORE POP POP POP JUMPDEST POP POP POP POP POP POP JUMP JUMPDEST PUSH1 0x0 PUSH1 0x40 DUP3 ADD SWAP1 POP PUSH2 0x1E32 PUSH1 0x0 DUP4 ADD DUP6 PUSH2 0x1464 JUMP JUMPDEST DUP2 DUP2 SUB PUSH1 0x20 DUP4 ADD MSTORE PUSH2 0x1E44 DUP2 DUP5 PUSH2 0x1A3B JUMP JUMPDEST SWAP1 POP SWAP4 SWAP3 POP POP POP JUMP JUMPDEST PUSH32 0x6E6F2076616C696420776F726473000000000000000000000000000000000000 PUSH1 0x0 DUP3 ADD MSTORE POP JUMP JUMPDEST PUSH1 0x0 PUSH2 0x1E83 PUSH1 0xE DUP4 PUSH2 0x16CF JUMP JUMPDEST SWAP2 POP PUSH2 0x1E8E DUP3 PUSH2 0x1E4D JUMP JUMPDEST PUSH1 0x20 DUP3 ADD SWAP1 POP SWAP2 SWAP1 POP JUMP JUMPDEST PUSH1 0x0 PUSH1 0x20 DUP3 ADD SWAP1 POP DUP2 DUP2 SUB PUSH1 0x0 DUP4 ADD MSTORE PUSH2 0x1EB2 DUP2 PUSH2 0x1E76 JUMP JUMPDEST SWAP1 POP SWAP2 SWAP1 POP JUMP JUMPDEST PUSH32 0x63616E6469646174652073656C656374696F6E206661696C6564000000000000 PUSH1 0x0 DUP3 ADD MSTORE POP JUMP JUMPDEST PUSH1 0x0 PUSH2 0x1EEF PUSH1 0x1A DUP4 PUSH2 0x16CF JUMP JUMPDEST SWAP2 POP PUSH2 0x1EFA DUP3 PUSH2 0x1EB9 JUMP JUMPDEST PUSH1 0x20 DUP3 ADD SWAP1 POP SWAP2 SWAP1 POP JUMP JUMPDEST PUSH1 0x0 PUSH1 0x20 DUP3 ADD SWAP1 POP DUP2 DUP2 SUB PUSH1 0x0 DUP4 ADD MSTORE PUSH2 0x1F1E DUP2 PUSH2 0x1EE2 JUMP JUMPDEST SWAP1 POP SWAP2 SWAP1 POP JUMP JUMPDEST PUSH1 0x0 PUSH2 0x1F30 DUP3 PUSH2 0x197E JUMP JUMPDEST SWAP2 POP PUSH2 0x1F3B DUP4 PUSH2 0x197E JUMP JUMPDEST SWAP3 POP DUP3 DUP3 SUB SWAP1 POP DUP2 DUP2 GT ISZERO PUSH2 0x1F53 JUMPI PUSH2 0x1F52 PUSH2 0x17E7 JUMP JUMPDEST JUMPDEST SWAP3 SWAP2 POP POP JUMP JUMPDEST PUSH1 0x0 DUP2 SWAP1 POP SWAP2 SWAP1 POP JUMP JUMPDEST PUSH1 0x0 DUP2 SWAP1 POP SWAP2 SWAP1 POP JUMP JUMPDEST PUSH2 0x1F7E PUSH2 0x1F79 DUP3 PUSH2 0x1F59 JUMP JUMPDEST PUSH2 0x1F63 JUMP JUMPDEST DUP3 MSTORE POP POP JUMP JUMPDEST PUSH1 0x0 DUP2 SWAP1 POP SWAP2 SWAP1 POP JUMP JUMPDEST PUSH2 0x1F9F PUSH2 0x1F9A DUP3 PUSH2 0x197E JUMP JUMPDEST PUSH2 0x1F84 JUMP JUMPDEST DUP3 MSTORE POP POP JUMP JUMPDEST PUSH1 0x0 PUSH20 0xFFFFFFFFFFFFFFFFFFFFFFFFFFFFFFFFFFFFFFFF DUP3 AND SWAP1 POP SWAP2 SWAP1 POP JUMP JUMPDEST PUSH1 0x0 PUSH2 0x1FD0 DUP3 PUSH2 0x1FA5 JUMP JUMPDEST SWAP1 POP SWAP2 SWAP1 POP JUMP JUMPDEST PUSH1 0x0 DUP2 PUSH1 0x60 SHL SWAP1 POP SWAP2 SWAP1 POP JUMP JUMPDEST PUSH1 0x0 PUSH2 0x1FEF DUP3 PUSH2 0x1FD7 JUMP JUMPDEST SWAP1 POP SWAP2 SWAP1 POP JUMP JUMPDEST PUSH1 0x0 PUSH2 0x2001 DUP3 PUSH2 0x1FE4 JUMP JUMPDEST SWAP1 POP SWAP2 SWAP1 POP JUMP JUMPDEST PUSH2 0x2019 PUSH2 0x2014 DUP3 PUSH2 0x1FC5 JUMP JUMPDEST PUSH2 0x1FF6 JUMP JUMPDEST DUP3 MSTORE POP POP JUMP JUMPDEST PUSH1 0x0 PUSH2 0x202B DUP3 DUP7 PUSH2 0x1F6D JUMP JUMPDEST PUSH1 0x20 DUP3 ADD SWAP2 POP PUSH2 0x203B DUP3 DUP6 PUSH2 0x1F8E JUMP JUMPDEST PUSH1 0x20 DUP3 ADD SWAP2 POP PUSH2 0x204B DUP3 DUP5 PUSH2 0x2008 JUMP JUMPDEST PUSH1 0x14 DUP3 ADD SWAP2 POP DUP2 SWAP1 POP SWAP5 SWAP4 POP POP POP POP JUMP JUMPDEST PUSH32 0x4E487B7100000000000000000000000000000000000000000000000000000000 PUSH1 0x0 MSTORE PUSH1 0x12 PUSH1 0x4 MSTORE PUSH1 0x24 PUSH1 0x0 REVERT JUMPDEST PUSH1 0x0 PUSH2 0x2096 DUP3 PUSH2 0x197E JUMP JUMPDEST SWAP2 POP PUSH2 0x20A1 DUP4 PUSH2 0x197E JUMP JUMPDEST SWAP3 POP DUP3 PUSH2 0x20B1 JUMPI PUSH2 0x20B0 PUSH2 0x205C JUMP JUMPDEST JUMPDEST DUP3 DUP3 MOD SWAP1 POP SWAP3 SWAP2 POP POP JUMP JUMPDEST PUSH1 0x0 PUSH2 0x20C7 DUP3 PUSH2 0x197E JUMP JUMPDEST SWAP2 POP PUSH2 0x20D2 DUP4 PUSH2 0x197E JUMP JUMPDEST SWAP3 POP DUP3 DUP3 ADD SWAP1 POP DUP1 DUP3 GT ISZERO PUSH2 0x20EA JUMPI PUSH2 0x20E9 PUSH2 0x17E7 JUMP JUMPDEST JUMPDEST SWAP3 SWAP2 POP POP JUMP INVALID LOG2 PUSH5 0x6970667358 0x22 SLT KECCAK256 SWAP10 0x2A 0xCC RETURNDATASIZE SWAP14 0x2A 0xE7 0xFB 0x4B 0xD1 CREATE SSTORE SWAP10 0xAD PUSH28 0xE896289EDA16FF7FDDB530C5DE512E6B0164736F6C63430008130033 "
		},
		"gasEstimates": {
			"creation": {
				"codeDepositCost": "1697200",
				"executionCost": "infinite",
				"totalCost": "infinite"
			},
			"external": {
				"MAX_LEN()": "335",
				"MAX_WRONG_GUESSES()": "423",
				"MIN_LEN()": "379",
				"getMyGame()": "infinite",
				"guessLetter(string)": "infinite",
				"startGame()": "infinite"
			},
			"internal": {
				"_contains(bytes memory,bytes1)": "infinite",
				"_countCandidates(struct Hangman.Game storage pointer)": "infinite",
				"_hasUnrevealed(bytes memory)": "infinite",
				"_isCorrectLetter(struct Hangman.Game storage pointer,bytes1)": "infinite",
				"_isWrongLetter(struct Hangman.Game storage pointer,bytes1)": "infinite",
				"_matchesConstraints(struct Hangman.Game storage pointer,bytes memory)": "infinite",
				"_pickRandomCandidate(struct Hangman.Game storage pointer)": "infinite",
				"_rand(uint256)": "infinite",
				"_randomLength()": "infinite"
			}
		},
		"methodIdentifiers": {
			"MAX_LEN()": "5d0797c0",
			"MAX_WRONG_GUESSES()": "f77ea683",
			"MIN_LEN()": "81196481",
			"getMyGame()": "02056c8b",
			"guessLetter(string)": "662a6559",
			"startGame()": "d65ab5f2"
		}
	},
	"abi": [
		{
			"anonymous": false,
			"inputs": [
				{
					"indexed": true,
					"internalType": "address",
					"name": "player",
					"type": "address"
				},
				{
					"indexed": false,
					"internalType": "uint8",
					"name": "length",
					"type": "uint8"
				},
				{
					"indexed": false,
					"internalType": "bytes",
					"name": "mask",
					"type": "bytes"
				}
			],
			"name": "GameStarted",
			"type": "event"
		},
		{
			"anonymous": false,
			"inputs": [
				{
					"indexed": true,
					"internalType": "address",
					"name": "player",
					"type": "address"
				},
				{
					"indexed": false,
					"internalType": "bytes1",
					"name": "letter",
					"type": "bytes1"
				},
				{
					"indexed": false,
					"internalType": "bool",
					"name": "correct",
					"type": "bool"
				},
				{
					"indexed": false,
					"internalType": "bytes",
					"name": "mask",
					"type": "bytes"
				},
				{
					"indexed": false,
					"internalType": "uint8",
					"name": "wrongGuesses",
					"type": "uint8"
				},
				{
					"indexed": false,
					"internalType": "enum Hangman.Status",
					"name": "status",
					"type": "uint8"
				}
			],
			"name": "LetterGuessed",
			"type": "event"
		},
		{
			"inputs": [],
			"name": "MAX_LEN",
			"outputs": [
				{
					"internalType": "uint8",
					"name": "",
					"type": "uint8"
				}
			],
			"stateMutability": "view",
			"type": "function"
		},
		{
			"inputs": [],
			"name": "MAX_WRONG_GUESSES",
			"outputs": [
				{
					"internalType": "uint8",
					"name": "",
					"type": "uint8"
				}
			],
			"stateMutability": "view",
			"type": "function"
		},
		{
			"inputs": [],
			"name": "MIN_LEN",
			"outputs": [
				{
					"internalType": "uint8",
					"name": "",
					"type": "uint8"
				}
			],
			"stateMutability": "view",
			"type": "function"
		},
		{
			"inputs": [],
			"name": "getMyGame",
			"outputs": [
				{
					"internalType": "enum Hangman.Status",
					"name": "status",
					"type": "uint8"
				},
				{
					"internalType": "uint8",
					"name": "length",
					"type": "uint8"
				},
				{
					"internalType": "uint8",
					"name": "wrongGuesses",
					"type": "uint8"
				},
				{
					"internalType": "bytes",
					"name": "mask",
					"type": "bytes"
				},
				{
					"internalType": "uint32",
					"name": "guessedMask",
					"type": "uint32"
				},
				{
					"internalType": "uint32",
					"name": "correctMask",
					"type": "uint32"
				},
				{
					"internalType": "uint32",
					"name": "wrongMask",
					"type": "uint32"
				}
			],
			"stateMutability": "view",
			"type": "function"
		},
		{
			"inputs": [
				{
					"internalType": "string",
					"name": "_letter",
					"type": "string"
				}
			],
			"name": "guessLetter",
			"outputs": [],
			"stateMutability": "nonpayable",
			"type": "function"
		},
		{
			"inputs": [],
			"name": "startGame",
			"outputs": [],
			"stateMutability": "nonpayable",
			"type": "function"
		}
	]
}